:020000040800F2
:10000000402A0020A9010008B1010008B30100083E
:10001000B5010008B7010008B901000800000000A0
:10002000000000000000000000000000BB0100080C
:10003000BD01000800000000BF010008B551000824
:10004000C3010008C3010008C3010008C301000880
:10005000C3010008C3010008C3010008C301000870
:10006000C3010008C3010008C3010008C301000860
:10007000C3010008C3010008C3010008C301000850
:100080005D10000869100008390B0008000000002E
:10009000000000000000000000000000C301000894
:1000A0007952000885520008C3010008C301000806
:1000B0009152000819530008C3010008C301000849
:1000C000C3010008C3010008C3010008C301000800
:1000D000C3010008C30100089D5A00080000000089
:1000E00005120008C3010008C30100080000000059
:1000F000000000000000000000000000C301000834
:1001000000000000C3010008E1530008C30100081B
:1001100000000000000000000000000000000000DF
:1001200075100008C3010008C3010008C3010008DE
:10013000C3010008000000000000000000000000F3
:10014000000000000000000000000000C3010008E3
:10015000C3010008C3010008C3010008C30100086F
:10016000C3010008C30100080000000000000000F7
:10017000000000000000000000000000000000007F
:1001800000000000C30100080000000000000000A3
:10019000C3010008DFF80CD000F056FB0048004710
:1001A000195F0008402A002006488047064800479B
:1001B000FEE7FEE7FEE7FEE7FEE7FEE7FEE7FEE717
:1001C000FEE7FEE75D520008950100082DE9F05FAB
:1001D0000546002092469B468846064681464024B6
:1001E0001BE0284641464746224600F036FA534671
:1001F0005A46C01A914110D311461846224600F0C3
:100200001DFA2D1A67EB01084F46224601200021F6
:1002100000F014FA17EB00094E41201EA4F101046E
:10022000DFDC484631462A464346BDE8F09FD2B25D
:1002300001E000F8012B491EFBD270470022F6E7CF
:1002400010B513460A4604461946FFF7F0FF20464C
:1002500010BD2DE9FE4F804681EA0300C00F0C4619
:10026000009021F0004123F00045B8EB0200A941C5
:1002700005D24046214690461C460B46024623F0D6
:100280000040104347D0270DC7F30A00C3F30A51BB
:100290000290401A019040286BDAC3F3130040F437
:1002A000801B0098924620B10023D2EB030A63EB37
:1002B0000B0B01985946C0F14002504600F0BEF9C0
:1002C00006460D4650465946019A00F0D6F910EB05
:1002D00008006141002487EA115284EAE7731A4357
:1002E00040D0009A62B3019A012A4FEA075215DC06
:1002F000001B61EB02014FF0004202EA0752CDE918
:100300000042001C41F5801132462B4600F036FABF
:1003100003B0BDE8F08F40462146F9E7001B61EBD2
:100320000201001C41F5801300185B412018A2F562
:10033000001747EB030140EAD570B6196D4111E093
:100340006D084FEA360645EAC0754FEA0752001BB2
:1003500061EB0201001C41F5801149084FEA3000B1
:100360000019514132462B4603B0BDE8F04F00F072
:10037000F6B90098012240000023D0EB020263EBA3
:10038000E073009821464FEAE074B8EB000061EB9F
:100390000401E9E783F000435BE781F0004158E79F
:1003A0002DE9FE4F81EA030404F0004421F00041EE
:1003B00000944FF0000B23F0004350EA01045ED09C
:1003C00052EA03045BD0C3F30A54C1F30A552C4428
:1003D000A4F2F3340194A0FB0254C1F3130141F4DD
:1003E0008011C3F3130343F4801301FB024400FBA9
:1003F000034E840A970A44EA815447EA8357A4FBD0
:10040000076802958D0A05FB07854FEA932C04FBCC
:100410000C542705029D4FEA065847EA1637B5EBFC
:1004200008056EEB070C870E920E47EA811742EA29
:100430008312A7FB0201B6EB0B0164EB00042B0D4A
:1004400043EA0C335E1844EB1C50DA465146E7FB96
:100450000201C5F313044FEA0B3343EA14534FEA86
:100460000432019C43EA0603A4F10C040294009CAC
:10047000CDE900B400F082F903B0BDE8F08F0020B0
:100480000146F9E72DE9F04D81EA030404F0004B41
:1004900021F0004514464FF0000A23F0004150EAD5
:1004A000050220D054EA01021DD0C5F30A570246C6
:1004B000C5F31303C1F31300C1F30A5640F48015CA
:1004C00043F48013A7EB0608101BD64608F2FD384C
:1004D00073EB050002D308F1010801E092185B41BB
:1004E000B8F1000F03DA00200146BDE8F08D0020CE
:1004F0004FF48011064684460EE0171B73EB050788
:1005000005D3121B63EB050306434CEA010C4908B3
:100510004FEA300092185B4150EA0107EDD152EAF0
:10052000030012D082EA040083EA0501084305D0E3
:10053000101BAB4106D20122002306E000224FF03F
:10054000004302E06FF0010253101AEB06004CEB7F
:10055000085110EB0A0041EB0B01BDE8F04D00F033
:10056000FEB80EB540F2334102910021CDE90011F1
:100570000A460B4600F002F903B000BDC1F30A526F
:1005800010B5C1F3130140F2FF3341F480119A42D8
:1005900001DA002010BD40F233439A42A2F2334206
:1005A00003DC524200F059F810BD904010BD00F03D
:1005B000004230F000400AD0C10D01F56071C0F377
:1005C000160042EA0151C20840071143704700205B
:1005D0000146704730B5041E71F1000404DB4FF092
:1005E0000044404264EB0101141E73F1000405DB7A
:1005F0001C464FF00043524263EB04038B4208BF9A
:10060000824230BD01F0004330B421F0004150EA95
:10061000010206D00A0DA2F56072C1F31301002A8F
:1006200002DC30BC00207047440F44EAC104C10022
:10063000E01830BC00EBC25000F031B8202A04DBD7
:10064000203A00FA02F1002070479140C2F12003E5
:1006500020FA03F3194390407047202A04DB203A24
:1006600021FA02F00021704721FA02F3D040C2F1D2
:1006700020029140084319467047202A06DBCB1719
:10068000203A41FA02F043EAE07306E041FA02F34D
:10069000D040C2F12002914008431946704700291A
:1006A000A8BF7047401C490008BF20F001007047F8
:1006B00010B4B0FA80FC00FA0CF050EA010404BF58
:1006C00010BC704749B1CCF1200421FA04F411FAAE
:1006D0000CF118BF012121430843A3EB0C01CB1DF2
:1006E0004FEA00614FEA102042BF002010BC704763
:1006F00000EBC35010440029A4BF10BC7047401C3D
:10070000490008BF20F0010010BC7047F0B400F0B1
:10071000004221F0004120F00040CE0DC30DC1F396
:10072000160141F40001C0F316004C42154640F496
:100730000000761E09E010EB440002D582F0004272
:1007400040428842F7D840005B1EB342F9DA18B144
:10075000F0BC0021FFF7ACBF2846F0BC704710B5D5
:10076000141E73F1000408DA401C41F100019218D4
:100770005B411A4301D120F0010010BD2DE9F04D7D
:1007800092469B4611B1B1FA81F202E0B0FA80F2D2
:1007900020329046FFF752FF04460F4640EA0A0017
:1007A00041EA0B0153465A46084313D0114653EA17
:1007B000010019D0C8F140025046FFF74EFF054630
:1007C0000E46504659464246FFF738FF084305D0CB
:1007D000012004E020463946BDE8F08D00200543A5
:1007E00046EAE0762C4337430A986305E40AA0EB17
:1007F00008000022FD0A44EA47540A3002D50020CE
:100800000146E9E7010510196941DDE908450019CC
:100810006941BDE8F04DA2E730B5041E71F1000456
:1008200004DB4FF00044404264EB0101141E73F1FD
:10083000000405DB1C464FF00043524263EB040307
:10084000994208BF904230BD064C074D06E0E06873
:1008500040F0010394E8070098471034AC42F6D307
:10086000FFF79CFC04E4000824E4000870B58C1831
:1008700010F8015B15F0070301D110F8013B2A11B4
:1008800006D110F8012B03E010F8016B01F8016BA1
:100890005B1EF9D12B0705D40023521E0DD401F89D
:1008A000013BFAE710F8013BCB1A921C03E013F866
:1008B000015B01F8015B521EF9D5A142D8D300209B
:1008C00070BD0000F0B54F4E96F824400CB10121E8
:1008D00000E000214C4D2878012809D00027494A22
:1008E000B94212F8253F527804D003281DD101E007
:1008F0000127F4E70BB1012100E00021687801280D
:1009000005D00027B94204D003280ED101E0012709
:10091000F8E70AB1012100E00021A878012844D0BD
:100920000027B94252D0032850D0384896ED080A23
:10093000374980ED160A384ED1ED070A384F60EE80
:10094000801A90ED5D0A71EEC00A9FED320A80EECA
:10095000201A80ED171A90ED5E0A90ED5F2A31EEB5
:10096000400A32EE202AC0EE022AC0ED182A96ED87
:10097000000ADFED2A2AB0EE402A11EE222AD7ED36
:10098000002A0F4602EE220A86ED000A5E0006EB00
:1009900082062644F6B297ED000A072E10D2DFE851
:1009A00006F00F0609181B1E21000127B9E791ED7B
:1009B000012A01E091ED022A32EE000A80ED190AC7
:1009C000C0ED5D1A80ED5E1AC0ED5F0A6CB10120CA
:1009D0000CE091ED032AEFE791ED042AECE791EDAD
:1009E000052AE9E791ED062AE6E7002028700BB119
:1009F000012000E0002068700AB1012000E0002022
:100A0000A870F0BD14260020E4000020402400203F
:100A1000A4000020920A863F0C01002066FCBE4222
:100A20006000002010B50146806B026C12F0500F80
:100A300005D0026CD20626D500F0BEFE10BD016CBA
:100A400041F40071016401688A6812F0405F17D1B7
:100A5000027EAAB9CA6A12F4700F02D08A685205DF
:100A60000ED44A6822F020024A60016C21F48071A1
:100A70000164016CC90403D4016C41F001010164FB
:100A800000F098FE10BD806BC26CBDE810400846B7
:100A9000104710B5806B40210164416C41F00401A6
:100AA000416400F089FE10BD10B5806B00F083FE3C
:100AB00010BD00001B481D4990ED080A1A48D0EDF2
:100AC000160AD0ED181A30EE600AD1ED070A20EEB2
:100AD000801A21EE011A21EE211AF6EE001A21EEFB
:100AE000211AD0ED171A21EE800A00EE201A90ED9F
:100AF000190AD1ED000A0E4931EE000A30EE200A43
:100B000010EE100A884202DD0A4803F0BDB8B5EEC7
:100B1000C00A0848F1EE10FA01D203F0BFB880ED28
:100B2000000A70471426002040240020A400002062
:100B3000DB0FC940080100202DE9F0416F4F012271
:100B40002DED028B4021384601F082FA6C48006896
:100B5000406A6C4C00EE100A01216B48B8EE400A66
:100B600084ED080A00F09BFC00EE100AB8EE400A83
:100B70009FED668A30EE480ADFED658A654D0221F9
:100B800020EE280A604885ED000A00F088FC00EE9F
:100B9000100A614E0321B8EE400A5B4830EE480A65
:100BA00020EE280A86ED000A00F079FC00EE100A1B
:100BB0005A48B8EE400A30EE480A20EE280A80ED86
:100BC000000A5748D0ED030AB8EE601ADFED550A67
:100BD000554921EE201A81ED001A90ED041A53496F
:100BE000B8EE411A21EE201A81ED001A90ED051A97
:100BF0004F485149B8EE411A61EE200AC0ED000A93
:100C00004C480068884205DA4C48D0ED000AC4ED33
:100C1000000A02E0884200DD2060D5ED000A484865
:100C2000C4ED020AD6ED000AC4ED030A84ED040AFD
:100C300090ED000A434884ED060A0078012802D1AD
:100C4000207703F06FFB404C6089401C80B26081CC
:100C5000052814D904F042FF3C480021618190ED41
:100C6000000A3B4A208902EB8002401C82ED000A08
:100C700080B240F2CF722081904200D3218135486A
:100C800090ED000AFCEEC00A10EE901A8AB23249CA
:100C90000B685A63D0ED010A0B68BCEEE01A11EE46
:100CA000102A92B29A6390ED021A0968BCEEC11A3A
:100CB00011EE100A80B2C8639FED281A20EE010AD7
:100CC000BCEEC00A10EE100A81B2254802685163DA
:100CD00020EE810A0068BCEEC00A10EE101A89B23C
:100CE0008163094800F069FDBDEC028B3846BDE820
:100CF000F0410022402101F0ABB9000000040240A5
:100D0000C4020020142600207C0100200060FF4463
:100D10000000843C1C000020200000202400002053
:100D2000A80300209605933C280000202C000020FA
:100D300030000020380000200000C84234000020AD
:100D4000180000203C0000203E0000200801002088
:100D50000005002008260020C40100200000A74351
:100D600044020020464910B54A6822F440324A60E5
:100D70004A6843681A434A6001684A6822F48072EC
:100D80004A6001684A68036942EA03224A600168CE
:100D90004A6822F040724A6001684A6883681A43D0
:100DA0004A6001688A6822F400628A6001688A6881
:100DB000C3681A438A60816A6FF07062D142016829
:100DC0008A6822F070628A6001688A680CD0836A3F
:100DD0001A438A6001688A6822F040528A6001687A
:100DE0008A68C36A1A4301E022F040528A600168AF
:100DF0008A6822F002028A6001688A68037E42EAF9
:100E000043028A6090F82010002901684A680FD0D8
:100E100042F400624A6001684A6822F460424A6013
:100E200001684A68174C436A04EB43331A4301E0F4
:100E300022F400624A600168CA6A22F47002CA623F
:100E40000168CA6A838B104C04EB03531A43CA62CD
:100E500001688A6822F400728A6001688A6890F8E2
:100E6000303042EA43228A6001688A6822F4806254
:100E70008A6001688A68406942EA8020886010BD03
:100E80000023014000E0FFFF0000F0FF10B5FFF776
:100E900019FDFFF70FFE04484078012803D1BDE893
:100EA000104004F089B810BD640000200C499FED8B
:100EB0000D0A0D4BD1ED410A01F1B80030EE800A68
:100EC00010EE102A9A4201DD02F0DEBEB5EEC00A35
:100ED000F1EE10FA01D202F0E1BE81ED2E0A704768
:100EE00040240020DB0F49C0DB0FC9400C499FEDB7
:100EF0000D0A0D4BD1ED410A01F1B80030EE800A28
:100F000010EE102A9A4201DD02F0BEBEB5EEC00A14
:100F1000F1EE10FA01D202F0C1BE81ED2E0A704747
:100F200040240020DB0F4940DB0FC9400A4890F8FD
:100F300038100A48012902D090ED140A09E090F80F
:100F4000B911032903D006D290ED2D0A01E090EDEE
:100F50002A0A80ED1D0A7047680000204024002006
:100F60000F48F6EE001A90ED021A90ED030AD0ED4C
:100F7000040A0D4800EE611A00EEE11ADFED091ACD
:100F800021EE211A80ED001A9FED081A084820EE84
:100F9000010A00EEC10A20EE210A80ED000A704726
:100FA00014260020EC05513F40010020D7B35D3FDF
:100FB0004401002000B5104B104993F9AC01897829
:100FC00041B1012908D0022283F8AC21904207D018
:100FD00020B105E00022F7E70122F5E703F0D6FF94
:100FE0002AB1012A07D15DF804EB04F0C1B85DF81D
:100FF00004EB03F021BF00BD40240020640000206A
:1010000003484FF0FF3180F8AC1180F8AD11704704
:10101000402400200C489FED0B0A0D4980ED000A8A
:101020000A4890F83800012801D020B107E00948AB
:1010300090ED000A01E091ED150A81ED1A0AFFF723
:10104000B9BF00000000000010010020680000206F
:1010500040240020E8000020FFF7D2BF014800F044
:10106000A9BD000080040020014800F0A3BD0000DD
:1010700020040020014800F09DBD0000C0030020B6
:1010800001681823CAB2103AB2FBF3F2054B6FF3B2
:101090000901032A9B5CC36500D9091D81650846C7
:1010A00070470000E063000810B5014600208B691E
:1010B0008A6A4FF0C07453B1B3F5005F15D072B1B6
:1010C000012A0CD0022A0AD0032A09D104E01AB15D
:1010D000012A06D0022A03D1C96AC90100D501201C
:1010E00010BDC96AA142FAD010BD002AF7D0012A6A
:1010F000F2D0022AF3D0032AF3D010BD30B5046831
:10110000256825F480252560046863608368402B8A
:10111000036803D099600068C26030BD9A600068BF
:10112000C16030BD0CB52F4A2F489FED302A92ED9B
:10113000400AD0ED000A92F8B80170EE601A10B9BA
:1011400092F8B60108B182ED5C2A294B294892ED4C
:101150005C1A93ED010A0178274800EE211A002954
:1011600090ED060A694601A802D003F00FFB01E0EA
:1011700003F0FAFA9DED010A2049B4EEC01AF1EE2F
:1011800010FA06DC9DED000AB4EEC01AF1EE10FA7A
:1011900002D281ED000A01E081ED001A92F8C60149
:1011A00008B9F0EE421AD3ED000A92ED5C0A60EE47
:1011B000A10ADFED131A00EEA10A82ED5C0A92F893
:1011C000B80100B1012082F8B60191ED000AB4EE39
:1011D000401AF1EE10FA01D1012000E0002082F85F
:1011E000C6010CBD40240020F400002000000000D7
:1011F000C40000206400002014260020FC00002011
:1012000017B7D138104910B50120087000210F48D8
:1012100001F098FE00210D4801F058FB04210B4815
:1012200001F090FE0421094801F050FB0821074815
:1012300001F088FE0821054801F048FBBDE8104098
:101240004FF4005000F028BE3C000020C4010020F4
:1012500072B6FEE710B5FFF783FE02F085FB03F0E0
:10126000F5FCFFF763FE03F0ADFD03F0A1FAFFF715
:1012700059FF154C154894ED2B0AD0ED000A30EEBD
:10128000200A84ED400A03F0B7FA02F011FD94F849
:10129000BB01401E022806D294ED280A84ED1E0AE6
:1012A00094ED290A07E00A4890ED000A094884ED08
:1012B0001E0A90ED000A84ED1F0A03F00DFBBDE845
:1012C000104002F071BB000040240020FC00002010
:1012D000180100201C010020FFF7BCBF02F058BB22
:1012E00070B590F83C20694C012A19D0012280F891
:1012F0003C200A6807250368092A13D9DE680A3AE0
:1013000002EB42029540AE43DE600A788B680A3AEF
:1013100002EB420293400268D5682B43D36010E091
:10132000022070BD1E6902EB42029540AE431E6171
:101330000A788B6802EB42029340026815692B43DE
:1013400013610268936B23F4401393630268936BF9
:101350000D8A4F4E06EB05552B4393630A790B7CA0
:10136000D21AD21C02EB82021F2393400268956BB3
:101370009D4395630A790B7CD21A0B88D21C02EB31
:1013800082029BB293400268956B2B4393638A69F8
:10139000A2420268936823F4702393600268936802
:1013A0000CD08C69234393600268936823F4401344
:1013B000936002689368CC69234301E023F44013EF
:1013C00093604A7D002A0268536802D043F4806328
:1013D00001E023F4806353600A7D002A02685368A9
:1013E00002D043F4805301E023F4805353604A68F1
:1013F000012A16D0022A1FD0032A026827D0136AB6
:101400006FF30B0313620268136ACC682343136201
:10141000214B04681F4A9C4227D10C68122C20D013
:1014200023E0026853696FF30B0353610268536949
:10143000CC6823435361EBE7026893696FF30B03B6
:10144000936102689369CC6823439361E0E7D369B1
:101450006FF30B03D3610268D369CC682343D36174
:10146000D6E7546844F48004546004689C4208D170
:101470000968102901D0112903D1516841F40001F4
:101480005160002180F83C10084670BD01000F003B
:101490000000F0FF0023014000200140704708B524
:1014A000002200920368521F1A60012911D00229FC
:1014B0000CD0032906D0042901D0009808BD00688B
:1014C000806C01E00068406C009008BD0068006C12
:1014D000FAE70068C06BF7E718B50022009290F8B1
:1014E0003C10012907D0012180F83C1001688B686D
:1014F000DB0702D011E0022018BD8B6843F0010326
:101500008B602249224B0968B1FBF3F101EB4101E9
:1015100000E0491E00910029FBD101688B68DB07C0
:1015200026D0036C42F20104A34343F480530364C6
:10153000036CDB0500D4426480F83C206FF00402A9
:101540000A60144949680068C906816801F44011BD
:1015500010D0C1B1002142680F4B42F38022521CCF
:10156000984205D121B11AB1816841F480018160AE
:10157000002018BD29B10021426842F38022521C8C
:10158000F0E70121F8E70121E5E700005C00002019
:1015900040420F00002301400020014018B5002206
:1015A000009290F83C10012907D0012180F83C10EE
:1015B00001688B68DB0702D011E0022018BD8B6840
:1015C00043F001038B602449244B0968B1FBF3F11C
:1015D00001EB410100E0491E00910029FBD10168A7
:1015E0008B68DB072BD0036C42F20104A34343F466
:1015F00080530364036CDB0500D4426480F83C2014
:101600006FF004020A6001684A6842F080024A6092
:10161000134949680068C906816801F4401110D077
:10162000C1B1002142680F4B42F38022521C984204
:1016300005D121B11AB1816841F480018160002097
:1016400018BD29B10021426842F38022521CF0E704
:101650000121F8E70121E5E75C00002040420F008E
:10166000002301400020014078B50024009490F848
:101670003C20012A19D0012280F83C200A68072565
:101680000368092A13D9DE680A3A02EB4202954040
:10169000AE43DE600A788B680A3A02EB420293405E
:1016A0000268D5682B43D36010E0022078BD1E6924
:1016B00002EB42029540AE431E610A788B6802EB52
:1016C00042029340026815692B4313614A681F2543
:1016D000072A13D203685E6B521E02EB820295400A
:1016E000AE435E630A8893B20A79521E02EB82020D
:1016F00093400268556B2B43536327E003680D2A20
:1017000012D21E6BD21F02EB82029540AE431E63C3
:101710000A8893B20A79D21F02EB820293400268D0
:10172000156B2B43136311E0DE6A0D3A02EB820264
:101730009540AE43DE620A8893B20A790D3A02EB15
:10174000820293400268D56A2B43D362164B056828
:10175000144A9D4206D10D68122D03D1556845F4F7
:101760008005556005689D4218D10B68102B01D08B
:10177000112B13D1536843F40003536009681029F7
:101780000CD10A490A4A0968B1FBF2F101EB810167
:10179000490000E0491E00910029FBD180F83C403F
:1017A000002078BD00230140002001405C000020A3
:1017B00040420F0070477047704770B5044600689C
:1017C0000168C1F340024168C1F3401152B349B30B
:1017D000216CC90603D4216C41F400712164816835
:1017E00011F0405F17D1217EA9B9C16A11F4700FC1
:1017F00002D0816849050ED4416821F02001416082
:10180000206C20F480702064206CC00403D4206C11
:1018100040F0010020642046FFF7CCFF21686FF004
:1018200012000860206801684268C1F38001C2F3B9
:10183000C01289B382B3216CC90603D4216C41F470
:1018400000512164816811F4401F1ED1816B11F495
:10185000401F02D08168490517D44168490514D456
:10186000816811F0405F10D1217E71B9416821F08B
:1018700080014160206C20F480502064206CC00501
:1018800003D4206C40F0010020642046FFF706FEE0
:1018900021686FF00C000860206801684268C1F39D
:1018A0000001C2F3801271B16AB10068C0070AD0AA
:1018B000206C40F480302064204600F046F8216817
:1018C0006FF001000860206801684268C1F34011B0
:1018D000C2F3806200290DD0002A0BD0616C41F068
:1018E000020161646FF0200505602046FFF764FF88
:1018F0002068056070BD70B504004FF0000603D08D
:10190000206C002510B107E0012070BD204600F0DA
:101910001DF8656484F83C50206CC00610D4206C1F
:1019200020F4885040F0020020642046FFF71AFAA5
:101930006564206C20F0020040F00100206400E0AB
:10194000012684F83C50304670BD704770B586B0B3
:10195000064614216846FEF771FC28493068884223
:101960004AD127480025016841F480710160006870
:10197000234900F4807014390590086840F0040091
:101980000860086800F004000590086840F0010055
:1019900008600868032400F0010005903F208DE8EE
:1019A00031006946174800F083FA13208DE83100B2
:1019B0006946154800F07CFA154C1448C4E9000546
:1019C0000015A560C4E90350800060618000A0613B
:1019D0008011C4E907052046656200F0BBF908B133
:1019E000FFF736FCB463002202211220A66300F048
:1019F000A5FB122000F094FB06B070BD0020014052
:101A000044380240000802400000024010640240D6
:101A1000C0030020F8B500230446009390F83C0072
:101A2000012807D0012084F83C0020688568ED0774
:101A300002D011E00220F8BD856845F001058560FF
:101A40002E482F4D0068B0FBF5F000EB400000E0A1
:101A5000401E00900028FBD120688568ED074AD021
:101A6000256C40F20166B54345F4807525644068F5
:101A7000400505D5206C20F4005040F480502064CF
:101A8000206CC00404D5606C20F00600606400E0A7
:101A9000636484F83C30A36B1B481A4DD863A36B76
:101AA0001A481864A36B1A48D86423686FF02200A0
:101AB00018602068436843F080634360206883684F
:101AC00043F480738360134620680A46A66B00F1D6
:101AD0004C01304600F0A8F96868C006206802D0C2
:101AE0000C49884207D1816811F0405F03D18168B9
:101AF00041F0804181600020F8BD00005C000020C2
:101B000040420F0000230140250A0008A90A0008EE
:101B1000930A00080020014030B502234371036896
:101B20009C6844F001049C60002304E0056851F8BF
:101B300023402C605B1C9342F8D3016809680122A2
:101B40004271084630BD10B5040002D0607910B172
:101B500006E0012010BD00202071204600F004F8AE
:101B600001206071002010BD08B500680649884258
:101B700008D10648016841F480510160006800F412
:101B80008050009008BD0000003002403038024014
:101B900090F83510022903D080214165012070475B
:101BA000052180F835100068016821F0010101600D
:101BB000002070472DE9F84304464FF00009CDF8A6
:101BC000009063484FF41651A56D0068B0FBF1F723
:101BD0002E6894F85C20082101FA02F030420FD000
:101BE0002068026852070BD5026822F004020260E6
:101BF00094F85C008140A960606D40F00100606570
:101C000094F85C104FF0010808FA01F0304208D057
:101C100021684969090604D5A860606D40F002009A
:101C2000606594F85C1004208840304208D0216838
:101C30000968890704D5A860606D40F004006065FC
:101C400094F85C1010208840304218D02168096850
:101C5000090714D5A86020680168490304D5006805
:101C6000000308D5A16C07E00168C90503D4016829
:101C700021F008010160216C09B12046884794F8E1
:101C80005C1020208840304231D021680968C906A4
:101C90002DD5A86094F8350005282068016806D085
:101CA000490347D5006800031DD4616C1CE021F096
:101CB000160101602068416921F080014161206CBA
:101CC00008B9A06C20B12068016821F0080101600A
:101CD00094F85C103F208840A86084F8349084F821
:101CE0003580216D1FE0E16B09B120468847606DAA
:101CF00000282BD0606DC00714D0052084F8350073
:101D00002068016821F0010101600098401C0090EA
:101D1000B84203D820680068C007F6D184F8349030
:101D200084F83580E16C002910D001B02046BDE870
:101D3000F04308470168C905D5D4016821F01001B6
:101D4000016084F8349084F83580CCE7BDE8F883EE
:101D50005C0000202DE9F041044600F07FF90546C3
:101D60005CB1002684F83460022084F835002068D5
:101D7000016821F0010101600DE00120BDE8F08162
:101D800000F06CF9401B052805D920206065032070
:101D900084F83500F2E720680068C007F0D12168B8
:101DA0000A6820480240D4E901031843D4E9033506
:101DB0002B43184363691843A3691843E369184325
:101DC000236A18431043626A042A03D1D4E90B231F
:101DD0001A431043086020684069656A20F00701D3
:101DE00028460D43012704280CD1A06A0543E06A68
:101DF00040B12046FFF758F920B14020606584F8D3
:101E00003570BAE7206845612046FFF739F994F844
:101E10005C203F2191408160666584F83570002028
:101E2000ACE700003F8010F02DE9F0410446866DDC
:101E300090F83400002501280DD0012084F83400EA
:101E400094F835700020012F07D084F83400022563
:101E50002846BDE8F0810220FBE7022784F83570B0
:101E600060652046FFF74AF994F85C103F208840EF
:101E7000B0602068016841F016010160206C20B15B
:101E80002068016841F0080101602068016841F0A4
:101E900001010160DCE77047044910B50A6802429D
:101EA00002D00860FFF7F7FF10BD0000143C0140AE
:101EB0002DE9F84FDFF860B100224FF003094FF031
:101EC0000F0A0BF1040E01250B6895402B40AB4225
:101ED00072D14C68012C05D0022C03D0112C01D0FA
:101EE000122C10D18668540009FA04F7BE43CF685B
:101EF000A740374387604468AC430D79C5F30015AC
:101F0000954025434560C468570009FA07F58E6877
:101F1000AC43BE402643C6604C68022C01D0122C54
:101F200012D1D40800EB840CDCF820605407E40ED6
:101F30000AFA04F826EA0806D1F8108008FA04F82C
:101F400048EA0608CCF820800468AC430D7905F017
:101F50000305BD40254305604C68E40056D52F4C71
:101F6000256845F480452560246822F0030504F4C3
:101F7000804400942A4C2E19D6F808789407250F2F
:101F80000AFA05F4A743274CA04201D1002415E02A
:101F9000254CA04201D1012410E0244CA04201D1E3
:101FA00002240BE0224CA04201D1032406E0214C84
:101FB000A04202D1042401E028E00724AC403C43C5
:101FC000C6F80848DBF800405D464E689C43F603BF
:101FD00000D51C432C60DEF8004075464E689C43DB
:101FE000B60300D51C432C600B4D08352C684E6899
:101FF0009C43F60200D51C432C60074D0C352C6821
:102000004E689C43B60200D51C432C60521C102A1B
:10201000FFF459AFBDE8F88F003C0140443802405E
:10202000003001400000024000040240000802406D
:10203000000C0240001002400069084000D001205E
:102040007047426931EA020200D109048161704798
:102050000AB1816170470904FBE70000014880680C
:102060007047000050000020024881680278114447
:1020700081607047500000200B4810B5016841F4A2
:1020800000710160016841F480610160016841F400
:1020900080710160032000F071F8042000F006F860
:1020A00000F024F8002010BD003C024070B50D4D3A
:1020B00004464FF47A712878B1FBF0F00A490968B8
:1020C000B1FBF0F000F0FAFA48B9102C07D2002268
:1020D0002146501E00F032F800206C6070BD0120D7
:1020E00070BD0000500000205C0000200B4882B052
:1020F000016841F480410160006800F48040009074
:102100000648001F016841F080510160006800F03E
:1021100080500090042002B000F030B844380240F3
:10212000002809DB00F01F020121914040098000D6
:1021300000F1E020C0F8001170470000F0B40E4B31
:102140001B68C3F30223C3F10704042C00D9042441
:102150001D1D072D01D2002300E0DB1E012606FA1B
:1021600004F56D1E0D409D409E40761E164045EACA
:102170000601F0BC03F066BD0CED00E0064A00F07D
:10218000070110684FF6FF03184040EA0120034999
:1021900008431060704700000CED00E00000FA05F5
:1021A0002DE9F0470D46040065D0DFF81491D9F809
:1021B0000000EFB200F00F00A84207D289F80070CB
:1021C000D9F8000000F00F00A84254D120683D4E1D
:1021D000810712D5400703D5306840F4E0503060E5
:1021E0002078000703D5306840F4604030603068E4
:1021F000A16820F0F000084330602078C0072DD09F
:10220000304960680839012812D0022813D0032809
:1022100011D00968890700292DDA316821F00301FE
:1022200001433160FFF71AFF804641F2883A0EE021
:1022300009688903EFE709688901ECE7FFF70EFFFA
:10224000A0EB0801514502D90320BDE8F0873068B2
:10225000616800F00C00B0EB810FEFD1D9F80010ED
:10226000484601F00F01A94207D90770006800F045
:102270000F00A84201D00120E7E72078400705D5EC
:102280003068E16820F4E0500843306020780007AF
:1022900006D53068216920F4604040EAC100306012
:1022A00000F038F83168084AC1F30311515CC840A6
:1022B0000649086006480068FFF7F8FE0020C4E7FA
:1022C000003C024008380240E86300085C0000203F
:1022D000540000200448054900680968044AC1F315
:1022E0008221515CC84070475C00002008380240E1
:1022F000F86300080448054900680968044AC1F306
:102300004231515CC84070475C00002008380240F0
:10231000F8630008154810B5006810F00C01144867
:1023200013D0431004290FD008290ED10F4C241FBD
:10233000216801F03F022168490207D52068C0F3F7
:102340008810A0FB030106E0184610BD2168C1F308
:102350008811A1FB00010023FDF738FF2168C1F3BC
:102360000141491C4900B0FBF1F010BD08380240A2
:102370000024F4002DE9F84F040075D02078DFF830
:1023800028A3C007AAF1040548D00AF10400016897
:10239000C1F38101012908D00068C0F3810002283F
:1023A0000AD1DAF80000400206D52868800335D546
:1023B00060680028E1D031E06068B0F5803F10D05F
:1023C000B0F5A02F286810D020F48030286028684D
:1023D00020F4802028606068A0B1FFF73FFE064629
:1023E0000CE0286840F48030F4E740F48020286056
:1023F000F7E7FFF733FE801B642871D82868800355
:10240000F7D50BE0FFF72AFE064604E0FFF726FEAD
:10241000801B6428F1D828688003F7D42078DFF87F
:102420008C9280074FF0000B3DD59F48001D01683E
:1024300011F00C0F08D00068C0F3810002280AD107
:10244000DAF80000400206D42868800715D5E06855
:10245000012809D111E0E068B8B10121C9F80010E4
:10246000FFF7FCFD064605E01AE1FFF7F7FD801BCC
:102470000228C2D828688007F7D52868216920F08B
:10248000F80040EAC10028600DE0C9F800B0FFF78D
:10249000E5FD064604E0FFF7E1FD801B02281FD89A
:1024A00028688007F7D42078000722D57E4F80481F
:1024B0006169703771B101210160FFF7CFFD0646F8
:1024C00004E0FFF7CBFD801B022809D8386880079D
:1024D000F7D50EE0C0F800B0FFF7C0FD064605E0F6
:1024E00082E0FFF7BBFD801B02287DD8386880079B
:1024F000F7D42078400765D56B484FF000083C3092
:102500000068C0000BD468483C30016841F080513D
:10251000016000684FF0010800F080500090654FA6
:102520003868C0050FD4386840F480703860FFF711
:1025300095FD064604E0FFF791FD801B022853D865
:102540003868C005F7D5584FA0686C3701280FD000
:102550000528386810D020F001003860386820F075
:1025600004003860A068B0B1FFF778FD06460EE0C1
:10257000386840F00100F4E740F004003860F7E705
:10258000FFF76CFD811B41F28830814263D83868C7
:102590008007F5D50DE0FFF761FD064606E0FFF781
:1025A0005DFD811B41F28830814254D83868800734
:1025B000F5D4B8F1000F05D03B483C30016821F05C
:1025C00080510160A069B8B33749091D0968C1F39A
:1025D0008101022946D00228584606D0C9F8600079
:1025E000FFF73CFD044639E035E04F46C9F860008E
:1025F000FFF734FD064604E0FFF730FD801B02289C
:1026000029D828688001F7D4D4E907010843A16AD2
:10261000294A490802EB0141626A41EA82110843F2
:1026200094F82C1040EA0161CAF8001001203866C5
:10263000FFF714FD044605E034E0FFF70FFD001B33
:10264000022808D828688001F7D52BE0FFF706FD9F
:10265000001B022802D90320BDE8F88F28688001FA
:10266000F4D41FE00128F7D0DAF80000E26900F4A2
:102670008001914214D1226A00F03F0191420FD1B2
:1026800047F6C071626A0140914209D1A26A00F422
:102690004031914204D1E16A00F07060884201D07B
:1026A0000120D9E70020D7E7043802400000474264
:1026B000800E4742007000400000FFFF10B5401E32
:1026C000B0F1807F01D3012010BD4FF0E0246061A4
:1026D0000F21601703F0B6FA0020A06107202061E7
:1026E000002010BD7047704710B590F83C20012ABB
:1026F00022D0012280F83C20CA688C6822F4407203
:1027000022434C6822F4806222430C6822F4006267
:1027100022430C6922F4805222434C6922F4005275
:102720002243C969002322F480420A4301684A64B3
:1027300080F83C30002010BD022010BD70B588B07C
:102740000D46040004D094F83D00002618B107E0BF
:10275000012008B070BD84F83C60204600F04CF8C1
:10276000022084F83D00211D206802F047FEAB687E
:1027700029680322206802F0B5FF2068816921F0F2
:102780000C018161206881696A6811438161206858
:10279000416841F0800141602068816821F070014A
:1027A00081602068816841F0400181602068816813
:1027B00021F0070181602068816841F00401816097
:1027C0007020059604960696039602960090E86897
:1027D00001906946206802F0B5FE2068416821F04A
:1027E000700141602068416841F050014160012062
:1027F00084F83D000020ACE7704710B5044600683F
:102800000122002102F046FE2068816801F00701E4
:10281000062903D0016841F001010160002010BDCC
:1028200010B504460068C16841F00201C160012290
:102830000021206802F02EFE2068816801F0070167
:10284000062903D0016841F001010160002010BD9C
:1028500070B590F83C20012A2CD0012580F83C501E
:10286000022280F83D2002685368946823F07006C5
:102870000B6833435360104B02689A420ED0B2F19A
:10288000804F0BD00D4B9A4208D00D4B9A4205D089
:102890000C4B9A4202D00C4B9A4204D1496824F066
:1028A00080031943916080F83D50002180F83C106E
:1028B000084670BD022070BD0000014000040040C9
:1028C00000080040000C00400040014010B50446E4
:1028D0000068042202F0EBFD2068416C41F40041E5
:1028E00041642068816801F00701062903D001686E
:1028F00041F001010160002010BD10B5040003D0BB
:1029000094F83D0010B107E0012010BD002084F8CC
:102910003C00204600F00CF8022084F83D00211D08
:10292000206802F06BFD012084F83D00002010BDFE
:10293000F0B587B0044614216846FDF77FFC504A85
:10294000206800244F49022601254F4F90422AD18A
:102950004C481430026842F001020260006800F046
:1029600001000590086840F0010008600868CDE9A2
:10297000025400F0010005904020CDE900066946B0
:1029800004953846FFF794FA012200211820FFF73A
:10299000D5FB1820FFF7C4FB002211461920FFF7D2
:1029A000CDFB19204AE0374A1032B0F1804F11D0E8
:1029B0003649884246D1106840F002001060106825
:1029C000002200F00200059005211D20FFF7B6FB54
:1029D0001D2033E0106840F001001060106800F026
:1029E00001000590086840F002000860086800F0E7
:1029F00002000590086840F0010008600868694618
:102A000000F0010005904FF481600090CDE9016471
:102A10001F48CDE90345FFF74BFA4FF40040009003
:102A2000CDE9016469463846CDE90345FFF740FA30
:102A3000002203211C20FFF781FB1C20FFF770FB05
:102A400007B0F0BD1349884208D1106840F0040077
:102A50001060106800F004000590F1E70E4988420C
:102A6000EED1106840F0080010601068002200F0FD
:102A70000800059007213220FFF760FB3220DDE7D8
:102A800000000140303802400000024000040040D5
:102A90000004024000080040000C00400168CA68C1
:102AA00042F00102CA600068816801F0070106294E
:102AB00003D0016841F0010101600020704770B54A
:102AC000044690F83C00012817D0012584F83C50BA
:102AD000022084F83D002068826822F0770222F408
:102AE0007F4282600868502830D00DDC20284DD00D
:102AF00005DC98B310283BD148E0022070BD302897
:102B000044D0402834D139E0602828D0702806D03D
:102B1000B0F5805F2CD0B0F5005F29D10AE0CB681A
:102B2000D1E90121206802F0CFFC2068816841F0E2
:102B3000770109E0CB68D1E90121206802F0C4FCEB
:102B40002068816841F48041816011E0CA68496869
:102B5000206802F0B6FD5021206807E016E0CA6840
:102B60004968206802F0F4FD6021206802F0B6FC9C
:102B700084F83D50002084F83C0070BDCA68496864
:102B8000206802F09EFD40212068EFE722680146A0
:102B90001046EBE7704770B50446006801694FF0D6
:102BA0000005C943890715D4C168C943890711D4F1
:102BB000E91E016101202077206880698007204696
:102BC00002D0FFF7E7FF04E000F019F9204600F01B
:102BD000B7F9257720680169C943490717D4C16847
:102BE000C943490713D46FF0040101610220207723
:102BF0002068806910F4407F204602D0FFF7CAFFAA
:102C000004E000F0FCF8204600F09AF925772068EF
:102C10000169C943090716D4C168C943090712D419
:102C20006FF008010161042020772068C0698007E7
:102C3000204602D0FFF7AEFF04E000F0E0F82046A7
:102C400000F07EF9257720680169C943C90617D4C9
:102C5000C168C943C90613D46FF01001016108208F
:102C600020772068C06910F4407F204602D0FFF72B
:102C700091FF04E000F0C3F8204600F061F92577E9
:102C800020680169C943C90708D1C168C943C90798
:102C900004D1891E0161204600F070F920680169A5
:102CA000C943090609D4C168C943090605D46FF0B0
:102CB000800101612046FFF715FD20680169C943C5
:102CC000490609D4C168C943490605D46FF04001DB
:102CD0000161204600F07CF920680169C94389063A
:102CE0000BD4C168C943890607D46FF02001016184
:102CF0002046BDE87040FFF7F6BC70BD70B586B0E9
:102D0000044614216846FDF799FA224B22680020F8
:102D100021490224214D9A4224D1086840F0010043
:102D20000860086800F001000590086840F00200A3
:102D300008600868012600F0020005904FF4F0607A
:102D4000CDE900040294CDE9034669461448FFF733
:102D5000AFF80320CDE900040294CDE903466946AB
:102D6000284612E00F4B9A4211D10A6842F0020243
:102D70000A60096801F00201059130210091CDE956
:102D80000140CDE9030469462846FFF791F806B0F3
:102D900070BD0000000001403038024000040240D5
:102DA000000002400004004070B5044690F83C006A
:102DB00001280DD0012584F83C50022084F83D0004
:102DC00042B1042A0AD0082A0CD00C2A11D10DE0F5
:102DD000022070BD206802F089FB0AE0206802F042
:102DE000B1FB06E0206802F0DBFB02E0206802F0A5
:102DF00003FC84F83D50002084F83C0070BD70470F
:102E000010B5040003D094F83D0010B107E0012094
:102E100010BD002084F83C00204600F00CF8022091
:102E200084F83D00211D206802F0E8FA012084F8B2
:102E30003D00002010BD704770B5044690F83C007E
:102E40000D4601280DD0012684F83C60022084F84C
:102E50003D0042B1042A18D0082A2AD00C2A4DD1AC
:102E600039E0022070BD206802F040FB20688169D3
:102E700041F0080181612068816921F004018161CC
:102E8000206881692A69114311E0206802F05AFB29
:102E90002068816941F4006181612068816921F4C1
:102EA00080618161206881692A6941EA022181612A
:102EB00024E0206802F074FB2068C16941F0080139
:102EC000C1612068C16921F00401C1612068C16944
:102ED0002A69114311E0206802F08EFB2068C16965
:102EE00041F40061C1612068C16921F48061C16160
:102EF0002068C1692A6941EA0221C16184F83D6004
:102F0000002084F83C0070BD10B5040003D094F894
:102F10003D0010B107E0012010BD002084F83C0006
:102F2000204600F00CF8022084F83D00211D2068A6
:102F300002F064FA012084F83D00002010BD7047C3
:102F40007047000010B504460068012202F0A2FAA2
:102F500009492068884203D1416C41F40041416431
:102F60002068816801F00701062903D0016841F05B
:102F700001010160002010BD00000140704770B5E4
:102F8000044690F83C00012810D0012584F83C50FC
:102F9000022084F83D00204602F050FB002138B1A9
:102FA00084F83D5084F83C10012070BD022070BDB3
:102FB0002068C26822F04002C2602068C26822F421
:102FC0008042C26084F83D5084F83C10002070BDFF
:102FD0007047704770B5026804461068D16853693D
:102FE00010F00F0F52D003F0010501F490762E433C
:102FF0005FD0C20705D0CA0503D5E26B42F00102DB
:10300000E263420705D5DA0703D0E26B42F0020221
:10301000E263820705D5DA0703D0E26B42F00402CF
:10302000E263020707D501F020022A4303D0E26BD6
:1030300042F00802E263E26B002A33D0800604D536
:10304000880602D5204602F018FC20684069E16B32
:10305000C0F38010090700D428B3204602F0F6FB25
:103060002068416949061AD5416921F04001416152
:10307000606BA0B11B490165606BFEF789FD0028FC
:1030800010D0606B016DBDE870400847830610D515
:103090008B060ED52046BDE8704002F0EEBB204600
:1030A000FFF797FF70BD2046FFF793FF0020E06316
:1030B00070BD030606D50B0604D52046BDE870405A
:1030C00002F0BABC4006F3D54806F1D5D1682046D7
:1030D00021F04001D160202184F8391000F036F948
:1030E00070BD00007557000870B5040004D094F856
:1030F0003900002510B106E0012070BD84F8385079
:10310000204600F023F8242084F839002068C168A4
:1031100021F40051C160204602F0FAFB20680169E9
:1031200021F4904101612068416921F02A01416147
:103130002068C16841F40051C160E563202084F833
:10314000390084F83A00002070BD00002DE9F041FC
:1031500086B0044614216846FDF770F82E492068B1
:10316000884256D12D480025016841F400310160A4
:10317000006800F40030059028481038016841F0DC
:10318000010101600068694600F0010005900C2013
:1031900000900220CDE90105032003900720049050
:1031A0001F48FEF785FE204E1E484FF00067E6E8F8
:1031B000020740204FF48068A6E821011A4846F82B
:1031C0001459B561F56135627562FEF7C3FD08B14A
:1031D000FEF73EF82663B4631248144E1838306088
:1031E000C6E90175C6E903587561B561F5613562D7
:1031F00030467562FEF7AEFD08B1FEF729F866634A
:10320000012206212620B463FEF798FF2620FEF750
:1032100087FF06B0BDE8F08100440040403802401E
:1032200000000240A0600240200400208004002032
:1032300037B5044690F83A0082B0134620283AD1B8
:10324000039AAAB3A3B394F83800012833D001201D
:1032500084F83800A262A3850025E563222084F863
:103260003A00616B1548C863616B15480864616B6F
:103270001448C864606B05652168606B091DFEF722
:10328000D3FD206801684168009184F83850C16816
:1032900041F48071C1602068416941F001014161E0
:1032A0002068416941F040014161002005B030BD16
:1032B000FFE70120FAE70220F8E70000CF570008F7
:1032C0000B5800088557000870477047F7B504464B
:1032D00090F83900202831D1019969B362B394F88C
:1032E000380001282AD0012084F838002162A28405
:1032F000E2840025E563212084F83900236B10481F
:10330000D863236B0F481864236B0F48D864206B75
:10331000134605652668206B321DFEF785FD216882
:103320006FF04000086084F838502068416941F02F
:10333000800141610020FEBD0120FEBD0220FEBDD6
:103340001558000843580008855700087047704713
:103350002DE9F0412DED0E8B00F070FAF94C94ED53
:103360004B0A84ED260A94ED4C0A84ED270A94F862
:10337000BB01012812D0022812D0032812D003204A
:1033800090B1012816D002287DD194ED410AEE4972
:1033900010EE100A884213DA012012E00020EFE755
:1033A0000120EDE70220EBE7BDEC0E8BBDE8F0411C
:1033B00000F004BBBDEC0E8BBDE8F04101F028B875
:1033C000002000EE900A40F6FF763046F8EE600AE4
:1033D00060EE80AADFEDDDBAB0EE6B1ADFEDDC8ABD
:1033E000B0EE6A0AF0EE680A02F0CAFED94DDFF8C4
:1033F000688305EB800090ED000AD8ED040A20EE0A
:10340000200A84ED2B0A94ED4EAADFEDD49A94F8AD
:10341000B00100EE29AA08B1C4ED4F8A98ED030A65
:10342000D8ED0D0AF6EE001AB0EE401A00EEA10A31
:103430004FF0165110EE100ADFEDC92A884201DC68
:10344000B0EE620A9FEDC7BA94ED4F3A94F8B1011D
:1034500020EE0B0A20EE002A22EE038A08B1C4ED0A
:10346000508A9FEDC12A94ED503A94F8B20120EEB3
:10347000020A20EE039A08B1C4ED518AB0EE410A67
:1034800000EEE10A00E0BBE110EE100A884201DC28
:10349000B0EE620A94ED511A20EE0B0A94F8B301D3
:1034A00060EE000A20EE81CA08B1C4ED528A20EE17
:1034B000020AD4ED520AAD4960EE20CA94ED530AD7
:1034C00010EE100A84ED410A884202DD9FEDA80A41
:1034D00006E010EE100AA749884201DA9FEDA60A1D
:1034E0003046B0EE6B1AF0EE680A02F049FE05EBCA
:1034F000800000F5804191ED000AA049D1ED000A5D
:1035000020EE200AD0ED000A9D4890ED001A94F8B4
:10351000B40101EE600A30EE4C0A70EE6CBA3BEE7C
:10352000C80A70EE49CA08B1C4ED548A94ED540A31
:10353000DFED940A94F8B50120EE209A08B1C4EDAD
:10354000558A98ED030AB0EE49CA20EE0B0A20EE28
:103550000A0A10EE08CA94ED550ADFED8B0A98EDC1
:103560000A1A8A4900EE60CAD8ED090AB0EE000ACC
:1035700020EE800A20EE011A94ED560A01EE090AA7
:1035800010EE100ADFED821A884202DD30EE611A79
:1035900009E0B5EEC00AF1EE10FA02DBB0EE681AEF
:1035A00001E0B0EE401AB5EEC01AF1EE10FA01D00B
:1035B000012500E00025B5EEC01ABFEE00DAF7EEF7
:1035C00000DAF1EE10FA734F02D2B0EE4D1A11E0AC
:1035D000B5EEC01AF1EE10FA02DDB0EE6D1A09E098
:1035E000B5EEC01AF1EE10FA02D1B0EE681A01E0A1
:1035F00097ED001A60EEA00A10EE102ABDEEC11A77
:1036000020EE898A11EE100A8A4246B2624802DD33
:10361000C0ED001A09E0B5EEC00AF1EE10FA02D2D0
:10362000C0ED008A01E080ED000A94ED579A90ED1C
:10363000000A5A4870EE490A90ED001A00EE819A8D
:10364000DFED570A69EE200AC4ED2C0A94ED58EA22
:10365000F0EE4B0A00EE29EAB0EE4E0A02F01EFE32
:10366000F0EE40EAC4ED2AEA01F0F0FC94ED4D0AD8
:1036700084ED2D0A94F8B901032805D2D4ED410A4E
:1036800030EEC00A84ED2F0A4649D4F8BC00421837
:1036900045498A4202D2FDF709FC0AE0434A104438
:1036A000884202D2FDF722FC03E094ED410A84ED4A
:1036B0002E0A98ED030A9FED3E1A002060EE0B0AD9
:1036C000B5EEC08A80EE810A30EE2A0A84ED410A06
:1036D00084ED4EAAD4ED4F0A94ED500A40EE290A2B
:1036E0000CEEA90AC4ED4F0A84F8B00184ED500A2B
:1036F00084F8B101D4ED510A94ED520A40EE290A42
:103700000BEEA90AC4ED510A84F8B20184ED520A05
:1037100084F8B301C4ED53EAD4ED540A94ED550A8C
:1037200040EE290A0CEE290AC4ED540A84F8B401CB
:10373000F1EE10FA84ED550A84F8B5013AD2B0EEF4
:103740004D1A49E040240020DB0FC9406C1CC93AE7
:1037500000000000046400086800002017B7D1389A
:1037600000008025DB0FC940F4FDB43FA907C94024
:10377000A907C9406F12833A6F12833A44010020AF
:103780004001002006C4C048511C5E447C59444599
:103790007C59444558010020200100206000002091
:1037A000EBC99840CCCC4CC0CCCCCC00CCCC4C4061
:1037B00000401C46B5EEC08AF1EE10FA02DDB0EE14
:1037C0006D1A09E0B5EEC08AF1EE10FA02D1B0EE42
:1037D000681A01E097ED001A45B1BDEEC10A10EE7E
:1037E000100A40B2864201D1B0EE688A94ED560AC2
:1037F00008EE290A84ED560A84ED579A84ED58EABA
:10380000BDEC0E8BBDE8F08108480A4990ED000A36
:10381000074880ED4B0A91ED000A074980ED4C0AFC
:1038200091ED000A80ED4D0A70470000F400002081
:10383000402400203C010020240100202DE9F0411B
:10384000414C2DED068BD4F8A801411C02D0401C40
:10385000C4F8A80194F8C10100269FED3C8B01211A
:1038600068B194F8C20102259FED3AAB9FED3B9BF6
:103870003C4F012811D00326022861D13CE084F896
:10388000C11184F8C211C4F8A86184F8BB1184ED99
:103890000C8BBDEC068BBDE8F08184F8BB11786819
:1038A000FCF785FE53EC1A2BFCF7ECFD53EC192BBF
:1038B000FCF770FD41EC100B02F0D6F951EC100B47
:1038C000FCF75CFED4F8A8118842E2D897F83800DB
:1038D0000128DED194ED0C0B53EC182B51EC100B9E
:1038E000FCF778FED5D184F8C251C4F8A86184F8F9
:1038F000BB5184ED0E8BCCE784F8BB51F869FCF723
:1039000056FE53EC1A2BFCF7BDFD53EC192BFCF7BC
:1039100041FD41EC100B02F0A7F951EC100BFCF744
:103920002DFED4F8A8118842B3D894ED0E0B53ECB9
:10393000182B51EC100BFCF74DFEAAD184F8C26194
:1039400084F8BB61A5E700004024002000000000CF
:103950000000F03F2D431CEBE2361A3F11EA2D81A7
:103960009997713D6800002007494FF0FF3091F8AA
:103970003810012900D100200449002881F8AF0146
:1039800001D1FFF7E5BC704768000020402400200B
:103990000448FF21B7EE000A80F8AF1180ED560A07
:1039A0007047000040240020034890F8AF01002831
:1039B00001D1FFF729BF7047402400202DE9F047CF
:1039C0009D4C9E492DED028BD4F86C01884201DAA2
:1039D000012000E0002000EE100AD4ED600AB8EEED
:1039E000400A20EE200A84ED3C0A01F041F9944897
:1039F000D4ED3E0A90ED020A60EE200AC4ED280ADA
:103A0000D4ED3F0A20EE200A84ED290A90ED000A49
:103A1000DFED8C0A20EE200ADFED8B0AD4F89C0142
:103A20008A4D80EE201A94ED3C0A401CDFF820926B
:103A30004FF00108C4F89C01012831EE008A10D92A
:103A4000D4ED610A95ED020A40EE000A00EE100A7C
:103A5000B8EE401AC4ED610A80EE810A02F020FA45
:103A60000AE008B9C4F89C8195ED020A60EE000AEC
:103A7000B0EEC00AC4ED610A89ED000AD4F8A001D5
:103A8000744E401CC4F8A001012810D9D4ED620A7C
:103A900095ED030A40EE000A00EE100AB8EE401A57
:103AA000C4ED620A80EE810A02F0FAF90AE008B970
:103AB000C4F8A08195ED030A60EE000AB0EEC00ADA
:103AC000C4ED620A86ED000AD4F8A401624F401CDE
:103AD000C4F8A401012810D9D4ED630A95ED040AB5
:103AE00040EE000A00EE100AB8EE401AC4ED630A78
:103AF00080EE810A02F0D4F90AE008B9C4F8A48182
:103B000095ED040A60EE000AB0EEC00AC4ED630A47
:103B100087ED000AD9ED000AF3EE0E1AF4EEC00AA2
:103B2000F1EE10FA0FDD96ED001AB4EEC10AF1EED7
:103B300010FA08DD30EE410A30EEC11AC0EE010A7B
:103B400020EEA10A52E0B4EEE00AF1EE10FA0FDD29
:103B500096ED001AF4EEC10AF1EE10FA08DD70EEEF
:103B6000600A30EE410A80EE801AB0EE610A3BE056
:103B700096ED001AB4EEC10AF1EE10FA0DDDB4EEC6
:103B8000E01AF1EE10FA08DD31EE601A30EE600A4C
:103B9000C1EE000A9FED310A11E0B4EEC01AF1EE59
:103BA00010FA0FDDB4EEE00AF1EE10FA0ADD31EEA4
:103BB000400A31EE601AC0EE010A9FED290A00EEBC
:103BC000A10A13E0B4EEE01AF1EE10FA21DDF4EEF2
:103BD000C00AF1EE10FA1CDD70EEC00A31EE400AA8
:103BE00080EE801A9FED1F0A01EE210A84ED3D0A46
:103BF00094ED3D0ADFED1C0A1C4820EE200A80ED02
:103C0000000A84ED5B8A84ED608ABDEC028BBDE81E
:103C1000F087F4EEC10AF1EE10FAE9DDB4EEC01A55
:103C2000F1EE10FAE4DD30EEC11A30EEC00AC1EE5A
:103C3000000A9FED0F0AC2E740240020DB0FC940B5
:103C400068000020DB0FC94000401C4614260020FD
:103C500030010020340100203801002000007042B3
:103C60000000B4420000F04235FA8E3C3C010020D6
:103C700000001643DFED030A30EE600A80ED000A13
:103C800070470000DB0FC940DFED030A30EE600A29
:103C900080ED000A70470000DB0FC940DFED030A2A
:103CA00030EE200A80ED000A70470000DB0FC940AB
:103CB0000C4890ED400AD0ED200A90ED211A0A48F8
:103CC00020EE202A20EE010AD0ED001A074801EE6E
:103CD000C12A01EEA00A80ED002A054880ED000A05
:103CE0007047000040240020F00000201801002050
:103CF0001C0100202DE9F0438DB0002400940194B4
:103D00000294202104A80394FCF798FA45484449FA
:103D1000012501604FF480310561C0E9011404768A
:103D200080F820400903C1624FF00609C0F81C90DA
:103D30004FF01061C460816280F830504461FDF73B
:103D4000DAFD08B172B6FEE70095CDE90154694687
:103D50003448FDF789FC08B172B6FEE704274FF03E
:103D60000208CDE9007869462E48FDF77DFC08B1D0
:103D700072B6FEE70C200326CDE900066946294805
:103D8000FDF772FC08B172B6FEE70D20CDE9000721
:103D900069462448FDF768FC08B172B6FEE70E20BC
:103DA00000900520019069461E48FDF75DFC08B1B2
:103DB00072B6FEE70F20CDE9000969461948FDF704
:103DC00053FC08B172B6FEE7CDE9044516480694E7
:103DD000CDE90A048DF8255008968DF8244004A9F1
:103DE00010480794FDF77CFA08B172B6FEE70B2085
:103DF000CDE9040804A90B48FDF772FA08B172B6C0
:103E0000FEE70A20CDE9040604A90648FDF768FA92
:103E1000002801D072B6FEE70DB0BDE8F0830000C7
:103E2000002001407C01002001000F00154808B56A
:103E3000016841F480010160016801F48001009192
:103E4000016841F4001101600068002200F40010D4
:103E5000009011461020FEF771F91020FEF760F96E
:103E6000002205211120FEF769F91120FEF758F90B
:103E7000002211463820FEF761F9BDE808403820DD
:103E8000FEF74EB93038024030B587B0142168468D
:103E9000FCF7D4F922480024016841F004010160D4
:103EA000016801F004010591016841F080010160A1
:103EB000016801F080010591016841F00101016094
:103EC000016801F001010591016841F00201016002
:103ED0000068144D00F0020005900122C021284620
:103EE000FEF7B6F84FF4005000900F48CDE90104FA
:103EF00069460E48FDF7DCFFC02000900120CDE9A7
:103F00000104694628460394FDF7D2FF00220321ED
:103F10002820FEF713F92820FEF702F907B030BD7C
:103F20003038024000040240000021100008024026
:103F300070B59AB0002414941594169414210FA807
:103F40001794FCF77BF918941C2168461994FCF728
:103F500075F9202107A8FCF771F93E483C49C0E9F2
:103F600000142021816041F26801C0E9031401219D
:103F7000C0E90514FEF7C1FC08B172B6FEE74FF4C4
:103F8000805514A933481495FEF799FD08B172B60F
:103F9000FEE73048FEF7B8FF08B172B6FEE706202C
:103FA000CDE90F040FA92B48FEF7E9FF08B172B65F
:103FB000FEE770268020CDE9186018A92548FEF795
:103FC00047FC08B172B6FEE76020CDE90004029418
:103FD000039404940594002269461E480694FEF753
:103FE0002BFF08B172B6FEE7042269461948FEF7B6
:103FF00023FF08B172B6FEE7082269461548FEF7AE
:104000001BFF08B172B6FEE741F26700CDE9006020
:104010000C2269460F48FEF70FFF08B172B6FEE7A3
:104020004FF40060079040100890801009906620BF
:104030000A90CDE90B5407A906480E94FEF754FBED
:1040400008B172B6FEE70348FEF758FE1AB070BD1D
:1040500000000140C401002010B58AB000241F48B0
:104060000094019402940394049405940694079494
:1040700008944FF0804109940160D121C0E90114F6
:10408000611EC1604FF4007184610161FEF735FC6F
:1040900008B172B6FEE74FF48050009069460F48B1
:1040A000FEF70DFD08B172B6FEE704940594069480
:1040B00004A90A480794FEF741FB08B172B6FEE76F
:1040C0005020CDE9080408A90448FEF7C1FB0028E8
:1040D00001D072B6FEE70AB010BD00000402002055
:1040E00010B58EB000240794089409940A940B9498
:1040F0001C2168460C94FCF7A1F823482149C0E92B
:1041000000142021816040F63401C0E90314846169
:10411000FEF7F3FB08B172B6FEE74FF4805007904C
:1041200007A91948FEF7CBFC08B172B6FEE716489E
:10413000FEF7EAFE08B172B6FEE70B940BA912482F
:104140000C94FEF785FB08B172B6FEE76020009084
:104150004FF40070CDE90104002269460A48049436
:10416000FEF76AFE08B172B6FEE704226946064809
:10417000FEF762FE08B172B6FEE70348FEF7BEFD29
:104180000EB010BD000400404402002030B593B0D2
:1041900000240C940D940E94142107A80F94FCF79E
:1041A0004DF810941C2168461194FCF747F82348F9
:1041B0002149C0E900142021816041F26801C0E971
:1041C00003148461FEF799FB08B172B6FEE74FF461
:1041D00080500C900CA91948FEF771FC08B172B61A
:1041E000FEE71648FEF790FE08B172B6FEE704201F
:1041F000CDE9070407A91148FEF7C1FE08B172B660
:10420000FEE770258020CDE9105010A90B48FEF77D
:104210001FFB08B172B6FEE701200095CDE901044D
:104220000C22694605480494FEF706FE002801D0DA
:1042300072B6FEE713B030BD0008004084020020D3
:1042400030B58DB000240794089409940A940B9417
:104250001C2168460C94FBF7F1FF204D1E48286096
:10426000D120C5E90104601EE8604FF40070AC6124
:1042700028612846FEF741FB08B172B6FEE74FF40D
:104280008050079007A91548FEF719FC08B172B6CF
:10429000FEE71248FEF7B4FD08B172B6FEE70B94D4
:1042A0000BA90E480C94FEF7D3FA08B172B6FEE7DC
:1042B0000094019402940022694608480494FEF791
:1042C00073FD08B172B6FEE72868816941F0080104
:1042D00081610DB030BD0000000C0040C402002020
:1042E00010B5082001F0BCFF0C490320087048708D
:1042F0008870FCF7B1FEFCF7F1FF094800F5E471A6
:1043000090ED230A81ED000A90ED240A81ED010A67
:1043100090ED250A81ED020A10BD0000E4000020A6
:104320004024002070B5FCF7B1FD354C354D364EBC
:1043300094ED420A84ED100A94ED430A84ED110ACB
:1043400094ED440A84ED120A94ED450A85ED010AC4
:1043500094F8BC0184F8B7013068407908B9FCF7DB
:1043600059FE94ED460A84ED130A3068807908B945
:1043700000F006FCFCF7B0FF94ED470A85ED020A59
:1043800095ED060A84ED420A95ED030A84ED430A91
:1043900095ED050A84ED440A94ED2C0A84ED450A56
:1043A00094F8B90184F8BC0195ED040A174884ED2E
:1043B000460A94ED2A0A84ED470A94ED230A80ED1B
:1043C000000A94ED240A80ED010A94ED250A80ED9F
:1043D000020A306831684079401CC0B2487100213F
:1043E000132801D930684171306832688079401CE7
:1043F000C0B29071632801D93068817170BD00002E
:1044000040240020E400002000640008082600206A
:104410002DE9F041534C2DED048B94ED590AF0EE4B
:10442000C08A94ED5A0AB0EEC08A00F0ADF894F854
:10443000BA019FED4D9A4D4D4D4F4E4EDFF83881EC
:10444000DFED4E9A062871D2DFE800F07003061BFC
:10445000224600F02FFC16E000F092FC95ED080AD1
:10446000D4ED380A60EE200AC4ED300AD4ED390AE2
:1044700020EE200A84ED310A94ED260A86ED000A2A
:1044800054E000F039FC84ED309A84ED319A4DE02F
:1044900094ED270A30EE290A10EE100AB84204DD26
:1044A0003048CC30FFF7E6FB01E084ED330A00F042
:1044B00045FC95ED080AD4ED340A60EE200AC4EDFF
:1044C000300AD4ED350A20EE200A84ED310A94ED4D
:1044D000260A88ED000A29E094ED270A40F6FF70CD
:1044E0009FED271AF0EE490A01F04AFEF4EEC88A61
:1044F00084ED309AF1EE10FA84ED319A02DB94EDFE
:10450000270A11E0F4EEC88AF1EE10FA0ED294ED0B
:10451000270A30EE290A10EE100AB84204DD1148CD
:10452000C830FFF7A7FB01E084ED320A154894ED8F
:10453000320A80ED000AD4ED300AC4ED280AD4ED29
:10454000310AC4ED290A84ED2A0A96ED000A84EDA9
:10455000590A98ED000A84ED5A0ABDEC048BBDE8B7
:10456000F0810000402400200000000068000020CE
:10457000DB0FC9402C01002028010020DB0F49403F
:104580006C1CC93A240100202DE9F0416E4C2DED40
:10459000068BD4F89801411C02D0401CC4F8980145
:1045A00094F8BF11002501209FED688BB1B1694AD5
:1045B00094F8C01102269FED689B9FED69AB92694C
:1045C000012919D0634803270229C06A3FD0042675
:1045D000032966D0052504297DD18FE084F8BF0129
:1045E00084F8C001C4F8985184F8BA0184ED048BB2
:1045F000BDEC068BBDE8F08184F8BA011046FBF7EC
:10460000D6FF53EC192BFBF73DFF53EC1A2BFBF7AE
:10461000C1FE41EC100B01F027FB51EC100BFBF736
:10462000ADFFD4F898118842E2D894ED040B53EC16
:10463000182B51EC100BFBF7CDFFD9D184F8C061DA
:10464000C4F8985184F8BA6184ED068BD0E784F8F9
:10465000BA61FBF7ACFF53EC192BFBF713FF53ECDC
:104660001A2BFBF797FE41EC100B01F0FDFA51EC11
:10467000100BFBF783FFD4F898118842B8D894ED5B
:10468000060B53EC182B51EC100BFBF7A3FFAFD12B
:1046900084F8C071C4F8985184F8BA7184ED088B1D
:1046A000A6E784F8BA711046FBF781FF53EC192B8B
:1046B000FBF7E8FE53EC1A2BFBF76CFE41EC100BFA
:1046C00001F0D2FA51EC100BFBF758FFD4F8981117
:1046D00088428DD800E034E094ED080B53EC182BA1
:1046E00051EC100BFBF776FF82D184F8C061C4F85F
:1046F000985184F8BA6184ED0A8B79E784F8BA613D
:10470000FBF755FF53EC192BFBF7BCFE53EC1A2BB0
:10471000FBF740FE41EC100B01F0A6FA51EC100B38
:10472000FBF72CFFD4F8981188428FD894ED0A0B30
:1047300053EC182B51EC100BFBF74CFF86D184F88F
:10474000C05184F8BA5153E7402400200000000013
:104750000000F03F680000202D431CEBE2361A3FBA
:1047600011EA2D819997713DDFED060A60EE200A6E
:10477000C0ED000ADFED040A20EE200A81ED000AF8
:10478000704700003ACD133F3ACD13BFDFED060A64
:1047900060EE200AC0ED000ADFED040A20EE200AD8
:1047A00081ED000A70470000ABAA2A3FABAA2ABFDE
:1047B0000D480C49D0ED001AD1ED200A0B4891EDBF
:1047C000210A20EEA12A90ED001A094801EE002AE4
:1047D00060EE810A41EEC00A80ED002A0548C0ED76
:1047E000000A7047402400204001002044010020BE
:1047F000F4000020F80000200CB52F4A2F489FED50
:10480000302A92ED220AD0ED000A92F8B80170EE3B
:10481000601A10B992F8AE0108B182ED4A2A294B0C
:10482000294892ED4A1A93ED030A0178274800EED1
:10483000211A002990ED060A694601A802D0FFF767
:10484000A5FF01E0FFF790FF9DED010A2049B4EEBE
:10485000C01AF1EE10FA06DC9DED000AB4EEC01AA3
:10486000F1EE10FA02D281ED000A01E081ED001AAA
:1048700092F8C50108B9F0EE421AD3ED020A92EDA2
:104880004A0A60EEA10ADFED131A00EEA10A82EDDA
:104890004A0A92F8B80100B1012082F8AE0191ED08
:1048A000000AB4EE401AF1EE10FA01D1012000E046
:1048B000002082F8C5010CBD40240020F800002033
:1048C00000000000C4000020640000201426002026
:1048D000F000002017B7D1389C4890ED1E0ADFED9C
:1048E0009C0A20EE200AD0ED1F0AF5EEC00AF1EE78
:1048F00010FA01DB012100E0002130EE601AB5EE74
:10490000C01AF1EE10FA01DB012200E00022B1EE44
:10491000601A01EB420231EE400AB5EEC00AF1EE38
:1049200010FA01DB012100E0002102EB810100EE21
:10493000101A884B4FF07E52F8EE402AF7EE003AFC
:1049400012EE901A994202DDF1EE082A05E012EE0D
:10495000901A914201DAF0EE632A7F497F4B91ED84
:10496000061A11EE101A9FED7E5A994202DD9FED54
:104970007D1A06E011EE101A7B4B994201DAB0EE77
:10498000451ADFED7A1ABDEEE24A81EE810A14EE95
:10499000101A9FED6F1A6D4BFEEE004A0629D3EDFB
:1049A0001E1A61EE811A93ED1F1A31EEC12A22EE12
:1049B000243AB1EE412A32EE612A62EE242A31EE27
:1049C000612A31EE211A22EE242A21EE241A1DD268
:1049D000DFE801F01C03080D121763EE001A22EE47
:1049E000800A17E062EE801A20EEC00A12E062EE42
:1049F000001A20EE800A0DE060EEC01A23EE000AD5
:104A000008E060EE801A21EE000A03E061EE001A71
:104A100022EE000A71EE800A35EE601AB5EEC01A79
:104A2000F1EE10FA09D821EE851AC1EE201A83EEB4
:104A3000A01A61EE050A20EE800A75EE610AB5EE55
:104A4000001AB6EE003A14EE101A70EEC00A0629EB
:104A500020EE811AF0EE410A41EE830A32D2DFE8FD
:104A600001F031030811182AF0EE601AB0EE412A65
:104A70000CE0B0EE602AF0EE411A00EE032AB0EE30
:104A8000601A0CE0F0EE411AB0EE602A40EE030A24
:104A9000F5E7F0EE601A40EE031AB0EE602A90F8E7
:104AA000B811A1B1012945D19FED310A80ED230A4A
:104AB00080ED240A46E0F0EE601AB0EE412A40EEA6
:104AC000031ADCE7F0EE601A40EE030AE5E7B0EE09
:104AD000610ADFED281A2849DFED280A20EE210AB5
:104AE00010EE103A8B4202DDC0ED230A08E010EE12
:104AF000103A934202DAC0ED233A01E080ED230A36
:104B000022EE210A10EE103A8B4202DDC0ED240A9B
:104B100008E010EE103A934202DAC0ED243A01E0C8
:104B200080ED240A21EE210A10EE103A8B4202DDBC
:104B3000C0ED250A704710EE101A914202DAC0ED5E
:104B4000253A704780ED250A704700004024002078
:104B5000D7B3DD3F0000C04014260020000096447B
:104B600017B7D1380000964417B7D138629E35394F
:104B700000000000BE32A04C003883450038834559
:104B80001C491D4891ED131A91ED100AD1ED110A3F
:104B900061EE001A91ED120A40EE201AD0ED000AE3
:104BA00031EEE02ADFED151A42EE210AB0EE082AB6
:104BB000C0ED000ADFED120A134861EE200A20EE74
:104BC000801ADFED100A00EE201A90ED000AF0EED8
:104BD000400A51EE020A00EEA10A80ED000A0B48DD
:104BE000007F012801D0012000E0002081F8B801F9
:104BF0007047000040240020000100200AD7A33B9A
:104C000018B751B8E46EAD3B040100201426002013
:104C100004489FED030A80ED400A80ED220A7047A8
:104C200000000000402400200548074990ED000ADC
:104C3000044880ED400A91ED000A80ED220A704799
:104C4000100100204024002014010020064890F8A4
:104C50003800012806D1054890F8B901032801D091
:104C6000FFF7D6BFFFF7E0BF680000204024002018
:104C700010B50C4C40F6FF709FED0B1A94ED3C0AFA
:104C8000DFED0A0A01F07CFA094901EB800000F52A
:104C9000804191ED000A84ED3E0A90ED000A84ED1A
:104CA0003F0A10BD402400206C1CC93A00000000DF
:104CB0000464000810B50C4C40F6FF709FED0B1A11
:104CC00094ED270ADFED0A0A01F05AFA094901EBCF
:104CD000800000F5804191ED000A84ED3A0A90EDE4
:104CE000000A84ED3B0A10BD402400206C1CC93A28
:104CF000000000000464000810B50C4C40F6FF7082
:104D00009FED0B1A94ED270ADFED0A0A01F038FA3D
:104D1000094901EB800000F5804191ED000A84ED26
:104D2000360A90ED000A84ED370A10BD40240020B9
:104D30006C1CC93A000000000464000810B50C4C5B
:104D400040F6FF709FED0B1A94ED330ADFED0A0A6F
:104D500001F016FA094901EB800000F5804191ED60
:104D6000000A84ED340A90ED000A84ED350A10BD86
:104D7000402400206C1CC93A0000000004640008B4
:104D800010B50C4C40F6FF709FED0B1A94ED270AFE
:104D9000DFED0A0A01F0F4F9094901EB800000F5A2
:104DA000804191ED000A84ED380A90ED000A84ED0F
:104DB000390A10BD402400206C1CC93A00000000D4
:104DC0000464000810B5144C144994ED1D0A10EE4B
:104DD000100A884202DD9FED120A06E010EE100A6A
:104DE0001049884201DA9FED100A40F6FF709FEDEE
:104DF0000F1ADFED0F0A01F0C3F90E4901EB800035
:104E000000F5804191ED000A84ED200A90ED000A42
:104E100084ED210A10BD000040240020090FC94084
:104E2000090FC94017B7D13817B7D1386C1CC93A28
:104E300000000000046400084D484E4990ED000A4F
:104E4000D1ED1A0A4C4891F8B73170EE600A91F929
:104E5000AD2190F83800032B01D1012809D050B1C1
:104E6000022081F8AD01824210D032B1012A0DD169
:104E700008E00020F5E70120F3E791ED1C0A81ED41
:104E8000490A03E091ED1B0A81ED480A3D4A9FED76
:104E90003B2A9FED3B4A92ED053AD2ED042A3A4B6C
:104EA000D2ED061A92ED070A20B1012831D083ED28
:104EB000002A704791F8C40108B1B0EE602A91ED64
:104EC000491A81ED1C1AF0EE413A03EE201AF4EE75
:104ED000C11AF1EE10FA02D2B0EE610A06E0B4EEA9
:104EE000C10AF1EE10FA01DCB0EE410A83ED000ACE
:104EF000B4EE401AF1EE10FA01D1012000E00020DA
:104F000022EE820A81F8C40140EE043AC1ED493A2A
:104F1000704791F8C30108B1B0EE602A91ED481ACC
:104F200081ED1B1AF0EE413A03EE201AF4EEC11A9D
:104F3000F1EE10FA02D2B0EE610A06E0B4EEC10A58
:104F4000F1EE10FA01DCB0EE410A83ED000AB4EE96
:104F5000401AF1EE10FA01D1012000E0002022EE0B
:104F6000820A81F8C30140EE043AC1ED483A704725
:104F700014260020402400206800002000000000CB
:104F80006F12033BC400002014010020094991F96D
:104F9000AD0110B1012809D104E091ED1C0A81EDA9
:104FA000490A03E091ED1B0A81ED480AFF2081F8D0
:104FB000AD01704740240020034890ED050A0348E6
:104FC00080ED140A00F004B81426002040240020CC
:104FD000184810B590ED050ADFED170A20EE200AFB
:104FE00000F0CEFEBDEEC00A14499FED151A10EE7A
:104FF000100AD1F8902191ED150A8000821A00EE76
:10500000902AF6EE001A104AF8EEE00A60EE810AE5
:105010009FED0C1A20EE811AF0EE400A51EE210AA3
:1050200092ED001A00EE810A81ED150AC1F8900197
:1050300010BD00001426002083F9224D40240020DA
:10504000DA6F7537EBC91841600000202DE9F04197
:105050003F4C2DED068BD4F89401411C02D0401C2E
:10506000C4F8940194F8BD0100269FED3A8B01210C
:10507000B0B394F8BE01394A9FED39AB9FED3A9B2E
:1050800003250227012837D0022823D084F8B971DC
:10509000106BFBF78CFA53EC1A2BFBF7F3F953EC7C
:1050A000192BFBF777F941EC100B00F0DDFD51EC0B
:1050B000100BFBF763FAD4F8941188420CD894EDE6
:1050C000020B53EC182B51EC100BFBF783FA03D1B6
:1050D00084F8BE7184F8B951BDEC068BBDE8F0814F
:1050E000FFE784F8BD1184F8BE11C4F8946184F818
:1050F000B91184ED008BEFE784F8B9115069FBF723
:1051000056FA53EC1A2BFBF7BDF953EC192BFBF7AE
:1051100041F941EC100B00F0A7FD51EC100BFBF72F
:105120002DFAD4F894118842D6D894ED000B53ECA4
:10513000182B51EC100BFBF74DFACDD184F8BE5172
:10514000C4F8946184F8B97184ED028BC4E700005F
:1051500040240020000000000000F03F6800002014
:105160002D431CEBE2361A3F11EA2D819997713DD0
:10517000034890ED010A034880ED000A70470000E3
:105180001426002014010020401EB0F1807F01D3BE
:10519000012070474FF0E0214861054AF02082F875
:1051A000140D00208861072008610020704700006E
:1051B0000FE000E00348016811B10168491E016079
:1051C000FCF752BF0400002030B593B03021684690
:1051D000FBF734F814210CA8FBF730F81D48002524
:1051E000016841F080510160006800F0805011902A
:1051F0001948016821F4404141F400410160006810
:10520000022400F4404011900120039010200490EB
:10521000009406940820CDE907505420CDE90904F4
:1052200004200B906846FDF7A5F808B172B6FEE7BA
:105230000CA90F2081E831004FF48050CDE90F0513
:1052400002210CA8FCF7ACFF002801D072B6FEE7E3
:1052500013B030BD4038024000700040054801687E
:1052600041F47001016003494FF00060803908602B
:105270007047000088ED00E00148FDF78CBC00009D
:10528000C40100200148FDF786BC0000C4010020D5
:1052900070B51B48FDF77FFC4FF400411948FCF73F
:1052A000CBFE194C194D0821A0702846FCF7C4FE0E
:1052B000E07029152846FCF7BFFE2071A378E57839
:1052C00004F10C0643EA450141EA8001217062784D
:1052D000B154521CD1B20E4A617002F8243F55708D
:1052E00090700C480068406A062900EE100AB8EE7B
:1052F000400A02ED010A01D30020607070BD000079
:1053000004020020000002403E0000200004024091
:1053100014260020C402002010B52448244CB0EE0E
:10532000080A80ED010A2068FBF71BF99FED211B9D
:1053300053EC112BFBF734F8FBF764F91F49DFED51
:10534000210ADFED1F1A086094ED010A1E491F4A69
:10535000B8EE401AB0EE600A01EE210A10EE100A13
:1053600081ED000A904201DAC1ED000A184A0021DD
:105370001088401C00B21080B0F5FA5F00DD11808B
:10538000144A1088401C00B21080B0F5487F00DD40
:105390001180114A1088401C00B21080A02800DD46
:1053A0001180BDE810400D48FDF7F5BB1426002024
:1053B000A803002093C83EC8B260923F18000020A6
:1053C000083DEB3E00004844340000200000484403
:1053D00012000020100000201400002044020020D1
:1053E00010B580210348FCF72CFEBDE810400248B0
:1053F000FDF7D1BB00040240C4020020F0B50268F2
:105400001D4C1E4D1E4E1F4F4FF0804CA04207D02A
:10541000604505D0A84203D0B04201D0B84203D1C4
:1054200022F070034A681A43A04210D060450ED0A3
:10543000A8420CD0B0420AD0B84208D0124B9842D1
:1054400005D0124B984202D0114B984203D122F45E
:105450004073CA681A434B6922F080021A43026003
:105460008A68C2620A688262A04201D10969016346
:1054700001214161F0BD0000000001400004004036
:1054800000080040000C0040004001400044014082
:105490000048014010B501F01F010123046A8B4050
:1054A0009C430462036A8A401343036210BD10B533
:1054B00001F01F010423046A8B409C430462036AC9
:1054C0008A401343036210BD10B5846842EA032288
:1054D00024F47F440A432243826010BD826822F094
:1054E00070020A4342F007018160704730B5026ADA
:1054F00022F001020262036A4268846924F07305A3
:105500000C682C4323F002058B682B430C4DA842FA
:1055100006D123F00805CB6843EA050323F0040312
:1055200007D14D6922F4407245EA02058A6942EAD0
:1055300005024260846149684163036230BD000036
:105540000000014030B5026A22F010020262026AD5
:10555000436884690D6824F4E64444EA05248D68B0
:1055600022F0200242EA05120C4DA84206D1CD6875
:1055700022F0800242EA051222F0400207D14D6972
:1055800023F4406343EA85038D6943EA850343605E
:10559000846149688163026230BD000000000140FF
:1055A00030B5026A22F480720262036A4268C469FA
:1055B00023F4007324F073050C682C438D6843EAD0
:1055C00005230C4DA84206D1CD6823F4006343EABD
:1055D000052323F4806307D14D6922F4405242EA47
:1055E00005128D6942EA05124260C4614968C163CF
:1055F000036230BD0000014030B5026A22F48052DF
:105600000262036A4268C4690D6824F4E64444EA0D
:1056100005248D6823F4005343EA0533064DA84260
:1056200004D14D6922F4804242EA85124260C4618D
:1056300049680164036230BD0000014010B5026892
:10564000936823F070044B68234323F007040B682E
:10565000234393604A6812F00F0F30D11211082AC9
:105660002DD2DFE802F02C2C2C2C0B2127040B6907
:10567000D1E902210068FFF727FF20E00A68052A28
:1056800010D00268146A136A23F0010313620268DF
:105690009369096923F0F00343EA011191610068FD
:1056A00004620CE0012010BD0A698968006800F0FE
:1056B00008F804E00A698968006800F049F80020E9
:1056C00010BD10B5046A036A23F001030362836905
:1056D00023F0F00343EA021324F00A020A43836131
:1056E000026210BD70B5046A24F00104046284698A
:1056F000056A124EB0420ED0B0F1804F0BD0104E62
:10570000B04208D00F4EB04205D00F4EB04202D08A
:105710000E4EB04203D124F00304144301E044F0E0
:1057200001041A0724F0F00444EA126225F00A0387
:1057300001F00A0119438261016270BD000001405D
:105740000004004000080040000C00400040014000
:1057500010B5036A23F0100303628469036A24F41A
:10576000704444EA023223F0A00343EA011182614B
:10577000016210BD10B5806B0021C185C184FDF7A9
:1057800028FC10BD70B5846B2068406994F839100E
:10579000C0F3C0100025212904D118B1E5842046AA
:1057A00000F062F82068406994F83A10C0F3801065
:1057B000222904D118B1E585204600F047F8E06BB6
:1057C00040F01000E0632046FDF703FC70BD10B50B
:1057D0000146806B09680968C90513D40021C18599
:1057E0000168CA6822F48072CA6001684A6922F0BE
:1057F00001024A6101684A6922F040024A6120219F
:1058000080F83A10FDF760FD10BD10B5806BFDF714
:105810005CFD10BD10B50146806B09680968C905BB
:105820000CD40021C18401684A6922F080024A61D7
:105830000068C16841F04001C16010BDFDF786FD00
:1058400010BD10B5806BFDF782FD10BD0168CA6800
:1058500022F49072CA6001684A6922F001024A612A
:10586000202180F83A1070470168CA6822F0C0020F
:10587000CA60202180F83910704710B590F83A10AE
:10588000222901D0022010BD8168B1F5805F11D0BE
:105890000169002901681FD0496801F07F03816A0E
:1058A0004A1C82620B70C18D491E0904090CC18516
:1058B00018D02BE00269816A002A0268526805D07C
:1058C000D2B20A80816A491C8162ECE7C2F3080205
:1058D0000A80816A891CF7E74A68816A4B1C8362E7
:1058E0000A70E0E70168CA6822F02002CA60016815
:1058F000CA6822F48072CA6001684A6922F0010213
:105900004A61202180F83A10FDF7DEFC002010BD2E
:105910002DE9F041044600680169E26821F4405134
:1059200011430161A1682069E26901436069104384
:1059300001432068C26849F20C639A430A43C2607B
:1059400020684169A26921F4407111434161E06915
:10595000192764253226B0F5004F354A35492068AD
:105960004FF0000806D0884201D0904236D1FCF7B3
:10597000C1FC35E0884201D0904202D1FCF7BAFC6C
:1059800001E0FCF7A7FC61684A18A0FB070148EB9F
:105990000803FAF71BFC0146B0FBF5F00201B1FB6E
:1059A000F5F06FF01803584301EB800006EBC000E0
:1059B000B0FBF5F000F0F80002EB4002B1FBF5F0AF
:1059C000584301EB800006EBC000B0FBF5F000F09F
:1059D0000700216810448860BDE8F081FCF77AFC7C
:1059E00001466068830F8200A1FB0701FAF7EEFB16
:1059F0000146B0FBF5F06FF01802504301EB800058
:105A000006EB0010B0FBF5F000F0F002B1FBF5F092
:105A100002EB0012B1FBF5F06FF01803584301EBF5
:105A2000800006EB0010B0FBF5F000F00F00D0E7AF
:105A3000001401400010014090F83910212901D0D4
:105A4000022070478168B1F5805F016A0BD04A1C63
:105A50000262026809785160C18C491E0904090C70
:105A6000C1840ED017E009880268C1F308015160B3
:105A700001690029016A02D0491C0162ECE7891C16
:105A8000FBE70168CA6822F08002CA600068C1684A
:105A900041F04001C16000207047000010B50C4883
:105AA000FDF798FA0A4C20680068C043C0060DD480
:105AB0000C2208490848FCF72FF80E220549204619
:105AC000FDF7B6FB21686FF01000086010BD000004
:105AD0000403002044030020080000202DE9F047C3
