:020000040800F2
:10000000B8290020A9010008B1010008B3010008C7
:10001000B5010008B7010008B901000800000000A0
:10002000000000000000000000000000BB0100080C
:10003000BD01000800000000BF010008F9480008E9
:10004000C3010008C3010008C3010008C301000880
:10005000C3010008C3010008C3010008C301000870
:10006000C3010008C3010008C3010008C301000860
:10007000C3010008C3010008C3010008C301000850
:10008000890D0008950D0008F50800080000000023
:10009000000000000000000000000000C301000894
:1000A000BD490008C9490008C3010008C301000890
:1000B000D5490008614A0008C3010008C3010008CF
:1000C000C3010008C3010008C3010008C301000800
:1000D000C3010008C3010008D95100080000000056
:1000E00031120008C3010008C3010008000000002D
:1000F000000000000000000000000000C301000834
:1001000000000000C30100081D4B0008C3010008E7
:1001100000000000000000000000000000000000DF
:10012000A10D0008C3010008C3010008C3010008B5
:10013000C3010008000000000000000000000000F3
:10014000000000000000000000000000C3010008E3
:10015000C3010008C3010008C3010008C30100086F
:10016000C3010008C30100080000000000000000F7
:10017000000000000000000000000000000000007F
:1001800000000000C30100080000000000000000A3
:10019000C3010008DFF80CD000F05CFA004800470B
:1001A000F15B0008B8290020064880470648004750
:1001B000FEE7FEE7FEE7FEE7FEE7FEE7FEE7FEE717
:1001C000FEE7FEE7A1490008950100082DE9F05F70
:1001D0000546002092469B468846064681464024B6
:1001E0001BE0284641464746224600F064F9534644
:1001F0005A46C01A914110D311461846224600F0C3
:100200004BF92D1A67EB01084F46224601200021C9
:1002100000F042F917EB00094E41201EA4F1010441
:10022000DFDC484631462A464346BDE8F09FD2B25D
:1002300001E000F8012B491EFBD270470022F6E7CF
:1002400010B513460A4604461946FFF7F0FF20464C
:1002500010BD2DE9FE4F81EA030404F0004421F0B3
:10026000004100944FF0000B23F0004350EA0104DA
:100270005ED052EA03045BD0C3F30A54C1F30A55BB
:100280002C44A4F2F3340194A0FB0254C1F31301F3
:1002900041F48011C3F3130343F4801301FB0244C0
:1002A00000FB034E840A970A44EA815447EA8357C5
:1002B000A4FB076802958D0A05FB07854FEA932C7E
:1002C00004FB0C542705029D4FEA065847EA1637EF
:1002D000B5EB08056EEB070C870E920E47EA811707
:1002E00042EA8312A7FB0201B6EB0B0164EB0004A8
:1002F0002B0D43EA0C335E1844EB1C50DA46514692
:10030000E7FB0201C5F313044FEA0B3343EA14532E
:100310004FEA0432019C43EA0603A4F10C04029460
:10032000009CCDE900B400F045F903B0BDE8F08FC2
:1003300000200146F9E72DE9F04D81EA030404F0BD
:10034000004B21F0004514464FF0000A23F0004115
:1003500050EA050220D054EA01021DD0C5F30A5725
:100360000246C5F31303C1F31300C1F30A5640F468
:10037000801543F48013A7EB0608101BD64608F23D
:10038000FD3873EB050002D308F1010801E0921873
:100390005B41B8F1000F03DA00200146BDE8F08DA3
:1003A00000204FF48011064684460EE0171B73EBC5
:1003B000050705D3121B63EB050306434CEA010C4A
:1003C00049084FEA300092185B4150EA0107EDD12D
:1003D00052EA030012D082EA040083EA05010843CE
:1003E00005D0101BAB4106D20122002306E00022FB
:1003F0004FF0004302E06FF0010253101AEB0600C9
:100400004CEB085110EB0A0041EB0B01BDE8F04D3D
:1004100000F0C1B80EB540F2334102910021CDE9A0
:1004200000110A460B4600F0C5F803B000BDC1F349
:100430000A5210B5C1F3130140F2FF3341F48011A9
:100440009A4201DA002010BD40F233439A42A2F2F0
:10045000334203DC524200F02EF810BD904010BD34
:1004600001F0004330B421F0004150EA010206D00F
:100470000A0DA2F56072C1F31301002A02DC30BC40
:1004800000207047440F44EAC104C100E01830BCAA
:1004900000EBC25000F01FB8202A04DB203A00FA1B
:1004A00002F1002070479140C2F1200320FA03F3CB
:1004B000194390407047202A04DB203A21FA02F0C9
:1004C0000021704721FA02F3D040C2F1200291408E
:1004D0000843194670470029A8BF7047401C4900CF
:1004E00008BF20F00100704710B4B0FA80FC00FA99
:1004F0000CF050EA010404BF10BC704749B1CCF1C4
:10050000200421FA04F411FA0CF118BF012121434F
:100510000843A3EB0C01CB1D4FEA00614FEA10200A
:1005200042BF002010BC704700EBC35010440029AC
:10053000A4BF10BC7047401C490008BF20F0010058
:1005400010BC7047F0B400F0004221F0004120F0F0
:100550000040CE0DC30DC1F3160141F40001C0F3FC
:1005600016004C42154640F40000761E09E010EBE0
:10057000440002D582F0004240428842F7D8400051
:100580005B1EB342F9DA18B1F0BC0021FFF7ACBF33
:100590002846F0BC704710B5141E73F1000408DA49
:1005A000401C41F1000192185B411A4301D120F037
:1005B000010010BD2DE9F04D92469B4611B1B1FAF4
:1005C00081F202E0B0FA80F220329046FFF764FF39
:1005D00004460F4640EA0A0041EA0B0153465A46D8
:1005E000084313D0114653EA010019D0C8F1400264
:1005F0005046FFF760FF05460E46504659464246B4
:10060000FFF74AFF084305D0012004E020463946A1
:10061000BDE8F08D0020054346EAE0762C433743E1
:100620000A986305E40AA0EB08000022FD0A44EAE8
:1006300047540A3002D500200146E9E701051019A8
:100640006941DDE9084500196941BDE8F04DA2E7BF
:1006500000207047064C074D06E0E06840F00103BB
:1006600094E8070098471034AC42F6D3FFF796FDA4
:10067000382301085823010870B58C1810F8015B65
:1006800015F0070301D110F8013B2A1106D110F82B
:10069000012B03E010F8016B01F8016B5B1EF9D12F
:1006A0002B0705D40023521E0DD401F8013BFAE7B5
:1006B00010F8013BCB1A921C03E013F8015B01F820
:1006C000015B521EF9D5A142D8D3002070BD0000B5
:1006D00070B53A4C3A483B4994ED080A3C4A80EDE3
:1006E000140AD1ED070A0E4620EE802A90ED4A0A40
:1006F00072EE400A9FED340A80EE201A80ED151A42
:1007000090ED4B0AD0ED4C1A31EE400A71EEA01A72
:10071000C0EE212AC0ED162AD0ED3F1ADFED2B2ABC
:10072000B0EE610A11EE220AD2ED002A294A40EE0B
:10073000221AC2ED031A94F8253094F826205D00A1
:1007400094F8244005EB82052544EDB296ED000AAD
:10075000072D0ED2DFE805F00D0407181B1E21003F
:10076000D1ED042A01E0D1ED062A32EE800A80EDB7
:10077000170A80ED4A2A80ED4B1AC0ED4C0AC0EDF5
:100780003F1A6CB101200CE0D1ED052AEDE7D1ED67
:10079000022AEAE7D1ED032AE7E7D1ED012AE4E7EF
:1007A00000200D4908700BB1012000E000204870C6
:1007B0000AB1012000E00020887070BD8C25002067
:1007C0003824002084000020920A863F66FCBE4246
:1007D000600000207C2500201C01002010B501468F
:1007E000806B026C12F0500F05D0026CD20626D539
:1007F00001F006F910BD016C41F40071016401685B
:100800008A6812F0405F17D1027EAAB9CA6A12F450
:10081000700F02D08A6852050ED44A6822F0200276
:100820004A60016C21F480710164016CC90403D435
:10083000016C41F00101016401F0E0F810BD806B32
:10084000C26CBDE810400846104710B5806B4021CF
:100850000164416C41F00401416401F0D1F810BD24
:1008600010B5806B01F0CBF810BD00001C481E498C
:100870001E4A90ED080A1B48D0ED140AD0ED161A56
:1008800030EE600AD1ED070A20EE801A21EE011A3F
:1008900021EE211AF6EE001A21EE211AD0ED151ADA
:1008A00021EE800A00EE201A90ED170AD1ED000A21
:1008B00031EE000A30EE200ADFED0D0A10EE101ABC
:1008C000914202DD30EE600A06E0B5EEC00AF1EEBC
:1008D00010FA01D230EE200A80ED130A70470000B2
:1008E0008C2500203824002084000020DB0FC94024
:1008F000DB0FC9402DE9F0416B4D01222DED028B3C
:100900004021284601F0C8FC68480068406A684CED
:1009100000EE100AB8EE400A84ED080AFFF7A6FFC1
:100920000121644800F0DFFE00EE100AB8EE400A34
:100930009FED618A30EE480ADFED608A604E022149
:1009400020EE280A5B4886ED000A00F0CCFE00EE9F
:10095000100A5C4F0321B8EE400A564830EE480AB0
:1009600020EE280A87ED000A00F0BDFE00EE100A16
:100970005548B8EE400A30EE480A20EE280A80EDCD
:10098000000A5248D0ED030AB8EE601ADFED500AB3
:10099000504921EE201A81ED001A90ED041A4E49BB
:1009A000B8EE411A21EE201A81ED001A90ED051AD9
:1009B0004A48B8EE411A61EE200AC0ED000A4848E4
:1009C000D0ED000A4748C4ED000AD6ED000AC4ED98
:1009D000020AD7ED000AC4ED030A84ED040A90ED83
:1009E000000A414884ED060A0078012802D12077E8
:1009F00003F0D2FA3D4C6089401C81B26181052927
:100A000014D904F009FC002239486281218990ED53
:100A1000130A384800EB8100491C80ED000A88B2B7
:100A200040F2CF712081884200D32281324890ED7C
:100A3000000AFCEEC00A10EE901A8AB22F490B6829
:100A40005A63D0ED010A0B68BCEEE01A11EE102AD1
:100A500092B29A6390ED021A0968BCEEC11A11EEC7
:100A6000100A80B2C8639FED261A20EE010ABCEE80
:100A7000C00A10EE100A81B222480268516320EECB
:100A8000810A0068BCEEC00A10EE101A89B28163B8
:100A9000084800F0B6FFBDEC028B2846BDE8F041E7
:100AA0000022402101F0F8BB00040240BC020020FB
:100AB0008C250020740100200060FF440000843C6D
:100AC0001C0000202000002024000020A0030020A3
:100AD0009605933C280000202C00002030000020C8
:100AE0003400002018000020380000203A000020C8
:100AF00038240020F80400207C250020BC010020C0
:100B00000000A7433C020020464910B54A6822F481
:100B100040324A604A6843681A434A6001684A683A
:100B200022F480724A6001684A68036942EA03223B
:100B30004A6001684A6822F040724A6001684A6867
:100B400083681A434A6001688A6822F400628A60F6
:100B500001688A68C3681A438A60816A6FF07062AC
:100B6000D14201688A6822F070628A6001688A68EE
:100B70000CD0836A1A438A6001688A6822F0405266
:100B80008A6001688A68C36A1A4301E022F0405211
:100B90008A6001688A6822F002028A6001688A68B5
:100BA000037E42EA43028A6090F82010002901681F
:100BB0004A680FD042F400624A6001684A6822F431
:100BC00060424A6001684A68174C436A04EB433349
:100BD0001A4301E022F400624A600168CA6A22F402
:100BE0007002CA620168CA6A838B104C04EB03531B
:100BF0001A43CA6201688A6822F400728A60016836
:100C00008A6890F8303042EA43228A6001688A6834
:100C100022F480628A6001688A68406942EA802022
:100C2000886010BD0023014000E0FFFF0000F0FFDE
:100C300005484079012803D0022803D103F01ABBEC
:100C400003F0E8BD704700006800002009490A4829
:100C50000A4A91ED310AD0ED000A30EE200A10EE7A
:100C6000100A904203DD01F1440002F057BE81ED0D
:100C7000110A70473824002068000020DB0FC940AB
:100C80000F48F6EE001A90ED021A90ED030AD0ED2F
:100C9000040A0D4800EE611A00EEE11ADFED091AB0
:100CA00021EE211A80ED001A9FED081A084820EE67
:100CB000010A00EEC10A20EE210A80ED000A704709
:100CC0008C250020EC05513F34010020D7B35D3F57
:100CD0003801002000B50E4A0E4992F93A0189798F
:100CE00011B1012900D0022182F83A11884202D0C4
:100CF00008B903F087FD29B1012907D15DF804EB9C
:100D000003F0D8BD5DF804EB03F01EBD00BD00008C
:100D1000382400206800002010B5FFF7DBFF1149E0
:100D20000F4A097C92F93801012901D0012100E024
:100D3000002182F83811884202D008B900F0ECFB9B
:100D400051B10A489FED080A80ED000A084892ED6B
:100D5000190A80ED000A10BDBDE8104000F046BB46
:100D60003824002070000020000000001001002046
:100D70001401002003484FF0FF3180F8381180F84B
:100D80003A11704738240020014801F037B80000BC
:100D900078040020014801F031B800001804002058
:100DA000014801F02BB80000B803002001681823A7
:100DB000CAB2103AB2FBF3F2054B6FF30901032AF2
:100DC0009B5CC36500D9091D81650846704700001A
:100DD000D061000810B5014600208B698A6A4FF087
:100DE000C07453B1B3F5005F15D072B1012A0CD0B5
:100DF000022A0AD0032A09D104E01AB1012A06D036
:100E0000022A03D1C96AC90100D5012010BDC96AEF
:100E1000A142FAD010BD002AF7D0012AF2D0022A4E
:100E2000F3D0032AF3D010BD30B50468256825F44B
:100E300080252560046863608368402B036803D0C5
:100E400099600068C26030BD9A600068C16030BDC2
:100E50002DE9F0419D4C2DED088B82B094ED1E0ADA
:100E6000B5EEC00AF1EE10FA7DDD994890ED060A64
:100E70009848D0ED000A20EE200ADFED970A974847
:100E8000D4ED488A80EE208A90ED000A70EE680A60
:100E90009FED930A934894ED499A40EE808AD0EDF5
:100EA000000A914E70EEC90A00EE809ADFED8F9A2B
:100EB0008F4F9FED90BA4FF480589FED8FAADFEDD2
:100EC0008FAAF5EEC08A8E4DF1EE10FA1BDD89EE89
:100ED000280A10EE100AB04202DDB0EE690A05E001
:100EE00010EE100AB84201D9B0EE4B0A4046B0EEFF
:100EF0004A1AF0EE6A0A04F0AFFF05EB800090EDAD
:100F0000000A84ED2D0ADFED7FBAB5EEC09AF1EE4E
:100F100010FA1BDBF5EEC08AF1EE10FA16D289EE5C
:100F2000280A10EE100AB84201D9B0EE4B0A40462A
:100F3000B0EE4A1AF0EE6A0A04F08EFF05EB80006C
:100F400090ED000A30EE2B0A84ED2D0AB5EEC09A22
:100F5000F1EE10FA1DD2F5EEC08AF1EE10FA18D2B9
:100F600089EE280A00E0ABE010EE100AB04201DD85
:100F7000B0EE690A4046B0EE4A1AF0EE6A0A04F092
:100F80006BFF05EB800090ED000A30EE6B0A84EDFC
:100F90002D0AB5EEC09AF1EE10FA08DDF5EEC08A22
:100FA000F1EE10FA03D19FED580A84ED2D0AB5EE4B
:100FB000C09AF1EE10FA08D2F5EEC08AF1EE10FAFE
:100FC00003D19FED520A84ED2D0A94ED2D0AD4ED44
:100FD000130A4F4930EE200A10EE100A884203DD52
:100FE000684602F09BFC01E08DED000A494900983B
:100FF000884202DC4849884206DC84ED008AB1EE72
:10100000480A84ED010A17E04349444AC9430144B0
:10101000914206D884ED008A84ED018AB1EE480A37
:101020000AE03F493F4A0144914208D8B1EE480ADC
:1010300084ED000A84ED018A84ED020A22E03A4937
:101040003A4A0144914206D8B1EE480A84ED000ABA
:1010500084ED018A14E03649364A0144914204D8AD
:10106000B1EE480A84ED000A08E0334908443349E8
:10107000884207D884ED008AB1EE480A84ED010A5F
:1010800084ED028A94ED001AD4ED010AF6EE001AFE
:1010900094ED020A00EEE11A00EE611ADFED281A63
:1010A00030EEC00ADFED270A21EE211A20EE200AD9
:1010B00084ED2E1A84ED2F0AC4ED488A84ED499AF6
:1010C00002B0BDEC088BBDE8F081000038240020A0
:1010D0008C2500205C00002017B7D13820010020AB
:1010E0000AD7A33B2401002000000F4400000F4456
:1010F00000000FC400000FC400408F3E00400FC42A
:10110000F4610008DB0F4940DB0FC93FDB0FC9BFAB
:10111000DB0FC9407B4EB840850A063F5205C3002D
:1011200027F036C05A7D5E00CC72D8BF4905430017
:10113000826D95BF66392C001B3469BF96822100F1
:10114000ABAA2A3F3ACD133F0CB53048314A9FED48
:10115000322A90ED000A2E48D0ED000A92F83E01A6
:1011600070EE601A10B992F83D0108B182ED472A7D
:101170002A4B2B4892ED471A93ED010A0179294831
:1011800000EE211A002990ED060A694601A802D056
:1011900002F072FF01E002F05DFF9DED010A2249BD
:1011A000B4EEC01AF1EE10FA06DC9DED000AB4EEC2
:1011B000C01AF1EE10FA02D281ED000A01E081EDD1
:1011C000001A92F8420108B9F0EE421AD3ED000A73
:1011D00092ED470A60EEA10ADFED141A00EEA10AB3
:1011E00082ED470A92F83E0100B1012082F83D01EC
:1011F00091ED000AB4EE401AF1EE10FA01D101208F
:1012000000E0002082F842010CBD00001001002027
:10121000200100203824002000000000E800002009
:10122000680000208C2500203001002017B7D1383D
:10123000104910B50120087000210F4801F0A6FFE9
:1012400000210D4801F066FC04210B4801F09EFFCF
:101250000421094801F05EFC0821074801F096FFCF
:101260000821054801F056FCBDE810404FF400503D
:1012700000F036BF38000020BC01002072B6FEE747
:1012800010B5FFF7FDFC03F06FF902F007FFFFF761
:101290005BFF02F027FF2D482D4CDFED2F0A007871
:1012A00000EE100A2B48B8EE400A84ED1B0A90EDC0
:1012B000030A20EE200A84ED330A00F05DF8274887
:1012C00094ED2B0AD0ED000A254830EE200A84ED7B
:1012D0001C0A94ED2C0AD0ED000A30EE200A84EDB1
:1012E0001D0A02F025FB1F48007800EE100AB8EE38
:1012F000400A84ED1E0AFFF7ABFD1B4890F8400042
:1013000000EE100AB8EE400A84ED1F0A02F044F91C
:10131000164894ED2E0AD0ED000A154830EE200A4A
:10132000D4ED360A30EE200A84ED330A94ED2F0A0C
:10133000D0ED000A30EE200AD4ED350A30EE200A56
:1013400084ED340ABDE8104002F0A6BF650000201D
:10135000382400207C2500205077563E18010020BC
:101360003001002064000020A4000020280100209B
:101370002C010020FFF784BF154890ED1B0AB5EE45
:10138000C00AF1EE10FA21DD1249DFED130A9FEDDC
:10139000142A91ED000A1149DFED122A20EE201ADD
:1013A000D1ED000A61EE201A90ED331A60EE820A48
:1013B00041EE021A40EE221AC0ED2B1ADFED0A1A96
:1013C00020EE210A40EE410AC0ED2C0A70470000D1
:1013D00038240020240100206F12833B20010020CC
:1013E000CDCCCC3E3EA8D53C27A0893B10B5404C87
:1013F000F0EE000A2DED028B94ED0C0A04F05CFE79
:10140000B0EE408A94ED0E0AF0EE000A04F054FEAD
:10141000384838EE000A01793748D0ED060A11B194
:101420009FED361A01E09FED361AB5EEC00A20EEA8
:10143000818AF1EE10FA06D2B1EE400A04F07EFB8A
:10144000B1EE400A01E004F079FB78EE400A94F82E
:101450003F019FED2C0A10B1B0EE601A01E0B0EE32
:10146000401A94F83E0110B994F8391149B384ED4B
:10147000400A254A84ED180AF0EE401A92ED032A3C
:1014800002EE200AD2ED000AF4EEC00AF1EE10FAE4
:1014900008D3D2ED010AF4EEC00AF1EE10FA01DC35
:1014A000F0EE400A1949B4EE600AC1ED000A94ED6D
:1014B000192A1749F1EE10FA81ED002A04D1012111
:1014C00003E094ED400AD4E7002184F83F1192ED47
:1014D000020ADFED100A20EE010A40EE201AC4EDE8
:1014E000401A00B1012084F83901BDEC028B10BD17
:1014F00038240020680000208C250020ABAA2A3F59
:101500003ACD133F000000007000002010010020C1
:10151000140100206F12033B024890ED180A80ED81
:10152000400A70473824002070B590F83C20694C80
:10153000012A19D0012280F83C200A680725036897
:10154000092A13D9DE680A3A02EB42029540AE43FB
:10155000DE600A788B680A3A02EB42029340026826
:10156000D5682B43D36010E0022070BD1E6902EBEA
:1015700042029540AE431E610A788B6802EB42023C
:101580009340026815692B4313610268936B23F43F
:10159000401393630268936B0D8A4F4E06EB05551B
:1015A0002B4393630A790B7CD21AD21C02EB820282
:1015B0001F2393400268956B9D4395630A790B7CCA
:1015C000D21A0B88D21C02EB82029BB293400268B3
:1015D000956B2B4393638A69A2420268936823F454
:1015E00070239360026893680CD08C6923439360E6
:1015F0000268936823F44013936002689368CC698F
:10160000234301E023F4401393604A7D002A0268DB
:10161000536802D043F4806301E023F48063536095
:101620000A7D002A0268536802D043F4805301E027
:1016300023F4805353604A68012A16D0022A1FD02F
:10164000032A026827D0136A6FF30B031362026840
:10165000136ACC6823431362214B04681F4A9C42DF
:1016600027D10C68122C20D023E0026853696FF355
:101670000B03536102685369CC6823435361EBE762
:10168000026893696FF30B03936102689369CC68F6
:1016900023439361E0E7D3696FF30B03D3610268DF
:1016A000D369CC682343D361D6E7546844F48004FB
:1016B000546004689C4208D10968102901D011299E
:1016C00003D1516841F400015160002180F83C10C1
:1016D000084670BD01000F000000F0FF002301402C
:1016E00000200140704708B5002200920368521F95
:1016F0001A60012911D002290CD0032906D004292F
:1017000001D0009808BD0068806C01E00068406C62
:10171000009008BD0068006CFAE70068C06BF7E74E
:1017200018B50022009290F83C10012907D0012141
:1017300080F83C1001688B68DB0702D011E00220C2
:1017400018BD8B6843F001038B602249224B096866
:10175000B1FBF3F101EB410100E0491E00910029CA
:10176000FBD101688B68DB0726D0036C42F20104D1
:10177000A34343F480530364036CDB0500D4426449
:1017800080F83C206FF004020A6014494968006840
:10179000C906816801F4401110D0C1B1002142682E
:1017A0000F4B42F38022521C984205D121B11AB14D
:1017B000816841F480018160002018BD29B10021B9
:1017C000426842F38022521CF0E70121F8E7012130
:1017D000E5E700005800002040420F0000230140D0
:1017E0000020014018B50022009290F83C10012919
:1017F00007D0012180F83C1001688B68DB0702D01C
:1018000011E0022018BD8B6843F001038B6024496E
:10181000244B0968B1FBF3F101EB410100E0491EE3
:1018200000910029FBD101688B68DB072BD0036C8A
:1018300042F20104A34343F480530364036CDB05C9
:1018400000D4426480F83C206FF004020A60016812
:101850004A6842F080024A60134949680068C90634
:10186000816801F4401110D0C1B1002142680F4BD2
:1018700042F38022521C984205D121B11AB18168ED
:1018800041F480018160002018BD29B10021426827
:1018900042F38022521CF0E70121F8E70121E5E73D
:1018A0005800002040420F0000230140002001406A
:1018B00078B50024009490F83C20012A19D0012228
:1018C00080F83C200A6807250368092A13D9DE68D6
:1018D0000A3A02EB42029540AE43DE600A788B681A
:1018E0000A3A02EB420293400268D5682B43D36068
:1018F00010E0022078BD1E6902EB42029540AE4323
:101900001E610A788B6802EB4202934002681569F7
:101910002B4313614A681F25072A13D203685E6BA5
:10192000521E02EB82029540AE435E630A8893B278
:101930000A79521E02EB820293400268556B2B43D8
:10194000536327E003680D2A12D21E6BD21F02EBED
:1019500082029540AE431E630A8893B20A79D21F71
:1019600002EB820293400268156B2B43136311E074
:10197000DE6A0D3A02EB82029540AE43DE620A88CF
:1019800093B20A790D3A02EB820293400268D56A5B
:101990002B43D362164B0568144A9D4206D10D684D
:1019A000122D03D1556845F48005556005689D42A8
:1019B00018D10B68102B01D0112B13D1536843F4AD
:1019C00000035360096810290CD10A490A4A0968C2
:1019D000B1FBF2F101EB8101490000E0491E0091E9
:1019E0000029FBD180F83C40002078BD0023014055
:1019F000002001405800002040420F00704770470F
:101A0000704770B5044600680168C1F34002416840
:101A1000C1F3401152B349B3216CC90603D4216C00
:101A200041F400712164816811F0405F17D1217E7B
:101A3000A9B9C16A11F4700F02D0816849050ED4AA
:101A4000416821F020014160206C20F48070206406
:101A5000206CC00403D4206C40F0010020642046B8
:101A6000FFF7CCFF21686FF0120008602068016862
:101A70004268C1F38001C2F3C01289B382B3216C02
:101A8000C90603D4216C41F400512164816811F42A
:101A9000401F1ED1816B11F4401F02D0816849059F
:101AA00017D44168490514D4816811F0405F10D102
:101AB000217E71B9416821F080014160206C20F4E1
:101AC00080502064206CC00503D4206C40F00100DD
:101AD00020642046FFF706FE21686FF00C000860C6
:101AE000206801684268C1F30001C2F3801271B13D
:101AF0006AB10068C0070AD0206C40F480302064CE
:101B0000204600F046F821686FF001000860206868
:101B100001684268C1F34011C2F3806200290DD010
:101B2000002A0BD0616C41F0020161646FF0200566
:101B300005602046FFF764FF2068056070BD70B542
:101B400004004FF0000603D0206C002510B107E020
:101B5000012070BD204600F01DF8656484F83C50FB
:101B6000206CC00610D4206C20F4885040F0020095
:101B700020642046FEF7C8FF6564206C20F0020058
:101B800040F00100206400E0012684F83C5030461B
:101B900070BD704770B586B0064614216846FEF7E2
:101BA0004DFB2849306888424AD127480025016802
:101BB00041F4807101600068234900F48070143999
:101BC0000590086840F004000860086800F0040010
:101BD0000590086840F0010008600868032400F0E0
:101BE000010005903F208DE831006946174800F05C
:101BF00083FA13208DE831006946154800F07CFA1D
:101C0000154C1448C4E900050015A560C4E903504B
:101C1000800060618000A0618011C4E90705204652
:101C2000656200F0BBF908B1FFF728FBB46300223E
:101C300002211220A66300F0A5FB122000F094FB05
:101C400006B070BD00200140443802400008024048
:101C50000000024010640240B8030020F8B50023E1
:101C60000446009390F83C00012807D0012084F836
:101C70003C0020688568ED0702D011E00220F8BD25
:101C8000856845F0010585602E482F4D0068B0FB42
:101C9000F5F000EB400000E0401E00900028FBD172
:101CA00020688568ED074AD0256C40F20166B5438F
:101CB00045F4807525644068400505D5206C20F406
:101CC000005040F480502064206CC00404D5606C47
:101CD00020F00600606400E0636484F83C30A36B8D
:101CE0001B481A4DD863A36B1A481864A36B1A4893
:101CF000D86423686FF0220018602068436843F0BE
:101D0000806343602068836843F480738360134674
:101D100020680A46A66B00F14C01304600F0A8F995
:101D20006868C006206802D00C49884207D18168E3
:101D300011F0405F03D1816841F080418160002053
:101D4000F8BD00005800002040420F000023014071
:101D5000DD070008610800084B080008002001406A
:101D600030B50223437103689C6844F001049C6011
:101D7000002304E0056851F823402C605B1C93426B
:101D8000F8D30168096801224271084630BD10B5D8
:101D9000040002D0607910B106E0012010BD0020DF
:101DA0002071204600F004F801206071002010BD71
:101DB00008B500680649884208D10648016841F420
:101DC00080510160006800F48050009008BD000060
:101DD000003002403038024090F83510022903D01C
:101DE0008021416501207047052180F83510006889
:101DF000016821F001010160002070472DE9F843DE
:101E000004464FF00009CDF8009063484FF4165196
:101E1000A56D0068B0FBF1F72E6894F85C200821EE
:101E200001FA02F030420FD02068026852070BD549
:101E3000026822F00402026094F85C008140A9600C
:101E4000606D40F00100606594F85C104FF001088F
:101E500008FA01F0304208D021684969090604D522
:101E6000A860606D40F00200606594F85C1004208A
:101E70008840304208D021680968890704D5A860E5
:101E8000606D40F00400606594F85C10102088409C
:101E9000304218D021680968090714D5A860206865
:101EA0000168490304D50068000308D5A16C07E068
:101EB0000168C90503D4016821F008010160216CA3
:101EC00009B12046884794F85C10202088403042B1
:101ED00031D021680968C9062DD5A86094F835006D
:101EE00005282068016806D0490347D5006800032B
:101EF0001DD4616C1CE021F016010160206841696D
:101F000021F080014161206C08B9A06C20B12068EB
:101F1000016821F00801016094F85C103F208840BE
:101F2000A86084F8349084F83580216D1FE0E16B5F
:101F300009B120468847606D00282BD0606DC0072E
:101F400014D0052084F835002068016821F00101D3
:101F500001600098401C0090B84203D820680068D7
:101F6000C007F6D184F8349084F83580E16C0029FC
:101F700010D001B02046BDE8F04308470168C9050C
:101F8000D5D4016821F01001016084F8349084F800
:101F90003580CCE7BDE8F883580000202DE9F041FA
:101FA000044600F07FF905465CB1002684F83460F1
:101FB000022084F835002068016821F001010160E9
:101FC0000DE00120BDE8F08100F06CF9401B052810
:101FD00005D920206065032084F83500F2E72068E9
:101FE0000068C007F0D121680A6820480240D4E99F
:101FF00001031843D4E903352B431843636918439D
:10200000A3691843E3691843236A18431043626ABB
:10201000042A03D1D4E90B231A4310430860206833
:102020004069656A20F0070128460D43012704280E
:102030000CD1A06A0543E06A40B12046FEF7CAFE13
:1020400020B14020606584F83570BAE720684561AA
:102050002046FEF7ABFE94F85C203F219140816062
:10206000666584F835700020ACE700003F8010F012
:102070002DE9F0410446866D90F8340000250128D2
:102080000DD0012084F8340094F835700020012F21
:1020900007D084F8340002252846BDE8F0810220EC
:1020A000FBE7022784F8357060652046FEF7BCFE2A
:1020B00094F85C103F208840B0602068016841F0CF
:1020C00016010160206C20B12068016841F0080110
:1020D00001602068016841F001010160DCE77047A0
:1020E000044910B50A68024202D00860FFF7F7FF02
:1020F00010BD0000143C01402DE9F84FDFF860B13D
:1021000000224FF003094FF00F0A0BF1040E0125D6
:102110000B6895402B40AB4272D14C68012C05D026
:10212000022C03D0112C01D0122C10D1866854003F
:1021300009FA04F7BE43CF68A74037438760446875
:10214000AC430D79C5F30015954025434560C4683F
:10215000570009FA07F58E68AC43BE402643C660B7
:102160004C68022C01D0122C12D1D40800EB840C44
:10217000DCF820605407E40E0AFA04F826EA0806A0
:10218000D1F8108008FA04F848EA0608CCF8208054
:102190000468AC430D7905F00305BD402543056097
:1021A0004C68E40056D52F4C256845F480452560E1
:1021B000246822F0030504F4804400942A4C2E196C
:1021C000D6F808789407250F0AFA05F4A743274C98
:1021D000A04201D1002415E0254CA04201D10124E8
:1021E00010E0244CA04201D102240BE0224CA0427A
:1021F00001D1032406E0214CA04202D1042401E0D5
:1022000028E00724AC403C43C6F80848DBF800400F
:102210005D464E689C43F60300D51C432C60DEF8F7
:10222000004075464E689C43B60300D51C432C60A5
:102230000B4D08352C684E689C43F60200D51C43B4
:102240002C60074D0C352C684E689C43B60200D5B7
:102250001C432C60521C102AFFF459AFBDE8F88FC4
:10226000003C014044380240003001400000024080
:102270000004024000080240000C0240001002402E
:102280000069084000D001207047426931EA02022B
:1022900000D10904816170470AB181617047090466
:1022A000FBE7000001488068704700004C000020F8
:1022B0000248816802781144816070474C00002018
:1022C0000B4810B5016841F400710160016841F4E8
:1022D00080610160016841F480710160032000F0B9
:1022E00071F8042000F006F800F024F8002010BD7A
:1022F000003C024070B50D4D04464FF47A712878C9
:10230000B1FBF0F00A490968B1FBF0F000F0FAFA0D
:1023100048B9102C07D200222146501E00F032F896
:1023200000206C6070BD012070BD00004C000020DA
:10233000580000200B4882B0016841F480410160E0
:10234000006800F4804000900648001F016841F0DA
:1023500080510160006800F080500090042002B0BD
:1023600000F030B844380240002809DB00F01F02BA
:10237000012191404009800000F1E020C0F80011E7
:1023800070470000F0B40E4B1B68C3F30223C3F187
:102390000704042C00D904241D1D072D01D200239D
:1023A00000E0DB1E012606FA04F56D1E0D409D407F
:1023B0009E40761E164045EA0601F0BC02F0EBBFD7
:1023C0000CED00E0064A00F0070110684FF6FF032D
:1023D000184040EA0120034908431060704700009C
:1023E0000CED00E00000FA052DE9F0470D46040071
:1023F00065D0DFF81491D9F80000EFB200F00F00BB
:10240000A84207D289F80070D9F8000000F00F0048
:10241000A84254D120683D4E810712D5400703D50C
:10242000306840F4E05030602078000703D5306811
:1024300040F4604030603068A16820F0F00008434C
:1024400030602078C0072DD03049606808390128F5
:1024500012D0022813D0032811D009688907002957
:102460002DDA316821F0030101433160FFF71AFFD3
:10247000804641F2883A0EE009688903EFE709686F
:102480008901ECE7FFF70EFFA0EB0801514502D9E7
:102490000320BDE8F0873068616800F00C00B0EB05
:1024A000810FEFD1D9F80010484601F00F01A94281
:1024B00007D90770006800F00F00A84201D0012082
:1024C000E7E72078400705D53068E16820F4E05060
:1024D000084330602078000706D53068216920F471
:1024E000604040EAC100306000F038F83168084AC6
:1024F000C1F30311515CC8400649086006480068F2
:10250000FFF7F8FE0020C4E7003C02400838024014
:10251000D8610008580000205000002004480549F8
:1025200000680968044AC1F38221515CC8407047C1
:102530005800002008380240E861000804480549B6
:1025400000680968044AC1F34231515CC8407047D1
:102550005800002008380240E8610008154810B50E
:10256000006810F00C01144813D0431004290FD058
:1025700008290ED10F4C241F216801F03F02216869
:10258000490207D52068C0F38810A0FB030106E0CC
:10259000184610BD2168C1F38811A1FB000100237A
:1025A000FDF714FE2168C1F30141491C4900B0FB4D
:1025B000F1F010BD083802400024F4002DE9F84F76
:1025C000040075D02078DFF828A3C007AAF104051D
:1025D00048D00AF104000168C1F38101012908D043
:1025E0000068C0F3810002280AD1DAF80000400236
:1025F00006D52868800335D560680028E1D031E031
:102600006068B0F5803F10D0B0F5A02F286810D0DA
:1026100020F480302860286820F4802028606068DA
:10262000A0B1FFF73FFE06460CE0286840F480307A
:10263000F4E740F480202860F7E7FFF733FE801BC3
:10264000642871D828688003F7D50BE0FFF72AFECD
:10265000064604E0FFF726FE801B6428F1D82868B0
:102660008003F7D42078DFF88C9280074FF0000BBE
:102670003DD59F48001D016811F00C0F08D000687F
:10268000C0F3810002280AD1DAF80000400206D423
:102690002868800715D5E068012809D111E0E068B5
:1026A000B8B10121C9F80010FFF7FCFD064605E0AE
:1026B0001AE1FFF7F7FD801B0228C2D828688007BF
:1026C000F7D52868216920F0F80040EAC1002860A9
:1026D0000DE0C9F800B0FFF7E5FD064604E0FFF79E
:1026E000E1FD801B02281FD828688007F7D42078D6
:1026F000000722D57E4F80486169703771B1012192
:102700000160FFF7CFFD064604E0FFF7CBFD801B1D
:10271000022809D838688007F7D50EE0C0F800B065
:10272000FFF7C0FD064605E082E0FFF7BBFD801B1A
:1027300002287DD838688007F7D42078400765D50F
:102740006B484FF000083C300068C0000BD468486C
:102750003C30016841F08051016000684FF0010891
:1027600000F080500090654F3868C0050FD438687D
:1027700040F480703860FFF795FD064604E0FFF7EF
:1027800091FD801B022853D83868C005F7D5584FF3
:10279000A0686C3701280FD00528386810D020F0C9
:1027A00001003860386820F004003860A068B0B1DB
:1027B000FFF778FD06460EE0386840F00100F4E7C8
:1027C00040F004003860F7E7FFF76CFD811B41F231
:1027D0008830814263D838688007F5D50DE0FFF76F
:1027E00061FD064606E0FFF75DFD811B41F2883082
:1027F000814254D838688007F5D4B8F1000F05D06D
:102800003B483C30016821F080510160A069B8B3B9
:102810003749091D0968C1F38101022946D0022800
:10282000584606D0C9F86000FFF73CFD044639E081
:1028300035E04F46C9F86000FFF734FD064604E076
:10284000FFF730FD801B022829D828688001F7D4C3
:10285000D4E907010843A16A294A490802EB01416A
:10286000626A41EA8211084394F82C1040EA01613F
:10287000CAF8001001203866FFF714FD044605E091
:1028800034E0FFF70FFD001B022808D828688001FC
:10289000F7D52BE0FFF706FD001B022802D9032025
:1028A000BDE8F88F28688001F4D41FE00128F7D034
:1028B000DAF80000E26900F48001914214D1226A42
:1028C00000F03F0191420FD147F6C071626A0140AA
:1028D000914209D1A26A00F44031914204D1E16AE7
:1028E00000F07060884201D00120D9E70020D7E7CE
:1028F0000438024000004742800E4742007000400A
:102900000000FFFF10B5401EB0F1807F01D3012011
:1029100010BD4FF0E02460610F21601702F03BFD15
:102920000020A06107202061002010BD7047704783
:1029300010B590F83C20012A22D0012280F83C20DA
:10294000CA688C6822F4407222434C6822F4806288
:1029500022430C6822F4006222430C6922F4805264
:1029600022434C6922F400522243C969002322F415
:1029700080420A4301684A6480F83C30002010BD60
:10298000022010BD70B588B00D46040004D094F844
:102990003D00002618B107E0012008B070BD84F8A2
:1029A0003C60204600F04CF8022084F83D00211DD8
:1029B000206802F0C1F8AB6829680322206802F0A1
:1029C0002FFA2068816921F00C01816120688169FA
:1029D0006A68114381612068416841F0800141606B
:1029E0002068816821F0700181602068816841F071
:1029F000400181602068816821F0070181602068C2
:102A0000816841F004018160702005960496069665
:102A1000039602960090E86801906946206802F0EB
:102A20002FF92068416821F07001416020684168F9
:102A300041F050014160012084F83D000020ACE7E6
:102A4000704710B5044600680122002102F0C0F86A
:102A50002068816801F00701062903D0016841F070
:102A600001010160002010BD10B504460068C16876
:102A700041F00201C16001220021206802F0A8F8A3
:102A80002068816801F00701062903D0016841F040
:102A900001010160002010BD70B590F83C20012AB2
:102AA0002CD0012580F83C50022280F83D2002689D
:102AB0005368946823F070060B6833435360104BDF
:102AC00002689A420ED0B2F1804F0BD00D4B9A4261
:102AD00008D00D4B9A4205D00C4B9A4202D00C4BB9
:102AE0009A4204D1496824F080031943916080F828
:102AF0003D50002180F83C10084670BD022070BD9A
:102B0000000001400004004000080040000C0040AC
:102B10000040014010B504460068042202F065F848
:102B20002068416C41F4004141642068816801F0F3
:102B30000701062903D0016841F00101016000206E
:102B400010BD10B5040003D094F83D0010B107E0AB
:102B5000012010BD002084F83C00204600F00CF855
:102B6000022084F83D00211D206801F0E5FF0120CE
:102B700084F83D00002010BDF0B587B00446142154
:102B80006846FDF75BFB504A206800244F49022647
:102B900001254F4F90422AD14C481430026842F030
:102BA00001020260006800F001000590086840F032
:102BB000010008600868CDE9025400F001000590AA
:102BC0004020CDE90006694604953846FFF794FA9F
:102BD000012200211820FFF7D5FB1820FFF7C4FBC6
:102BE000002211461920FFF7CDFB19204AE0374A91
:102BF0001032B0F1804F11D03649884246D110686A
:102C000040F0020010601068002200F00200059001
:102C100005211D20FFF7B6FB1D2033E0106840F0B2
:102C200001001060106800F001000590086840F095
:102C300002000860086800F002000590086840F093
:102C4000010008600868694600F0010005904FF433
:102C500081600090CDE901641F48CDE90345FFF78D
:102C60004BFA4FF400400090CDE9016469463846C4
:102C7000CDE90345FFF740FA002203211C20FFF7AE
:102C800081FB1C20FFF770FB07B0F0BD13498842A1
:102C900008D1106840F004001060106800F00400D3
:102CA0000590F1E70E498842EED1106840F0080027
:102CB00010601068002200F0080005900721322003
:102CC000FFF760FB3220DDE70000014030380240B2
:102CD00000000240000400400004024000080040E0
:102CE000000C00400168CA6842F00102CA60006836
:102CF000816801F00701062903D0016841F0010154
:102D000001600020704770B5044690F83C0001282F
:102D100017D0012584F83C50022084F83D0020683B
:102D2000826822F0770222F47F428260086850288D
:102D300030D00DDC20284DD005DC98B310283BD1D5
:102D400048E0022070BD302844D0402834D139E01A
:102D5000602828D0702806D0B0F5805F2CD0B0F560
:102D6000005F29D10AE0CB68D1E90121206801F098
:102D700049FF2068816841F0770109E0CB68D1E91B
:102D80000121206801F03EFF2068816841F4804104
:102D9000816011E0CA684968206802F030F850216B
:102DA000206807E016E0CA684968206802F06EF8FB
:102DB0006021206801F030FF84F83D50002084F845
:102DC0003C0070BDCA684968206802F018F84021CC
:102DD0002068EFE7226801461046EBE7704770B5C0
:102DE0000446006801694FF00005C943890715D4FE
:102DF000C168C943890711D4E91E01610120207708
:102E0000206880698007204602D0FFF7E7FF04E0D2
:102E100000F019F9204600F0B7F92577206801691C
:102E2000C943490717D4C168C943490713D46FF090
:102E300004010161022020772068806910F4407F3E
:102E4000204602D0FFF7CAFF04E000F0FCF820465D
:102E500000F09AF9257720680169C943090716D45B
:102E6000C168C943090712D46FF008010161042049
:102E700020772068C0698007204602D0FFF7AEFFA8
:102E800004E000F0E0F8204600F07EF925772068A5
:102E90000169C943C90617D4C168C943C90613D417
:102EA0006FF010010161082020772068C06910F4DC
:102EB000407F204602D0FFF791FF04E000F0C3F806
:102EC000204600F061F9257720680169C943C907E8
:102ED00008D1C168C943C90704D1891E01612046D0
:102EE00000F070F920680169C943090609D4C16876
:102EF000C943090605D46FF0800101612046FFF740
:102F000015FD20680169C943490609D4C168C94350
:102F1000490605D46FF040010161204600F07CF9BC
:102F200020680169C94389060BD4C168C943890671
:102F300007D46FF0200101612046BDE87040FFF723
:102F4000F6BC70BD70B586B0044614216846FDF726
:102F500075F9224B2268002021490224214D9A4212
:102F600024D1086840F001000860086800F0010002
:102F70000590086840F0020008600868012600F02B
:102F8000020005904FF4F060CDE900040294CDE911
:102F9000034669461448FFF7AFF80320CDE9000463
:102FA0000294CDE903466946284612E00F4B9A4247
:102FB00011D10A6842F002020A60096801F00201B8
:102FC000059130210091CDE90140CDE90304694626
:102FD0002846FFF791F806B070BD000000000140E0
:102FE000303802400004024000000240000400406B
:102FF00070B5044690F83C0001280DD0012584F8F6
:103000003C50022084F83D0042B1042A0AD0082A2C
:103010000CD00C2A11D10DE0022070BD206801F007
:1030200003FE0AE0206801F02BFE06E0206801F0B4
:1030300055FE02E0206801F07DFE84F83D5000203E
:1030400084F83C0070BD704710B5040003D094F8BC
:103050003D0010B107E0012010BD002084F83C00C5
:10306000204600F00CF8022084F83D00211D206865
:1030700001F062FD012084F83D00002010BD704782
:1030800070B5044690F83C000D4601280DD001268D
:1030900084F83C60022084F83D0042B1042A18D034
:1030A000082A2AD00C2A4DD139E0022070BD2068B0
:1030B00001F0BAFD2068816941F008018161206852
:1030C000816921F004018161206881692A691143C5
:1030D00011E0206801F0D4FD2068816941F40061AD
:1030E00081612068816921F4806181612068816942
:1030F0002A6941EA0221816124E0206801F0EEFDA5
:103100002068C16941F00801C1612068C16921F0EE
:103110000401C1612068C1692A69114311E0206876
:1031200001F008FE2068C16941F40061C1612068B6
:10313000C16921F48061C1612068C1692A6941EADD
:103140000221C16184F83D60002084F83C0070BD1C
:1031500010B5040003D094F83D0010B107E0012041
:1031600010BD002084F83C00204600F00CF802203E
:1031700084F83D00211D206801F0DEFC012084F868
:103180003D00002010BD70477047000010B5044698
:103190000068012201F01CFD09492068884203D122
:1031A000416C41F4004141642068816801F00701ED
:1031B000062903D0016841F001010160002010BD23
:1031C00000000140704770B5044690F83C000128AB
:1031D00010D0012584F83C50022084F83D002046A0
:1031E00001F0CAFD002138B184F83D5084F83C104C
:1031F000012070BD022070BD2068C26822F040022C
:10320000C2602068C26822F48042C26084F83D50E7
:1032100084F83C10002070BD7047704770B502689C
:1032200004461068D168536910F00F0F52D003F0B4
:10323000010501F490762E435FD0C20705D0CA0580
:1032400003D5E26B42F00102E263420705D5DA07DB
:1032500003D0E26B42F00202E263820705D5DA078F
:1032600003D0E26B42F00402E263020707D501F0EB
:1032700020022A4303D0E26B42F00802E263E26BD1
:10328000002A33D0800604D5880602D5204601F0F6
:1032900092FE20684069E16BC0F38010090700D4FA
:1032A00028B3204601F070FE2068416949061AD50E
:1032B000416921F040014161606BA0B11B4901658A
:1032C000606BFEF789FD002810D0606B016DBDE8D2
:1032D00070400847830610D58B060ED52046BDE802
:1032E000704001F068BE2046FFF797FF70BD204692
:1032F000FFF793FF0020E06370BD030606D50B06C1
:1033000004D52046BDE8704001F034BF4006F3D537
:103310004806F1D5D168204621F04001D160202136
:1033200084F8391000F036F970BD0000B14E000885
:1033300070B5040004D094F83900002510B106E0FF
:10334000012070BD84F83850204600F023F8242076
:1033500084F839002068C16821F40051C16020461A
:1033600001F074FE2068016921F490410161206838
:10337000416921F02A0141612068C16841F400518E
:10338000C160E563202084F8390084F83A00002009
:1033900070BD00002DE9F04186B004461421684656
:1033A000FCF74CFF2E492068884256D12D48002555
:1033B000016841F400310160006800F400300590BC
:1033C00028481038016841F0010101600068694631
:1033D00000F0010005900C2000900220CDE90105CD
:1033E00003200390072004901F48FEF785FE204E1F
:1033F0001E484FF00067E6E8020740204FF480685F
:10340000A6E821011A4846F81459B561F5613562FC
:103410007562FEF7C3FD08B1FDF730FF2663B463A4
:103420001248144E18383060C6E90175C6E90358D1
:103430007561B561F561356230467562FEF7AEFDC6
:1034400008B1FDF71BFF6663012206212620B46345
:10345000FEF798FF2620FEF787FF06B0BDE8F08153
:10346000004400404038024000000240A06002409A
:10347000180400207804002037B5044690F83A007C
:1034800082B0134620283AD1039AAAB3A3B394F882
:103490003800012833D0012084F83800A262A385C7
:1034A0000025E563222084F83A00616B1548C86363
:1034B000616B15480864616B1448C864606B0565EE
:1034C0002168606B091DFEF7D3FD20680168416823
:1034D000009184F83850C16841F48071C16020685F
:1034E000416941F0010141612068416941F04001B9
:1034F0004161002005B030BDFFE70120FAE702205E
:10350000F8E700000B4F0008474F0008C14E0008C5
:1035100070477047F7B5044690F83900202831D13C
:10352000019969B362B394F8380001282AD00120C8
:1035300084F838002162A284E2840025E56321201A
:1035400084F83900236B1048D863236B0F48186444
:10355000236B0F48D864206B134605652668206BE3
:10356000321DFEF785FD21686FF04000086084F889
:1035700038502068416941F0800141610020FEBD62
:103580000120FEBD0220FEBD514F00087F4F000804
:10359000C14E00087047704770B5D44C2DED088BB4
:1035A00094ED1F0AB5EEC00AF1EE10FA7DDD0120A0
:1035B00084F8430194ED130AF9EE040A20EE208A00
:1035C000DFEDCBBA88EE2B0A01F0F6FEBDEEC00AA5
:1035D000B8EEC00A00EE6B8A84ED368A01F000F87E
:1035E000C44E94ED291AC44D96ED000AD4ED2A1A62
:1035F000D5ED000A21EE002A94ED03AA00EEA12ADF
:1036000032EE4A2A9FEDBD9A61EE200AD4ED049A6B
:1036100002EE09AAD4ED058A40EE610A94ED068A0D
:10362000F1EE0CAA30EEE90A40EE099A3AEE680A89
:1036300040EE098A39EEC80A00EE098A94ED130AB1
:1036400020EE2ABA8BEE2B0A01F0B6FEBDEEC00AC0
:10365000B8EEC00A00EE6BBA84ED36BA00F0FCFF9B
:1036600094ED354AD6ED000AD4ED284A95ED000ACE
:1036700024EE201A94ED072A94ED085A00EE241A3D
:1036800024EE000A00EEE40A31EE421A01EE092AA5
:1036900030EE450A94ED431A84ED241A00EE095ADF
:1036A000B0EE416A94ED440A00E007E184ED250A9A
:1036B000D4ED330AF1EE041A914860EEAA3A20EEF6
:1036C000A13AD4ED450AF0EE406AC4ED260AD4EDE5
:1036D000461AB0EE607AC4ED271AD4ED092A84EDBB
:1036E00003AAC4ED058A72EE625A84ED072AF0EE51
:1036F000617A45EE892AC4ED092A94ED0A2AC4EDBF
:10370000049A84ED068A75EE425A84ED085A05EE55
:10371000892A84ED0A2A90ED055A02EEC51A90ED29
:10372000065AB4EEC15AF1EE10FA06D390ED075ADC
:10373000B4EEC15AF1EE10FA01DDB0EE451A90ED8B
:103740000D5A02EE450A90ED0E5AB4EEC05AF1EE53
:1037500010FA06D390ED0F5AB4EEC05AF1EE10FAFB
:1037600001DDB0EE450A9FED679A23EE805A61EEC7
:10377000099ADFED655A45EE659A9FED645A23EE8E
:10378000855A25EE425A02EEC95A39EE855A61EE43
:10379000239A9FED5F1A69EE819A40EE099A23EE13
:1037A000810A20EE620A02EE490A79EE803A90ED33
:1037B000010A48EEC00A90ED020AB4EEE00AF1EE0A
:1037C00010FA06D390ED030AB4EEE00AF1EE10FA17
:1037D00001DDF0EE400A90ED090A48EE401A90ED46
:1037E0000A0AB4EEE10AF1EE10FA06D390ED0B0AE4
:1037F000B4EEE10AF1EE10FA01DDF0EE401A23EE2C
:10380000250A63EE219A61EE891A20EE480A69EED4
:10381000A55A08EEC90A40EE895A60EE830A40EEC6
:10382000C11A70EE255A9FED3B0AD4ED2A0A23EE09
:10383000000A20EE680A08EE490A30EE213A94EDBB
:10384000290A64EE051A20EE251A43EEE41A03EE67
:10385000601A60EEA50A43EE000A24EE850A31EEF6
:10386000211A03EE840A84ED361A30EE800A84EDC4
:10387000350A90ED040A60EE220A9FED270A00EE59
:10388000C06A84ED436AD0ED0C0A60EE820A40EE15
:10389000C06AC4ED446AD0ED000A60EEA80A00EEEA
:1038A000C07A84ED457AD0ED080A60EE880A40EED1
:1038B000C07AC4ED467ABDEC088B70BD94F8430124
:1038C0000028F8D094ED240A002084ED430A94EDFA
:1038D000250A84ED440A94ED260A84ED450A94ED08
:1038E000270A84ED460A84F84301E4E738240020DF
:1038F000DB0FC94034010020380100200AD7A33B68
:10390000A4000020CDCCCC3E27A0893B27A089BBBA
:103910006F12833B6F1283BB17B7D138DFED030AF9
:1039200030EE600A80ED000A70470000DB0FC940EE
:103930000B4890ED1D0AD0ED340AD0ED201A90ED21
:103940001C1A20EE202A20EE210A064801EE612AE8
:1039500001EE200A80ED002A034880ED000A70473E
:1039600038240020280100202C0100202DE9F043FC
:103970008DB00024009401940294202104A80394A3
:10398000FCF75CFC45484449012501604FF4803157
:103990000561C0E90114047680F820400903C16282
:1039A0004FF00609C0F81C904FF01061C4608162AE
:1039B00080F830504461FEF7C2F808B172B6FEE7F5
:1039C0000095CDE9015469463448FDF771FF08B10F
:1039D00072B6FEE704274FF00208CDE90078694689
:1039E0002E48FDF765FF08B172B6FEE70C200326EE
:1039F000CDE9000669462948FDF75AFF08B172B6BD
:103A0000FEE70D20CDE9000769462448FDF750FF89
:103A100008B172B6FEE70E200090052001906946BD
:103A20001E48FDF745FF08B172B6FEE70F20CDE94D
:103A3000000969461948FDF73BFF08B172B6FEE779
:103A4000CDE9044516480694CDE90A048DF82550C1
:103A500008968DF8244004A910480794FDF764FDEA
:103A600008B172B6FEE70B20CDE9040804A90B48A3
:103A7000FDF75AFD08B172B6FEE70A20CDE904064B
:103A800004A90648FDF750FD002801D072B6FEE7F4
:103A90000DB0BDE8F083000000200140740100205B
:103AA00001000F00154808B5016841F4800101606C
:103AB000016801F480010091016841F40011016086
:103AC0000068002200F40010009011461020FEF75C
:103AD00059FC1020FEF748FC002205211120FEF7BA
:103AE00051FC1120FEF740FC002211463820FEF761
:103AF00049FCBDE808403820FEF736BC30380240AB
:103B000030B587B014216846FCF798FB22480024A2
:103B1000016841F004010160016801F004010591B0
:103B2000016841F080010160016801F080010591A8
:103B3000016841F001010160016801F00101059196
:103B4000016841F0020101600068144D00F00200BC
:103B500005900122C0212846FEF79EFB4FF400503D
:103B600000900F48CDE9010469460E48FEF7C4FAFB
:103B7000C02000900120CDE9010469462846039445
:103B8000FEF7BAFA002203212820FEF7FBFB2820CB
:103B9000FEF7EAFB07B030BD3038024000040240B7
:103BA000000021100008024070B59AB0002414945F
:103BB0001594169414210FA81794FCF73FFB189442
:103BC0001C2168461994FCF739FB202107A8FCF753
:103BD00035FB3E483C49C0E900142021816041F298
:103BE0006801C0E903140121C0E90514FEF7A9FF2B
:103BF00008B172B6FEE74FF4805514A93348149506
:103C0000FFF781F808B172B6FEE73048FFF7A0FA77
:103C100008B172B6FEE70620CDE90F040FA92B48C4
:103C2000FFF7D1FA08B172B6FEE770268020CDE921
:103C3000186018A92548FEF72FFF08B172B6FEE7F5
:103C40006020CDE9000402940394049405940022BA
:103C500069461E480694FFF713FA08B172B6FEE7EC
:103C6000042269461948FFF70BFA08B172B6FEE75D
:103C7000082269461548FFF703FA08B172B6FEE755
:103C800041F26700CDE900600C2269460F48FFF75A
:103C9000F7F908B172B6FEE74FF4006007904010E4
:103CA00008908010099022200A90CDE90B5407A9B2
:103CB00006480E94FEF73CFE08B172B6FEE70348D4
:103CC000FFF740F91AB070BD00000140BC010020B0
:103CD00010B58AB000241F48009401940294039404
:103CE000049405940694079408944FF08041099435
:103CF0000160D121C0E90114611EC1604FF400715F
:103D000084610161FEF71DFF08B172B6FEE74FF452
:103D10008050009069460F48FEF7F5FF08B172B673
:103D2000FEE704940594069404A90A480794FEF754
:103D300029FE08B172B6FEE75020CDE9080408A9B3
:103D40000448FEF7A9FE002801D072B6FEE70AB0CB
:103D500010BD0000FC01002010B58EB000240794B7
:103D6000089409940A940B941C2168460C94FCF75F
:103D700065FA23482149C0E900142021816040F6FA
:103D80003401C0E903148461FEF7DBFE08B172B6AA
:103D9000FEE74FF48050079007A91948FEF7B3FFDC
:103DA00008B172B6FEE71648FFF7D2F908B172B64D
:103DB000FEE70B940BA912480C94FEF76DFE08B1B8
:103DC00072B6FEE7602000904FF40070CDE9010468
:103DD000002269460A480494FFF752F908B172B606
:103DE000FEE7042269460648FFF74AF908B172B6B1
:103DF000FEE70348FFF7A6F80EB010BD0004004030
:103E00003C02002030B593B000240C940D940E9425
:103E1000142107A80F94FCF711FA10941C2168468E
:103E20001194FCF70BFA23482149C0E90014202122
:103E3000816041F26801C0E903148461FEF781FEEC
:103E400008B172B6FEE74FF480500C900CA91948E7
:103E5000FEF759FF08B172B6FEE71648FFF778F98A
:103E600008B172B6FEE70420CDE9070407A911489E
:103E7000FFF7A9F908B172B6FEE770258020CDE9F9
:103E8000105010A90B48FEF707FE08B172B6FEE706
:103E900001200095CDE901040C22694605480494EF
:103EA000FFF7EEF8002801D072B6FEE713B030BD80
:103EB000000800407C02002030B58DB0002407943B
:103EC000089409940A940B941C2168460C94FCF7FE
:103ED000B5F9204D1E482860D120C5E90104601EB7
:103EE000E8604FF40070AC6128612846FEF729FEB7
:103EF00008B172B6FEE74FF48050079007A9154845
:103F0000FEF701FF08B172B6FEE71248FFF79CF812
:103F100008B172B6FEE70B940BA90E480C94FEF79D
:103F2000BBFD08B172B6FEE7009401940294002232
:103F3000694608480494FFF75BF808B172B6FEE7DB
:103F40002868816941F0080181610DB030BD000031
:103F5000000C0040BC02002010B5082001F0ECFF6E
:103F60000B490320087048708870FCF703FF09486C
:103F700000F5A27190ED210A81ED000A90ED220A70
:103F800081ED010A90ED230A81ED020A10BD0000C7
:103F90001C0100203824002070B5FCF749FE294C94
:103FA000294D94ED370A84ED0B0A94ED380A84ED1F
:103FB0000C0A94ED390A84ED0D0A94ED3A0A84ED69
:103FC0000E0A2868807908B900F086FA28684079D6
:103FD00008B9FCF7A1FEFDF7CDF91C4890ED010AE8
:103FE00084ED370A94ED1D0A84ED380A90ED020A3B
:103FF000174884ED390A94ED1C0A84ED3A0A94EDD1
:10400000210A80ED000A94ED220A80ED010A94ED68
:10401000230A80ED020A286829684079401CC0B252
:1040200048710021132801D92868417128682A683D
:104030008079401CC0B29071632801D928688171D1
:1040400070BD000038240020F06100081C01002031
:104050007C250020DFED060A60EE200AC0ED000A94
:10406000DFED040A20EE200A81ED000A704700000F
:104070003ACD133F3ACD13BFDFED060A60EE200ABA
:10408000C0ED000ADFED040A20EE200A81ED000AEF
:1040900070470000ABAA2A3FABAA2ABF0D480C49C3
:1040A000D0ED001AD1ED340A0B4891ED200A20EE34
:1040B000A12A90ED001A094801EE002A60EE810A5B
:1040C00041EEC00A80ED002A0548C0ED000A7047A5
:1040D0003824002034010020380100202001002075
:1040E000240100200CB53048314A9FED322A90ED72
:1040F000000A2E48D0ED000A92F83E0170EE601AD8
:1041000010B992F83C0108B182ED422A2A4B2B48A3
:1041100092ED421A93ED030A0179294800EE211A23
:10412000002990ED060A694601A802D0FFF7A4FF16
:1041300001E0FFF78FFF9DED010A2249B4EEC01A9E
:10414000F1EE10FA06DC9DED000AB4EEC01AF1EEB5
:1041500010FA02D281ED000A01E081ED001A92F816
:10416000410108B9F0EE421AD3ED020A92ED420A7B
:1041700060EEA10ADFED141A00EEA10A82ED420AF8
:1041800092F83E0100B1012082F83C0191ED000A55
:10419000B4EE401AF1EE10FA01D1012000E0002047
:1041A00082F841010CBD0000140100202401002010
:1041B0003824002000000000E800002068000020F3
:1041C0008C2500201801002017B7D13810B5214CDC
:1041D0002DED028B94ED3B0A84ED300A00F078FA65
:1041E000DFED1D8A94ED3C8A9FED1C0ADFED1D0A70
:1041F00008EE808A9FED1A0A28EE000A84ED300A44
:1042000094ED3D0A01F0B6FE84ED310AD4ED3E0A8C
:104210009FED151A20EE811A84ED321A84ED3B0AC7
:1042200094ED3C1A9FED110A08EE801A84ED3C1AB9
:1042300094ED3D1A08EE001A84ED3D1A94ED300A13
:104240009FED0B1A00EEC10A84ED3E0ABDEC028B15
:1042500010BD0000382400200000000000000D43C5
:10426000EBC91840DB0FC9400AD7233D17B7D13837
:104270008FC275BF10B5FFF7A9FF064C94ED320A47
:1042800084ED0F0AFCF7E2FC94ED110A84ED100AAC
:1042900010BD000038240020844A92ED330ADFED7F
:1042A000840A20EE200AD2ED340AF5EEC00AF1EEBF
:1042B00010FA01DB012000E0002030EE601AB5EEBC
:1042C000C01AF1EE10FA01DB012100E00021B1EE8D
:1042D000601A00EB410131EE400AB5EEC00AF1EE82
:1042E00010FA01DB012000E0002001EB800000EE6D
:1042F000100A7049F7EE005AB8EE401A11EE100A93
:10430000884202DDB1EE081A06E011EE100AB0F1A3
:104310007E5F01DAB0EE651A67486849D0ED061A8B
:1043200011EE900A9FED665A884202DDDFED651AB4
:1043300006E011EE900A6449884201DAF0EE451A6F
:104340009FED622ABDEEC14A82EE210A14EE100AE8
:104350009FED571A5549FEEE004A0628D1ED331A53
:1043600021EE812AD1ED341A32EE611A71EEC22AA1
:1043700061EE243AB1EE611A71EE821A31EE421A00
:1043800062EEA42A21EEA42A21EE243A1DD2DFE80F
:1043900000F01C03080D121763EE801A23EE000ACA
:1043A00017E063EE001A20EEC00A12E062EE801AF7
:1043B00020EE800A0DE060EEC01A23EE800A08E0CD
:1043C00060EE801A22EE000A03E062EE001A22EE8E
:1043D000800A71EE800A35EE601AB5EEC01AF1EE71
:1043E00010FA09D821EE851AC1EE201A85EEA01A1E
:1043F00061EE050A20EE800A75EE610AB5EE001A3C
:10440000F6EE002A14EE100A70EEC00A062820EE1E
:10441000811AF0EE410A41EEA20A34D2DFE800F040
:1044200033030811182CF0EE601AB0EE412A0CE0AC
:10443000B0EE602AF0EE411A00EE222AB0EE601AC9
:104440000CE0F0EE411AB0EE602A40EE220AF5E7E9
:10445000F0EE601A40EE221AB0EE602A92F83E01A9
:10446000B0B1012807D19FED1A0A82ED210A82ED31
:10447000220A82ED230A7047F0EE601AB0EE412A5C
:1044800040EE221ADAE7F0EE601A40EE220AE3E785
:104490009FED100A61EE800AC2ED210A62EE000A69
:1044A00021EE000AC2ED220AE3E7000038240020D2
:1044B000D7B3DD3F0000C0408C25002000009644AB
:1044C00017B7D1380000964417B7D138629E3539F6
:1044D00000000000BE32A04C1C491D4891ED0B1A93
:1044E00091ED0C0AD1ED0E0A61EE001A91ED0D0A64
:1044F00040EE201AD0ED000A31EEE02ADFED151A69
:1045000042EE210AB0EE082AC0ED000ADFED120AE1
:10451000134861EE200A20EE801ADFED100A00EE4B
:10452000201A90ED000AF0EE400A51EE020A00EE69
:10453000A10A80ED000A0B48007F012801D001206C
:1045400000E0002081F83E01704700003824002080
:10455000080100200AD7A33B00B751B93EA8D53CBB
:104560000C0100208C25002010B5154C154994ED48
:10457000130A10EE100A884202DD9FED130A06E0CE
:1045800010EE100A1149884201DA9FED110A40F637
:10459000FF709FED101ADFED100A01F05DFC0F496E
:1045A00001EB800000F5804100F5004091ED010A2B
:1045B00084ED340A90ED010A84ED200A10BD00005C
:1045C00038240020090FC940090FC94017B7D13856
:1045D00017B7D1386C1CC93A00000000F46100081C
:1045E00010B5154C154994ED360A10EE100A8842A4
:1045F00002DD9FED130A06E010EE100A1149884211
:1046000001DA9FED110A40F6FF709FED101ADFED01
:10461000100A01F021FC0F4901EB800000F58041F8
:1046200000F5004091ED010A84ED290A90ED010AA0
:1046300084ED2A0A10BD000038240020090FC9406B
:10464000090FC94017B7D13817B7D1386C1CC93A10
:1046500000000000F461000810B5154C154994EDF8
:10466000360A10EE100A884202DD9FED130A06E0BA
:1046700010EE100A1149884201DA9FED110A40F646
:10468000FF709FED101ADFED100A01F0E5FB0F49F6
:1046900001EB800000F5804100F5004091ED010A3A
:1046A00084ED350A90ED010A84ED280A10BD000062
:1046B00038240020090FC940090FC94017B7D13865
:1046C00017B7D1386C1CC93A00000000F46100082B
:1046D00010B5154C154994ED300A10EE100A8842B9
:1046E00002DD9FED130A06E010EE100A1149884220
:1046F00001DA9FED110A40F6FF709FED101ADFED11
:10470000100A01F0A9FB0F4901EB800000F5804180
:1047100000F5004091ED010A84ED320A90ED010AA6
:1047200084ED310A10BD000038240020090FC94073
:10473000090FC94017B7D13817B7D1386C1CC93A1F
:1047400000000000F461000828482A4A90ED000AA1
:104750002748D0ED030A92F8400170EE600A9FED01
:10476000260A10B1B0EE601A01E0B0EE401A92F8DD
:104770003E0110B992F83B1119B382ED410A1F4B6B
:1047800082ED1A0AF0EE401A93ED052A02EE200A95
:10479000D3ED060AF4EEC00AF1EE10FA08D3D3ED19
:1047A000070AF4EEC00AF1EE10FA01DCF0EE400A5E
:1047B000C2ED190AB4EE600AF1EE10FA04D101213B
:1047C00003E092ED410ADAE7002182F8401193ED0F
:1047D000040ADFED0B0A20EE010A40EE201AC2EDBA
:1047E000411A00B1012082F83B0170478C2500205E
:1047F0007C2500203824002000000000E800002074
:104800006F12033B024890ED1A0A80ED410A70478F
:104810003824002010B500F00FF80548054990ED48
:10482000120A80ED0F0A91ED050A80ED100A10BD05
:10483000382400208C250020184810B590ED050A7A
:10484000DFED170A20EE200A00F0B6FDBDEEC00A2B
:1048500014499FED151A10EE100AD1F8342191ED8C
:10486000120A8000821A00EE902AF6EE001A104A10
:10487000F8EEE00A60EE810A9FED0C1A20EE811A34
:10488000F0EE400A51EE210A92ED001A00EE810A84
:1048900081ED120AC1F8340110BD00008C25002002
:1048A00083F9224D38240020DA6F7537EBC918419F
:1048B00060000020034890ED010A034880ED190ACA
:1048C000704700008C25002038240020401EB0F1E5
:1048D000807F01D3012070474FF0E0214861054AF5
:1048E000F02082F8140D0020886107200861002064
:1048F000704700000FE000E00348016811B1016853
:10490000491E0160FDF7D4BC0400002030B593B00F
:1049100030216846FBF792FC14210CA8FBF78EFCB3
:104920001D480025016841F080510160006800F0D9
:10493000805011901948016821F4404141F4004130
:1049400001600068022400F44040119001200390AF
:1049500010200490009406940820CDE907505420BC
:10496000CDE9090404200B906846FDF727FE08B145
:1049700072B6FEE70CA90F2081E831004FF4805099
:10498000CDE90F0502210CA8FDF72EFD002801D06E
:1049900072B6FEE713B030BD4038024000700040F0
:1049A0000548016841F47001016003494FF000605F
:1049B000803908607047000088ED00E00148FEF78C
:1049C0000EBA0000BC0100200148FEF708BA000042
:1049D000BC01002070B51C48FEF701FA4FF40041FD
:1049E0001A48FDF74DFC1A4C1A4D0821A0702846B4
:1049F000FDF746FCE07029152846FDF741FC2071C3
:104A0000A378E57804F10C0643EA450141EA800207
:104A1000227061787254491C61700F4901F8243F7B
:104A20004D7088700D480068406A00EE100AB8EEBC
:104A3000400A01ED010AFBF74BFE6078062801D31E
:104A40000020607070BD0000FC01002000000240EA
:104A50003A000020000402408C250020BC02002007
:104A600010B5224C2068FBF7D5FC9FED211B53ECC1
:104A7000112BFBF7EEFBFBF7F3FC1F49DFED200AE0
:104A8000DFED1E1A086094ED010A1E491E4AB8EEB9
:104A9000401AB0EE600A01EE210A10EE100A81ED14
:104AA000000A904201DAC1ED000A184A002110887C
:104AB000401C00B21080B0F5FA5F00DD1180144A8E
:104AC0001088401C00B21080B0F5487F00DD1180D6
:104AD000104A1088401C00B21080A02800DD118010
:104AE000BDE810400C48FEF77AB90000A003002092
:104AF00093C83EC8B260923F18000020083DEB3ECC
:104B00000000484434000020000048441200002007
:104B100010000020140000203C02002010B580216D
:104B20000348FDF7B2FBBDE810400248FEF757B955
:104B300000040240BC020020F0B502681D4C1E4D6E
:104B40001E4E1F4F4FF0804CA04207D0604505D04D
:104B5000A84203D0B04201D0B84203D122F0700382
:104B60004A681A43A04210D060450ED0A8420CD02B
:104B7000B0420AD0B84208D0124B984205D0124B2E
:104B8000984202D0114B984203D122F44073CA6874
:104B90001A434B6922F080021A4302608A68C2629B
:104BA0000A688262A04201D1096901630121416161
:104BB000F0BD00000000014000040040000800407B
:104BC000000C00400040014000440140004801400A
:104BD00010B501F01F010123046A8B409C4304625D
:104BE000036A8A401343036210BD10B501F01F0130
:104BF0000423046A8B409C430462036A8A40134383
:104C0000036210BD10B5846842EA032224F47F4495
:104C10000A432243826010BD826822F070020A4378
:104C200042F007018160704730B5026A22F001024C
:104C30000262036A4268846924F073050C682C439D
:104C400023F002058B682B430C4DA84206D123F0BC
:104C50000805CB6843EA050323F0040307D14D6937
:104C600022F4407245EA02058A6942EA050242607E
:104C7000846149684163036230BD00000000014067
:104C800030B5026A22F010020262026A4368846947
:104C90000D6824F4E64444EA05248D6822F02002DD
:104CA00042EA05120C4DA84206D1CD6822F08002DE
:104CB00042EA051222F0400207D14D6923F4406315
:104CC00043EA85038D6943EA85034360846149684B
:104CD0008163026230BD00000000014030B5026A0D
:104CE00022F480720262036A4268C46923F400738A
:104CF00024F073050C682C438D6843EA05230C4DA2
:104D0000A84206D1CD6823F4006343EA052323F4C7
:104D1000806307D14D6922F4405242EA05128D6941
:104D200042EA05124260C4614968C163036230BD52
:104D30000000014030B5026A22F480520262036A28
:104D40004268C4690D6824F4E64444EA05248D6889
:104D500023F4005343EA0533064DA84204D14D69BC
:104D600022F4804242EA85124260C46149680164CB
:104D7000036230BD0000014010B50268936823F063
:104D800070044B68234323F007040B6823439360AC
:104D90004A6812F00F0F30D11211082A2DD2DFE825
:104DA00002F02C2C2C2C0B2127040B69D1E90221B9
:104DB0000068FFF727FF20E00A68052A10D0026884
:104DC000146A136A23F00103136202689369096984
:104DD00023F0F00343EA01119161006804620CE0E2
:104DE000012010BD0A698968006800F008F804E035
:104DF0000A698968006800F049F8002010BD10B504
:104E0000046A036A23F001030362836923F0F00359
:104E100043EA021324F00A020A438361026210BDCE
:104E200070B5046A24F0010404628469056A124EB4
:104E3000B0420ED0B0F1804F0BD0104EB04208D02F
:104E40000F4EB04205D00F4EB04202D00E4EB042CF
:104E500003D124F00304144301E044F001041A07D1
:104E600024F0F00444EA126225F00A0301F00A017A
:104E700019438261016270BD0000014000040040DE
:104E800000080040000C00400040014010B5036ADB
:104E900023F0100303628469036A24F4704444EA33
:104EA000023223F0A00343EA01118261016210BDC6
:104EB00010B5806B0021C185C184FEF7AEF910BD2D
:104EC00070B5846B2068406994F83910C0F3C01045
:104ED0000025212904D118B1E584204600F062F8AC
:104EE0002068406994F83A10C0F38010222904D158
:104EF00018B1E585204600F047F8E06B40F010005F
:104F0000E0632046FEF789F970BD10B50146806B5D
:104F100009680968C90513D40021C1850168CA68F8
:104F200022F48072CA6001684A6922F001024A6173
:104F300001684A6922F040024A61202180F83A1053
:104F4000FEF7E6FA10BD10B5806BFEF7E2FA10BD71
:104F500010B50146806B09680968C9050CD40021A9
:104F6000C18401684A6922F080024A610068C16810
:104F700041F04001C16010BDFEF70CFB10BD10B543
:104F8000806BFEF708FB10BD0168CA6822F49072BE
:104F9000CA6001684A6922F001024A61202180F852
:104FA0003A1070470168CA6822F0C002CA60202126
:104FB00080F83910704710B590F83A10222901D0C6
:104FC000022010BD8168B1F5805F11D00169002910
:104FD00001681FD0496801F07F03816A4A1C826220
:104FE0000B70C18D491E0904090CC18518D02BE036
:104FF0000269816A002A0268526805D0D2B20A802A
:10500000816A491C8162ECE7C2F308020A80816A66
:10501000891CF7E74A68816A4B1C83620A70E0E7E3
:105020000168CA6822F02002CA600168CA6822F4D6
:105030008072CA6001684A6922F001024A61202137
:1050400080F83A10FEF764FA002010BD2DE9F04117
:10505000044600680169E26821F44051114301618E
:10506000A1682069E2690143606910430143206837
:10507000C26849F20C639A430A43C26020684169DE
:10508000A26921F4407111434161E0691927642547
:105090003226B0F5004F354A354920684FF00008F8
:1050A00006D0884201D0904236D1FDF747FA35E06C
:1050B000884201D0904202D1FDF740FA01E0FDF7AD
:1050C0002DFA61684A18A0FB070148EB0803FBF7BB
:1050D0007DF80146B0FBF5F00201B1FBF5F06FF091
:1050E0001803584301EB800006EBC000B0FBF5F05D
:1050F00000F0F80002EB4002B1FBF5F0584301EB81
:10510000800006EBC000B0FBF5F000F0070021685E
:1051100010448860BDE8F081FDF700FA0146606840
:10512000830F8200A1FB0701FBF750F80146B0FB9B
:10513000F5F06FF01802504301EB800006EB001011
:10514000B0FBF5F000F0F002B1FBF5F002EB00125D
:10515000B1FBF5F06FF01803584301EB800006EB4C
:105160000010B0FBF5F000F00F00D0E70014014094
:105170000010014090F83910212901D00220704719
:105180008168B1F5805F016A0BD04A1C0262026837
:1051900009785160C18C491E0904090CC1840ED0E4
:1051A00017E009880268C1F308015160016900290C
:1051B000016A02D0491C0162ECE7891CFBE7016827
:1051C000CA6822F08002CA600068C16841F04001EC
:1051D000C16000207047000010B50C48FEF71EF8B3
:1051E0000A4C20680068C043C0060DD40C22084950
:1051F0000848FCF7B5FD0E2205492046FEF73CF9AC
:1052000021686FF01000086010BD0000FC02002053
:105210003C030020080000202DE9F0414A4C002505
:105220004A4BE188DFF828C101269FED4A1A4A4817
:105230009FED4A0ADCED000AF2EE042ADFF820E1D5
:1052400060EE810A474A2027BDEEE02AD0ED030A2E
:1052500060EE800AFDEEE01AD0ED000A60EE800AF2
:10526000BDEEE01AD0ED010A106B60EEA20ADEED91
:10527000002A22EE800AFDEEE00ABDEEC00AE9B384
:10528000A1F5407CBCF1E70C1ED0491CE18012EE78
:10529000101A198011EE901A598011EE101A998087
:1052A00010EE901AD98010EE101A198180F834503F
:1052B00082F83970106B80F835600A22BDE8F04141
:1052C00022492848FEF726B912EE101A198011EE6D
:1052D000901A598011EE101A998010EE901AD98008
:1052E00010EE101A198120A10988598180F83450D4
:1052F00082F83970106B80F8356000E007E00C220E
:1053000012491848FEF706F9E580BDE8F08117A1BB
:10531000E6800988198012EE101A598011EE901A51
:10532000998011EE101AD98010EE901A198110EEA2
:10533000101A598180F8345082F83970106B80F857
:1053400035600C22BAE700003A000020D8040020A3
:10535000180000200000C8427C25002000007A448C
:105360001C000020FC0200204242000041410000DD
:105370004100080218BF04200A0E18BF40F00100C7
:105380004FF07F4232EA010108BF40F002000128DD
:1053900008BF052070470907090E002804DB00F14B
:1053A000E02080F80014704700F00F0000F1E020CA
:1053B00080F8141D7047000010EE100AC0F3C751AA
:1053C0007F391729A8BF7047DFED140A002970EE56
:1053D000200A0DDAF5EEC00AF1EE10FA1ADD002807
:1053E000A8BF002016DAB0F1004F18BF0C4811E03A
:1053F0000C4ACA40104208BF7047F5EEC00AF1EEF1
:1054000010FA07DD002804DA4FF4000323FA01F153
:105410000844904300EE100A70470000CAF2497138
:10542000000080BFFFFF7F0010B52DED028BF0EE76
:10543000408A18EE900AB0EE608A20F00040C0F179
:10544000FF40C00F07D118EE100A20F00040C0F155
:10545000FF40C00F2BD018EE101A18EE900AFBF781
:1054600071F800EE100A10EE100A6FEAD05010F03A
:10547000FF0F04BFBDEC028B10BD18EE900A00F0C8
:10548000004110EE100A00F00040814204BFBDEC64
:10549000028B10BD18EE101A10EE100ABDEC028B34
:1054A00061F31E0000EE900A30EE600A10BD18EEA7
:1054B000900A4FF07F41B1EB400F1CBF18EE100A6D
:1054C0005FEA4000C7D1012000F08CFBBDEC028BED
:1054D000BDE8104000F05EBB10B510EE100A2DEDD7
:1054E000068BB7EE001A10EE901AB0EE418A002239
:1054F000A0F5000CDFEDFE9A4FF00073BCF1FE4FFB
:105500004FF07F4403EB410C80F0B481BCF1804F3D
:10551000C0F02082F74901449FEDF73AB1F5005FF2
:1055200040F2D48200F58021CB0C03F00F0101EE94
:10553000901AC3F307137F3BA0EBC350B8EEE12AE8
:1055400000EE100A1A44DFEDED2AF0EE411A42EEA9
:10555000221AF0EE613A70EE232A30EE632A12EE40
:10556000900A00F500606FF30B0001EE900A73EEF5
:10557000E13A33EE804AC1EE223A22EE230A10EEDF
:10558000100A00F500606FF30B0000EE100A00EE49
:10559000612A00EE442A62EE232A70EE221A21EEDE
:1055A000A12ADFEDD73A02EE233A23EE023A20EEAB
:1055B000012A22EE811A03EE211A32EE010A10EEC0
:1055C000100A00F500606FF30B0000EE100A72EE97
:1055D000401A31EE812A9FEDCB1A60EE011A9FED41
:1055E000CA1A20EE011A9FEDC90A02EE001A31EE26
:1055F000810A10EE100A00F500606FF30B0000EE58
:10560000100AC34871EEC01A31EE812A784400EBCB
:10561000C10090ED003AD0ED011A100101EE100A20
:10562000F8EEC12A32EE211A31EE001A31EE031AD9
:1056300031EE221A11EE100A00F500606FF30B0034
:1056400009EE100A39EE621A31EE431A31EE400AC1
:1056500030EE610A32EE40AA10EE900A002100F509
:1056600000606FF30B0008EE900A084670EEE8AA9F
:10567000FAF7EEFF29EE280A00F00C01F0EEC00A5E
:1056800010EE900AB0F18B4F0DDD10EE900AB4EBE6
:10569000400F08D310EE100A4FF08B4262F31E0049
:1056A00008EE900A13E069EE2A0A38EEAA1A4AEECA
:1056B000010A30EE201A11EE100A00F500606FF3B7
:1056C0000B0008EE900A30EE680A70EE209A0C206B
:1056D000FAF7BEFF38EEA90AB5EEC00AF1EE10FAED
:1056E00034BFFEEE000AF6EE000A30EE800ABDEE90
:1056F000C00A10EE100A011100EE101AF8EEC00AEE
:1057000000EE100AB8EEC00A38EEC00A30EE290AE0
:10571000DFED801A9FED801A00EE211ADFED7F1A6F
:105720007F4900F00F0040EE011A21EE800A794413
:1057300001EB800191ED001A7A49794401EB800177
:10574000D1ED001A784901EE801A794401EB80000E
:10575000764990ED000A31EE001AB0EEE00A10EE44
:10576000100A884215DA10EE100AB4EB400F10D37D
:105770009FED6F0A30EE800ADFED6E0A20EE200A00
:1057800068EE010ABDEC068BBCEEC00A20EE200AD2
:1057900010BD10EE100A6849884243DA10EE100A74
:1057A000B4EB400F3ED3BDEEE00A68EE010A10EE06
:1057B000100A00EBD0725110C90501F17E5100EEC4
:1057C000101AA0EB6200C00560EE200A00F17E50C6
:1057D00000EE100A60EE808A18EE900AB4EB400FDB
:1057E0000FD1022000F0FEF900F0DCF910EE101AE3
:1057F00018EE100ABDEC068B61F31E0000EE100AD5
:1058000010BD18EE900A400011D018EE900AFFF774
:10581000AFFD042808BF00F0CDF9B0EE680ABDEC7A
:10582000068B10BDF5EEC00AF1EE10FA0FD2022081
:1058300000F0D8F900F0BEF910EE101A18EE100AB8
:10584000BDEC068B61F31E0000EE100A10BD0220B5
:1058500000F0C8F900F0A6F910EE101AB0EE480AF0
:1058600010EE100ABDEC068B61F31E0000EE100A6C
:1058700010BD00BFBCF1804F6CD300BF00F1FF43EF
:10588000B3F1FE4F24D200BFB0EEC00A10EE100AF2
:10589000C1F3C7537F2B0DDB972BBFF63BAEC3F194
:1058A00096034FF0010C0CFA03F3A3F1010C1CEA70
:1058B000010F08D0012000F095F9BDEC068BBDE882
:1058C000104000F067B90B4218BFBFEE008A21E616
:1058D00043001CBF4FF08073B3EB400F34D96FF01F
:1058E0001A02DFED161A20EE210A10EE100A27E048
:1058F00000000000001080C0ABAAAA3E0000803D5E
:105900007EE24C3E00B03842D49AB8BB3BAA384243
:10591000E8CB0000FC596337C9FF753A1872313D76
:1059200086CB0000BACB00002ACB00000000FC426E
:105930000000FE420000004B000040430000004D0C
:1059400010F0004FA0D1E5E5A0F50003B3F1FE4F44
:1059500021D2DFE503EB4103B3F1007F11D3F5EE74
:10596000C00AF1EE10FA05D1430018BFB4EB400FA6
:1059700076D883E701F0004141F0FC5100EE901A27
:105980007CE7B3F1807F06D210EE903AA3F50003D6
:1059900000EE903A72E720F000426FF0FF4C604C4E
:1059A00002EB0C03A34210D321F000439C44A44516
:1059B0000BD3B0F17E5F18BF5FEA410C50D0B2F15B
:1059C000FF4F98BFB3F1FF4F05D9BDEC068BBDE883
:1059D000104000F0DBB8B0F1FF4F0FD0C1F3C75259
:1059E0007F2A09DB972A11DAC2F19602012303FA12
:1059F00002F2531E0B4205D0002208E011F0004FC6
:105A000055D128E00A4218BF012200D1022210F528
:105A1000000F13D028B3B0F1004F26D010F1814F02
:105A20004FD04FF0FE42B2EB400F94BF0120002058
:105A3000012202EBE171884239D10CE011F0004FF4
:105A400002D0012A38D032E0012A02BF9FED350A88
:105A5000BDEC068B10BD9FED340ABDEC068B10BD6E
:105A60002FE011F0004F0CD121E0B1F1FF4F1ED01B
:105A700011F5000F05D011F0004F15D00AB1012A21
:105A800008D0022000F0AEF8BDEC068BBDE8104057
:105A900000F072B8022000F0A5F800F06DF8BDEC3F
:105AA000068BB1EE400A10BD0AB1012A04D0B0EE57
:105AB000690ABDEC068B10BDBDEC068B9FED1B0A81
:105AC00010BDBDEC068BB7EE000A10BD30EE410AEA
:105AD000B5EE001A9FED172A00EE413AB6EE001A15
