:020000040800F2
:10000000182D0020A9010008B1010008B301000863
:10001000B5010008B7010008B901000800000000A0
:10002000000000000000000000000000BB0100080C
:10003000BD01000800000000BF010008456600087F
:10004000C3010008C3010008C3010008C301000880
:10005000C3010008C3010008C3010008C301000870
:10006000C3010008C3010008C3010008C301000860
:10007000C3010008C3010008C3010008C301000850
:10008000111500081D150008410E000800000000B1
:10009000000000000000000000000000C301000894
:1000A0000967000815670008C3010008C3010008BC
:1000B00021670008A9670008C3010008C301000800
:1000C000C3010008C3010008C3010008C301000800
:1000D000C3010008C3010008216F000800000000F0
:1000E000F1160008C3010008C30100080000000069
:1000F000000000000000000000000000C301000834
:1001000000000000C301000865680008C301000882
:1001100000000000000000000000000000000000DF
:1001200029150008C3010008C3010008C301000825
:10013000C3010008000000000000000000000000F3
:10014000000000000000000000000000C3010008E3
:10015000C3010008C3010008C3010008C30100086F
:10016000C3010008C30100080000000000000000F7
:10017000000000000000000000000000000000007F
:1001800000000000C30100080000000000000000A3
:10019000C3010008DFF80CD000F00AFC004800475B
:1001A000F5820008182D00200648804706480047C1
:1001B000FEE7FEE7FEE7FEE7FEE7FEE7FEE7FEE717
:1001C000FEE7FEE7ED660008950100082DE9F05F07
:1001D0000546002092469B468846064681464024B6
:1001E0001BE0284641464746224600F06EFA534639
:1001F0005A46C01A914110D311461846224600F0C3
:1002000055FA2D1A67EB01084F46224601200021BE
:1002100000F04CFA17EB00094E41201EA4F1010436
:10022000DFDC484631462A464346BDE8F09FD2B25D
:1002300001E000F8012B491EFBD270470022F6E7CF
:1002400010B513460A4604461946FFF7F0FF20464C
:1002500010BD2DE9FE4F804681EA0300C00F0C4619
:10026000009021F0004123F00045B8EB0200A941C5
:1002700005D24046214690461C460B46024623F0D6
:100280000040104347D0270DC7F30A00C3F30A51BB
:100290000290401A019040286BDAC3F3130040F437
:1002A000801B0098924620B10023D2EB030A63EB37
:1002B0000B0B01985946C0F14002504600F0F6F988
:1002C00006460D4650465946019A00F00EFA10EBCC
:1002D00008006141002487EA115284EAE7731A4357
:1002E00040D0009A62B3019A012A4FEA075215DC06
:1002F000001B61EB02014FF0004202EA0752CDE918
:100300000042001C41F5801132462B4600F045FAB0
:1003100003B0BDE8F08F40462146F9E7001B61EBD2
:100320000201001C41F5801300185B412018A2F562
:10033000001747EB030140EAD570B6196D4111E093
:100340006D084FEA360645EAC0754FEA0752001BB2
:1003500061EB0201001C41F5801149084FEA3000B1
:100360000019514132462B4603B0BDE8F04F00F072
:1003700005BA0098012240000023D0EB020263EB93
:10038000E073009821464FEAE074B8EB000061EB9F
:100390000401E9E783F000435BE781F0004158E79F
:1003A0002DE9FE4F81EA030404F0004421F00041EE
:1003B00000944FF0000B23F0004350EA01045ED09C
:1003C00052EA03045BD0C3F30A54C1F30A552C4428
:1003D000A4F2F3340194A0FB0254C1F3130141F4DD
:1003E0008011C3F3130343F4801301FB024400FBA9
:1003F000034E840A970A44EA815447EA8357A4FBD0
:10040000076802958D0A05FB07854FEA932C04FBCC
:100410000C542705029D4FEA065847EA1637B5EBFC
:1004200008056EEB070C870E920E47EA811742EA29
:100430008312A7FB0201B6EB0B0164EB00042B0D4A
:1004400043EA0C335E1844EB1C50DA465146E7FB96
:100450000201C5F313044FEA0B3343EA14534FEA86
:100460000432019C43EA0603A4F10C040294009CAC
:10047000CDE900B400F091F903B0BDE8F08F0020A1
:100480000146F9E72DE9F04D81EA030404F0004B41
:1004900021F0004514464FF0000A23F0004150EAD5
:1004A000050220D054EA01021DD0C5F30A570246C6
:1004B000C5F31303C1F31300C1F30A5640F48015CA
:1004C00043F48013A7EB0608101BD64608F2FD384C
:1004D00073EB050002D308F1010801E092185B41BB
:1004E000B8F1000F03DA00200146BDE8F08D0020CE
:1004F0004FF48011064684460EE0171B73EB050788
:1005000005D3121B63EB050306434CEA010C4908B3
:100510004FEA300092185B4150EA0107EDD152EAF0
:10052000030012D082EA040083EA0501084305D0E3
:10053000101BAB4106D20122002306E000224FF03F
:10054000004302E06FF0010253101AEB06004CEB7F
:10055000085110EB0A0041EB0B01BDE8F04D00F033
:100560000DB90EB540F2334102910021CDE90011E1
:100570000A460B4600F011F903B000BD70B5C1F397
:100580000A5201F000450024C1F3130140F2FF3389
:1005900041F480119A4201DA002070BD40F23343E9
:1005A0009A42A2F2334203DC524200F08EF800E09D
:1005B00090402C43F1D0404270BDC1F30A5210B5B7
:1005C000C1F3130140F2FF3341F480119A4201DA82
:1005D000002010BD40F233439A42A2F2334203DCC2
:1005E000524200F072F810BD904010BD00F0004281
:1005F00030F000400AD0C10D01F56071C0F3160063
:1006000042EA0151C20840071143704700200146E9
:100610007047000030B5041E71F1000404DB4FF098
:100620000044404264EB0101141E73F1000405DB39
:100630001C464FF00043524263EB04038B4208BF59
:10064000824230BD30B5041E71F1000404DB4FF06E
:100650000044404264EB0101141E73F1000405DB09
:100660001C464FF00043524263EB0403994208BF1B
:10067000904230BD01F0004330B421F0004150EA17
:10068000010206D00A0DA2F56072C1F31301002A1F
:1006900002DC30BC00207047440F44EAC104C100B2
:1006A000E01830BC00EBC25000F031B8202A04DB67
:1006B000203A00FA02F1002070479140C2F1200375
:1006C00020FA03F3194390407047202A04DB203AB4
:1006D00021FA02F00021704721FA02F3D040C2F162
:1006E00020029140084319467047202A06DBCB17A9
:1006F000203A41FA02F043EAE07306E041FA02F3DD
:10070000D040C2F1200291400843194670470029A9
:10071000A8BF7047401C490008BF20F00100704787
:1007200010B4B0FA80FC00FA0CF050EA010404BFE7
:1007300010BC704749B1CCF1200421FA04F411FA3D
:100740000CF118BF012121430843A3EB0C01CB1D81
:100750004FEA00614FEA102042BF002010BC7047F2
:1007600000EBC35010440029A4BF10BC7047401CCC
:10077000490008BF20F0010010BC704710B5141EDE
:1007800073F1000408DA401C41F1000192185B414A
:100790001A4301D120F0010010BD2DE9F04D924621
:1007A0009B4611B1B1FA81F202E0B0FA80F2203238
:1007B0009046FFF77BFF04460F4640EA0A0041EAF5
:1007C0000B0153465A46084313D0114653EA010021
:1007D00019D0C8F140025046FFF777FF05460E4694
:1007E000504659464246FFF761FF084305D00120B5
:1007F00004E020463946BDE8F08D0020054346EA76
:10080000E0762C4337430A986305E40AA0EB08001E
:100810000022FD0A44EA47540A3002D5002001466E
:10082000E9E7010510196941DDE908450019694149
:10083000BDE8F04DA2E770B521F0004303430CD0B2
:10084000C1F30A550024D5EB040564EB0403D61765
:10085000AD1AB34102DB0020014670BD201841EB08
:10086000025170BD2DE9F04D00231A461B1A8A4132
:1008700003DB00200146BDE8F08DC1F30A52C1F34D
:10088000130141F480154FF0000BD10702D100187D
:100890006D41521E0027044640F2FF11384601EB1D
:1008A000620A3E468046024600204FF48011FFF760
:1008B0000CFFC2197141BB1846EB0100B4EB030CED
:1008C00075EB000C04D3E41A65EB000517460E46E1
:1008D000241908F101006D4180463428E3DDF9193F
:1008E00046EB0600091BA84103D24FF0FF32134626
:1008F00001E0002213461BEB070046EB0A51BDE85E
:10090000F04DFFF73BBF2DE9FE4FC3F30A5701F04F
:1009100000450024C1F30A56C3F31303C1F31301C6
:1009200043F4801312EB020AA64641F480110095AD
:1009300043EB030CA7F1010B16E0B0EB0A0061EBEF
:100940000C01071E71F1000707DA4FF00008D0EB29
:10095000080085F0004568EB0101171A73EB0107E9
:10096000EBD3761E001849415E45F6DA50EA0102E3
:1009700009D0CDE900E5002213460296FFF70DFFEE
:1009800003B0BDE8F08F20460099F9E70EB5C10F1E
:1009900080EAE0700844CA07002140F233438DE842
:1009A0000E000A460B46FFF7F8FE03B000BD00003C
:1009B000064C074D06E0E06840F0010394E80700AC
:1009C00098471034AC42F6D3FFF7E8FB5811010802
:1009D0007811010870B58C1810F8015B15F0070349
:1009E00001D110F8013B2A1106D110F8012B03E0C8
:1009F00010F8016B01F8016B5B1EF9D12B0705D4D0
:100A00000023521E0DD401F8013BFAE710F8013B18
:100A1000CB1A921C03E013F8015B01F8015B521E34
:100A2000F9D5A142D8D3002070BD00002DE9F047D0
:100A30002DED068B9FEDA6AB9FEDA79B9FEDA88BA1
:100A4000A94C207F617F800000EB4100A17F08441A
:100A5000FFF787FD0E4646EC100B054653EC192BAD
:100A600051EC100BFFF7F5FB53EC1A2BFFF7EAFDE7
:100A700004D2B0EE4A8AF0EE6A8A16E046EC105BC9
:100A800053EC192B51EC100BFFF7E3FB53EC182B35
:100A9000FFF7C0FD09D346EC105B53EC192B51EC6A
:100AA000100BFFF7D6FB41EC180B51EC180BFFF7BE
:100AB00065FD00EB400042008C4D8D4B00208118FD
:100AC00005EB810101F5806191ED920A03EB800154
:100AD000401C81ED320A0628F1DB677FA67F790092
:100AE000257F01EB86014819C1B28248A14607293A
:100AF00010D2DFE801F00F0407272A2D300090ED17
:100B0000080A01E090ED0A0AD0ED030A30EE200A4F
:100B100083ED5F0A93EDB22A9FED770A22EE000A79
:100B2000DFED762ADFED761ADFF8D8A1764C40EEBD
:100B3000621A9AF828204FF0FF314FF0000C032A78
:100B40000CD078E090ED090ADEE790ED060ADBE7CD
:100B500090ED070AD8E790ED050AD5E793F87E23D4
:100B600000212AB1012283F8A32383F8952302E010
:100B700093F8A3230AB1002205E02268D3F860832A
:100B80005268A2EB0802D4F80080D8F80480C3F8B9
:100B9000608383F8A3C393F89D839FED5C3AB8F11B
:100BA000000F02D0B0EE611A01E0B0EE431A93F8E4
:100BB0009583D3EDB30AB8F1000F0BD100EE102AE4
:100BC000B8EE400ADFED523A20EE230AD3EDCF3AD9
:100BD00040EE230AB0EE600ADFED4E3ADFF83881CE
:100BE00001EEA30A10EE102A424504DDDFED4B1A98
:100BF000C3ED601A09E0B5EEC00AF1EE10FA02D2B8
:100C000083ED603A01E083ED600AD3ED601AF4EE03
:100C1000401AF1EE10FA01D1012200E0002283F81F
:100C20009D2383F895C3C3EDB30A9FED3D0A21EEE2
:100C3000000A83EDCF0A83F87E1399ED080ADFEDF1
:100C4000391A83ED5C0AD0ED040A20EE801A93ED88
:100C5000CC0A71EE400A81EEA00A83ED5D0AD3ED65
:100C6000CD1A93EDCE3A70EE611A33EE203AC1EE12
:100C7000833A60EE221ADFED2C2AC3ED5E3ACAED0C
:100C8000181AF0EE401A42EE621AC3EDB21A29B9F0
:100C900020684068C3F8600383F8A3C383EDCC1ACF
:100CA00083EDCD0AC3EDCE0A0DB1012000E0002096
:100CB0001E4908700FB1012000E0002048700EB1FD
:100CC000012000E000208870BDEC068BBDE8F087B5
:100CD0000000000000001440000000000000F0BF11
:100CE0000000000000000000E4280020EC8900085B
:100CF000C0240020DC00002064994C3CEBC9184162
:100D000000007A4468280020E889000800000000FC
:100D100017B7D138B7623F3F004083450040834555
:100D20008FC28D41920A863F9ACD7CBFA8010020D8
:100D300010B50146806B026C12F0500F05D0026CAA
:100D4000D20626D501F074FA10BD016C41F4007191
:100D5000016401688A6812F0405F17D1027EAAB967
:100D6000CA6A12F4700F02D08A6852050ED44A681B
:100D700022F020024A60016C21F480710164016C50
:100D8000C90403D4016C41F00101016401F04EFA81
:100D900010BD806BC26CBDE810400846104710B50E
:100DA000806B40210164416C41F00401416401F019
:100DB0003FFA10BD10B5806B01F039FA10BD00008C
:100DC0001B481C491D4B90ED080AD1ED5C0A1A48DE
:100DD000D1ED5E1A30EE600AD0ED040A20EE801AE2
:100DE00021EE011A21EE211AF6EE001A21EE211A47
:100DF000D1ED5D1A21EE800A00EE201A91ED5F0A16
:100E0000D0ED030A01F5B67031EE000A30EE200A8B
:100E100010EE102A9A4201DD03F040BCB5EEC00A84
:100E2000F1EE10FA01D203F043BC81ED5B0A70478A
:100E3000E4280020C0240020DC000020DB0FC94093
:100E40002DE9F0416C4E01222DED028B4021304600
:100E500001F03AFE69480068406A694C00EE100AE9
:100E6000B8EE400A84ED080AFFF7AAFF01216548A1
:100E700001F051F800EE100AB8EE400A9FED628AC8
:100E800030EE480ADFED618A614D022120EE280A2A
:100E90005C4885ED000A01F03EF800EE100A5D4F57
:100EA0000321B8EE400A574830EE480A20EE280ADF
:100EB00087ED000A01F02FF800EE100A5648B8EE50
:100EC000400A30EE480A20EE280A80ED000A534816
:100ED000D0ED030AB8EE601ADFED510A514921EE58
:100EE000201A81ED001A90ED041A4F49B8EE411A0C
:100EF00021EE201A81ED001A90ED051A4B48B8EE4C
:100F0000411A61EE200AC0ED000A4948D0ED010AFD
:100F10004948C4ED000AD5ED000A464DC4ED010A6A
:100F2000D7ED000AC4ED020A84ED030A95ED170A15
:100F300084ED040A0078012801D103F087FF3F4CBB
:100F40006089401C80B26081052813D906F008F83A
:100F5000002262813A48218995ED170A00EB810051
:100F6000491C80ED000A88B240F2CF71208188428E
:100F700000D3228195ED000ABCEEC00A10EE100AE3
:100F800081B230480268516395ED010A0268BCEEF7
:100F9000C00A10EE101A89B2916395ED020A00683A
:100FA000BCEEC00A10EE101A89B2C163D5ED170A63
:100FB0009FED250A60EE800AFCEEE00A10EE900A32
:100FC00081B2224802685163D5ED1E0A006820EE06
:100FD000800ABCEEC00A10EE101A89B2816309487B
:100FE00001F027F9BDEC028B3046BDE8F04100224C
:100FF000402101F069BD00000004024044030020CC
:10100000E4280020FC0100200060FF440000843C34
:101010001C000020200000202400002028040020C4
:101020009605933C280000202C0000203000002072
:101030003001002068280020380000203A000020FD
:1010400080050020440200200000A743C4020020C5
:10105000464910B54A6822F440324A604A684368FB
:101060001A434A6001684A6822F480724A60016843
:101070004A68036942EA03224A6001684A6822F02A
:1010800040724A6001684A6883681A434A6001688E
:101090008A6822F400628A6001688A68C3681A4319
:1010A0008A60816A6FF07062D14201688A6822F0BA
:1010B00070628A6001688A680CD0836A1A438A6009
:1010C00001688A6822F040528A6001688A68C36AAF
:1010D0001A4301E022F040528A6001688A6822F0D7
:1010E00002028A6001688A68037E42EA43028A60DB
:1010F00090F82010002901684A680FD042F400627D
:101100004A6001684A6822F460424A6001684A689D
:10111000174C436A04EB43331A4301E022F40062A4
:101120004A600168CA6A22F47002CA620168CA6A27
:10113000838B104C04EB03531A43CA6201688A681C
:1011400022F400728A6001688A6890F8303042EABE
:1011500043228A6001688A6822F480628A6001689A
:101160008A68406942EA8020886010BD00230140FF
:1011700000E0FFFF0000F0FF084991F88C0302280F
:1011800009D0032807D0042804D1054890ED1E0A91
:1011900081ED610A704791ED460AF9E7C02400200D
:1011A000682800202DE9F0474A4E3078012802D106
:1011B0007078012800D00020474F87F89C0397EDF6
:1011C000A10A87ED3E0A05F075F9444997F97C03B9
:1011D0004FF0FF3509782C46012900D1002487F80B
:1011E0007C43A04202D008B904F09CF90CB904F089
:1011F00081FA97F88C03022801D0032801D105F069
:10120000D5F8DFF8DC9097F97D0399F800100129F3
:1012100000D1002587F87D53A84202D008B900F01C
:10122000DFFC0DB900F040FBFFF7A6FF97ED900A39
:10123000DFED2C0A2C4C2D4D20EE200A84ED1D0AEA
:10124000A878012801D104F065F9DFF8A48098F8A6
:101250000000012801D104F0A5FD98F80100012843
:1012600007D194ED180A87ED3F0A97ED5B0A87EDE9
:10127000400AE878012807D197ED430A87ED3F0A35
:1012800097ED450A87ED400A3078012803D099F898
:101290000100012807D194ED1D0A87ED3F0A97ED63
:1012A000610A87ED400A2878012801D104F0A8FFDF
:1012B0006878012807D197ED420A87ED3F0A97ED3C
:1012C000410A87ED400A94ED1D0A87EDA10ABDE8A9
:1012D000F087000050010020C024002008010020F9
:1012E00088010020EBC99840682800209401002064
:1012F000DC000020064810B54FF0FF3180F87C1369
:1013000080F87D1300F078FCBDE8104004F074BE56
:10131000C02400200C499FED0D0A0D4BD1ED920A1F
:1013200001F5F47030EE800A10EE102A9A4201DDC9
:1013300003F0B4B9B5EEC00AF1EE10FA01D203F031
:10134000B7B981ED7A0A7047C0240020DB0F49C08D
:10135000DB0FC9400D480F4A90ED020A0C48D0ED52
:10136000000A0D4830EE200A10EE101A914201DDFD
:1013700003F094B9B5EEC00AF1EE10FA01D203F011
:1013800097B9064880ED450A704700009401002097
:10139000A4010020DB0FC940D4250020C024002078
:1013A0000D480F4A90ED120A0C48D0ED090A0D487D
:1013B00030EE200A10EE101A914201DD03F06EB9F2
:1013C000B5EEC00AF1EE10FA01D203F071B9064889
:1013D00080ED580A704700006828002008010020AE
:1013E000DB0FC94020260020C02400200C499FEDBF
:1013F0000D0A0D4BD1ED920A01F5F47030EE800A22
:1014000010EE102A9A4201DD03F048B9B5EEC00A89
:10141000F1EE10FA01D203F04BB981ED7A0A704770
:10142000C0240020DB0F4940DB0FC9400A48417847
:101430000A48012902D090ED400A09E090F88F1384
:10144000032903D006D290ED790A01E090ED770AE6
:1014500080ED6B0A704700005C000020C024002073
:101460000F48B6EE001AD0ED011A90ED020AD0ED49
:10147000030A0D4840EE411A40EEC11A9FED091AC9
:1014800061EE811AC0ED8D1ADFED081A20EE210AF7
:1014900000EEE10A20EE010A80ED8E0A704700009E
:1014A000E4280020EC05513FC0240020D7B35D3F65
:1014B000124900B5104A097892F97F03012908D032
:1014C000022908D0022382F87F33984207D020B146
:1014D00005E00023F7E70123F5E704F06BFE2BB1ED
:1014E000012B07D15DF804EB05F08AB85DF804EB39
:1014F00004F08ABD00BD0000C0240020300100209F
:101500000249FF2081F87F0304F070BEC024002050
:10151000014801F08BB8000000050020014801F0EF
:1015200085B80000A0040020014801F07FB8000049
:101530004004002001681823CAB2103AB2FBF3F24B
:10154000054B6FF30901032A9B5CC36500D9091D94
:101550008165084670470000C689000810B501463D
:1015600000208B698A6A4FF0C07453B1B3F5005FF5
:1015700015D072B1012A0CD0022A0AD0032A09D14F
:1015800004E01AB1012A06D0022A03D1C96AC901AE
:1015900000D5012010BDC96AA142FAD010BD002AB1
:1015A000F7D0012AF2D0022AF3D0032AF3D010BDDB
:1015B00030B50468256825F48025256004686360DB
:1015C0008368402B036803D099600068C26030BD17
:1015D0009A600068C16030BD2048224990ED020A3F
:1015E0001F48D0ED700A70EE600A90EDCB0A80EDD6
:1015F0008B0A91ED061AF0EE401A01EE200A91EDE9
:10160000081AB4EEC01AF1EE10FA06D391ED091AD9
:10161000B4EEC01AF1EE10FA02DD80ED8C1A01E092
:1016200080ED8C0A90F8A2230AB9DFED0F0A91ED44
:10163000071A61EE200A9FED0D1A40EE811AC0EDE7
:10164000CB1AD0ED8C0AF4EE400AF1EE10FA01D17B
:10165000012100E0002180F8A213704768280020D3
:10166000C0240020A40000200000000017B7D138DB
:10167000024890ED8B0A80EDCB0A7047C024002011
:1016800010B504F0EFFA184C94ED530A60EE000A1E
:1016900094ED540A40EE000A10EE900AFEF7A6FF01
:1016A00041EC100B06F0F4FC51EC100BFEF7E2FFDE
:1016B00000EE100A10EE100AB0F1814F01DCB1EE1D
:1016C000000AD4ED910A94ED531A0848D4ED541A47
:1016D00060EE810A90ED121A51EE610A80EE801AD6
:1016E00084ED911A10BD0000C0240020682800205D
:1016F000104910B50120087000210F4802F05EF972
:1017000000210D4801F01EFE04210B4802F056F99D
:101710000421094801F016FE0821074802F04EF99D
:101720000821054801F00EFEBDE810404FF40050BE
:1017300001F0EEB8380000204402002072B6FEE747
:1017400070B5FFF78DFE02F005FEFFF76FFE2D4C22
:101750002D4D2E4994EDB60A84ED960A94EDB70A04
:1017600085ED020A097894F98303012901D001214A
:1017700000E0002184F88313884202D008B900F009
:1017800053FA39B394ED660A84ED690A94ED680A58
:1017900084ED6A0A04F04EF904F0A2FA03F0E2FDC7
:1017A000FFF71AFF94ED8C0AD4ED920A30EE200A6E
:1017B00085ED020A03F0F2FD02F084FF94F88F0336
:1017C000401E022809D294ED750A84ED6C0A94ED4E
:1017D000760A08E000F030FADCE794ED720A84ED56
:1017E0006C0A94ED960A84ED6D0A04F001F802F09B
:1017F000E7FD94ED8C0A84EDB60A94ED6F0A84ED52
:10180000B70A70BDC02400206828002070010020A5
:1018100010B502F085FF02F071FF0F4A0D494FF03D
:10182000FF34927891F98203012A04D10B4A92F88D
:101830002820032A00D1002481F88243A04202D04C
:1018400008B900F015F8002C03D1BDE81040FFF7EF
:1018500077BF10BDC0240020DC00002068280020D5
:101860000249FF2081F8820300F016B8C02400204E
:1018700010B502F08DFD074991F8830308B900F017
:10188000D3F9FF2081F88303FFF7F2FEBDE8104093
:1018900003F0D0BDC02400200249FF2081F883035B
:1018A00002F084BDC024002070B5B44CB44D94ED5A
:1018B000AB0A85ED1E0A04F037F9D4EDAC2AC4ED6D
:1018C0004A2AD4ED380A9FEDAF0AD4EDAD3AAE48BE
:1018D00040EEC02AC4ED4B3AD4ED390AAB4A40EE93
:1018E000C03A94ED900A60EE230A94ED4C0A40EE63
:1018F000620A90ED010A20EE001A21EE203A90EDE6
:10190000021A21EE001A94EDAE0A01EE200A10EE42
:10191000100A9FED9F1A9F4B9FED9F5A9FED9F4A84
:10192000904202DD70EE410A08E010EE100A984283
:1019300002D8F0EE440A01E070EE450AF5EEC00A66
:10194000F1EE10FA01D0012000E00020F5EEC00A0F
:10195000BFEE002AF7EE004AF1EE10FA904902D2EB
:10196000F0EE421A11E0F5EEC00AF1EE10FA02DDD7
:10197000F0EE641A09E0F5EEC00AF1EE10FA02D1B9
:10198000F0EE441A01E0D1ED001AB5EEC03AF1EEE6
:1019900010FA11D3B5EEC03AF1EE10FA02DDB0EE56
:1019A000642A09E0B5EEC03AF1EE10FA02D1B0EEC9
:1019B000442A01E091ED002A68B1FDEEE10A10EE43
:1019C000900AFDEEC20A41B210EE900A40B2814286
:1019D00001D1B0EE443A10EE100A904202DD84EDDF
:1019E000901A08E010EE100A984202D984ED905A3D
:1019F00001E084ED900A6B49E06A0122884209D037
:101A00006068012800D0002000B162729FED660A74
:101A100084ED0B0A607A002360B16372206B016869
:101A2000012900D0002101B14271206B94ED0B0A15
:101A300080ED020A206B016801290BD00260C0ED25
:101A4000034A80ED044A90ED020A80ED050A027116
:101A5000437106E0417921B1437190ED020A80EDB6
:101A6000050AD0ED030A90ED040A90ED051AC4EEC4
:101A7000A01AB0EE644A34EEE12A41EE204A22EE8A
:101A8000000A94ED902AC0ED034AB0EEC22A01EE9E
:101A9000820A80ED040ADFED450A20EE201A11EEDD
:101AA000100AB0F17E5F02DDB0EE441A06E011EEDE
:101AB000100A3F49884201DA9FED3E1ADFED3E0AE7
:101AC000404961EE201ADFED3D0A9FED3D1A42EEDE
:101AD000E20A20EE010A10EE100A43EEE30A884201
:101AE00002DD9FED390A06E010EE100A3749884200
:101AF00001DA9FED370A95ED1E1A94ED904A9FED9D
:101B0000352A354904EE021A9FED344A11EE100AC7
:101B1000884202DD31EE441A06E0B5EEC01AF1EE5D
:101B200010FA01D231EE041A60EEA22A60EEA30A86
:101B300084EDAB1A94ED3A1A94ED384A04EE611A2A
:101B400002EE801AD4EDAC2A41EE022AC4EDAC2A92
:101B500094ED3B1AD4ED392A02EEE11A00EE801A18
:101B600094EDAD0A01EE020A84EDAD0A94EDAE0AE1
:101B700003EE020A84EDAE0A70BD0000C02400200E
:101B8000682800204B59863B8801002052E6024419
:101B900052E6024452E602C452E602C400000000CB
:101BA000B8010020A4707D3FA4707D3F0AD7A33BFD
:101BB000CDCC4C3FCDCC4C3FCDCCCC3E6651323A17
:101BC000FAC2B7448096984A8096984A0050434893
:101BD0000050434817B7D138DB0FC940DB0FC9406D
:101BE000044890ED4A0A80EDAC0A90ED4B0A80ED76
:101BF000AD0A7047C02400200949012300229FED4F
:101C0000090A0A7081ED0B0A08464B604B6340F8E5
:101C1000382F80ED020A08630B724A727047000089
:101C2000C0240020A4707D3F024890ED8A0A80ED18
:101C3000CA0A7047C024002010B5414CF0EE000ADB
:101C40002DED028B94ED960A06F0E0FD3D48B0EED6
:101C5000408AF0EE000A90ED020A06F0D7FD38EE59
:101C6000000AB5EEC00AF1EE10FA12D2B1EE400A47
:101C700010EE100AFEF7BAFC41EC100B06F008FA61
:101C800051EC100BFEF7F6FC00EE100AF1EE400AE4
:101C90000DE010EE100AFEF7A9FC41EC100B06F067
:101CA000F7F951EC100BFEF7E5FC00EE900A94F802
:101CB000A1039FED252A10B132EE601A01E09FEDDD
:101CC000231A94EDCA0A224984ED8A0A72EE600A48
:101CD00091ED032AF0EE401A00EE820AD1ED020ADD
:101CE000F4EEC00AF1EE10FA08D3D1ED010AF4EED9
:101CF000C00AF1EE10FA01DCF0EE400A94ED662A1B
:101D0000B4EE600A32EE202A84ED692A94ED682A46
:101D1000F1EE10FA84ED6A2A01D1012000E00020E2
:101D200084F8A10391ED040ADFED0A0A20EE010A0E
:101D300040EE201AC4EDCA1ABDEC028B10BD0000A3
:101D4000C024002068280020D7B35D4100000000B7
:101D50007001002017B7D13870B590F83C20694C5D
:101D6000012A19D0012280F83C200A68072503685F
:101D7000092A13D9DE680A3A02EB42029540AE43C3
:101D8000DE600A788B680A3A02EB420293400268EE
:101D9000D5682B43D36010E0022070BD1E6902EBB2
:101DA00042029540AE431E610A788B6802EB420204
:101DB0009340026815692B4313610268936B23F407
:101DC000401393630268936B0D8A4F4E06EB0555E3
:101DD0002B4393630A790B7CD21AD21C02EB82024A
:101DE0001F2393400268956B9D4395630A790B7C92
:101DF000D21A0B88D21C02EB82029BB2934002687B
:101E0000956B2B4393638A69A2420268936823F41B
:101E100070239360026893680CD08C6923439360AD
:101E20000268936823F44013936002689368CC6956
:101E3000234301E023F4401393604A7D002A0268A3
:101E4000536802D043F4806301E023F4806353605D
:101E50000A7D002A0268536802D043F4805301E0EF
:101E600023F4805353604A68012A16D0022A1FD0F7
:101E7000032A026827D0136A6FF30B031362026808
:101E8000136ACC6823431362214B04681F4A9C42A7
:101E900027D10C68122C20D023E0026853696FF31D
:101EA0000B03536102685369CC6823435361EBE72A
:101EB000026893696FF30B03936102689369CC68BE
:101EC00023439361E0E7D3696FF30B03D3610268A7
:101ED000D369CC682343D361D6E7546844F48004C3
:101EE000546004689C4208D10968102901D0112966
:101EF00003D1516841F400015160002180F83C1089
:101F0000084670BD01000F000000F0FF00230140F3
:101F100000200140704708B5002200920368521F5C
:101F20001A60012911D002290CD0032906D00429F6
:101F300001D0009808BD0068806C01E00068406C2A
:101F4000009008BD0068006CFAE70068C06BF7E716
:101F500018B50022009290F83C10012907D0012109
:101F600080F83C1001688B68DB0702D011E002208A
:101F700018BD8B6843F001038B602249224B09682E
:101F8000B1FBF3F101EB410100E0491E0091002992
:101F9000FBD101688B68DB0726D0036C42F2010499
:101FA000A34343F480530364036CDB0500D4426411
:101FB00080F83C206FF004020A6014494968006808
:101FC000C906816801F4401110D0C1B100214268F6
:101FD0000F4B42F38022521C984205D121B11AB115
:101FE000816841F480018160002018BD29B1002181
:101FF000426842F38022521CF0E70121F8E70121F8
:10200000E5E700005800002040420F000023014097
:102010000020014018B50022009290F83C100129E0
:1020200007D0012180F83C1001688B68DB0702D0E3
:1020300011E0022018BD8B6843F001038B60244936
:10204000244B0968B1FBF3F101EB410100E0491EAB
:1020500000910029FBD101688B68DB072BD0036C52
:1020600042F20104A34343F480530364036CDB0591
:1020700000D4426480F83C206FF004020A600168DA
:102080004A6842F080024A60134949680068C906FC
:10209000816801F4401110D0C1B1002142680F4B9A
:1020A00042F38022521C984205D121B11AB18168B5
:1020B00041F480018160002018BD29B100214268EF
:1020C00042F38022521CF0E70121F8E70121E5E705
:1020D0005800002040420F00002301400020014032
:1020E00078B50024009490F83C20012A19D00122F0
:1020F00080F83C200A6807250368092A13D9DE689E
:102100000A3A02EB42029540AE43DE600A788B68E1
:102110000A3A02EB420293400268D5682B43D3602F
:1021200010E0022078BD1E6902EB42029540AE43EA
:102130001E610A788B6802EB4202934002681569BF
:102140002B4313614A681F25072A13D203685E6B6D
:10215000521E02EB82029540AE435E630A8893B240
:102160000A79521E02EB820293400268556B2B43A0
:10217000536327E003680D2A12D21E6BD21F02EBB5
:1021800082029540AE431E630A8893B20A79D21F39
:1021900002EB820293400268156B2B43136311E03C
:1021A000DE6A0D3A02EB82029540AE43DE620A8897
:1021B00093B20A790D3A02EB820293400268D56A23
:1021C0002B43D362164B0568144A9D4206D10D6815
:1021D000122D03D1556845F48005556005689D4270
:1021E00018D10B68102B01D0112B13D1536843F475
:1021F00000035360096810290CD10A490A4A09688A
:10220000B1FBF2F101EB8101490000E0491E0091B0
:102210000029FBD180F83C40002078BD002301401C
:10222000002001405800002040420F0070477047D6
:10223000704770B5044600680168C1F34002416808
:10224000C1F3401152B349B3216CC90603D4216CC8
:1022500041F400712164816811F0405F17D1217E43
:10226000A9B9C16A11F4700F02D0816849050ED472
:10227000416821F020014160206C20F480702064CE
:10228000206CC00403D4206C40F001002064204680
:10229000FFF7CCFF21686FF012000860206801682A
:1022A0004268C1F38001C2F3C01289B382B3216CCA
:1022B000C90603D4216C41F400512164816811F4F2
:1022C000401F1ED1816B11F4401F02D08168490567
:1022D00017D44168490514D4816811F0405F10D1CA
:1022E000217E71B9416821F080014160206C20F4A9
:1022F00080502064206CC00503D4206C40F00100A5
:1023000020642046FFF706FE21686FF00C0008608D
:10231000206801684268C1F30001C2F3801271B104
:102320006AB10068C0070AD0206C40F48030206495
:10233000204600F046F821686FF001000860206830
:1023400001684268C1F34011C2F3806200290DD0D8
:10235000002A0BD0616C41F0020161646FF020052E
:1023600005602046FFF764FF2068056070BD70B50A
:1023700004004FF0000603D0206C002510B107E0E8
:10238000012070BD204600F01DF8656484F83C50C3
:10239000206CC00610D4206C20F4885040F002005D
:1023A00020642046FEF754FE6564206C20F0020095
:1023B00040F00100206400E0012684F83C503046E3
:1023C00070BD704770B586B0064614216846FDF7AB
:1023D00035FF2849306888424AD1274800250168DE
:1023E00041F4807101600068234900F48070143961
:1023F0000590086840F004000860086800F00400D8
:102400000590086840F0010008600868032400F0A7
:10241000010005903F208DE831006946174800F023
:1024200083FA13208DE831006946154800F07CFAE4
:10243000154C1448C4E900050015A560C4E9035013
:10244000800060618000A0618011C4E9070520461A
:10245000656200F0BBF908B1FFF770F9B4630022C0
:1024600002211220A66300F0A5FB122000F094FBCD
:1024700006B070BD00200140443802400008024010
:10248000000002401064024040040020F8B5002320
:102490000446009390F83C00012807D0012084F8FE
:1024A0003C0020688568ED0702D011E00220F8BDED
:1024B000856845F0010585602E482F4D0068B0FB0A
:1024C000F5F000EB400000E0401E00900028FBD13A
:1024D00020688568ED074AD0256C40F20166B54357
:1024E00045F4807525644068400505D5206C20F4CE
:1024F000005040F480502064206CC00404D5606C0F
:1025000020F00600606400E0636484F83C30A36B54
:102510001B481A4DD863A36B1A481864A36B1A485A
:10252000D86423686FF0220018602068436843F085
:10253000806343602068836843F48073836013463C
:1025400020680A46A66B00F14C01304600F0A8F95D
:102550006868C006206802D00C49884207D18168AB
:1025600011F0405F03D1816841F08041816000201B
:10257000F8BD00005800002040420F000023014039
:10258000310D0008B50D00089F0D00080020014026
:1025900030B50223437103689C6844F001049C60D9
:1025A000002304E0056851F823402C605B1C934233
:1025B000F8D30168096801224271084630BD10B5A0
:1025C000040002D0607910B106E0012010BD0020A7
:1025D0002071204600F004F801206071002010BD39
:1025E00008B500680649884208D10648016841F4E8
:1025F00080510160006800F48050009008BD000028
:10260000003002403038024090F83510022903D0E3
:102610008021416501207047052180F83510006850
:10262000016821F001010160002070472DE9F843A5
:1026300004464FF00009CDF8009063484FF416515E
:10264000A56D0068B0FBF1F72E6894F85C200821B6
:1026500001FA02F030420FD02068026852070BD511
:10266000026822F00402026094F85C008140A960D4
:10267000606D40F00100606594F85C104FF0010857
:1026800008FA01F0304208D021684969090604D5EA
:10269000A860606D40F00200606594F85C10042052
:1026A0008840304208D021680968890704D5A860AD
:1026B000606D40F00400606594F85C101020884064
:1026C000304218D021680968090714D5A86020682D
:1026D0000168490304D50068000308D5A16C07E030
:1026E0000168C90503D4016821F008010160216C6B
:1026F00009B12046884794F85C1020208840304279
:1027000031D021680968C9062DD5A86094F8350034
:1027100005282068016806D0490347D500680003F2
:102720001DD4616C1CE021F0160101602068416934
:1027300021F080014161206C08B9A06C20B12068B3
:10274000016821F00801016094F85C103F20884086
:10275000A86084F8349084F83580216D1FE0E16B27
:1027600009B120468847606D00282BD0606DC007F6
:1027700014D0052084F835002068016821F001019B
:1027800001600098401C0090B84203D8206800689F
:10279000C007F6D184F8349084F83580E16C0029C4
:1027A00010D001B02046BDE8F04308470168C905D4
:1027B000D5D4016821F01001016084F8349084F8C8
:1027C0003580CCE7BDE8F883580000202DE9F041C2
:1027D000044600F07FF905465CB1002684F83460B9
:1027E000022084F835002068016821F001010160B1
:1027F0000DE00120BDE8F08100F06CF9401B0528D8
:1028000005D920206065032084F83500F2E72068B0
:102810000068C007F0D121680A6820480240D4E966
:1028200001031843D4E903352B4318436369184364
:10283000A3691843E3691843236A18431043626A83
:10284000042A03D1D4E90B231A43104308602068FB
:102850004069656A20F0070128460D4301270428D6
:102860000CD1A06A0543E06A40B12046FEF776FE2F
:1028700020B14020606584F83570BAE72068456172
:102880002046FEF757FE94F85C203F21914081607E
:10289000666584F835700020ACE700003F8010F0DA
:1028A0002DE9F0410446866D90F83400002501289A
:1028B0000DD0012084F8340094F835700020012FE9
:1028C00007D084F8340002252846BDE8F0810220B4
:1028D000FBE7022784F8357060652046FEF768FE46
:1028E00094F85C103F208840B0602068016841F097
:1028F00016010160206C20B12068016841F00801D8
:1029000001602068016841F001010160DCE7704767
:10291000044910B50A68024202D00860FFF7F7FFC9
:1029200010BD0000143C01402DE9F84FDFF860B104
:1029300000224FF003094FF00F0A0BF1040E01259E
:102940000B6895402B40AB4272D14C68012C05D0EE
:10295000022C03D0112C01D0122C10D18668540007
:1029600009FA04F7BE43CF68A7403743876044683D
:10297000AC430D79C5F30015954025434560C46807
:10298000570009FA07F58E68AC43BE402643C6607F
:102990004C68022C01D0122C12D1D40800EB840C0C
:1029A000DCF820605407E40E0AFA04F826EA080668
:1029B000D1F8108008FA04F848EA0608CCF820801C
:1029C0000468AC430D7905F00305BD40254305605F
:1029D0004C68E40056D52F4C256845F480452560A9
:1029E000246822F0030504F4804400942A4C2E1934
:1029F000D6F808789407250F0AFA05F4A743274C60
:102A0000A04201D1002415E0254CA04201D10124AF
:102A100010E0244CA04201D102240BE0224CA04241
:102A200001D1032406E0214CA04202D1042401E09C
:102A300028E00724AC403C43C6F80848DBF80040D7
:102A40005D464E689C43F60300D51C432C60DEF8BF
:102A5000004075464E689C43B60300D51C432C606D
:102A60000B4D08352C684E689C43F60200D51C437C
:102A70002C60074D0C352C684E689C43B60200D57F
:102A80001C432C60521C102AFFF459AFBDE8F88F8C
:102A9000003C014044380240003001400000024048
:102AA0000004024000080240000C024000100240F6
:102AB0000069084000D001207047426931EA0202F3
:102AC00000D10904816170470AB18161704709042E
:102AD000FBE7000001488068704700004C000020C0
:102AE0000248816802781144816070474C000020E0
:102AF0000B4810B5016841F400710160016841F4B0
:102B000080610160016841F480710160032000F080
:102B100071F8042000F006F800F024F8002010BD41
:102B2000003C024070B50D4D04464FF47A71287890
:102B3000B1FBF0F00A490968B1FBF0F000F0FAFAD5
:102B400048B9102C07D200222146501E00F032F85E
:102B500000206C6070BD012070BD00004C000020A2
:102B6000580000200B4882B0016841F480410160A8
:102B7000006800F4804000900648001F016841F0A2
:102B800080510160006800F080500090042002B085
:102B900000F030B844380240002809DB00F01F0282
:102BA000012191404009800000F1E020C0F80011AF
:102BB00070470000F0B40E4B1B68C3F30223C3F14F
:102BC0000704042C00D904241D1D072D01D2002365
:102BD00000E0DB1E012606FA04F56D1E0D409D4047
:102BE0009E40761E164045EA0601F0BC04F07CBA11
:102BF0000CED00E0064A00F0070110684FF6FF03F5
:102C0000184040EA01200349084310607047000063
:102C10000CED00E00000FA052DE9F0470D46040038
:102C200065D0DFF81491D9F80000EFB200F00F0082
:102C3000A84207D289F80070D9F8000000F00F0010
:102C4000A84254D120683D4E810712D5400703D5D4
:102C5000306840F4E05030602078000703D53068D9
:102C600040F4604030603068A16820F0F000084314
:102C700030602078C0072DD03049606808390128BD
:102C800012D0022813D0032811D00968890700291F
:102C90002DDA316821F0030101433160FFF71AFF9B
:102CA000804641F2883A0EE009688903EFE7096837
:102CB0008901ECE7FFF70EFFA0EB0801514502D9AF
:102CC0000320BDE8F0873068616800F00C00B0EBCD
:102CD000810FEFD1D9F80010484601F00F01A94249
:102CE00007D90770006800F00F00A84201D001204A
:102CF000E7E72078400705D53068E16820F4E05028
:102D0000084330602078000706D53068216920F438
:102D1000604040EAC100306000F038F83168084A8D
:102D2000C1F30311515CC8400649086006480068B9
:102D3000FFF7F8FE0020C4E7003C024008380240DC
:102D4000CE890008580000205000002004480549A2
:102D500000680968044AC1F38221515CC840704789
:102D60005800002008380240DE8900080448054960
:102D700000680968044AC1F34231515CC840704799
:102D80005800002008380240DE890008154810B5B8
:102D9000006810F00C01144813D0431004290FD020
:102DA00008290ED10F4C241F216801F03F02216831
:102DB000490207D52068C0F38810A0FB030106E094
:102DC000184610BD2168C1F38811A1FB0001002342
:102DD000FDF7FCF92168C1F30141491C4900B0FB32
:102DE000F1F010BD083802400024F4002DE9F84F3E
:102DF000040075D02078DFF828A3C007AAF10405E5
:102E000048D00AF104000168C1F38101012908D00A
:102E10000068C0F3810002280AD1DAF800004002FD
:102E200006D52868800335D560680028E1D031E0F8
:102E30006068B0F5803F10D0B0F5A02F286810D0A2
:102E400020F480302860286820F4802028606068A2
:102E5000A0B1FFF73FFE06460CE0286840F4803042
:102E6000F4E740F480202860F7E7FFF733FE801B8B
:102E7000642871D828688003F7D50BE0FFF72AFE95
:102E8000064604E0FFF726FE801B6428F1D8286878
:102E90008003F7D42078DFF88C9280074FF0000B86
:102EA0003DD59F48001D016811F00C0F08D0006847
:102EB000C0F3810002280AD1DAF80000400206D4EB
:102EC0002868800715D5E068012809D111E0E0687D
:102ED000B8B10121C9F80010FFF7FCFD064605E076
:102EE0001AE1FFF7F7FD801B0228C2D82868800787
:102EF000F7D52868216920F0F80040EAC100286071
:102F00000DE0C9F800B0FFF7E5FD064604E0FFF765
:102F1000E1FD801B02281FD828688007F7D420789D
:102F2000000722D57E4F80486169703771B1012159
:102F30000160FFF7CFFD064604E0FFF7CBFD801BE5
:102F4000022809D838688007F7D50EE0C0F800B02D
:102F5000FFF7C0FD064605E082E0FFF7BBFD801BE2
:102F600002287DD838688007F7D42078400765D5D7
:102F70006B484FF000083C300068C0000BD4684834
:102F80003C30016841F08051016000684FF0010859
:102F900000F080500090654F3868C0050FD4386845
:102FA00040F480703860FFF795FD064604E0FFF7B7
:102FB00091FD801B022853D83868C005F7D5584FBB
:102FC000A0686C3701280FD00528386810D020F091
:102FD00001003860386820F004003860A068B0B1A3
:102FE000FFF778FD06460EE0386840F00100F4E790
:102FF00040F004003860F7E7FFF76CFD811B41F2F9
:103000008830814263D838688007F5D50DE0FFF736
:1030100061FD064606E0FFF75DFD811B41F2883049
:10302000814254D838688007F5D4B8F1000F05D034
:103030003B483C30016821F080510160A069B8B381
:103040003749091D0968C1F38101022946D00228C8
:10305000584606D0C9F86000FFF73CFD044639E049
:1030600035E04F46C9F86000FFF734FD064604E03E
:10307000FFF730FD801B022829D828688001F7D48B
:10308000D4E907010843A16A294A490802EB014132
:10309000626A41EA8211084394F82C1040EA016107
:1030A000CAF8001001203866FFF714FD044605E059
:1030B00034E0FFF70FFD001B022808D828688001C4
:1030C000F7D52BE0FFF706FD001B022802D90320ED
:1030D000BDE8F88F28688001F4D41FE00128F7D0FC
:1030E000DAF80000E26900F48001914214D1226A0A
:1030F00000F03F0191420FD147F6C071626A014072
:10310000914209D1A26A00F44031914204D1E16AAE
:1031100000F07060884201D00120D9E70020D7E795
:103120000438024000004742800E474200700040D1
:103130000000FFFF10B5401EB0F1807F01D30120D9
:1031400010BD4FF0E02460610F21601703F0CCFF49
:103150000020A06107202061002010BD704770474B
:1031600010B590F83C20012A22D0012280F83C20A2
:10317000CA688C6822F4407222434C6822F4806250
:1031800022430C6822F4006222430C6922F480522C
:1031900022434C6922F400522243C969002322F4DD
:1031A00080420A4301684A6480F83C30002010BD28
:1031B000022010BD70B588B00D46040004D094F80C
:1031C0003D00002618B107E0012008B070BD84F86A
:1031D0003C60204600F04CF8022084F83D00211DA0
:1031E000206803F04DFBAB6829680322206803F0D8
:1031F000BBFC2068816921F00C0181612068816934
:103200006A68114381612068416841F08001416032
:103210002068816821F0700181602068816841F038
:10322000400181602068816821F007018160206889
:10323000816841F00401816070200596049606962D
:10324000039602960090E86801906946206803F0B2
:10325000BBFB2068416821F0700141602068416833
:1032600041F050014160012084F83D000020ACE7AE
:10327000704710B5044600680122002103F04CFBA2
:103280002068816801F00701062903D0016841F038
:1032900001010160002010BD10B504460068C1683E
:1032A00041F00201C16001220021206803F034FBDB
:1032B0002068816801F00701062903D0016841F008
:1032C00001010160002010BD70B590F83C20012A7A
:1032D0002CD0012580F83C50022280F83D20026865
:1032E0005368946823F070060B6833435360104BA7
:1032F00002689A420ED0B2F1804F0BD00D4B9A4229
:1033000008D00D4B9A4205D00C4B9A4202D00C4B80
:103310009A4204D1496824F080031943916080F8EF
:103320003D50002180F83C10084670BD022070BD61
:10333000000001400004004000080040000C004074
:103340000040014010B504460068042203F0F1FA81
:103350002068416C41F4004141642068816801F0BB
:103360000701062903D0016841F001010160002036
:1033700010BD10B5040003D094F83D0010B107E073
:10338000012010BD002084F83C00204600F00CF81D
:10339000022084F83D00211D206803F071FA01200D
:1033A00084F83D00002010BDF0B587B0044614211C
:1033B0006846FCF743FF504A206800244F49022624
:1033C00001254F4F90422AD14C481430026842F0F8
:1033D00001020260006800F001000590086840F0FA
:1033E000010008600868CDE9025400F00100059072
:1033F0004020CDE90006694604953846FFF794FA67
:10340000012200211820FFF7D5FB1820FFF7C4FB8D
:10341000002211461920FFF7CDFB19204AE0374A58
:103420001032B0F1804F11D03649884246D1106831
:1034300040F0020010601068002200F002000590C9
:1034400005211D20FFF7B6FB1D2033E0106840F07A
:1034500001001060106800F001000590086840F05D
:1034600002000860086800F002000590086840F05B
:10347000010008600868694600F0010005904FF4FB
:1034800081600090CDE901641F48CDE90345FFF755
:103490004BFA4FF400400090CDE90164694638468C
:1034A000CDE90345FFF740FA002203211C20FFF776
:1034B00081FB1C20FFF770FB07B0F0BD1349884269
:1034C00008D1106840F004001060106800F004009B
:1034D0000590F1E70E498842EED1106840F00800EF
:1034E00010601068002200F00800059007213220CB
:1034F000FFF760FB3220DDE700000140303802407A
:1035000000000240000400400004024000080040A7
:10351000000C00400168CA6842F00102CA600068FD
:10352000816801F00701062903D0016841F001011B
:1035300001600020704770B5044690F83C000128F7
:1035400017D0012584F83C50022084F83D00206803
:10355000826822F0770222F47F4282600868502855
:1035600030D00DDC20284DD005DC98B310283BD19D
:1035700048E0022070BD302844D0402834D139E0E2
:10358000602828D0702806D0B0F5805F2CD0B0F528
:10359000005F29D10AE0CB68D1E90121206803F05E
:1035A000D5F92068816841F0770109E0CB68D1E95D
:1035B0000121206803F0CAF92068816841F4804144
:1035C000816011E0CA684968206803F0BCFA5021A4
:1035D000206807E016E0CA684968206803F0FAFA34
:1035E0006021206803F0BCF984F83D50002084F885
:1035F0003C0070BDCA684968206803F0A4FA402105
:103600002068EFE7226801461046EBE7704770B587
:103610000446006801694FF00005C943890715D4C5
:10362000C168C943890711D4E91E016101202077CF
:10363000206880698007204602D0FFF7E7FF04E09A
:1036400000F019F9204600F0B7F9257720680169E4
:10365000C943490717D4C168C943490713D46FF058
:1036600004010161022020772068806910F4407F06
:10367000204602D0FFF7CAFF04E000F0FCF8204625
:1036800000F09AF9257720680169C943090716D423
:10369000C168C943090712D46FF008010161042011
:1036A00020772068C0698007204602D0FFF7AEFF70
:1036B00004E000F0E0F8204600F07EF9257720686D
:1036C0000169C943C90617D4C168C943C90613D4DF
:1036D0006FF010010161082020772068C06910F4A4
:1036E000407F204602D0FFF791FF04E000F0C3F8CE
:1036F000204600F061F9257720680169C943C907B0
:1037000008D1C168C943C90704D1891E0161204697
:1037100000F070F920680169C943090609D4C1683D
:10372000C943090605D46FF0800101612046FFF707
:1037300015FD20680169C943490609D4C168C94318
:10374000490605D46FF040010161204600F07CF984
:1037500020680169C94389060BD4C168C943890639
:1037600007D46FF0200101612046BDE87040FFF7EB
:10377000F6BC70BD70B586B0044614216846FCF7EF
:103780005DFD224B2268002021490224214D9A42EE
:1037900024D1086840F001000860086800F00100CA
:1037A0000590086840F0020008600868012600F0F3
:1037B000020005904FF4F060CDE900040294CDE9D9
:1037C000034669461448FFF7AFF80320CDE900042B
:1037D0000294CDE903466946284612E00F4B9A420F
:1037E00011D10A6842F002020A60096801F0020180
:1037F000059130210091CDE90140CDE903046946EE
:103800002846FFF791F806B070BD000000000140A7
:103810003038024000040240000002400004004032
:1038200070B5044690F83C0001280DD0012584F8BD
:103830003C50022084F83D0042B1042A0AD0082AF4
:103840000CD00C2A11D10DE0022070BD206803F0CD
:103850008FF80AE0206803F0B7F806E0206803F06C
:10386000E1F802E0206803F009F984F83D500020F7
:1038700084F83C0070BD704710B5040003D094F884
:103880003D0010B107E0012010BD002084F83C008D
:10389000204600F00CF8022084F83D00211D20682D
:1038A00002F0EEFF012084F83D00002010BD7047BB
:1038B00070B5044690F83C000D4601280DD0012655
:1038C00084F83C60022084F83D0042B1042A18D0FC
:1038D000082A2AD00C2A4DD139E0022070BD206878
:1038E00003F046F82068816941F008018161206891
:1038F000816921F004018161206881692A6911438D
:1039000011E0206803F060F82068816941F40061EB
:1039100081612068816921F4806181612068816909
:103920002A6941EA0221816124E0206803F07AF8E3
:103930002068C16941F00801C1612068C16921F0B6
:103940000401C1612068C1692A69114311E020683E
:1039500003F094F82068C16941F40061C1612068F6
:10396000C16921F48061C1612068C1692A6941EAA5
:103970000221C16184F83D60002084F83C0070BDE4
:1039800010B5040003D094F83D0010B107E0012009
:1039900010BD002084F83C00204600F00CF8022006
:1039A00084F83D00211D206802F06AFF012084F8A0
:1039B0003D00002010BD70477047000010B5044660
:1039C0000068012202F0A8FF09492068884203D15B
:1039D000416C41F4004141642068816801F00701B5
:1039E000062903D0016841F001010160002010BDEB
:1039F00000000140704770B5044690F83C00012873
:103A000010D0012584F83C50022084F83D00204667
:103A100003F056F8002138B184F83D5084F83C108A
:103A2000012070BD022070BD2068C26822F04002F3
:103A3000C2602068C26822F48042C26084F83D50AF
:103A400084F83C10002070BD7047704770B5026864
:103A500004461068D168536910F00F0F52D003F07C
:103A6000010501F490762E435FD0C20705D0CA0548
:103A700003D5E26B42F00102E263420705D5DA07A3
:103A800003D0E26B42F00202E263820705D5DA0757
:103A900003D0E26B42F00402E263020707D501F0B3
:103AA00020022A4303D0E26B42F00802E263E26B99
:103AB000002A33D0800604D5880602D5204603F0BC
:103AC0001EF920684069E16BC0F38010090700D43B
:103AD00028B3204603F0FCF82068416949061AD54E
:103AE000416921F040014161606BA0B11B49016552
:103AF000606BFEF789FD002810D0606B016DBDE89A
:103B000070400847830610D58B060ED52046BDE8C9
:103B1000704003F0F4B82046FFF797FF70BD2046D1
:103B2000FFF793FF0020E06370BD030606D50B0688
:103B300004D52046BDE8704003F0C0B94006F3D577
:103B40004806F1D5D168204621F04001D1602021FE
:103B500084F8391000F036F970BD0000F96B0008E8
:103B600070B5040004D094F83900002510B106E0C7
:103B7000012070BD84F83850204600F023F824203E
:103B800084F839002068C16821F40051C1602046E2
:103B900003F000F92068016921F490410161206877
:103BA000416921F02A0141612068C16841F4005156
:103BB000C160E563202084F8390084F83A000020D1
:103BC00070BD00002DE9F04186B00446142168461E
:103BD000FCF734FB2E492068884256D12D48002539
:103BE000016841F400310160006800F40030059084
:103BF00028481038016841F00101016000686946F9
:103C000000F0010005900C2000900220CDE9010594
:103C100003200390072004901F48FEF785FE204EE6
:103C20001E484FF00067E6E8020740204FF4806826
:103C3000A6E821011A4846F81459B561F5613562C4
:103C40007562FEF7C3FD08B1FDF778FD2663B46326
:103C50001248144E18383060C6E90175C6E9035899
:103C60007561B561F561356230467562FEF7AEFD8E
:103C700008B1FDF763FD6663012206212620B463C7
:103C8000FEF798FF2620FEF787FF06B0BDE8F0811B
:103C9000004400404038024000000240A060024062
:103CA000A00400200005002037B5044690F83A0033
:103CB00082B0134620283AD1039AAAB3A3B394F84A
:103CC0003800012833D0012084F83800A262A3858F
:103CD0000025E563222084F83A00616B1548C8632B
:103CE000616B15480864616B1448C864606B0565B6
:103CF0002168606B091DFEF7D3FD206801684168EB
:103D0000009184F83850C16841F48071C160206826
:103D1000416941F0010141612068416941F0400180
:103D20004161002005B030BDFFE70120FAE7022025
:103D3000F8E70000536C00088F6C0008096C00085D
:103D400070477047F7B5044690F83900202831D104
:103D5000019969B362B394F8380001282AD0012090
:103D600084F838002162A284E2840025E5632120E2
:103D700084F83900236B1048D863236B0F4818640C
:103D8000236B0F48D864206B134605652668206BAB
:103D9000321DFEF785FD21686FF04000086084F851
:103DA00038502068416941F0800141610020FEBD2A
:103DB0000120FEBD0220FEBD996C0008C76C000802
:103DC000096C0008704770472DE9F047EB4C2DED6A
:103DD0000C8B94EDB90A84ED730A94EDBA0A84ED64
:103DE000740A00F023FA94F88F0394F985130128DC
:103DF0000BD002280BD003280BD0032084F88503B6
:103E000081420CD0022906D009E00020F6E701200B
:103E1000F4E70220F2E794ED780A84EDC40AE0B3F7
:103E2000012864D002287DD194F886039FEDD49AAE
:103E300008B184EDBD9AD34D4FF0165195ED0F0AA0
:103E400010EE100A9FEDD01A884201DCB0EE410A54
:103E5000DFEDCE9AD4EDBD1A94F8870320EE290A3F
:103E600060EE000A20EEA18A08B184EDBE9ADFED73
:103E7000C80AD4EDBE1A94F8880320EE200A60EE3A
:103E8000218A08B184EDBF9A95ED0E0A10EE100A52
:103E9000884201DCB0EE410A00E022E020EE290A6F
:103EA000D4EDBF1A94F8890320EE001A21EE21AA5E
:103EB00008B184EDC09A20EE200AD4EDC00A60EE6D
:103EC00020AA94EDC10AF0EE690A04F0D5FB10EEC9
:103ED000100AB04984ED920A88420EDD9FEDAE0AC9
:103EE00012E0BDEC0C8BBDE8F04700F073BABDECFE
:103EF0000C8BBDE8F04701F095B810EE100AA74909
:103F0000884201DA9FEDA60A40F6FF7948469FED08
:103F1000A5CAF0EE490AB0EE4C1A04F01FFB94ED6E
:103F20008E0A00E026E1A04E06EB800000F58061DD
:103F300000F58840D1EDB70A90EDB71A18EE100AD7
:103F400020EE200AD4ED8D0AB0F17C5F00EEC10AAC
:103F500030EE4A0A30EE6AAA3AEE480A70EE68BAC3
:103F600002DDB6EE008A06E018EE100AB0F13F4F0F
:103F700001D9BEEE008A94F88A0308B184EDC29A92
:103F8000D4EDC2AA94F88B0308B184EDC39A94EDE2
:103F9000C30ADFED860A60EE208A95ED020AD4EDB1
:103FA000BC0A20EE290AB0EE68BA20EE200A10EE14
:103FB00008BAB0EE6A0ADFED7E0A94EDC48A7D4F3E
:103FC00084ED788A00EE60BA95ED100A00EE288A3A
:103FD00018EE100ADFED78CADFF8E0819FED78DA9D
:103FE000B84202DDB0EE6C8A05E018EE100A4045DA
:103FF00001D9B0EE4D8A95ED110A60EE288A02F0E3
:1040000043F994EDBB0A84ED790A94F88D030328F3
:1040100005D2D4ED920A30EEC00A84ED7B0A6949DC
:10402000D4F8EC01421868498A4202D2FDF772F9CD
:104030000AE0664A1044884202D2FDF7D7F903E04D
:1040400094ED920A84ED7A0A94ED7A0A604984ED3F
:10405000770AD4F81403884201DA012000E0002036
:1040600000EE100AD4EDD00A4846B8EE400AB0EE91
:104070004C1A04F55B7460EE209AF0EE490AB0EE3B
:10408000690A04F06BFA06EB800000F58840D5ED74
:10409000010A90EDB70A20EE201A04ED491A95EDB9
:1040A000020ADFED4C0A54ED151A40EE209A9FEDFE
:1040B0004A0A21EE800ADFED490A494820EE200A2B
:1040C00080ED0D0A14ED1F0ADFED460A002001EE17
:1040D000200A04ED1F0A14ED1E1A14ED1D0A00EE4D
:1040E000201A0BEEA00A04ED1E1AA07604ED1D0A9C
:1040F000E07614ED1C1A14ED1B0A00EE201A0AEEED
:10410000200A04ED1C1A207704ED1B0A607714EDD9
:104110001A0A08EE200A04ED1A0A14ED190A0BEE29
:10412000200A04ED190AA07714ED180A0AEEA00A75
:1041300004ED180AE07714ED171A08EEA01A11EE34
:10414000100A04ED171AA4F55B74B84202DBC4ED43
:10415000C4CA05E011EE100A404501D384EDC4DA6B
:104160009FED210AC4EDC59AC4EDD09A01EEC08A34
:1041700084EDC68ABDEC0C8BBDE8F087C02400201E
:10418000000000005C00002000008025DB0FC9401B
:10419000F4FDB43FA907C940A907C9406F12033B0A
:1041A0006F12033B6C1CC93AEC89000806C4C04876
:1041B000511C5E4463141D4463141D4463141DC4E8
:1041C00063141DC4CCCC4CC0CCCCCC00CCCC4C406B
:1041D000DB0FC940BEB5243A64994C3CEBC998400A
:1041E0006828002017B7D1389ACD7CBF064890F8D0
:1041F0008513022903D190ED780A80EDC40AFF21CE
:1042000080F8851370470000C0240020064890ED18
:10421000700A80EDB90A90ED950A80EDBA0A90ED2A
:104220007C0A80EDBB0A7047C02400202DE9F041D4
:10423000404C2DED068BD4F87803411C02D0401C75
:10424000C4F8780394F89A0300269FED3B8B012174
:1042500068B194F89B0302259FED39AB9FED3A9B23
:104260003B4F012811D00326022860D13BE084F89F
:104270009A1384F89B13C4F8786384F88F1384ED41
:10428000228BBDEC068BBDE8F08184F88F13786932
:10429000FCF7ACF953EC1A2BFCF7F4F853EC192BA0
:1042A000FCF778F841EC100B02F02EFF51EC100BEC
:1042B000FCF783F9D4F878138842E2D838780128DB
:1042C000DFD194ED220B53EC182B51EC100BFCF7C3
:1042D000A1F9D6D184F89B53C4F8786384F88F533E
:1042E00084ED248BCDE784F88F53F869FCF77EF9D1
:1042F00053EC1A2BFCF7C6F853EC192BFCF74AF8D1
:1043000041EC100B02F000FF51EC100BFCF755F9DB
:10431000D4F878138842B4D894ED240B53EC182BBE
:1043200051EC100BFCF776F9ABD184F89B6384F861
:104330008F63A6E7C0240020000000000000F03FCB
:104340002D431CEBE2361A3F11EA2D819997713DFE
:104350005C0000200D4B10B50B491B784FF0FF326D
:1043600091F98403012B00D1002281F8842390422B
:1043700002D008B9FFF73AFF002A03D1BDE8104088
:10438000FFF722BD10BD0000C02400205C0000200B
:10439000054A00B592F8840308B9FFF727FFFF200C
:1043A00082F8840300BD0000C024002003484FF0C1
:1043B000FF3180F8841380F885137047C0240020F3
:1043C000034890F88403002801D1FFF71FBF70470E
:1043D000C024002070B5A24CA2492DED048BD4F866
:1043E0002403884201DA012000E0002000EE100AD8
:1043F000D4EDD10AB8EE400A20EE200A84ED870AF7
:1044000001F026FB9848D4ED950A90ED030A60EE82
:10441000200AC4ED750AD4ED890A20EE200A84ED45
:10442000760A94ED879A90ED040ADFED900AD4F8AD
:104430006C03012600EE209A401C8D4DC4F86C03DD
:1044400001281CD994EDD20AD5ED010A00EEA00A8C
:1044500000EE900AB8EE601A84EDD20AC0EE010AAE
:1044600010EE900AFCF7C2F841EC100B03F010FEBE
:1044700051EC100BFCF7FEF808EE900A0AE008B9C0
:10448000C4F86C6395ED010A60EE000AF0EEC08A94
:10449000C4EDD20AD4F87003401CC4F8700301289C
:1044A0001CD994EDD30AD5ED020A00EEA00A00EE65
:1044B000900AB8EE601A84EDD30AC0EE010A10EE3D
:1044C000900AFCF793F841EC100B03F0E1FD51EC7E
:1044D000100BFCF7CFF808EE100A0AE008B9C4F890
:1044E000706395ED020A60EE000AB0EEC08AC4ED7A
:1044F000D30AD4F87403401CC4F8740301281CD9EF
:1045000094EDD40AD5ED030A00EEA00A00EE900A5D
:10451000B8EE601A84EDD40AC0EE010A10EE900ADB
:10452000FCF764F841EC100B03F0B2FD51EC100BFA
:10453000FCF7A0F800EE100A0AE008B9C4F87463AA
:1045400095ED030A60EE000AB0EEC00AC4EDD40A8D
:10455000F4EEC08AF3EE0E0AF1EE10FA0DDDB4EEC1
:10456000C80AF1EE10FA08DD30EE480A78EEC81AF3
:1045700080EE211A21EE200A3BE0B4EEE80AF1EECB
:1045800010FA0DDDF4EEC88AF1EE10FA08DD30EE17
:10459000681A30EE480AC1EE001AB0EE600A11E067
:1045A000B4EEC80AF1EE10FA0FDDB4EEE88AF1EECF
:1045B00010FA0ADD38EE681A30EE680AC1EE001A09
:1045C0009FED2C0A01EEA00A13E0B4EEC08AF1EED2
:1045D00010FA1FDDB4EEE80AF1EE10FA1ADD38EE3B
:1045E000400A78EE681A80EE211A9FED230A01EE48
:1045F000200A84ED880A94ED880ADFED200A20EE77
:10460000200A84ED950A84EDC99A84EDD19ABDEC17
:10461000048B70BDB4EEE88AF1EE10FA0DDDF4EE15
:10462000C08AF1EE10FA08DD38EEC01A38EE400A02
:10463000C1EE001A9FED120AC4E7F4EEC88AF1EE4B
:1046400010FAD8DDB4EEC08AF1EE10FAD3DD38EE00
:10465000C81A38EEC00AC1EE001A9FED0A0AB1E787
:10466000C0240020DB0FC9405C000020BEB5243A06
:10467000E4280020000070420000B44235FA8E3C6D
:104680000000F04200001643DFED030A30EE600A3E
:1046900080ED000A70470000DB0FC940DFED030A20
:1046A00030EE600A80ED000A70470000DB0FC94061
:1046B000DFED030A30EE200A80ED000A70470000AB
:1046C000DB0FC9400B490C4891ED020AD0ED960A68
:1046D000D1ED011A90ED6F1A20EE202A20EE210A6A
:1046E00001EE612A01EE200A80ED722A80ED960A21
:1046F0007047000068280020C0240020074991F876
:104700008C03022806D0032804D091ED670A81EDBE
:10471000680A704791ED470AF9E70000C0240020BD
:104720002DE9F041234C244D254E2DED048B94EDC5
:10473000620A9FED228A10EE100ADFED228AA8425B
:1047400002DDB0EE480A05E010EE100AB04201D9D1
:10475000B0EE680A9FED1C9AC820FFEE080AB0EE82
:10476000491A03F0FBFE194F07EB800090ED000A99
:1047700084ED660A94ED620A10EE100AA84202DD8A
:10478000B0EE480A05E010EE100AB04201D9B0EED2
:10479000680AC820B0EE491AFFEE080A03F0DEFEF0
:1047A00007EB800090EDC90A84ED670ABDEC048B2D
:1047B000BDE8F081C024002052B8BE3F52B8BE3FD1
:1047C00052B8BEBF52B8BEBF80C2753CEC8900086B
:1047D0002DE9F0438DB0002400940194029420212F
:1047E00004A80394FBF72AFD4548444901250160CC
:1047F0004FF480310561C0E90114047680F820404F
:104800000903C1624FF00609C0F81C904FF0106117
:10481000C460816280F830504461FDF7A8FD08B1A2
:1048200072B6FEE70095CDE9015469463448FDF7BC
:1048300057FC08B172B6FEE704274FF00208CDE935
:10484000007869462E48FDF74BFC08B172B6FEE7CA
:104850000C200326CDE9000669462948FDF740FCF7
:1048600008B172B6FEE70D20CDE90007694624487D
:10487000FDF736FC08B172B6FEE70E200090052069
:10488000019069461E48FDF72BFC08B172B6FEE7A1
:104890000F20CDE9000969461948FDF721FC08B150
:1048A00072B6FEE7CDE9044516480694CDE90A0440
:1048B0008DF8255008968DF8244004A910480794D7
:1048C000FDF74AFA08B172B6FEE70B20CDE90408FD
:1048D00004A90B48FDF740FA08B172B6FEE70A20BA
:1048E000CDE9040604A90648FDF736FA002801D0F0
:1048F00072B6FEE70DB0BDE8F08300000020014075
:10490000FC01002001000F00154808B5016841F4C2
:1049100080010160016801F480010091016841F4A7
:10492000001101600068002200F4001000901146A0
:104930001020FEF73FF91020FEF72EF90022052186
:104940001120FEF737F91120FEF726F90022114653
:104950003820FEF72FF9BDE808403820FEF71CB9D3
:104960003038024030B587B014216846FBF766FC4A
:1049700022480024016841F004010160016801F04F
:1049800004010591016841F080010160016801F0B6
:1049900080010591016841F001010160016801F0A9
:1049A00001010591016841F0020101600068144DA8
:1049B00000F0020005900122C0212846FEF784F88D
:1049C0004FF4005000900F48CDE9010469460E48AD
:1049D000FDF7AAFFC02000900120CDE9010469463F
:1049E00028460394FDF7A0FF002203212820FEF7AC
:1049F000E1F82820FEF7D0F807B030BD303802408B
:104A000000040240000021100008024070B59AB076
:104A1000002414941594169414210FA81794FBF7EE
:104A20000DFC18941C2168461994FBF707FC202103
:104A300007A8FBF703FC3E483C49C0E900142021CD
:104A4000816041F26801C0E903140121C0E9051445
:104A5000FEF78FFC08B172B6FEE74FF4805514A93B
:104A600033481495FEF767FD08B172B6FEE730488B
:104A7000FEF786FF08B172B6FEE70620CDE90F0407
:104A80000FA92B48FEF7B7FF08B172B6FEE77026F4
:104A90008020CDE9186018A92548FEF715FC08B15B
:104AA00072B6FEE76020CDE90004029403940494FA
:104AB0000594002269461E480694FEF7F9FE08B1E7
:104AC00072B6FEE7042269461948FEF7F1FE08B106
:104AD00072B6FEE7082269461548FEF7E9FE08B1FE
:104AE00072B6FEE741F26700CDE900600C2269462C
:104AF0000F48FEF7DDFE08B172B6FEE74FF4006026
:104B00000790401008908010099022200A90CDE96B
:104B10000B5407A906480E94FEF722FB08B172B6A3
:104B2000FEE70348FEF726FE1AB070BD0000014004
:104B30004402002010B58AB000241F48009401945C
:104B400002940394049405940694079408944FF0F7
:104B5000804109940160D121C0E90114611EC16046
:104B60004FF4007184610161FEF703FC08B172B675
:104B7000FEE74FF48050009069460F48FEF7DBFCDB
:104B800008B172B6FEE704940594069404A90A4895
:104B90000794FEF70FFB08B172B6FEE75020CDE98F
:104BA000080408A90448FEF78FFB002801D072B65C
:104BB000FEE70AB010BD00008402002010B58EB0E0
:104BC00000240794089409940A940B941C216846C5
:104BD0000C94FBF733FB23482149C0E90014202142
:104BE000816040F63401C0E903148461FEF7C1FB23
:104BF00008B172B6FEE74FF48050079007A9194834
:104C0000FEF799FC08B172B6FEE71648FEF7B8FE4B
:104C100008B172B6FEE70B940BA912480C94FEF78C
:104C200053FB08B172B6FEE7602000904FF40070AD
:104C3000CDE90104002269460A480494FEF738FED3
:104C400008B172B6FEE7042269460648FEF730FE58
:104C500008B172B6FEE70348FEF78CFD0EB010BD3A
:104C600000040040C402002030B593B000240C942E
:104C70000D940E94142107A80F94FBF7DFFA1094FB
:104C80001C2168461194FBF7D9FA23482149C0E951
:104C900000142021816041F26801C0E9031484619D
:104CA000FEF767FB08B172B6FEE74FF480500C9038
:104CB0000CA91948FEF73FFC08B172B6FEE716488A
:104CC000FEF75EFE08B172B6FEE70420CDE90704E8
:104CD00007A91148FEF78FFE08B172B6FEE77025EE
:104CE0008020CDE9105010A90B48FEF7EDFA08B16D
:104CF00072B6FEE701200095CDE901040C22694659
:104D000005480494FEF7D4FD002801D072B6FEE7F2
:104D100013B030BD000800400403002030B58DB052
:104D200000240794089409940A940B941C21684663
:104D30000C94FBF783FA204D1E482860D120C5E96A
:104D40000104601EE8604FF40070AC6128612846E1
:104D5000FEF70FFB08B172B6FEE74FF480500790E4
:104D600007A91548FEF7E7FB08B172B6FEE712483F
:104D7000FEF782FD08B172B6FEE70B940BA90E4850
:104D80000C94FEF7A1FA08B172B6FEE70094019404
:104D900002940022694608480494FEF741FD08B1D8
:104DA00072B6FEE72868816941F0080181610DB0A3
:104DB00030BD0000000C00404403002010B5082066
:104DC00003F03CFC1F480321017041708170FCF727
:104DD00091FAFCF795FBFCF743FD1B4A002002F516
:104DE0006A7192ED5A0A81ED030A02EB800393ED9A
:104DF0002C0A01EB8003401C83ED040A0628F4DB37
:104E000092ED770A81ED0B0A92ED400A81ED0E0AD0
:104E100092ED460A81ED0F0A92ED540A81ED100AD7
:104E200092ED4F0A81ED110A92ED3F0A81ED130ACE
:104E300092ED580A81ED150A92ED5B0A81ED170A91
:104E400010BD0000A8010020C024002070B5584CFF
:104E500094ED970A84ED380A94ED980A84ED390AA6
:104E600094ED990A84ED3A0A94ED9A0A84ED3B0A8E
:104E7000FCF798F904F56A754E4E94F8900385F89E
:104E800030003068407A08B9FCF712FBFCF7C0FC30
:104E900094ED9B0A85ED140AD4ED9C0AC5ED190A20
:104EA00094ED9D1A85ED161AD4ED9E1AC5ED1A1AC9
:104EB0003068807A08B900F07FF894ED8D0A84EDAF
:104EC000970A94ED8E0A84ED980A94ED720A84EDA7
:104ED000990A94ED960A84ED9A0A94F88D0384F861
:104EE000900394ED700A002084ED9B0A94ED8C0AE7
:104EF00084ED9C0A94ED710A84ED9D0A94ED6F0A8D
:104F000084ED9E0A94ED5A0A85ED030A04EB8001B4
:104F100091ED2C0A05EB8001401C81ED040A062866
:104F2000F4DB94ED770A85ED0B0A94ED400A85EDEC
:104F30000E0A94ED460A85ED0F0A94ED540A85EDAC
:104F4000100A94ED4F0A85ED110A94ED3F0A85EDA4
:104F5000130A94ED580A85ED150A94ED5B0A85ED68
:104F6000170A3068807A38B994ED3C0A85ED1B0A3F
:104F700094ED3D0A85ED1C0A306831684068401C9C
:104F8000486030683168407A401CC0B248720021E5
:104F9000132801D93068417230683268807A401C29
:104FA000C0B29072632801D93068817270BD000070
:104FB000C0240020E889000815489FED163A90EDBE
:104FC0009F2A62EE032AC0ED3C2AD0EDA02A22EEF1
:104FD000833A80ED3D3A20EE203ADFED0F0A01EEF4
:104FE000213ADFED0E1A20EE210ADFED0D1A02EE56
:104FF000603A20EE010A80ED9F3A01EE210AB0EE00
:10500000081A20EE010A02EEE00A80EDA00A7047BD
:10501000C024002064994C3C9ACD7CBF00B751B9A4
:105020003EA8D53C70B5504C2DED048B94EDC70ACD
:10503000F0EEC08A94EDC80AB0EEC08A00F0A2F883
:1050400094F88E039FED499A494E4A4DDFED4A9AF6
:10505000062870D2DFE800F06F03061B224500F03F
:105060007DFE16E000F0DAFD96ED060AD4ED940A16
:1050700060EE200AC4ED7D0AD4ED840A20EE200AF9
:1050800084ED7E0A94ED730A84ED940A53E000F0F7
:1050900003FD84ED7D9A84ED7E9A4CE094ED740AD4
:1050A00030EE290A10EE100AA84203DD3348FFF75C
:1050B000EBFA01E084ED800A00F012FD96ED060A9D
:1050C000D4ED930A60EE200AC4ED7D0AD4ED810A86
:1050D00020EE200A84ED7E0A94ED730A84ED930A93
:1050E00029E094ED740A40F6FF709FED251AF0EE6A
:1050F000490A03F033FAF4EEC88A84ED7D9AF1EEA2
:1051000010FA84ED7E9A02DB94ED740A11E0F4EE5D
:10511000C88AF1EE10FA0ED294ED740A30EE290A24
:1051200010EE100AA84204DD1448001FFFF7ACFA85
:1051300001E084ED7F0A94ED7F0A84ED7C0AD4EDD2
:105140007D0AC4ED750AD4ED7E0AC4ED760A84EDBD
:10515000770A94ED940A84EDC70A94ED930A84EDDE
:10516000C80ABDEC048B70BDC02400200000000004
:105170005C000020DB0FC940DB0F4940C026002047
:105180006C1CC93A2DE9F0416E4C2DED068BD4F81C
:105190006803411C02D0401CC4F8680394F89813BB
:1051A000002501209FED688BB1B1694A94F89913ED
:1051B00002269FED689B9FED69AB526A012919D0C9
:1051C000634803270229006A3FD00426032966D0DA
:1051D000052504297DD18FE084F8980384F899038C
:1051E000C4F8685384F88E0384ED1A8BBDEC068BEB
:1051F000BDE8F08184F88E031046FBF7F7F953EC15
:10520000192BFBF73FF953EC1A2BFBF7C3F841ECD2
:10521000100B01F079FF51EC100BFBF7CEF9D4F82D
:1052200068138842E2D894ED1A0B53EC182B51EC1A
:10523000100BFBF7EFF9D9D184F89963C4F86853E0
:1052400084F88E6384ED1C8BD0E784F88E63FBF7C3
:10525000CDF953EC192BFBF715F953EC1A2BFBF78F
:1052600099F841EC100B01F04FFF51EC100BFBF7DC
:10527000A4F9D4F868138842B8D894ED1C0B53EC09
:10528000182B51EC100BFBF7C5F9AFD184F89973CB
:10529000C4F8685384F88E7384ED1E8BA6E784F8F7
:1052A0008E731046FBF7A2F953EC192BFBF7EAF8C3
:1052B00053EC1A2BFBF76EF841EC100B01F024FFB6
:1052C00051EC100BFBF779F9D4F8681388428DD8AC
:1052D00000E034E094ED1E0B53EC182B51EC100B56
:1052E000FBF798F982D184F89963C4F8685384F87D
:1052F0008E6384ED208B79E784F88E63FBF776F973
:1053000053EC192BFBF7BEF853EC1A2BFBF742F8C2
:1053100041EC100B01F0F8FE51EC100BFBF74DF9CE
:10532000D4F8681388428FD894ED200B53EC182BD7
:1053300051EC100BFBF76EF986D184F8995384F881
:105340008E5353E7C0240020000000000000F03F0F
:105350005C0000202D431CEBE2361A3F11EA2D8140
:105360009997713D0B480C49D0ED8D0AD0ED961AF6
:1053700090ED8E1A91ED010A20EEA12A01EE002A8D
:1053800021EE211A00EEC01A80ED702A80ED711A0C
:1053900070470000C02400206828002020482249CF
:1053A00090ED000A1F48D0ED710A70EE600A90ED92
:1053B000B80A80ED6E0A91ED0A1AF0EE401A01EE7D
:1053C000200A91ED0C1AB4EEC01AF1EE10FA06D3D1
:1053D00091ED0D1AB4EEC01AF1EE10FA02DD80ED77
:1053E0006F1A01E080ED6F0A90F8A0230AB9DFED93
:1053F0000F0A91ED0B1A61EE200A9FED0D1A40EE97
:10540000811AC0EDB81AD0ED6F0AF4EE400AF1EE41
:1054100010FA01D1012100E0002180F8A0137047AB
:1054200068280020C0240020A40000200000000004
:1054300017B7D138024890ED6E0A80EDB80A704770
:10544000C024002070B5284E284C2DED028B96ED1F
:10545000000A84ED8F0A00F0A5FB254894ED8F0A21
:1054600094EDA38AD0ED060A244D60EE208A90EDDB
:10547000050AD4ED440A40EE608A9FED1E0ADFED76
:10548000200A08EE808A9FED1C0A28EE000A85EDAE
:10549000000A94EDA40A03F0EFF886ED000A94EDFB
:1054A000A50ADFED180A60EE200AC4ED430ADFED1D
:1054B000160A94EDA31A68EEA01ADFED140A01EEA5
:1054C000A01A84EDA31A94EDA41A08EE201A84ED14
:1054D000A41AD5ED000A9FED0E1A40EE410AC4ED64
:1054E000A50ABDEC028B70BDA4010020C0240020E1
:1054F000E428002000000D43EBC91840A001002063
:10550000DB0FC9400AD7233D00401C4617B7D138EE
:105510008FC275BF10B5FFF795FFBDE81040FBF7D0
:1055200019BF0000044890ED4D0A80EDAF0A90EDE0
:10553000570A80EDB10A7047C02400202DE9FF4FC3
:105540000DF1340A8B469AE81012DFF8A4A190ED11
:10555000000ADDE91385DAED000A9AED021A964693
:1055600070EEC00A9BED000AB7EE002AFFEE001AAB
:1055700031EE400A98ED001ADDE91921B4EEE01A87
:10558000DDE91037F1EE10FA129E02D282ED002A08
:105590000DE0F1EE412AF4EEE02AF1EE10FA02DD20
:1055A000C2ED001A03E0C0EE812AC2ED002AD8ED58
:1055B000000AF4EEC00AF1EE10FA02D281ED002AE0
:1055C0000DE0B1EE601AB4EEC01AF1EE10FA02DD91
:1055D000C1ED001A03E080EE201A81ED001A9CED67
:1055E000000AD4ED000ADAED001ADEED002A60EEC2
:1055F000200A99ED000A93ED002A504620EE211A68
:105600009AED020A00EEC01ADAED010A72EEE02A03
:1056100002EE221AD7ED002A22EE222AD2ED002A2B
:1056200002EE621A8AED041A9CED002AD4ED002ADB
:10563000DDF80CC022EE222ADCED002A22EE212A1F
:10564000D9ED001A01EE802A90ED030AD3ED001A7D
:1056500072EEC02A01EEA22AD7ED002A61EEA21A4C
:10566000D1ED002A01EEE22A80ED062AD5ED001ADE
:10567000D4ED002A96ED003A61EEA22AF0EE601A0F
:1056800042EEC01AD3ED002A62EE832A92ED003A70
:1056900042EE831AC0ED051AD5ED002A94ED003ACA
:1056A00062EE832A02EEA00AD3ED000AD6ED002AAC
:1056B00060EEA20AD1ED002A00EEA20A80ED070AF0
:1056C00080ED030A80EC031A159981ED001A1699F2
:1056D00090ED060A81ED000A179990ED050A81ED1B
:1056E000000A18989AED070A80ED000ABDE8FF8FBE
:1056F000D801002030B5364CDFED360A8FB094ED7E
:10570000AF0A84ED4D0A20EE200A84ED4E0A02F025
:10571000B3FF314D85ED120AFBF742FE94ED3B0AD3
:1057200004F5AC7084ED4F0A94EDB00A011F84EDCE
:10573000500A0A1FCDE90C10131FCDE90A321038A8
:10574000011F264A264BCDE90810CDE90632181F65
:10575000021F111F0B1FCDE90231CDE9042004F512
:10576000A0711038CDE900100B1FA1F158025C396F
:10577000081FFFF7E3FEFBF783FF94EDB10A18481B
:1057800084ED570A1838D4ED910A90ED071AF0EE1F
:10579000401ADFED152A01EE200A9FED121A20EEC5
:1057A000011A85ED121A94EDAF2A00EE222A84ED3B
:1057B000AF2A84EDB01A90ED080A20EE200ADFED42
:1057C0000B0A40EE201AC4EDB11A0FB030BD000034
:1057D000C0240020DB0FC94068280020C4900008C6
:1057E0002001002063141D440AD7233C17B7D13889
:1057F0007A4890ED6C0ADFED7A0A60EE200A90EDAF
:105800006D0AB5EEC00AF1EE10FA01DB012000E0EE
:10581000002030EEC01AB5EEC01AF1EE10FA01DB2E
:10582000012100E00021B1EE400A00EB410130EE21
:10583000600AB5EEC00AF1EE10FA01DB012000E0CB
:10584000002001EB800000EE100A6649F7EE005AD6
:10585000F8EE400A10EE900A884202DDF1EE080AE6
:1058600006E010EE900AB0F17E5F01DAF0EE650A14
:10587000BDEEE05A15EE100ADFED5B0A9FED580A07
:10588000564991ED6C1A61EE001A91ED6D0ABEEE6B
:10589000001A31EEC02A62EE012A9FED542A60EE12
:1058A000203A062862EE824AF1EE402A72EEE12AA0
:1058B00062EE812A22EE824A70EE612A62EE812A2D
:1058C00022EE823A60EE022A30EE210A20EE010A30
:1058D00020EE020A1BD2DFE800F01A03080D1217AF
:1058E000B0EE641AB0EE440A15E0B0EE441AB0EE21
:1058F000630A10E0B0EE431AB0EE620A0BE0B0EEBD
:10590000631AB0EE640A06E0B0EE621A03E0B0EE8D
:10591000401AB0EE430A9FED362A71EE001A72EE7D
:10592000610AF5EEC00AF1EE10FA09D861EE020A3A
:1059300080EEA11AC5EEA10A60EE820A20EE800A6E
:1059400072EE410AF5EE001AF6EE002A15EE100A84
:1059500070EEC00A062860EEA11AF0EE610A41EE70
:10596000220A36D2DFE800F035030811182EB0EE17
:10597000601AB0EE612A0CE0B0EE602AB0EE611A57
:1059800000EE222AF0EE601A0CE0B0EE611AB0EEE2
:10599000602A40EE220AF5E7B0EE601A00EE221A05
:1059A000B0EE602A9FED130A134861EE000AC0EDC5
:1059B000000A62EE000A21EE800AC0ED010A80EDC5
:1059C000020A7047B0EE601AB0EE612A00EE221AA9
:1059D000D8E7B0EE601A40EE220AE1E7C0240020CA
:1059E000D7B3DD3F0000C0408328F2B68328F236EB
:1059F00017B7D138BE32A04C6828002004489FED6C
:105A0000030A80ED020A80ED000A704700000000E2
:105A1000682800200549064891ED690A80ED020AD0
:105A200091ED6A0A80ED000A70470000C024002052
:105A300068280020054890F88F03022803D0012829
:105A400001D0FFF7E7BFFFF7D9BF0000C024002057
:105A500010B50D4C40F6FF709FED0C1A94ED870ABF
:105A6000DFED0B0A02F07AFD0A4901EB800000F538
:105A7000806100F5884091EDB70A84ED950A90EDBC
:105A8000B70A84ED890A10BDC02400206C1CC93AF5
:105A900000000000EC89000810B50D4C40F6FF70C6
:105AA0009FED0C1A94ED740ADFED0B0A02F056FD1F
:105AB0000A4901EB800000F5806100F5884091ED16
:105AC000B70A84ED820A90EDB70A84ED830A10BD0F
:105AD000C02400206C1CC93A00000000EC890008BA
