:020000040800F2
:1000000070290020A9010008B1010008B30100080F
:10001000B5010008B7010008B901000800000000A0
:10002000000000000000000000000000BB0100080C
:10003000BD01000800000000BF0100088948000859
:10004000C3010008C3010008C3010008C301000880
:10005000C3010008C3010008C3010008C301000870
:10006000C3010008C3010008C3010008C301000860
:10007000C3010008C3010008C3010008C301000850
:10008000F50D0008010E00082D0900080000000011
:10009000000000000000000000000000C301000894
:1000A0004D49000859490008C3010008C301000870
:1000B00065490008ED490008C3010008C3010008B4
:1000C000C3010008C3010008C3010008C301000800
:1000D000C3010008C30100086551000800000000CA
:1000E0009D120008C3010008C301000800000000C1
:1000F000000000000000000000000000C301000834
:1001000000000000C3010008A94A0008C30100085C
:1001100000000000000000000000000000000000DF
:100120000D0E0008C3010008C3010008C301000848
:10013000C3010008000000000000000000000000F3
:10014000000000000000000000000000C3010008E3
:10015000C3010008C3010008C3010008C30100086F
:10016000C3010008C30100080000000000000000F7
:10017000000000000000000000000000000000007F
:1001800000000000C30100080000000000000000A3
:10019000C3010008DFF80CD000F05CFA004800470B
:1001A0008D5B0008702900200648804706480047FC
:1001B000FEE7FEE7FEE7FEE7FEE7FEE7FEE7FEE717
:1001C000FEE7FEE731490008950100082DE9F05FE0
:1001D0000546002092469B468846064681464024B6
:1001E0001BE0284641464746224600F064F9534644
:1001F0005A46C01A914110D311461846224600F0C3
:100200004BF92D1A67EB01084F46224601200021C9
:1002100000F042F917EB00094E41201EA4F1010441
:10022000DFDC484631462A464346BDE8F09FD2B25D
:1002300001E000F8012B491EFBD270470022F6E7CF
:1002400010B513460A4604461946FFF7F0FF20464C
:1002500010BD2DE9FE4F81EA030404F0004421F0B3
:10026000004100944FF0000B23F0004350EA0104DA
:100270005ED052EA03045BD0C3F30A54C1F30A55BB
:100280002C44A4F2F3340194A0FB0254C1F31301F3
:1002900041F48011C3F3130343F4801301FB0244C0
:1002A00000FB034E840A970A44EA815447EA8357C5
:1002B000A4FB076802958D0A05FB07854FEA932C7E
:1002C00004FB0C542705029D4FEA065847EA1637EF
:1002D000B5EB08056EEB070C870E920E47EA811707
:1002E00042EA8312A7FB0201B6EB0B0164EB0004A8
:1002F0002B0D43EA0C335E1844EB1C50DA46514692
:10030000E7FB0201C5F313044FEA0B3343EA14532E
:100310004FEA0432019C43EA0603A4F10C04029460
:10032000009CCDE900B400F045F903B0BDE8F08FC2
:1003300000200146F9E72DE9F04D81EA030404F0BD
:10034000004B21F0004514464FF0000A23F0004115
:1003500050EA050220D054EA01021DD0C5F30A5725
:100360000246C5F31303C1F31300C1F30A5640F468
:10037000801543F48013A7EB0608101BD64608F23D
:10038000FD3873EB050002D308F1010801E0921873
:100390005B41B8F1000F03DA00200146BDE8F08DA3
:1003A00000204FF48011064684460EE0171B73EBC5
:1003B000050705D3121B63EB050306434CEA010C4A
:1003C00049084FEA300092185B4150EA0107EDD12D
:1003D00052EA030012D082EA040083EA05010843CE
:1003E00005D0101BAB4106D20122002306E00022FB
:1003F0004FF0004302E06FF0010253101AEB0600C9
:100400004CEB085110EB0A0041EB0B01BDE8F04D3D
:1004100000F0C1B80EB540F2334102910021CDE9A0
:1004200000110A460B4600F0C5F803B000BDC1F349
:100430000A5210B5C1F3130140F2FF3341F48011A9
:100440009A4201DA002010BD40F233439A42A2F2F0
:10045000334203DC524200F02EF810BD904010BD34
:1004600001F0004330B421F0004150EA010206D00F
:100470000A0DA2F56072C1F31301002A02DC30BC40
:1004800000207047440F44EAC104C100E01830BCAA
:1004900000EBC25000F01FB8202A04DB203A00FA1B
:1004A00002F1002070479140C2F1200320FA03F3CB
:1004B000194390407047202A04DB203A21FA02F0C9
:1004C0000021704721FA02F3D040C2F1200291408E
:1004D0000843194670470029A8BF7047401C4900CF
:1004E00008BF20F00100704710B4B0FA80FC00FA99
:1004F0000CF050EA010404BF10BC704749B1CCF1C4
:10050000200421FA04F411FA0CF118BF012121434F
:100510000843A3EB0C01CB1D4FEA00614FEA10200A
:1005200042BF002010BC704700EBC35010440029AC
:10053000A4BF10BC7047401C490008BF20F0010058
:1005400010BC7047F0B400F0004221F0004120F0F0
:100550000040CE0DC30DC1F3160141F40001C0F3FC
:1005600016004C42154640F40000761E09E010EBE0
:10057000440002D582F0004240428842F7D8400051
:100580005B1EB342F9DA18B1F0BC0021FFF7ACBF33
:100590002846F0BC704710B5141E73F1000408DA49
:1005A000401C41F1000192185B411A4301D120F037
:1005B000010010BD2DE9F04D92469B4611B1B1FAF4
:1005C00081F202E0B0FA80F220329046FFF764FF39
:1005D00004460F4640EA0A0041EA0B0153465A46D8
:1005E000084313D0114653EA010019D0C8F1400264
:1005F0005046FFF760FF05460E46504659464246B4
:10060000FFF74AFF084305D0012004E020463946A1
:10061000BDE8F08D0020054346EAE0762C433743E1
:100620000A986305E40AA0EB08000022FD0A44EAE8
:1006300047540A3002D500200146E9E701051019A8
:100640006941DDE9084500196941BDE8F04DA2E7BF
:1006500000207047064C074D06E0E06840F00103BB
:1006600094E8070098471034AC42F6D3FFF796FDA4
:10067000D4220108F422010830B58C1810F8012B9F
:1006800012F00F0301D110F8013B120906D110F846
:10069000012B03E010F8015B01F8015B5B1EF9D14F
:1006A00001E001F8013B521EFBD1A142E6D300203C
:1006B00030BD0000F0B54F4E96F824400CB101213A
:1006C00000E000214C4D2878012809D00027494A34
:1006D000B94212F8253F527804D003281DD101E019
:1006E0000127F4E70BB1012100E00021687801281F
:1006F00005D00027B94204D003280ED101E001271C
:10070000F8E70AB1012100E00021A878012844D0CF
:100710000027B94252D0032850D0384896ED080A35
:10072000374980ED0C0A384ED1ED070A384F60EE9C
:10073000801A90ED420A71EEC00A9FED320A80EEF7
:10074000201A80ED0D1A90ED430A90ED442A31EE07
:10075000400A32EE202AC0EE022AC0ED0E2A96EDA3
:10076000000ADFED2A2AB0EE402A11EE222AD7ED48
:10077000002A0F4602EE220A86ED000A5E0006EB12
:1007800082062644F6B297ED000A072E10D2DFE863
:1007900006F00F0609181B1E21000127B9E791ED8D
:1007A000042A01E091ED062A32EE000A80ED0F0ADC
:1007B000C0ED421A80ED431AC0ED440A6CB101202D
:1007C0000CE091ED052AEFE791ED022AECE791EDBF
:1007D000032AE9E791ED012AE6E7002028700BB132
:1007E000012000E0002068700AB1012000E0002034
:1007F000A870F0BD44250020D40000201024002063
:1008000084000020920A863FF800002066FCBE4269
:100810006000002010B50146806B026C12F0500F92
:1008200005D0026CD20626D501F0DAF810BD016CB5
:1008300041F40071016401688A6812F0405F17D1C9
:10084000027EAAB9CA6A12F4700F02D08A685205F1
:100850000ED44A6822F020024A60016C21F48071B3
:100860000164016CC90403D4016C41F0010101640D
:1008700001F0B4F810BD806BC26CBDE810400846B2
:10088000104710B5806B40210164416C41F00401B8
:10089000416401F0A5F810BD10B5806B01F09FF820
:1008A00010BD00001C481E491E4A90ED080A1B4856
:1008B000D0ED0C0AD0ED0E1A30EE600AD1ED070A29
:1008C00020EE801A21EE011A21EE211AF6EE001A0E
:1008D00021EE211AD0ED0D1A21EE800A00EE201A29
:1008E00090ED0F0AD1ED000A31EE000A30EE200A39
:1008F000DFED0D0A10EE101A914202DD30EE600AB3
:1009000006E0B5EEC00AF1EE10FA01D230EE200A90
:1009100080ED0B0A704700004425002010240020C1
:1009200084000020DB0FC940DB0FC9402DE9F041F6
:100930006A4D01222DED028B4021284601F09CFCDE
:1009400067480068406A674C00EE100A012166485B
:10095000B8EE400A84ED080A00F0B5FE00EE100A79
:10096000B8EE400A9FED618A30EE480ADFED608AFA
:10097000604E022120EE280A5B4886ED000A00F056
:10098000A2FE00EE100A5C4F0321B8EE400A564862
:1009900030EE480A20EE280A87ED000A00F093FEA8
:1009A00000EE100A5548B8EE400A30EE480A20EE34
:1009B000280A80ED000A5248D0ED030AB8EE601A0A
:1009C000DFED500A504921EE201A81ED001A90ED1A
:1009D000041A4E49B8EE411A21EE201A81ED001A90
:1009E00090ED051A4A48B8EE411A61EE200AC0EDB2
:1009F000000A4848D0ED000A4748C4ED000AD6ED89
:100A0000000AC4ED020AD7ED000AC4ED030A84ED22
:100A1000040A90ED000A414884ED060A0078012896
:100A200002D1207703F0AEFA3D4C6089401C81B2C0
:100A30006181052914D904F0B5FB0022394862818F
:100A4000218990ED0B0A384800EB8100491C80EDAC
:100A5000000A88B240F2CF712081884200D32281FF
:100A6000324890ED000AFCEEC00A10EE901A8AB2ED
:100A70002F490B685A63D0ED010A0B68BCEEE01AEF
:100A800011EE102A92B29A6390ED021A0968BCEE38
:100A9000C11A11EE100A80B2C8639FED261A20EE2B
:100AA000010ABCEEC00A10EE100A81B222480268A8
:100AB000516320EE810A0068BCEEC00A10EE101AE5
:100AC00089B28163084800F08CFFBDEC028B284698
:100AD000BDE8F0410022402101F0CEBB00040240FD
:100AE00094020020442500204C0100200060FF44B7
:100AF0000000843C1C000020200000202400002076
:100B0000780300209605933C280000202C0000204C
:100B100030000020340000201800002038000020A1
:100B20003A00002010240020D004002038250020A6
:100B3000940100200000A74314020020464910B58C
:100B40004A6822F440324A604A6843681A434A605D
:100B500001684A6822F480724A6001684A68036941
:100B600042EA03224A6001684A6822F040724A6001
:100B700001684A6883681A434A6001688A6822F4F7
:100B800000628A6001688A68C3681A438A60816A61
:100B90006FF07062D14201688A6822F070628A60E8
:100BA00001688A680CD0836A1A438A6001688A687F
:100BB00022F040528A6001688A68C36A1A4301E0E1
:100BC00022F040528A6001688A6822F002028A603C
:100BD00001688A68037E42EA43028A6090F8201026
:100BE000002901684A680FD042F400624A60016837
:100BF0004A6822F460424A6001684A68174C436AB6
:100C000004EB43331A4301E022F400624A600168B6
:100C1000CA6A22F47002CA620168CA6A838B104CE5
:100C200004EB03531A43CA6201688A6822F4007213
:100C30008A6001688A6890F8303042EA43228A600C
:100C400001688A6822F480628A6001688A68406963
:100C500042EA8020886010BD0023014000E0FFFFD1
:100C60000000F0FF10B5FFF725FDFFF71BFE07485A
:100C70004079012805D0022807D1BDE8104003F0D3
:100C8000FFBABDE8104003F08DBD10BD6800002024
:100C900009490A480A4A91ED210AD0ED000A30EECE
:100CA000200A10EE100A904203DD01F1240002F048
:100CB00021BE81ED090A7047102400206800002041
:100CC000DB0FC9400F48F6EE001A90ED021A90EDC6
:100CD000030AD0ED040A0D4800EE611A00EEE11A95
:100CE000DFED091A21EE211A80ED001A9FED081A96
:100CF000084820EE010A00EEC10A20EE210A80ED2C
:100D0000000A704744250020EC05513F0C010020EB
:100D1000D7B35D3F1001002000B50E4A0E4992F98D
:100D20001A01897911B1012900D0022182F81A1122
:100D3000884202D008B903F02DFD29B1012907D15D
:100D40005DF804EB03F07EBD5DF804EB03F0C6BC78
:100D500000BD00001024002068000020184810B5D5
:100D6000007B184C012801D010B106E0164800E0C5
:100D7000164890ED000A84ED100AFFF7CDFF1449E4
:100D800094F91801097C012901D0012100E000211A
:100D900084F81811884202D008B900F0ADFB51B1B7
:100DA0000D489FED0C0A80ED000A0C4894ED120AE4
:100DB00080ED000A10BDBDE8104000F007BB000048
:100DC000C400002010240020D8000020F8000020DB
:100DD0007000002000000000FC0000200001002046
:100DE00003484FF0FF3180F8181180F81A1170474E
:100DF00010240020014800F0F1BF00005004002042
:100E0000014800F0EBBF0000F0030020014800F0B3
:100E1000E5BF00009003002001681823CAB2103A11
:100E2000B2FBF3F2054B6FF30901032A9B5CC36528
:100E300000D9091D81650846704700006C610008F3
:100E400010B5014600208B698A6A4FF0C07453B117
:100E5000B3F5005F15D072B1012A0CD0022A0AD076
:100E6000032A09D104E01AB1012A06D0022A03D1CB
:100E7000C96AC90100D5012010BDC96AA142FAD0D2
:100E800010BD002AF7D0012AF2D0022AF3D0032A9B
:100E9000F3D010BD30B50468256825F480252560A1
:100EA000046863608368402B036803D0996000681E
:100EB000C26030BD9A600068C16030BD2DE9F0416C
:100EC0009D4C2DED088B82B094ED140AB5EEC00A4E
:100ED000F1EE10FA7DDD994890ED060A9848D0EDC4
:100EE000000A20EE200ADFED970A9748D4ED408AE9
:100EF00080EE208A90ED000A70EE680A9FED930A5A
:100F0000934894ED419A40EE808AD0ED000A914ECC
:100F100070EEC90A00EE809ADFED8F9A8F4F9FED39
:100F200090BA4FF480589FED8FAADFED8FAAF5EEAF
:100F3000C08A8E4DF1EE10FA1BDD89EE280A10EE04
:100F4000100AB04202DDB0EE690A05E010EE100AA8
:100F5000B84201D9B0EE4B0A4046B0EE4A1AF0EE64
:100F60006A0A04F047FF05EB800090ED000A84ED6B
:100F70001D0ADFED7FBAB5EEC09AF1EE10FA1BDB69
:100F8000F5EEC08AF1EE10FA16D289EE280A10EEBC
:100F9000100AB84201D9B0EE4B0A4046B0EE4A1AE8
:100FA000F0EE6A0A04F026FF05EB800090ED000ADF
:100FB00030EE2B0A84ED1D0AB5EEC09AF1EE10FA60
:100FC0001DD2F5EEC08AF1EE10FA18D289EE280A89
:100FD00000E0ABE010EE100AB04201DDB0EE690AAD
:100FE0004046B0EE4A1AF0EE6A0A04F003FF05EB41
:100FF000800090ED000A30EE6B0A84ED1D0AB5EE1C
:10100000C09AF1EE10FA08DDF5EEC08AF1EE10FAA2
:1010100003D19FED580A84ED1D0AB5EEC09AF1EE9A
:1010200010FA08D2F5EEC08AF1EE10FA03D19FED66
:10103000520A84ED1D0A94ED1D0AD4ED0B0A4F49A6
:1010400030EE200A10EE100A884203DD684602F0F6
:1010500051FC01E08DED000A49490098884202DC0C
:101060004849884206DC84ED008AB1EE480A84EDE6
:10107000010A17E04349444AC9430144914206D852
:1010800084ED008A84ED018AB1EE480A0AE03F4906
:101090003F4A0144914208D8B1EE480A84ED000A63
:1010A00084ED018A84ED020A22E03A493A4A014479
:1010B000914206D8B1EE480A84ED000A84ED018A17
:1010C00014E03649364A0144914204D8B1EE480A48
:1010D00084ED000A08E0334908443349884207D8C0
:1010E00084ED008AB1EE480A84ED010A84ED028A9B
:1010F00094ED001AD4ED010AF6EE001A94ED020AFE
:1011000000EEE11A00EE611ADFED281A30EEC00A97
:10111000DFED270A21EE211A20EE200A84ED1E1AA7
:1011200084ED1F0AC4ED408A84ED419A02B0BDEC03
:10113000088BBDE8F0810000102400204425002029
:101140005C00002017B7D138E40000200AD7A33B89
:10115000E800002000000F4400000F4400000FC40E
:1011600000000FC400408F3E00400FC49061000893
:10117000DB0F4940DB0FC93FDB0FC9BFDB0FC940A5
:101180007B4EB840850A063F5205C30027F036C0A3
:101190005A7D5E00CC72D8BF49054300826D95BF71
:1011A00066392C001B3469BF96822100ABAA2A3F06
:1011B0003ACD133F0CB53048314A9FED322A90EDBD
:1011C000000A2E48D0ED000A92F81E0170EE601A57
:1011D00010B992F81D0108B182ED3F2A2A4B2B4825
:1011E00092ED3F1A93ED010A0179294800EE211A88
:1011F000002990ED060A694601A802D002F042FFDC
:1012000001E002F02DFF9DED010A2249B4EEC01A63
:10121000F1EE10FA06DC9DED000AB4EEC01AF1EE14
:1012200010FA02D281ED000A01E081ED001A92F875
:10123000260108B9F0EE421AD3ED000A92ED3F0AFA
:1012400060EEA10ADFED141A00EEA10A82ED3F0A5A
:1012500092F81E0100B1012082F81D0191ED000AF3
:10126000B4EE401AF1EE10FA01D1012000E00020A6
:1012700082F826010CBD0000FC000020E4000020E4
:101280001024002000000000A400002068000020BE
:1012900044250020EC00002017B7D138104910B5C4
:1012A0000120087000210F4801F060FF00210D4867
:1012B00001F020FC04210B4801F058FF04210948EB
:1012C00001F018FC0821074801F050FF08210548EB
:1012D00001F010FCBDE810404FF4005000F0F0BEEB
:1012E000380000209401002072B6FEE72A4810B5AD
:1012F00000782A4C00EE100AB8EE400A84ED140A79
:10130000FFF7E0FC2648007B012801D018B106E079
:1013100094ED310A01E094ED0B0A84ED150A03F017
:10132000A1F902F0C1FEFFF7C9FDFFF743FF02F08C
:10133000DFFE02F0E9FA1B4894ED1E0AD0ED000A28
:10134000194830EE200A84ED160A94ED1F0AD0EDFC
:10135000000A30EE200A84ED230A02F00DF994ED24
:10136000320A94ED241ADFED111AF0EE400A10480B
:1013700051EE210A90ED001A00EE810A84ED240A54
:1013800002F090FF94ED1A0A84ED310A94ED240ADC
:1013900084ED320A10BD00006400002010240020FB
:1013A000C40000200401002008010020EBC998407F
:1013B00060000020FFF79ABF02F08EBA0248B7EE35
:1013C000000A80ED3E0A70471024002010B5404C02
:1013D000F0EE000A2DED028B94ED040A04F03AFEC3
:1013E000B0EE408A94ED060AF0EE000A04F032FEF8
:1013F000384838EE000A01793748D0ED060A11B1B5
:101400009FED361A01E09FED361AB5EEC00A20EEC8
:10141000818AF1EE10FA06D2B1EE400A04F05CFBCC
:10142000B1EE400A01E004F057FB78EE400A94F870
:1014300023019FED2C0A10B1B0EE601A01E0B0EE6E
:10144000401A94F81E0110B994F8191149B384EDAB
:101450002F0A254A84ED110AF0EE401A92ED032A74
:1014600002EE200AD2ED000AF4EEC00AF1EE10FA04
:1014700008D3D2ED010AF4EEC00AF1EE10FA01DC55
:10148000F0EE400A1949B4EE600AC1ED000A94ED8D
:10149000122A1749F1EE10FA81ED002A04D1012138
:1014A00003E094ED2F0AD4E7002184F8231192ED94
:1014B000020ADFED100A20EE010A40EE201AC4ED08
:1014C0002F1A00B1012084F81901BDEC028B10BD68
:1014D000102400206800002044250020ABAA2A3FE9
:1014E0003ACD133F0000000070000020FC000020F7
:1014F000000100206F12033B024890ED110A80EDBD
:101500002F0A70471024002070B590F83C20694CD9
:10151000012A19D0012280F83C200A6807250368B7
:10152000092A13D9DE680A3A02EB42029540AE431B
:10153000DE600A788B680A3A02EB42029340026846
:10154000D5682B43D36010E0022070BD1E6902EB0A
:1015500042029540AE431E610A788B6802EB42025C
:101560009340026815692B4313610268936B23F45F
:10157000401393630268936B0D8A4F4E06EB05553B
:101580002B4393630A790B7CD21AD21C02EB8202A2
:101590001F2393400268956B9D4395630A790B7CEA
:1015A000D21A0B88D21C02EB82029BB293400268D3
:1015B000956B2B4393638A69A2420268936823F474
:1015C00070239360026893680CD08C692343936006
:1015D0000268936823F44013936002689368CC69AF
:1015E000234301E023F4401393604A7D002A0268FC
:1015F000536802D043F4806301E023F480635360B6
:101600000A7D002A0268536802D043F4805301E047
:1016100023F4805353604A68012A16D0022A1FD04F
:10162000032A026827D0136A6FF30B031362026860
:10163000136ACC6823431362214B04681F4A9C42FF
:1016400027D10C68122C20D023E0026853696FF375
:101650000B03536102685369CC6823435361EBE782
:10166000026893696FF30B03936102689369CC6816
:1016700023439361E0E7D3696FF30B03D3610268FF
:10168000D369CC682343D361D6E7546844F480041B
:10169000546004689C4208D10968102901D01129BE
:1016A00003D1516841F400015160002180F83C10E1
:1016B000084670BD01000F000000F0FF002301404C
:1016C00000200140704708B5002200920368521FB5
:1016D0001A60012911D002290CD0032906D004294F
:1016E00001D0009808BD0068806C01E00068406C83
:1016F000009008BD0068006CFAE70068C06BF7E76F
:1017000018B50022009290F83C10012907D0012161
:1017100080F83C1001688B68DB0702D011E00220E2
:1017200018BD8B6843F001038B602249224B096886
:10173000B1FBF3F101EB410100E0491E00910029EA
:10174000FBD101688B68DB0726D0036C42F20104F1
:10175000A34343F480530364036CDB0500D4426469
:1017600080F83C206FF004020A6014494968006860
:10177000C906816801F4401110D0C1B1002142684E
:101780000F4B42F38022521C984205D121B11AB16D
:10179000816841F480018160002018BD29B10021D9
:1017A000426842F38022521CF0E70121F8E7012150
:1017B000E5E700005800002040420F0000230140F0
:1017C0000020014018B50022009290F83C10012939
:1017D00007D0012180F83C1001688B68DB0702D03C
:1017E00011E0022018BD8B6843F001038B6024498F
:1017F000244B0968B1FBF3F101EB410100E0491E04
:1018000000910029FBD101688B68DB072BD0036CAA
:1018100042F20104A34343F480530364036CDB05E9
:1018200000D4426480F83C206FF004020A60016832
:101830004A6842F080024A60134949680068C90654
:10184000816801F4401110D0C1B1002142680F4BF2
:1018500042F38022521C984205D121B11AB181680D
:1018600041F480018160002018BD29B10021426847
:1018700042F38022521CF0E70121F8E70121E5E75D
:101880005800002040420F0000230140002001408A
:1018900078B50024009490F83C20012A19D0012248
:1018A00080F83C200A6807250368092A13D9DE68F6
:1018B0000A3A02EB42029540AE43DE600A788B683A
:1018C0000A3A02EB420293400268D5682B43D36088
:1018D00010E0022078BD1E6902EB42029540AE4343
:1018E0001E610A788B6802EB420293400268156918
:1018F0002B4313614A681F25072A13D203685E6BC6
:10190000521E02EB82029540AE435E630A8893B298
:101910000A79521E02EB820293400268556B2B43F8
:10192000536327E003680D2A12D21E6BD21F02EB0D
:1019300082029540AE431E630A8893B20A79D21F91
:1019400002EB820293400268156B2B43136311E094
:10195000DE6A0D3A02EB82029540AE43DE620A88EF
:1019600093B20A790D3A02EB820293400268D56A7B
:101970002B43D362164B0568144A9D4206D10D686D
:10198000122D03D1556845F48005556005689D42C8
:1019900018D10B68102B01D0112B13D1536843F4CD
:1019A00000035360096810290CD10A490A4A0968E2
:1019B000B1FBF2F101EB8101490000E0491E009109
:1019C0000029FBD180F83C40002078BD0023014075
:1019D000002001405800002040420F00704770472F
:1019E000704770B5044600680168C1F34002416861
:1019F000C1F3401152B349B3216CC90603D4216C21
:101A000041F400712164816811F0405F17D1217E9B
:101A1000A9B9C16A11F4700F02D0816849050ED4CA
:101A2000416821F020014160206C20F48070206426
:101A3000206CC00403D4206C40F0010020642046D8
:101A4000FFF7CCFF21686FF0120008602068016882
:101A50004268C1F38001C2F3C01289B382B3216C22
:101A6000C90603D4216C41F400512164816811F44A
:101A7000401F1ED1816B11F4401F02D081684905BF
:101A800017D44168490514D4816811F0405F10D122
:101A9000217E71B9416821F080014160206C20F401
:101AA00080502064206CC00503D4206C40F00100FD
:101AB00020642046FFF706FE21686FF00C000860E6
:101AC000206801684268C1F30001C2F3801271B15D
:101AD0006AB10068C0070AD0206C40F480302064EE
:101AE000204600F046F821686FF001000860206889
:101AF00001684268C1F34011C2F3806200290DD031
:101B0000002A0BD0616C41F0020161646FF0200586
:101B100005602046FFF764FF2068056070BD70B562
:101B200004004FF0000603D0206C002510B107E040
:101B3000012070BD204600F01DF8656484F83C501B
:101B4000206CC00610D4206C20F4885040F00200B5
:101B500020642046FEF7F2FF6564206C20F002004E
:101B600040F00100206400E0012684F83C5030463B
:101B700070BD704770B586B0064614216846FEF702
:101B80005DFB2849306888424AD127480025016812
:101B900041F4807101600068234900F480701439B9
:101BA0000590086840F004000860086800F0040030
:101BB0000590086840F0010008600868032400F000
:101BC000010005903F208DE831006946174800F07C
:101BD00083FA13208DE831006946154800F07CFA3D
:101BE000154C1448C4E900050015A560C4E903506C
:101BF000800060618000A0618011C4E90705204673
:101C0000656200F0BBF908B1FFF76EFBB463002218
:101C100002211220A66300F0A5FB122000F094FB25
:101C200006B070BD00200140443802400008024068
:101C3000000002401064024090030020F8B5002329
:101C40000446009390F83C00012807D0012084F856
:101C50003C0020688568ED0702D011E00220F8BD45
:101C6000856845F0010585602E482F4D0068B0FB62
:101C7000F5F000EB400000E0401E00900028FBD192
:101C800020688568ED074AD0256C40F20166B543AF
:101C900045F4807525644068400505D5206C20F426
:101CA000005040F480502064206CC00404D5606C67
:101CB00020F00600606400E0636484F83C30A36BAD
:101CC0001B481A4DD863A36B1A481864A36B1A48B3
:101CD000D86423686FF0220018602068436843F0DE
:101CE000806343602068836843F480738360134695
:101CF00020680A46A66B00F14C01304600F0A8F9B6
:101D00006868C006206802D00C49884207D1816803
:101D100011F0405F03D1816841F080418160002073
:101D2000F8BD00005800002040420F000023014091
:101D300015080008990800088308000800200140E1
:101D400030B50223437103689C6844F001049C6031
:101D5000002304E0056851F823402C605B1C93428B
:101D6000F8D30168096801224271084630BD10B5F8
:101D7000040002D0607910B106E0012010BD0020FF
:101D80002071204600F004F801206071002010BD91
:101D900008B500680649884208D10648016841F440
:101DA00080510160006800F48050009008BD000080
:101DB000003002403038024090F83510022903D03C
:101DC0008021416501207047052180F835100068A9
:101DD000016821F001010160002070472DE9F843FE
:101DE00004464FF00009CDF8009063484FF41651B7
:101DF000A56D0068B0FBF1F72E6894F85C2008210F
:101E000001FA02F030420FD02068026852070BD569
:101E1000026822F00402026094F85C008140A9602C
:101E2000606D40F00100606594F85C104FF00108AF
:101E300008FA01F0304208D021684969090604D542
:101E4000A860606D40F00200606594F85C100420AA
:101E50008840304208D021680968890704D5A86005
:101E6000606D40F00400606594F85C1010208840BC
:101E7000304218D021680968090714D5A860206885
:101E80000168490304D50068000308D5A16C07E088
:101E90000168C90503D4016821F008010160216CC3
:101EA00009B12046884794F85C10202088403042D1
:101EB00031D021680968C9062DD5A86094F835008D
:101EC00005282068016806D0490347D5006800034B
:101ED0001DD4616C1CE021F016010160206841698D
:101EE00021F080014161206C08B9A06C20B120680C
:101EF000016821F00801016094F85C103F208840DF
:101F0000A86084F8349084F83580216D1FE0E16B7F
:101F100009B120468847606D00282BD0606DC0074E
:101F200014D0052084F835002068016821F00101F3
:101F300001600098401C0090B84203D820680068F7
:101F4000C007F6D184F8349084F83580E16C00291C
:101F500010D001B02046BDE8F04308470168C9052C
:101F6000D5D4016821F01001016084F8349084F820
:101F70003580CCE7BDE8F883580000202DE9F0411A
:101F8000044600F07FF905465CB1002684F8346011
:101F9000022084F835002068016821F00101016009
:101FA0000DE00120BDE8F08100F06CF9401B052830
:101FB00005D920206065032084F83500F2E7206809
:101FC0000068C007F0D121680A6820480240D4E9BF
:101FD00001031843D4E903352B43184363691843BD
:101FE000A3691843E3691843236A18431043626ADC
:101FF000042A03D1D4E90B231A4310430860206854
:102000004069656A20F0070128460D43012704282E
:102010000CD1A06A0543E06A40B12046FEF710FFEC
:1020200020B14020606584F83570BAE720684561CA
:102030002046FEF7F1FE94F85C203F21914081603C
:10204000666584F835700020ACE700003F8010F032
:102050002DE9F0410446866D90F8340000250128F2
:102060000DD0012084F8340094F835700020012F41
:1020700007D084F8340002252846BDE8F08102200C
:10208000FBE7022784F8357060652046FEF702FF03
:1020900094F85C103F208840B0602068016841F0EF
:1020A00016010160206C20B12068016841F0080130
:1020B00001602068016841F001010160DCE77047C0
:1020C000044910B50A68024202D00860FFF7F7FF22
:1020D00010BD0000143C01402DE9F84FDFF860B15D
:1020E00000224FF003094FF00F0A0BF1040E0125F7
:1020F0000B6895402B40AB4272D14C68012C05D047
:10210000022C03D0112C01D0122C10D1866854005F
:1021100009FA04F7BE43CF68A74037438760446895
:10212000AC430D79C5F30015954025434560C4685F
:10213000570009FA07F58E68AC43BE402643C660D7
:102140004C68022C01D0122C12D1D40800EB840C64
:10215000DCF820605407E40E0AFA04F826EA0806C0
:10216000D1F8108008FA04F848EA0608CCF8208074
:102170000468AC430D7905F00305BD4025430560B7
:102180004C68E40056D52F4C256845F48045256001
:10219000246822F0030504F4804400942A4C2E198C
:1021A000D6F808789407250F0AFA05F4A743274CB8
:1021B000A04201D1002415E0254CA04201D1012408
:1021C00010E0244CA04201D102240BE0224CA0429A
:1021D00001D1032406E0214CA04202D1042401E0F5
:1021E00028E00724AC403C43C6F80848DBF8004030
:1021F0005D464E689C43F60300D51C432C60DEF818
:10220000004075464E689C43B60300D51C432C60C5
:102210000B4D08352C684E689C43F60200D51C43D4
:102220002C60074D0C352C684E689C43B60200D5D7
:102230001C432C60521C102AFFF459AFBDE8F88FE4
:10224000003C0140443802400030014000000240A0
:102250000004024000080240000C0240001002404E
:102260000069084000D001207047426931EA02024B
:1022700000D10904816170470AB181617047090486
:10228000FBE7000001488068704700004C00002018
:102290000248816802781144816070474C00002038
:1022A0000B4810B5016841F400710160016841F408
:1022B00080610160016841F480710160032000F0D9
:1022C00071F8042000F006F800F024F8002010BD9A
:1022D000003C024070B50D4D04464FF47A712878E9
:1022E000B1FBF0F00A490968B1FBF0F000F0FAFA2E
:1022F00048B9102C07D200222146501E00F032F8B7
:1023000000206C6070BD012070BD00004C000020FA
:10231000580000200B4882B0016841F48041016000
:10232000006800F4804000900648001F016841F0FA
:1023300080510160006800F080500090042002B0DD
:1023400000F030B844380240002809DB00F01F02DA
:10235000012191404009800000F1E020C0F8001107
:1023600070470000F0B40E4B1B68C3F30223C3F1A7
:102370000704042C00D904241D1D072D01D20023BD
:1023800000E0DB1E012606FA04F56D1E0D409D409F
:102390009E40761E164045EA0601F0BC02F0C9BF19
:1023A0000CED00E0064A00F0070110684FF6FF034D
:1023B000184040EA012003490843106070470000BC
:1023C0000CED00E00000FA052DE9F0470D46040091
:1023D00065D0DFF81491D9F80000EFB200F00F00DB
:1023E000A84207D289F80070D9F8000000F00F0069
:1023F000A84254D120683D4E810712D5400703D52D
:10240000306840F4E05030602078000703D5306831
:1024100040F4604030603068A16820F0F00008436C
:1024200030602078C0072DD0304960680839012815
:1024300012D0022813D0032811D009688907002977
:102440002DDA316821F0030101433160FFF71AFFF3
:10245000804641F2883A0EE009688903EFE709688F
:102460008901ECE7FFF70EFFA0EB0801514502D907
:102470000320BDE8F0873068616800F00C00B0EB25
:10248000810FEFD1D9F80010484601F00F01A942A1
:1024900007D90770006800F00F00A84201D00120A2
:1024A000E7E72078400705D53068E16820F4E05080
:1024B000084330602078000706D53068216920F491
:1024C000604040EAC100306000F038F83168084AE6
:1024D000C1F30311515CC840064908600648006812
:1024E000FFF7F8FE0020C4E7003C02400838024035
:1024F000746100085800002050000020044805497D
:1025000000680968044AC1F38221515CC8407047E1
:10251000580000200838024084610008044805493A
:1025200000680968044AC1F34231515CC8407047F1
:10253000580000200838024084610008154810B592
:10254000006810F00C01144813D0431004290FD078
:1025500008290ED10F4C241F216801F03F02216889
:10256000490207D52068C0F38810A0FB030106E0EC
:10257000184610BD2168C1F38811A1FB000100239A
:10258000FDF724FE2168C1F30141491C4900B0FB5D
:10259000F1F010BD083802400024F4002DE9F84F96
:1025A000040075D02078DFF828A3C007AAF104053D
:1025B00048D00AF104000168C1F38101012908D063
:1025C0000068C0F3810002280AD1DAF80000400256
:1025D00006D52868800335D560680028E1D031E051
:1025E0006068B0F5803F10D0B0F5A02F286810D0FB
:1025F00020F480302860286820F4802028606068FB
:10260000A0B1FFF73FFE06460CE0286840F480309A
:10261000F4E740F480202860F7E7FFF733FE801BE3
:10262000642871D828688003F7D50BE0FFF72AFEED
:10263000064604E0FFF726FE801B6428F1D82868D0
:102640008003F7D42078DFF88C9280074FF0000BDE
:102650003DD59F48001D016811F00C0F08D000689F
:10266000C0F3810002280AD1DAF80000400206D443
:102670002868800715D5E068012809D111E0E068D5
:10268000B8B10121C9F80010FFF7FCFD064605E0CE
:102690001AE1FFF7F7FD801B0228C2D828688007DF
:1026A000F7D52868216920F0F80040EAC1002860C9
:1026B0000DE0C9F800B0FFF7E5FD064604E0FFF7BE
:1026C000E1FD801B02281FD828688007F7D42078F6
:1026D000000722D57E4F80486169703771B10121B2
:1026E0000160FFF7CFFD064604E0FFF7CBFD801B3E
:1026F000022809D838688007F7D50EE0C0F800B086
:10270000FFF7C0FD064605E082E0FFF7BBFD801B3A
:1027100002287DD838688007F7D42078400765D52F
:102720006B484FF000083C300068C0000BD468488C
:102730003C30016841F08051016000684FF00108B1
:1027400000F080500090654F3868C0050FD438689D
:1027500040F480703860FFF795FD064604E0FFF70F
:1027600091FD801B022853D83868C005F7D5584F13
:10277000A0686C3701280FD00528386810D020F0E9
:1027800001003860386820F004003860A068B0B1FB
:10279000FFF778FD06460EE0386840F00100F4E7E8
:1027A00040F004003860F7E7FFF76CFD811B41F251
:1027B0008830814263D838688007F5D50DE0FFF78F
:1027C00061FD064606E0FFF75DFD811B41F28830A2
:1027D000814254D838688007F5D4B8F1000F05D08D
:1027E0003B483C30016821F080510160A069B8B3DA
:1027F0003749091D0968C1F38101022946D0022821
:10280000584606D0C9F86000FFF73CFD044639E0A1
:1028100035E04F46C9F86000FFF734FD064604E096
:10282000FFF730FD801B022829D828688001F7D4E3
:10283000D4E907010843A16A294A490802EB01418A
:10284000626A41EA8211084394F82C1040EA01615F
:10285000CAF8001001203866FFF714FD044605E0B1
:1028600034E0FFF70FFD001B022808D8286880011C
:10287000F7D52BE0FFF706FD001B022802D9032045
:10288000BDE8F88F28688001F4D41FE00128F7D054
:10289000DAF80000E26900F48001914214D1226A62
:1028A00000F03F0191420FD147F6C071626A0140CA
:1028B000914209D1A26A00F44031914204D1E16A07
:1028C00000F07060884201D00120D9E70020D7E7EE
:1028D0000438024000004742800E4742007000402A
:1028E0000000FFFF10B5401EB0F1807F01D3012032
:1028F00010BD4FF0E02460610F21601702F019FD58
:102900000020A06107202061002010BD70477047A3
:1029100010B590F83C20012A22D0012280F83C20FA
:10292000CA688C6822F4407222434C6822F48062A8
:1029300022430C6822F4006222430C6922F4805284
:1029400022434C6922F400522243C969002322F435
:1029500080420A4301684A6480F83C30002010BD80
:10296000022010BD70B588B00D46040004D094F864
:102970003D00002618B107E0012008B070BD84F8C2
:102980003C60204600F04CF8022084F83D00211DF8
:10299000206802F097F8AB6829680322206802F0EB
:1029A00005FA2068816921F00C0181612068816944
:1029B0006A68114381612068416841F0800141608B
:1029C0002068816821F0700181602068816841F091
:1029D000400181602068816821F0070181602068E2
:1029E000816841F004018160702005960496069686
:1029F000039602960090E86801906946206802F00C
:102A000005F92068416821F0700141602068416843
:102A100041F050014160012084F83D000020ACE706
:102A2000704710B5044600680122002102F096F8B4
:102A30002068816801F00701062903D0016841F090
:102A400001010160002010BD10B504460068C16896
:102A500041F00201C16001220021206802F07EF8ED
:102A60002068816801F00701062903D0016841F060
:102A700001010160002010BD70B590F83C20012AD2
:102A80002CD0012580F83C50022280F83D200268BD
:102A90005368946823F070060B6833435360104BFF
:102AA00002689A420ED0B2F1804F0BD00D4B9A4281
:102AB00008D00D4B9A4205D00C4B9A4202D00C4BD9
:102AC0009A4204D1496824F080031943916080F848
:102AD0003D50002180F83C10084670BD022070BDBA
:102AE000000001400004004000080040000C0040CD
:102AF0000040014010B504460068042202F03BF893
:102B00002068416C41F4004141642068816801F013
:102B10000701062903D0016841F00101016000208E
:102B200010BD10B5040003D094F83D0010B107E0CB
:102B3000012010BD002084F83C00204600F00CF875
:102B4000022084F83D00211D206801F0BBFF012018
:102B500084F83D00002010BDF0B587B00446142174
:102B60006846FDF76BFB504A206800244F49022657
:102B700001254F4F90422AD14C481430026842F050
:102B800001020260006800F001000590086840F052
:102B9000010008600868CDE9025400F001000590CA
:102BA0004020CDE90006694604953846FFF794FABF
:102BB000012200211820FFF7D5FB1820FFF7C4FBE6
:102BC000002211461920FFF7CDFB19204AE0374AB1
:102BD0001032B0F1804F11D03649884246D110688A
:102BE00040F0020010601068002200F00200059022
:102BF00005211D20FFF7B6FB1D2033E0106840F0D3
:102C000001001060106800F001000590086840F0B5
:102C100002000860086800F002000590086840F0B3
:102C2000010008600868694600F0010005904FF453
:102C300081600090CDE901641F48CDE90345FFF7AD
:102C40004BFA4FF400400090CDE9016469463846E4
:102C5000CDE90345FFF740FA002203211C20FFF7CE
:102C600081FB1C20FFF770FB07B0F0BD13498842C1
:102C700008D1106840F004001060106800F00400F3
:102C80000590F1E70E498842EED1106840F0080047
:102C900010601068002200F0080005900721322023
:102CA000FFF760FB3220DDE70000014030380240D2
:102CB0000000024000040040000402400008004000
:102CC000000C00400168CA6842F00102CA60006856
:102CD000816801F00701062903D0016841F0010174
:102CE00001600020704770B5044690F83C00012850
:102CF00017D0012584F83C50022084F83D0020685C
:102D0000826822F0770222F47F42826008685028AD
:102D100030D00DDC20284DD005DC98B310283BD1F5
:102D200048E0022070BD302844D0402834D139E03A
:102D3000602828D0702806D0B0F5805F2CD0B0F580
:102D4000005F29D10AE0CB68D1E90121206801F0B8
:102D50001FFF2068816841F0770109E0CB68D1E965
:102D60000121206801F014FF2068816841F480414E
:102D7000816011E0CA684968206802F006F85021B5
:102D8000206807E016E0CA684968206802F044F845
:102D90006021206801F006FF84F83D50002084F88F
:102DA0003C0070BDCA684968206801F0EEFF402110
:102DB0002068EFE7226801461046EBE7704770B5E0
:102DC0000446006801694FF00005C943890715D41E
:102DD000C168C943890711D4E91E01610120207728
:102DE000206880698007204602D0FFF7E7FF04E0F3
:102DF00000F019F9204600F0B7F92577206801693D
:102E0000C943490717D4C168C943490713D46FF0B0
:102E100004010161022020772068806910F4407F5E
:102E2000204602D0FFF7CAFF04E000F0FCF820467D
:102E300000F09AF9257720680169C943090716D47B
:102E4000C168C943090712D46FF008010161042069
:102E500020772068C0698007204602D0FFF7AEFFC8
:102E600004E000F0E0F8204600F07EF925772068C5
:102E70000169C943C90617D4C168C943C90613D437
:102E80006FF010010161082020772068C06910F4FC
:102E9000407F204602D0FFF791FF04E000F0C3F826
:102EA000204600F061F9257720680169C943C90708
:102EB00008D1C168C943C90704D1891E01612046F0
:102EC00000F070F920680169C943090609D4C16896
:102ED000C943090605D46FF0800101612046FFF760
:102EE00015FD20680169C943490609D4C168C94371
:102EF000490605D46FF040010161204600F07CF9DD
:102F000020680169C94389060BD4C168C943890691
:102F100007D46FF0200101612046BDE87040FFF743
:102F2000F6BC70BD70B586B0044614216846FDF746
:102F300085F9224B2268002021490224214D9A4222
:102F400024D1086840F001000860086800F0010022
:102F50000590086840F0020008600868012600F04B
:102F6000020005904FF4F060CDE900040294CDE931
:102F7000034669461448FFF7AFF80320CDE9000483
:102F80000294CDE903466946284612E00F4B9A4267
:102F900011D10A6842F002020A60096801F00201D8
:102FA000059130210091CDE90140CDE90304694646
:102FB0002846FFF791F806B070BD00000000014000
:102FC000303802400004024000000240000400408B
:102FD00070B5044690F83C0001280DD0012584F816
:102FE0003C50022084F83D0042B1042A0AD0082A4D
:102FF0000CD00C2A11D10DE0022070BD206801F028
:10300000D9FD0AE0206801F001FE06E0206801F029
:103010002BFE02E0206801F053FE84F83D500020B2
:1030200084F83C0070BD704710B5040003D094F8DC
:103030003D0010B107E0012010BD002084F83C00E5
:10304000204600F00CF8022084F83D00211D206885
:1030500001F038FD012084F83D00002010BD7047CC
:1030600070B5044690F83C000D4601280DD00126AD
:1030700084F83C60022084F83D0042B1042A18D054
:10308000082A2AD00C2A4DD139E0022070BD2068D0
:1030900001F090FD2068816941F00801816120689C
:1030A000816921F004018161206881692A691143E5
:1030B00011E0206801F0AAFD2068816941F40061F7
:1030C00081612068816921F4806181612068816962
:1030D0002A6941EA0221816124E0206801F0C4FDEF
:1030E0002068C16941F00801C1612068C16921F00F
:1030F0000401C1612068C1692A69114311E0206897
:1031000001F0DEFD2068C16941F40061C161206801
:10311000C16921F48061C1612068C1692A6941EAFD
:103120000221C16184F83D60002084F83C0070BD3C
:1031300010B5040003D094F83D0010B107E0012061
:1031400010BD002084F83C00204600F00CF802205E
:1031500084F83D00211D206801F0B4FC012084F8B2
:103160003D00002010BD70477047000010B50446B8
:103170000068012201F0F2FC09492068884203D16D
:10318000416C41F4004141642068816801F007010D
:10319000062903D0016841F001010160002010BD43
:1031A00000000140704770B5044690F83C000128CB
:1031B00010D0012584F83C50022084F83D002046C0
:1031C00001F0A0FD002138B184F83D5084F83C1096
:1031D000012070BD022070BD2068C26822F040024C
:1031E000C2602068C26822F48042C26084F83D5008
:1031F00084F83C10002070BD7047704770B50268BD
:1032000004461068D168536910F00F0F52D003F0D4
:10321000010501F490762E435FD0C20705D0CA05A0
:1032200003D5E26B42F00102E263420705D5DA07FB
:1032300003D0E26B42F00202E263820705D5DA07AF
:1032400003D0E26B42F00402E263020707D501F00B
:1032500020022A4303D0E26B42F00802E263E26BF1
:10326000002A33D0800604D5880602D5204601F016
:1032700068FE20684069E16BC0F38010090700D444
:1032800028B3204601F046FE2068416949061AD558
:10329000416921F040014161606BA0B11B490165AA
:1032A000606BFEF789FD002810D0606B016DBDE8F2
:1032B00070400847830610D58B060ED52046BDE822
:1032C000704001F03EBE2046FFF797FF70BD2046DC
:1032D000FFF793FF0020E06370BD030606D50B06E1
:1032E00004D52046BDE8704001F00ABF4006F3D582
:1032F0004806F1D5D168204621F04001D160202157
:1033000084F8391000F036F970BD00003D4E000819
:1033100070B5040004D094F83900002510B106E01F
:10332000012070BD84F83850204600F023F8242096
:1033300084F839002068C16821F40051C16020463A
:1033400001F04AFE2068016921F490410161206882
:10335000416921F02A0141612068C16841F40051AE
:10336000C160E563202084F8390084F83A00002029
:1033700070BD00002DE9F04186B004461421684676
:10338000FCF75CFF2E492068884256D12D48002565
:10339000016841F400310160006800F400300590DC
:1033A00028481038016841F0010101600068694651
:1033B00000F0010005900C2000900220CDE90105ED
:1033C00003200390072004901F48FEF785FE204E3F
:1033D0001E484FF00067E6E8020740204FF480687F
:1033E000A6E821011A4846F81459B561F56135621D
:1033F0007562FEF7C3FD08B1FDF776FF2663B4637F
:103400001248144E18383060C6E90175C6E90358F1
:103410007561B561F561356230467562FEF7AEFDE6
:1034200008B1FDF761FF6663012206212620B4631F
:10343000FEF798FF2620FEF787FF06B0BDE8F08173
:10344000004400404038024000000240A0600240BA
:10345000F00300205004002037B5044690F83A00ED
:1034600082B0134620283AD1039AAAB3A3B394F8A2
:103470003800012833D0012084F83800A262A385E7
:103480000025E563222084F83A00616B1548C86383
:10349000616B15480864616B1448C864606B05650E
:1034A0002168606B091DFEF7D3FD20680168416843
:1034B000009184F83850C16841F48071C16020687F
:1034C000416941F0010141612068416941F04001D9
:1034D0004161002005B030BDFFE70120FAE702207E
:1034E000F8E70000974E0008D34E00084D4E000844
:1034F00070477047F7B5044690F83900202831D15D
:10350000019969B362B394F8380001282AD00120E8
:1035100084F838002162A284E2840025E56321203A
:1035200084F83900236B1048D863236B0F48186464
:10353000236B0F48D864206B134605652668206B03
:10354000321DFEF785FD21686FF04000086084F8A9
:1035500038502068416941F0800141610020FEBD82
:103560000120FEBD0220FEBDDD4E00080B4F00080D
:103570004D4E00087047704770B5C54CC548C64DE4
:103580002DED0A8BBFEE00CAF7EE00CAD4ED360A65
:10359000D4ED341A94ED352AC4ED240A90ED000AD6
:1035A00094ED378AD5ED002A31EEC00A9FEDBBBA03
:1035B000B5EEC00AF1EE10FA02D2B0EE4C0A11E0FC
:1035C000B5EEC00AF1EE10FA02DDB0EE6C0A09E0C9
:1035D000B5EEC00AF1EE10FA02D1B0EE4B0A01E0EE
:1035E000B0EE620AAA4994F81F0191ED389A9FED56
:1035F000AC4A9FEDAC5ADFEDAC4A9FEDAC3AAC4E15
:1036000096ED001ADFEDABBA88B9D4ED163AC1EEEB
:10361000035A63EE843A20EE826A41EEC53A46EEE2
:10362000643A48EE443A45EEC03A03EEAB9AD6ED22
:10363000013A9749D4ED398AC3EE835A94F82001B0
:1036400091ED3AAA25EE800A18B900EEE80A00EEDC
:103650002BAA994862EE053A90ED000A32EE400A34
:10366000B5EEC00AF1EE10FA02D2B0EE4C0A11E04B
:10367000B5EEC00AF1EE10FA02DDB0EE6C0A09E018
:10368000B5EEC00AF1EE10FA02D1B0EE4B0A01E03D
:10369000B0EE620A7E4994F82101D1ED3B9A78B9E7
:1036A00060EEA11A81EE032A51EEA43AD4ED231A5A
:1036B00048EEC43A41EE843A42EE403A43EEAB9AC9
:1036C000734994F82201D1ED3CAA38B9C1EE031A2E
:1036D00021EE800A00EE880A40EE2BAA94ED3D0A06
:1036E00084ED1A0A00F046FF94ED240AB5EEC00AF4
:1036F000F1EE10FA01DD012001E04FF0FF3094ED12
:103700001B0AD6ED021A60EE480A94ED1C0A48EE38
:10371000C00A00EE100AB8EEC00A60EE800A94ED0E
:103720003E0AB0EE402A9FED651A654921EE811AE6
:1037300001EE200A10EE100A9FED623A624BDFEDB7
:10374000632A884202DD30EE438A08E010EE100A58
:10375000984202D8B0EE4B8A01E030EE628AB5EEB4
:10376000C08AF1EE10FA01D0012000E00020B5EE91
:10377000C08AF1EE10FA02D2B0EE4C1A11E0B5EEAA
:10378000C08AF1EE10FA02DDB0EE6C1A09E0B5EE77
:10379000C08AF1EE10FA02D1B0EE4B1A01E095EDBD
:1037A000001A61EEA11A10EE102A61EEA08A8A4278
:1037B00002DDB0EE430A05E010EE101A994201D97D
:1037C000B0EE620AD4ED1A0A84ED349AC4ED359A4B
:1037D00084ED360A84ED37AA002184F81F1184EDA8
:1037E000389AC4ED39AA40EE2B0A84F8201184EDF2
:1037F0003AAA84F82111C4ED3B9A84F8221110EE04
:10380000901A334A9FED330AC4ED3CAA914202DD7F
:1038100030EEC00A06E0F5EEC00AF1EE10FA04D26E
:1038200030EE800A84ED3D0A01E0C4ED3D0AF5EE7C
:10383000C08AF1EE10FA02D2B0EE4C0A11E0F5EEB9
:10384000C08AF1EE10FA02DDB0EE6C0A09E0F5EE86
:10385000C08AF1EE10FA02D1B0EE4B0A01E095ED0C
:10386000000A68B1FDEEC10ABDEEC00A10EE900A72
:1038700041B210EE100A40B2814201D1F0EE4B8A03
:1038800008EEAB2A84ED3E2ABDEC0A8B70BD000029
:10389000102400200C01002028010020000000005E
:1038A00000007A430000C842CDCC4CBD6F12833B70
:1038B000C400002017B7D13810010020F4FDB43F38
:1038C0007C5944457C5944457C5944C57C5944C580
:1038D000DB0FC940DB0FC9400548012180F81F11EB
:1038E00080F8201180F8211180F822117047000023
:1038F00010240020DFED030A30EE600A80ED000A9C
:1039000070470000DB0FC9400C490D48D1ED240A77
:10391000D0ED001A0B4891ED230A20EEA12A90ED7C
:10392000001A094801EE402A20EE210A01EE200A81
:1039300080ED002A054880ED000A70471024002021
:10394000EC000020E000002004010020080100201D
:103950002DE9F0438DB000240094019402942021BD
:1039600004A80394FCF76AFC45484449012501601A
:103970004FF480310561C0E90114047680F82040DD
:103980000903C1624FF00609C0F81C904FF01061A6
:10399000C460816280F830504461FEF7C0F808B11D
:1039A00072B6FEE70095CDE9015469463448FDF74B
:1039B0006FFF08B172B6FEE704274FF00208CDE9A9
:1039C000007869462E48FDF763FF08B172B6FEE73E
:1039D0000C200326CDE9000669462948FDF758FF6B
:1039E00008B172B6FEE70D20CDE90007694624480C
:1039F000FDF74EFF08B172B6FEE70E2000900520DD
:103A0000019069461E48FDF743FF08B172B6FEE714
:103A10000F20CDE9000969461948FDF739FF08B1C3
:103A200072B6FEE7CDE9044516480694CDE90A04CE
:103A30008DF8255008968DF8244004A91048079465
:103A4000FDF762FD08B172B6FEE70B20CDE9040870
:103A500004A90B48FDF758FD08B172B6FEE70A202D
:103A6000CDE9040604A90648FDF74EFD002801D063
:103A700072B6FEE70DB0BDE8F08300000020014003
:103A80004C01002001000F00154808B5016841F401
:103A900080010160016801F480010091016841F436
:103AA000001101600068002200F40010009011462F
:103AB0001020FEF757FC1020FEF746FC00220521DF
:103AC0001120FEF74FFC1120FEF73EFC00221146AC
:103AD0003820FEF747FCBDE808403820FEF734BC2C
:103AE0003038024030B587B014216846FCF7A6FB99
:103AF00022480024016841F004010160016801F0DE
:103B000004010591016841F080010160016801F044
:103B100080010591016841F001010160016801F037
:103B200001010591016841F0020101600068144D36
:103B300000F0020005900122C0212846FEF79CFB00
:103B40004FF4005000900F48CDE9010469460E483B
:103B5000FEF7C2FAC02000900120CDE901046946B9
:103B600028460394FEF7B8FA002203212820FEF726
:103B7000F9FB2820FEF7E8FB07B030BD30380240E3
:103B800000040240000021100008024070B59AB005
:103B9000002414941594169414210FA81794FCF77C
:103BA0004DFB18941C2168461994FCF747FB202113
:103BB00007A8FCF743FB3E483C49C0E9001420211C
:103BC000816041F26801C0E903140121C0E90514D4
:103BD000FEF7A7FF08B172B6FEE74FF4805514A9AF
:103BE00033481495FFF77FF808B172B6FEE7304806
:103BF000FFF79EFA08B172B6FEE70620CDE90F0482
:103C00000FA92B48FFF7CFFA08B172B6FEE770266E
:103C10008020CDE9186018A92548FEF72DFF08B1CE
:103C200072B6FEE76020CDE9000402940394049488
:103C30000594002269461E480694FFF711FA08B160
:103C400072B6FEE7042269461948FFF709FA08B17F
:103C500072B6FEE7082269461548FFF701FA08B177
:103C600072B6FEE741F26700CDE900600C226946BA
:103C70000F48FFF7F5F908B172B6FEE74FF40060A0
:103C80000790401008908010099066200A90CDE9B6
:103C90000B5407A906480E94FEF73AFE08B172B617
:103CA000FEE70348FFF73EF91AB070BD000001407F
:103CB0009401002010B58AB000241F48009401949C
:103CC00002940394049405940694079408944FF086
:103CD000804109940160D121C0E90114611EC160D5
:103CE0004FF4007184610161FEF71BFF08B172B6E9
:103CF000FEE74FF48050009069460F48FEF7F3FF4F
:103D000008B172B6FEE704940594069404A90A4823
:103D10000794FEF727FE08B172B6FEE75020CDE902
:103D2000080408A90448FEF7A7FE002801D072B6CF
:103D3000FEE70AB010BD0000D401002010B58EB01F
:103D400000240794089409940A940B941C21684653
:103D50000C94FCF773FA23482149C0E90014202190
:103D6000816040F63401C0E903148461FEF7D9FE96
:103D700008B172B6FEE74FF48050079007A91948C2
:103D8000FEF7B1FF08B172B6FEE71648FFF7D0F9AB
:103D900008B172B6FEE70B940BA912480C94FEF71B
:103DA0006BFE08B172B6FEE7602000904FF4007021
:103DB000CDE90104002269460A480494FFF750F94E
:103DC00008B172B6FEE7042269460648FFF748F9D3
:103DD00008B172B6FEE70348FFF7A4F80EB010BDB5
:103DE000000400401402002030B593B000240C946D
:103DF0000D940E94142107A80F94FCF71FFA109449
:103E00001C2168461194FCF719FA23482149C0E99E
:103E100000142021816041F26801C0E9031484612B
:103E2000FEF77FFE08B172B6FEE74FF480500C90AB
:103E30000CA91948FEF757FF08B172B6FEE71648FD
:103E4000FFF776F908B172B6FEE70420CDE9070462
:103E500007A91148FFF7A7F908B172B6FEE7702568
:103E60008020CDE9105010A90B48FEF705FE08B1DF
:103E700072B6FEE701200095CDE901040C226946E7
:103E800005480494FFF7ECF8002801D072B6FEE76D
:103E900013B030BD000800405402002030B58DB092
:103EA00000240794089409940A940B941C216846F2
:103EB0000C94FCF7C3F9204D1E482860D120C5E9B9
:103EC0000104601EE8604FF40070AC612861284670
:103ED000FEF727FE08B172B6FEE74FF48050079058
:103EE00007A91548FEF7FFFE08B172B6FEE71248B3
:103EF000FFF79AF808B172B6FEE70B940BA90E48CB
:103F00000C94FEF7B9FD08B172B6FEE70094019477
:103F100002940022694608480494FFF759F808B152
:103F200072B6FEE72868816941F0080181610DB031
:103F300030BD0000000C00409402002010B50820A5
:103F400001F0C8FF0D490320087048708870FCF725
:103F500047FFFDF733FA0A4800F5947190ED170A10
:103F600081ED000A90ED180A81ED010A90ED190A21
:103F700081ED020ABDE81040FDF71EBAD400002012
:103F80001024002070B5FCF76DFE314C314E94EDDD
:103F9000250A84ED030A94ED260A84ED040A94EDC3
:103FA000270A84ED050A94ED280A84ED060A306894
:103FB000807908B900F096FA274D94ED290A85ED2D
:103FC000010A3068407908B9FCF7C8FEFDF7F2F93C
:103FD00094ED2A0A214885ED020A95ED040A84ED44
:103FE000250A95ED060A84ED260A95ED050A84ED6D
:103FF000270A95ED030A84ED280A94ED240A84ED3E
:10400000290A94ED1A0A84ED2A0A94ED170A80ED24
:10401000000A94ED180A80ED010A94ED190A80ED6A
:10402000020A306831684079401CC0B248710021F2
:10403000132801D930684171306832688079401C9A
:10404000C0B29071632801D93068817170BD0000E1
:10405000102400208C610008D400002038250020A6
:10406000DFED060A60EE200AC0ED000ADFED040A6B
:1040700020EE200A81ED000A704700003ACD133F80
:104080003ACD13BFDFED060A60EE200AC0ED000A4C
:10409000DFED040A20EE200A81ED000A70470000DF
:1040A000ABAA2A3FABAA2ABF0D480C49D0ED001A93
:1040B000D1ED240A0B4891ED230A20EEA12A90EDC0
:1040C000001A094801EE002A60EE810A41EEC00A9A
:1040D00080ED002A0548C0ED000A7047102400203A
:1040E0000C01002010010020E4000020E800002066
:1040F0000CB53048314A9FED322A90ED000A2E4827
:10410000D0ED000A92F81E0170EE601A10B992F814
:104110001C0108B182ED332A2A4B2B4892ED331A49
:1041200093ED030A0179294800EE211A002990ED48
:10413000060A694601A802D0FFF7A4FF01E0FFF7D5
:104140008FFF9DED010A2249B4EEC01AF1EE10FA7C
:1041500006DC9DED000AB4EEC01AF1EE10FA02D2B0
:1041600081ED000A01E081ED001A92F8250108B9FD
:10417000F0EE421AD3ED020A92ED330A60EEA10A84
:10418000DFED141A00EEA10A82ED330A92F81E0147
:1041900000B1012082F81C0191ED000AB4EE401A32
:1041A000F1EE10FA01D1012000E0002082F8250193
:1041B0000CBD000000010020E800002010240020B9
:1041C00000000000A400002068000020442500201A
:1041D000E000002017B7D13810B5214C2DED028B2F
:1041E00094ED2B0A84ED200A00F000FADFED1D8A21
:1041F00094ED2C8A9FED1C0ADFED1D0A08EE808AE3
:104200009FED1A0A28EE000A84ED200A94ED2D0A8B
:1042100001F07EFE84ED210AD4ED2E0A9FED151AE1
:1042200020EE811A84ED221A84ED2B0A94ED2C1ACB
:104230009FED110A08EE801A84ED2C1A94ED2D1AC8
:1042400008EE001A84ED2D1A94ED200A9FED0B1A4A
:1042500000EEC10A84ED2E0ABDEC028B10BD0000F9
:10426000102400200000000000000D43EBC918409E
:10427000DB0FC9400AD7233D17B7D1388FC275BFAE
:1042800010B5FFF7A9FF064C94ED220A84ED070A4A
:10429000FCF7FEFC94ED090A84ED080A10BD00004D
:1042A00010240020844A92ED160ADFED840A20EEE5
:1042B000200AD2ED230AF5EEC00AF1EE10FA01DB76
:1042C000012000E0002030EE601AB5EEC01AF1EED9
:1042D00010FA01DB012100E00021B1EE601A00EBD1
:1042E000410131EE400AB5EEC00AF1EE10FA01DBF1
:1042F000012000E0002001EB800000EE100A704970
:10430000F7EE005AB8EE401A11EE100A884202DDAC
:10431000B1EE081A06E011EE100AB0F17E5F01DA84
:10432000B0EE651A67486849D0ED061A11EE900A9A
:104330009FED665A884202DDDFED651A06E011EE58
:10434000900A6449884201DAF0EE451A9FED622A2C
:10435000BDEEC14A82EE210A14EE100A9FED571AF3
:104360005549FEEE004A0628D1ED161A21EE812AA3
:10437000D1ED231A32EE611A71EEC22A61EE243AAF
:10438000B1EE611A71EE821A31EE421A62EEA42A7F
:1043900021EEA42A21EE243A1DD2DFE800F01C030E
:1043A000080D121763EE801A23EE000A17E063EE81
:1043B000001A20EEC00A12E062EE801A20EE800A97
:1043C0000DE060EEC01A23EE800A08E060EE801A6D
:1043D00022EE000A03E062EE001A22EE800A71EE7D
:1043E000800A35EE601AB5EEC01AF1EE10FA09D85F
:1043F00021EE851AC1EE201A85EEA01A61EE050A9B
:1044000020EE800A75EE610AB5EE001AF6EE002A7B
:1044100014EE100A70EEC00A062820EE811AF0EEA3
:10442000410A41EEA20A34D2DFE800F0330308115A
:10443000182CF0EE601AB0EE412A0CE0B0EE602AC3
:10444000F0EE411A00EE222AB0EE601A0CE0F0EE17
:10445000411AB0EE602A40EE220AF5E7F0EE601A4B
:1044600040EE221AB0EE602A92F81E01B0B1012887
:1044700007D19FED1A0A82ED170A82ED180A82ED24
:10448000190A7047F0EE601AB0EE412A40EE221A87
:10449000DAE7F0EE601A40EE220AE3E79FED100A39
:1044A00061EE800AC2ED170A62EE000A21EE000AF0
:1044B000C2ED180AE3E7000010240020D7B3DD3F67
:1044C0000000C040442500200000964417B7D138B2
:1044D0000000964417B7D138629E353900000000BD
:1044E000BE32A04C1C491D4891ED031A91ED040AFF
:1044F000D1ED060A61EE001A91ED050A40EE201A90
:10450000D0ED000A31EEE02ADFED151A42EE210A65
:10451000B0EE082AC0ED000ADFED120A134861EE82
:10452000200A20EE801ADFED100A00EE201A90ED2E
:10453000000AF0EE400A51EE020A00EEA10A80EDF8
:10454000000A0B48007F012801D0012000E0002074
:1045500081F81E017047000010240020F0000020A8
:104560000AD7A33B00B751B93EA8D53CF4000020C0
:104570004425002010B5154C154994ED1A0A10EE8B
:10458000100A884202DD9FED130A06E010EE100AC1
:104590001149884201DA9FED110A40F6FF709FED44
:1045A000101ADFED100A01F025FC0F4901EB800025
:1045B00000F5804100F5004091ED010A84ED1B0AF1
:1045C00090ED010A84ED1C0A10BD000010240020AB
:1045D000090FC940090FC94017B7D13817B7D138EB
:1045E0006C1CC93A000000009061000810B5154C21
:1045F000154994ED200A10EE100A884202DD9FED65
:10460000130A06E010EE100A1149884201DA9FED04
:10461000110A40F6FF709FED101ADFED100A01F04D
:10462000E9FB0F4901EB800000F5804100F50040F7
:1046300091ED010A84ED220A90ED010A84ED210A30
:1046400010BD000010240020090FC940090FC94007
:1046500017B7D13817B7D1386C1CC93A0000000021
:104660009061000810B5154C154994ED150A10EE2F
:10467000100A884202DD9FED130A06E010EE100AD0
:104680001149884201DA9FED110A40F6FF709FED53
:10469000101ADFED100A01F0ADFB0F4901EB8000AD
:1046A00000F5804100F5004091ED010A84ED240AF7
:1046B00090ED010A84ED230A10BD000010240020B3
:1046C000090FC940090FC94017B7D13817B7D138FA
:1046D0006C1CC93A00000000906100082848294A73
:1046E00090ED000AD2ED100A92F8240170EE600AF3
:1046F0009FED250A10B1B0EE601A01E0B0EE401A4D
:1047000092F81E0110B992F81B1119B382ED300A0C
:104710001E4B82ED130AF0EE401A93ED052A02EECD
:10472000200AD3ED060AF4EEC00AF1EE10FA08D31F
:10473000D3ED070AF4EEC00AF1EE10FA01DCF0EE58
:10474000400AC2ED120AB4EE600AF1EE10FA04D18A
:10475000012103E092ED300ADAE7002182F824110A
:1047600093ED040ADFED0A0A20EE010A40EE201A5A
:10477000C2ED301A00B1012082F81B017047000021
:10478000442500201024002000000000A400002088
:104790006F12033B024890ED130A80ED300A704718
:1047A0001024002010B500F00FF80548054990EDE1
:1047B0000A0A80ED070A91ED050A80ED080A10BD8E
:1047C0001024002044250020184810B590ED050A5B
:1047D000DFED170A20EE200A00F0BCFDBDEEC00A96
:1047E00014499FED151A10EE100AD1F8142191ED1D
:1047F0000A0A8000821A00EE902AF6EE001A104A89
:10480000F8EEE00A60EE810A9FED0C1A20EE811AA4
:10481000F0EE400A51EE210A92ED001A00EE810AF4
:1048200081ED0A0AC1F8140110BD000044250020E2
:1048300083F9224D10240020DA6F7537EBC9184137
:1048400060000020034890ED010A034880ED120A41
:10485000704700004425002010240020401EB0F1C5
:10486000807F01D3012070474FF0E0214861054A65
:10487000F02082F8140D00208861072008610020D4
:10488000704700000FE000E00348016811B10168C3
:10489000491E0160FDF7FCBC0400002030B593B058
:1048A00030216846FBF7CAFC14210CA8FBF7C6FCB4
:1048B0001D480025016841F080510160006800F04A
:1048C000805011901948016821F4404141F40041A1
:1048D00001600068022400F4404011900120039020
:1048E00010200490009406940820CDE9075054202D
:1048F000CDE9090404200B906846FDF74FFE08B18E
:1049000072B6FEE70CA90F2081E831004FF4805009
:10491000CDE90F0502210CA8FDF756FD002801D0B6
:1049200072B6FEE713B030BD403802400070004060
:104930000548016841F47001016003494FF00060CF
:10494000803908607047000088ED00E00148FEF7FC
:1049500036BA0000940100200148FEF730BA00008A
:104960009401002070B51B48FEF729FA4FF400416E
:104970001948FDF775FC194C194D0821A0702846FF
:10498000FDF76EFCE07029152846FDF769FC2071E3
:10499000A378E57804F10C0643EA450141EA800179
:1049A00021706278B154521CD1B20E4A617002F883
:1049B000243F557090700C480068406A062900EE4C
:1049C000100AB8EE400A02ED010A01D3002060701F
:1049D00070BD0000D4010020000002403A00002019
:1049E00000040240442500209402002010B5224C0F
:1049F0002068FBF70FFD9FED211B53EC112BFBF7FC
:104A000028FCFBF72DFD1F49DFED200ADFED1E1A04
:104A1000086094ED010A1E491E4AB8EE401AB0EE35
:104A2000600A01EE210A10EE100A81ED000A9042A0
:104A300001DAC1ED000A184A00211088401C00B2BA
:104A40001080B0F5FA5F00DD1180144A1088401C18
:104A500000B21080B0F5487F00DD1180104A108848
:104A6000401C00B21080A02800DD1180BDE810407D
:104A70000C48FEF7A4B900007803002093C83EC894
:104A8000B260923F18000020083DEB3E0000484411
:104A900034000020000048441200002010000020D4
:104AA000140000201402002010B580210348FDF7F7
:104AB000DCFBBDE810400248FEF781B9000402406B
:104AC00094020020F0B502681D4C1E4D1E4E1F4F73
:104AD0004FF0804CA04207D0604505D0A84203D0DB
:104AE000B04201D0B84203D122F070034A681A43A1
:104AF000A04210D060450ED0A8420CD0B0420AD0DF
:104B0000B84208D0124B984205D0124B984202D0BE
:104B1000114B984203D122F44073CA681A434B697F
:104B200022F080021A4302608A68C2620A688262C6
:104B3000A04201D10969016301214161F0BD00007A
:104B4000000001400004004000080040000C00404C
:104B500000400140004401400048014010B501F010
:104B60001F010123046A8B409C430462036A8A404C
:104B70001343036210BD10B501F01F010423046A42
:104B80008B409C430462036A8A401343036210BD56
:104B900010B5846842EA032224F47F440A43224386
:104BA000826010BD826822F070020A4342F0070161
:104BB0008160704730B5026A22F001020262036A26
:104BC0004268846924F073050C682C4323F00205C5
:104BD0008B682B430C4DA84206D123F00805CB6807
:104BE00043EA050323F0040307D14D6922F4407220
:104BF00045EA02058A6942EA050242608461496821
:104C00004163036230BD00000000014030B5026A1C
:104C100022F010020262026A436884690D6824F47B
:104C2000E64444EA05248D6822F0200242EA051297
:104C30000C4DA84206D1CD6822F0800242EA05124E
:104C400022F0400207D14D6923F4406343EA850313
:104C50008D6943EA85034360846149688163026228
:104C600030BD00000000014030B5026A22F48072BD
:104C70000262036A4268C46923F4007324F0730576
:104C80000C682C438D6843EA05230C4DA84206D1DD
:104C9000CD6823F4006343EA052323F4806307D13E
:104CA0004D6922F4405242EA05128D6942EA05122A
:104CB0004260C4614968C163036230BD00000140C5
:104CC00030B5026A22F480520262036A4268C46903
:104CD0000D6824F4E64444EA05248D6823F4005367
:104CE00043EA0533064DA84204D14D6922F48042BF
:104CF00042EA85124260C46149680164036230BDC2
:104D00000000014010B50268936823F070044B68FE
:104D1000234323F007040B68234393604A6812F08F
:104D20000F0F30D11211082A2DD2DFE802F02C2CFF
:104D30002C2C0B2127040B69D1E902210068FFF715
:104D400027FF20E00A68052A10D00268146A136A57
:104D500023F00103136202689369096923F0F003E9
:104D600043EA01119161006804620CE0012010BD6A
:104D70000A698968006800F008F804E00A6989682F
:104D8000006800F049F8002010BD10B5046A036AFD
:104D900023F001030362836923F0F00343EA021363
:104DA00024F00A020A438361026210BD70B5046AEE
:104DB00024F0010404628469056A124EB0420ED0E8
:104DC000B0F1804F0BD0104EB04208D00F4EB04221
:104DD00005D00F4EB04202D00E4EB04203D124F0A7
:104DE0000304144301E044F001041A0724F0F00422
:104DF00044EA126225F00A0301F00A0119438261B4
:104E0000016270BD00000140000400400008004045
:104E1000000C00400040014010B5036A23F010036D
:104E200003628469036A24F4704444EA023223F082
:104E3000A00343EA01118261016210BD10B5806BCD
:104E40000021C185C184FEF7D8F910BD70B5846B0F
:104E50002068406994F83910C0F3C010002521295A
:104E600004D118B1E584204600F062F8206840695A
:104E700094F83A10C0F38010222904D118B1E585C6
:104E8000204600F047F8E06B40F01000E063204659
:104E9000FEF7B3F970BD10B50146806B096809686B
:104EA000C90513D40021C1850168CA6822F4807243
:104EB000CA6001684A6922F001024A6101684A69D0
:104EC00022F040024A61202180F83A10FEF710FBE0
:104ED00010BD10B5806BFEF70CFB10BD10B5014680
:104EE000806B09680968C9050CD40021C184016878
:104EF0004A6922F080024A610068C16841F04001BD
:104F0000C16010BDFEF736FB10BD10B5806BFEF71B
:104F100032FB10BD0168CA6822F49072CA60016851
:104F20004A6922F001024A61202180F83A10704754
:104F30000168CA6822F0C002CA60202180F83910D6
:104F4000704710B590F83A10222901D0022010BD08
:104F50008168B1F5805F11D00169002901681FD017
:104F6000496801F07F03816A4A1C82620B70C18D1F
:104F7000491E0904090CC18518D02BE00269816A19
:104F8000002A0268526805D0D2B20A80816A491CA0
:104F90008162ECE7C2F308020A80816A891CF7E7A4
:104FA0004A68816A4B1C83620A70E0E70168CA683C
:104FB00022F02002CA600168CA6822F48072CA60C6
:104FC00001684A6922F001024A61202180F83A1002
:104FD000FEF78EFA002010BD2DE9F041044600686E
:104FE0000169E26821F4405111430161A16820691F
:104FF000E26901436069104301432068C26849F2D5
:105000000C639A430A43C26020684169A26921F493
:10501000407111434161E069192764253226B0F5DA
:10502000004F354A354920684FF0000806D08842C5
:1050300001D0904236D1FDF771FA35E0884201D0B7
:10504000904202D1FDF76AFA01E0FDF757FA616874
:105050004A18A0FB070148EB0803FBF7B7F8014625
:10506000B0FBF5F00201B1FBF5F06FF01803584307
:1050700001EB800006EBC000B0FBF5F000F0F8009B
:1050800002EB4002B1FBF5F0584301EB800006EB68
:10509000C000B0FBF5F000F0070021681044886004
:1050A000BDE8F081FDF72AFA01466068830F8200AF
:1050B000A1FB0701FBF78AF80146B0FBF5F06FF0A2
:1050C0001802504301EB800006EB0010B0FBF5F036
:1050D00000F0F002B1FBF5F002EB0012B1FBF5F0CD
:1050E0006FF01803584301EB800006EB0010B0FB93
:1050F000F5F000F00F00D0E700140140001001406F
:1051000090F83910212901D0022070478168B1F54B
:10511000805F016A0BD04A1C026202680978516004
:10512000C18C491E0904090CC1840ED017E00988FE
:105130000268C1F30801516001690029016A02D0C7
:10514000491C0162ECE7891CFBE70168CA6822F090
:105150008002CA600068C16841F04001C16000205F
:105160007047000010B50C48FEF748F80A4C20685C
:105170000068C043C0060DD40C2208490848FCF75B
:10518000DFFD0E2205492046FEF766F921686FF023
:105190001000086010BD0000D4020020140300209D
:1051A000080000202DE9F0474C4C00254C4BE188CD
:1051B0004C480126DFED4C2ADFF830C1DFF83081A2
:1051C000B2EE041ADFED4B0A90ED000ADFF82891E9
:1051D000DFF828A120EE220A494A2027BDEEC02A86
:1051E0009CED000A106B20EE010AFDEEC01A98ED4E
:1051F0000B0A20EE200ABDEEC01A99ED000A20EE3F
:10520000200AFDEEC00A9AED000A20EE220ABDEE49
:10521000C00AE9B3A1F5407CBCF1E70C1ED0491CE3
:10522000E18012EE101A198011EE901A598011EED9
:10523000101A998010EE901AD98010EE101A198168
:1052400080F8345082F83970106B80F835600A228B
:10525000BDE8F04722492A48FEF74CB912EE101A71
:10526000198011EE901A598011EE101A998010EEE3
:10527000901AD98010EE101A198122A1098859813B
:1052800080F8345082F83970106B80F8356000E097
:1052900007E00C2212491A48FEF72CF9E580BDE818
:1052A000F08719A1E6800988198012EE101A59803A
:1052B00011EE901A998011EE101AD98010EE901A02
:1052C000198110EE101A598180F8345082F8397023
:1052D000106B80F835600C22BAE700003A0000201D
:1052E000B0040020180000200000C842D8000020B0
:1052F0001024002000007A44DC0000201C00002064
:10530000D402002042420000414100004100080256
:1053100018BF04200A0E18BF40F001004FF07F4272
:1053200032EA010108BF40F00200012808BF052051
:1053300070470907090E002804DB00F1E02080F81F
:105340000014704700F00F0000F1E02080F8141DF9
:105350007047000010EE100AC0F3C7517F391729BB
:10536000A8BF7047DFED140A002970EE200A0DDA9D
:10537000F5EEC00AF1EE10FA1ADD0028A8BF0020F1
:1053800016DAB0F1004F18BF0C4811E00C4ACA40C1
:10539000104208BF7047F5EEC00AF1EE10FA07DDC3
:1053A000002804DA4FF4000323FA01F10844904383
:1053B00000EE100A70470000CAF24971000080BF79
:1053C000FFFF7F0010B52DED028BF0EE408A18EE46
:1053D000900AB0EE608A20F00040C0F1FF40C00F9C
:1053E00007D118EE100A20F00040C0F1FF40C00FB6
:1053F0002BD018EE101A18EE900AFBF7A3F800EE67
:10540000100A10EE100A6FEAD05010F0FF0F04BF20
:10541000BDEC028B10BD18EE900A00F0004110EEBA
:10542000100A00F00040814204BFBDEC028B10BDA9
:1054300018EE101A10EE100ABDEC028B61F31E007C
:1054400000EE900A30EE600A10BD18EE900A4FF0A0
:105450007F41B1EB400F1CBF18EE100A5FEA40001D
:10546000C7D1012000F08CFBBDEC028BBDE81040E1
:1054700000F05EBB10B510EE100A2DED068BB7EEF6
:10548000001A10EE901AB0EE418A0022A0F5000C2E
:10549000DFEDFE9A4FF00073BCF1FE4F4FF07F44FA
:1054A00003EB410C80F0B481BCF1804FC0F020824E
:1054B000F74901449FEDF73AB1F5005F40F2D4821D
:1054C00000F58021CB0C03F00F0101EE901AC3F31D
:1054D00007137F3BA0EBC350B8EEE12A00EE100AA1
:1054E0001A44DFEDED2AF0EE411A42EE221AF0EEF8
:1054F000613A70EE232A30EE632A12EE900A00F52C
:1055000000606FF30B0001EE900A73EEE13A33EEA8
:10551000804AC1EE223A22EE230A10EE100A00F56C
:1055200000606FF30B0000EE100A00EE612A00EE3F
:10553000442A62EE232A70EE221A21EEA12ADFED20
:10554000D73A02EE233A23EE023A20EE012A22EE67
:10555000811A03EE211A32EE010A10EE100A00F54C
:1055600000606FF30B0000EE100A72EE401A31EE8D
:10557000812A9FEDCB1A60EE011A9FEDCA1A20EE28
:10558000011A9FEDC90A02EE001A31EE810A10EEEF
:10559000100A00F500606FF30B0000EE100AC3481C
:1055A00071EEC01A31EE812A784400EBC10090ED13
:1055B000003AD0ED011A100101EE100AF8EEC12AEE
:1055C00032EE211A31EE001A31EE031A31EE221AB0
:1055D00011EE100A00F500606FF30B0009EE100ADF
:1055E00039EE621A31EE431A31EE400A30EE610AAA
:1055F00032EE40AA10EE900A002100F500606FF331
:105600000B0008EE900A084670EEE8AAFBF720F8B7
:1056100029EE280A00F00C01F0EEC00A10EE900A04
:10562000B0F18B4F0DDD10EE900AB4EB400F08D3B4
:1056300010EE100A4FF08B4262F31E0008EE900A43
:1056400013E069EE2A0A38EEAA1A4AEE010A30EE91
:10565000201A11EE100A00F500606FF30B0008EE3F
:10566000900A30EE680A70EE209A0C20FAF7F0FFEC
:1056700038EEA90AB5EEC00AF1EE10FA34BFFEEE1C
:10568000000AF6EE000A30EE800ABDEEC00A10EE07
:10569000100A011100EE101AF8EEC00A00EE100A0E
:1056A000B8EEC00A38EEC00A30EE290ADFED801AE3
:1056B0009FED801A00EE211ADFED7F1A7F4900F07E
:1056C0000F0040EE011A21EE800A794401EB8001BF
:1056D00091ED001A7A49794401EB8001D1ED001A6D
:1056E000784901EE801A794401EB8000764990ED0B
:1056F000000A31EE001AB0EEE00A10EE100A8842FD
:1057000015DA10EE100AB4EB400F10D39FED6F0ABC
:1057100030EE800ADFED6E0A20EE200A68EE010A04
:10572000BDEC068BBCEEC00A20EE200A10BD10EEC8
:10573000100A6849884243DA10EE100AB4EB400FB1
:105740003ED3BDEEE00A68EE010A10EE100A00EB4F
:10575000D0725110C90501F17E5100EE101AA0EB74
:105760006200C00560EE200A00F17E5000EE100AD3
:1057700060EE808A18EE900AB4EB400F0FD1022041
:1057800000F0FEF900F0DCF910EE101A18EE100A25
:10579000BDEC068B61F31E0000EE100A10BD18EE82
:1057A000900A400011D018EE900AFFF7AFFD0428D0
:1057B00008BF00F0CDF9B0EE680ABDEC068B10BD55
:1057C000F5EEC00AF1EE10FA0FD2022000F0D8F97F
:1057D00000F0BEF910EE101A18EE100ABDEC068BA0
:1057E00061F31E0000EE100A10BD022000F0C8F99F
:1057F00000F0A6F910EE101AB0EE480A10EE100AEA
:10580000BDEC068B61F31E0000EE100A10BD00BF58
:10581000BCF1804F6CD300BF00F1FF43B3F1FE4FEA
:1058200024D200BFB0EEC00A10EE100AC1F3C75375
:105830007F2B0DDB972BBFF63BAEC3F196034FF0EA
:10584000010C0CFA03F3A3F1010C1CEA010F08D0C0
:10585000012000F095F9BDEC068BBDE8104000F08A
:1058600067B90B4218BFBFEE008A21E643001CBF98
:105870004FF08073B3EB400F34D96FF01A02DFEDB5
:10588000161A20EE210A10EE100A27E00000000090
:10589000001080C0ABAAAA3E0000803D7EE24C3ED4
:1058A00000B03842D49AB8BB3BAA3842E8CB0000DB
:1058B000FC596337C9FF753A1872313D86CB000039
:1058C000BACB00002ACB00000000FC420000FE42E0
:1058D0000000004B000040430000004D10F0004F5E
:1058E000A0D1E5E5A0F50003B3F1FE4F21D2DFE53D
:1058F00003EB4103B3F1007F11D3F5EEC00AF1EEE3
:1059000010FA05D1430018BFB4EB400F76D883E7F7
:1059100001F0004141F0FC5100EE901A7CE7B3F138
:10592000807F06D210EE903AA3F5000300EE903A85
:1059300072E720F000426FF0FF4C604C02EB0C036A
:10594000A34210D321F000439C44A4450BD3B0F1F3
:105950007E5F18BF5FEA410C50D0B2F1FF4F98BF95
:10596000B3F1FF4F05D9BDEC068BBDE8104000F048
:10597000DBB8B0F1FF4F0FD0C1F3C7527F2A09DB6C
:10598000972A11DAC2F19602012303FA02F2531E9A
:105990000B4205D0002208E011F0004F55D128E05D
:1059A0000A4218BF012200D1022210F5000F13D0C5
:1059B00028B3B0F1004F26D010F1814F4FD04FF0F7
:1059C000FE42B2EB400F94BF01200020012202EB07
:1059D000E171884239D10CE011F0004F02D0012A68
:1059E00038D032E0012A02BF9FED350ABDEC068BAC
:1059F00010BD9FED340ABDEC068B10BD2FE011F0F9
:105A0000004F0CD121E0B1F1FF4F1ED011F5000F76
:105A100005D011F0004F15D00AB1012A08D002209C
:105A200000F0AEF8BDEC068BBDE8104000F072B897
:105A3000022000F0A5F800F06DF8BDEC068BB1EE89
:105A4000400A10BD0AB1012A04D0B0EE690ABDECCB
:105A5000068B10BDBDEC068B9FED1B0A10BDBDEC87
:105A6000068BB7EE000A10BD30EE410AB5EE001A03
:105A70009FED172A00EE413AB6EE001A60EE001ACA
:105A800000EE431A61EEC11A9FED101A20EE011AC2
:105A900020EE020A9FED0F2A01EE820A71EE001A33
:105AA00011EE900A00F500606FF30B0009EE100A8A
:105AB00031EE491A31EE00AA9CE50000FFFF3F00DD
:105AC000000080FF0000807F0000008000B0B8412F
:105AD000D49A38BB3BAAB84110B52DED028BB1EE7C
