:020000040800F2
:10000000202A0020A9010008B1010008B30100085E
:10001000B5010008B7010008B901000800000000A0
:10002000000000000000000000000000BB0100080C
:10003000BD01000800000000BF010008C150000819
:10004000C3010008C3010008C3010008C301000880
:10005000C3010008C3010008C3010008C301000870
:10006000C3010008C3010008C3010008C301000860
:10007000C3010008C3010008C3010008C301000850
:100080005510000861100008390B0008000000003E
:10009000000000000000000000000000C301000894
:1000A0008551000891510008C3010008C3010008F0
:1000B0009D51000825520008C3010008C301000833
:1000C000C3010008C3010008C3010008C301000800
:1000D000C3010008C30100089D590008000000008A
:1000E000FD110008C3010008C30100080000000062
:1000F000000000000000000000000000C301000834
:1001000000000000C3010008E1520008C30100081C
:1001100000000000000000000000000000000000DF
:100120006D100008C3010008C3010008C3010008E6
:10013000C3010008000000000000000000000000F3
:10014000000000000000000000000000C3010008E3
:10015000C3010008C3010008C3010008C30100086F
:10016000C3010008C30100080000000000000000F7
:10017000000000000000000000000000000000007F
:1001800000000000C30100080000000000000000A3
:10019000C3010008DFF80CD000F056FB0048004710
:1001A000195E0008202A00200648804706480047BC
:1001B000FEE7FEE7FEE7FEE7FEE7FEE7FEE7FEE717
:1001C000FEE7FEE769510008950100082DE9F05FA0
:1001D0000546002092469B468846064681464024B6
:1001E0001BE0284641464746224600F036FA534671
:1001F0005A46C01A914110D311461846224600F0C3
:100200001DFA2D1A67EB01084F46224601200021F6
:1002100000F014FA17EB00094E41201EA4F101046E
:10022000DFDC484631462A464346BDE8F09FD2B25D
:1002300001E000F8012B491EFBD270470022F6E7CF
:1002400010B513460A4604461946FFF7F0FF20464C
:1002500010BD2DE9FE4F804681EA0300C00F0C4619
:10026000009021F0004123F00045B8EB0200A941C5
:1002700005D24046214690461C460B46024623F0D6
:100280000040104347D0270DC7F30A00C3F30A51BB
:100290000290401A019040286BDAC3F3130040F437
:1002A000801B0098924620B10023D2EB030A63EB37
:1002B0000B0B01985946C0F14002504600F0BEF9C0
:1002C00006460D4650465946019A00F0D6F910EB05
:1002D00008006141002487EA115284EAE7731A4357
:1002E00040D0009A62B3019A012A4FEA075215DC06
:1002F000001B61EB02014FF0004202EA0752CDE918
:100300000042001C41F5801132462B4600F036FABF
:1003100003B0BDE8F08F40462146F9E7001B61EBD2
:100320000201001C41F5801300185B412018A2F562
:10033000001747EB030140EAD570B6196D4111E093
:100340006D084FEA360645EAC0754FEA0752001BB2
:1003500061EB0201001C41F5801149084FEA3000B1
:100360000019514132462B4603B0BDE8F04F00F072
:10037000F6B90098012240000023D0EB020263EBA3
:10038000E073009821464FEAE074B8EB000061EB9F
:100390000401E9E783F000435BE781F0004158E79F
:1003A0002DE9FE4F81EA030404F0004421F00041EE
:1003B00000944FF0000B23F0004350EA01045ED09C
:1003C00052EA03045BD0C3F30A54C1F30A552C4428
:1003D000A4F2F3340194A0FB0254C1F3130141F4DD
:1003E0008011C3F3130343F4801301FB024400FBA9
:1003F000034E840A970A44EA815447EA8357A4FBD0
:10040000076802958D0A05FB07854FEA932C04FBCC
:100410000C542705029D4FEA065847EA1637B5EBFC
:1004200008056EEB070C870E920E47EA811742EA29
:100430008312A7FB0201B6EB0B0164EB00042B0D4A
:1004400043EA0C335E1844EB1C50DA465146E7FB96
:100450000201C5F313044FEA0B3343EA14534FEA86
:100460000432019C43EA0603A4F10C040294009CAC
:10047000CDE900B400F082F903B0BDE8F08F0020B0
:100480000146F9E72DE9F04D81EA030404F0004B41
:1004900021F0004514464FF0000A23F0004150EAD5
:1004A000050220D054EA01021DD0C5F30A570246C6
:1004B000C5F31303C1F31300C1F30A5640F48015CA
:1004C00043F48013A7EB0608101BD64608F2FD384C
:1004D00073EB050002D308F1010801E092185B41BB
:1004E000B8F1000F03DA00200146BDE8F08D0020CE
:1004F0004FF48011064684460EE0171B73EB050788
:1005000005D3121B63EB050306434CEA010C4908B3
:100510004FEA300092185B4150EA0107EDD152EAF0
:10052000030012D082EA040083EA0501084305D0E3
:10053000101BAB4106D20122002306E000224FF03F
:10054000004302E06FF0010253101AEB06004CEB7F
:10055000085110EB0A0041EB0B01BDE8F04D00F033
:10056000FEB80EB540F2334102910021CDE90011F1
:100570000A460B4600F002F903B000BDC1F30A526F
:1005800010B5C1F3130140F2FF3341F480119A42D8
:1005900001DA002010BD40F233439A42A2F2334206
:1005A00003DC524200F059F810BD904010BD00F03D
:1005B000004230F000400AD0C10D01F56071C0F377
:1005C000160042EA0151C20840071143704700205B
:1005D0000146704730B5041E71F1000404DB4FF092
:1005E0000044404264EB0101141E73F1000405DB7A
:1005F0001C464FF00043524263EB04038B4208BF9A
:10060000824230BD01F0004330B421F0004150EA95
:10061000010206D00A0DA2F56072C1F31301002A8F
:1006200002DC30BC00207047440F44EAC104C10022
:10063000E01830BC00EBC25000F031B8202A04DBD7
:10064000203A00FA02F1002070479140C2F12003E5
:1006500020FA03F3194390407047202A04DB203A24
:1006600021FA02F00021704721FA02F3D040C2F1D2
:1006700020029140084319467047202A06DBCB1719
:10068000203A41FA02F043EAE07306E041FA02F34D
:10069000D040C2F12002914008431946704700291A
:1006A000A8BF7047401C490008BF20F001007047F8
:1006B00010B4B0FA80FC00FA0CF050EA010404BF58
:1006C00010BC704749B1CCF1200421FA04F411FAAE
:1006D0000CF118BF012121430843A3EB0C01CB1DF2
:1006E0004FEA00614FEA102042BF002010BC704763
:1006F00000EBC35010440029A4BF10BC7047401C3D
:10070000490008BF20F0010010BC7047F0B400F0B1
:10071000004221F0004120F00040CE0DC30DC1F396
:10072000160141F40001C0F316004C42154640F496
:100730000000761E09E010EB440002D582F0004272
:1007400040428842F7D840005B1EB342F9DA18B144
:10075000F0BC0021FFF7ACBF2846F0BC704710B5D5
:10076000141E73F1000408DA401C41F100019218D4
:100770005B411A4301D120F0010010BD2DE9F04D7D
:1007800092469B4611B1B1FA81F202E0B0FA80F2D2
:1007900020329046FFF752FF04460F4640EA0A0017
:1007A00041EA0B0153465A46084313D0114653EA17
:1007B000010019D0C8F140025046FFF74EFF054630
:1007C0000E46504659464246FFF738FF084305D0CB
:1007D000012004E020463946BDE8F08D00200543A5
:1007E00046EAE0762C4337430A986305E40AA0EB17
:1007F00008000022FD0A44EA47540A3002D50020CE
:100800000146E9E7010510196941DDE908450019CC
:100810006941BDE8F04DA2E730B5041E71F1000456
:1008200004DB4FF00044404264EB0101141E73F1FD
:10083000000405DB1C464FF00043524263EB040307
:10084000994208BF904230BD064C074D06E0E06873
:1008500040F0010394E8070098471034AC42F6D307
:10086000FFF79CFC04E3000824E3000870B58C1833
:1008700010F8015B15F0070301D110F8013B2A11B4
:1008800006D110F8012B03E010F8016B01F8016BA1
:100890005B1EF9D12B0705D40023521E0DD401F89D
:1008A000013BFAE710F8013BCB1A921C03E013F866
:1008B000015B01F8015B521EF9D5A142D8D300209B
:1008C00070BD0000F0B54F4E96F824400CB10121E8
:1008D00000E000214C4D2878012809D00027494A22
:1008E000B94212F8253F527804D003281DD101E007
:1008F0000127F4E70BB1012100E00021687801280D
:1009000005D00027B94204D003280ED101E0012709
:10091000F8E70AB1012100E00021A878012844D0BD
:100920000027B94252D0032850D0384896ED080A23
:10093000374980ED140A384ED1ED070A384F60EE82
:10094000801A90ED5C0A71EEC00A9FED320A80EECB
:10095000201A80ED151A90ED5D0A90ED5E2A31EEB9
:10096000400A32EE202AC0EE022AC0ED162A96ED89
:10097000000ADFED2A2AB0EE402A11EE222AD7ED36
:10098000002A0F4602EE220A86ED000A5E0006EB00
:1009900082062644F6B297ED000A072E10D2DFE851
:1009A00006F00F0609181B1E21000127B9E791ED7B
:1009B000012A01E091ED022A32EE000A80ED170AC9
:1009C000C0ED5C1A80ED5D1AC0ED5E0A6CB10120CD
:1009D0000CE091ED032AEFE791ED042AECE791EDAD
:1009E000052AE9E791ED062AE6E7002028700BB119
:1009F000012000E0002068700AB1012000E0002022
:100A0000A870F0BDF4250020E80000202824002074
:100A1000A4000020920A863F1001002066FCBE421E
:100A20006000002010B50146806B026C12F0500F80
:100A300005D0026CD20626D500F0BAFE10BD016CBE
:100A400041F40071016401688A6812F0405F17D1B7
:100A5000027EAAB9CA6A12F4700F02D08A685205DF
:100A60000ED44A6822F020024A60016C21F48071A1
:100A70000164016CC90403D4016C41F001010164FB
:100A800000F094FE10BD806BC26CBDE810400846BB
:100A9000104710B5806B40210164416C41F00401A6
:100AA000416400F085FE10BD10B5806B00F07FFE44
:100AB00010BD00001B481D4990ED080A1A48D0EDF2
:100AC000140AD0ED161A30EE600AD1ED070A20EEB6
:100AD000801A21EE011A21EE211AF6EE001A21EEFB
:100AE000211AD0ED151A21EE800A00EE201A90EDA1
:100AF000170AD1ED000A0E4931EE000A30EE200A45
:100B000010EE100A884202DD0A4803F09DB8B5EEE7
:100B1000C00A0848F1EE10FA01D203F09FB880ED48
:100B2000000A7047F425002028240020A40000209B
:100B3000DB0FC9400C0100202DE9F0416F4F01226D
:100B40002DED028B4021384601F07EFA6C4800689A
:100B5000406A6C4C00EE100A01216B48B8EE400A66
:100B600084ED080A00F097FC00EE100AB8EE400A87
:100B70009FED668A30EE480ADFED658A654D0221F9
:100B800020EE280A604885ED000A00F084FC00EEA3
:100B9000100A614E0321B8EE400A5B4830EE480A65
:100BA00020EE280A86ED000A00F075FC00EE100A1F
:100BB0005A48B8EE400A30EE480A20EE280A80ED86
:100BC000000A5748D0ED030AB8EE601ADFED550A67
:100BD000554921EE201A81ED001A90ED041A53496F
:100BE000B8EE411A21EE201A81ED001A90ED051A97
:100BF0004F485149B8EE411A61EE200AC0ED000A93
:100C00004C480068884205DA4C48D0ED000AC4ED33
:100C1000000A02E0884200DD2060D5ED000A484865
:100C2000C4ED020AD6ED000AC4ED030A84ED040AFD
:100C300090ED000A434884ED060A0078012802D1AD
:100C4000207703F04FFB404C6089401C80B26081EC
:100C5000052814D904F0C2FE3C480021618190EDC2
:100C6000000A3B4A208902EB8002401C82ED000A08
:100C700080B240F2CF722081904200D3218135486A
:100C800090ED000AFCEEC00A10EE901A8AB23249CA
:100C90000B685A63D0ED010A0B68BCEEE01A11EE46
:100CA000102A92B29A6390ED021A0968BCEEC11A3A
:100CB00011EE100A80B2C8639FED281A20EE010AD7
:100CC000BCEEC00A10EE100A81B2254802685163DA
:100CD00020EE810A0068BCEEC00A10EE101A89B23C
:100CE0008163094800F065FDBDEC028B3846BDE824
:100CF000F0410022402101F0A7B9000000040240A9
:100D0000AC020020F4250020640100200060FF44B4
:100D10000000843C1C000020200000202400002053
:100D2000900300209605933C280000202C00002012
:100D300030000020380000200000C84234000020AD
:100D4000180000203C0000203E0000200C01002084
:100D5000E8040020E8250020AC0100200000A743A3
:100D60002C020020464910B54A6822F440324A60FD
:100D70004A6843681A434A6001684A6822F48072EC
:100D80004A6001684A68036942EA03224A600168CE
:100D90004A6822F040724A6001684A6883681A43D0
:100DA0004A6001688A6822F400628A6001688A6881
:100DB000C3681A438A60816A6FF07062D142016829
:100DC0008A6822F070628A6001688A680CD0836A3F
:100DD0001A438A6001688A6822F040528A6001687A
:100DE0008A68C36A1A4301E022F040528A600168AF
:100DF0008A6822F002028A6001688A68037E42EAF9
:100E000043028A6090F82010002901684A680FD0D8
:100E100042F400624A6001684A6822F460424A6013
:100E200001684A68174C436A04EB43331A4301E0F4
:100E300022F400624A600168CA6A22F47002CA623F
:100E40000168CA6A838B104C04EB03531A43CA62CD
:100E500001688A6822F400728A6001688A6890F8E2
:100E6000303042EA43228A6001688A6822F4806254
:100E70008A6001688A68406942EA8020886010BD03
:100E80000023014000E0FFFF0000F0FF10B5FFF776
:100E900019FDBDE81040FFF70DBE00000C499FEDA5
:100EA0000D0A0D4BD1ED3D0A01F1B00030EE800A84
:100EB00010EE102A9A4201DD02F0C6BEB5EEC00A5D
:100EC000F1EE10FA01D202F0C9BE81ED2C0A704792
:100ED00028240020DB0F49C0DB0FC9400C499FEDDF
:100EE0000D0A0D4BD1ED3D0A01F1B00030EE800A44
:100EF00010EE102A9A4201DD02F0A6BEB5EEC00A3D
:100F0000F1EE10FA01D202F0A9BE81ED2C0A704771
:100F100028240020DB0F4940DB0FC9400B4890F824
:100F200038100B48012903D00A4991ED000A09E065
:100F300090F8B111032903D006D290ED2B0A01E0FD
:100F400090ED280A80ED1B0A704700006800002021
:100F5000282400200C0100200F48F6EE001A90ED26
:100F6000021A90ED030AD0ED040A0D4800EE611A52
:100F700000EEE11ADFED091A21EE211A80ED001AC8
:100F80009FED081A084820EE010A00EEC10A20EE83
:100F9000210A80ED000A7047F4250020EC05513F3E
:100FA00024010020D7B35D3F2801002000B5104B7D
:100FB000104993F9A401897841B1012908D002228E
:100FC00083F8A421904207D020B105E00022F7E782
:100FD0000122F5E703F0AAFF2AB1012A07D15DF843
:100FE00004EB04F04BB85DF804EB03F0F5BE00BD74
:100FF000282400206400002003484FF0FF3180F8CF
:10100000A41180F8A5117047282400200B489FEDFB
:101010000A0A0C4980ED000A09480078012801D02D
:1010200010B106E0084800E0084890ED000A81EDA4
:10103000180AFFF7BBBF00000000000014010020E9
:10104000E400002028240020EC00002010010020F3
:10105000FFF7D2BF014800F0A9BD000068040020DE
:10106000014800F0A3BD000008040020014800F082
:101070009DBD0000A803002001681823CAB2103AE1
:10108000B2FBF3F2054B6FF30901032A9B5CC365C6
:1010900000D9091D8165084670470000E06200081C
:1010A00010B5014600208B698A6A4FF0C07453B1B5
:1010B000B3F5005F15D072B1012A0CD0022A0AD014
:1010C000032A09D104E01AB1012A06D0022A03D169
:1010D000C96AC90100D5012010BDC96AA142FAD070
:1010E00010BD002AF7D0012AF2D0022AF3D0032A39
:1010F000F3D010BD30B50468256825F4802525603F
:10110000046863608368402B036803D099600068BB
:10111000C26030BD9A600068C16030BD0CB52F4A16
:101120002F489FED302A92ED3C0AD0ED000A92F84C
:10113000B00170EE601A10B992F8AE0108B182EDFC
:101140005B2A294B294892ED5B1A93ED010A01783D
:10115000274800EE211A002990ED060A694601A8E9
:1011600002D003F0E7FA01E003F0D2FA9DED010AA4
:101170002049B4EEC01AF1EE10FA06DC9DED000A2B
:10118000B4EEC01AF1EE10FA02D281ED000A01E0CD
:1011900081ED001A92F8BE0108B9F0EE421AD3EDC3
:1011A000000A92ED5B0A60EEA10ADFED131A00EE71
:1011B000A10A82ED5B0A92F8B00100B1012082F829
:1011C000AE0191ED000AB4EE401AF1EE10FA01D131
:1011D000012000E0002082F8BE010CBD2824002080
:1011E000F800002000000000C4000020640000207F
:1011F000F42500200001002017B7D138104910B5A0
:101200000120087000210F4801F098FE00210D48D0
:1012100001F058FB04210B4801F090FE042109481D
:1012200001F050FB0821074801F088FE082105481D
:1012300001F048FBBDE810404FF4005000F028BE1C
:101240003C000020AC01002072B6FEE710B5FFF7AD
:1012500083FE02F07FFB03F0CDFCFFF75FFE03F09F
:1012600081FD03F079FAFFF759FF154C154894ED0D
:10127000290AD0ED000A30EE200A84ED3C0A03F082
:101280008FFA02F0F5FC94F8B301401E022806D252
:1012900094ED260A84ED1C0A94ED270A07E00A481B
:1012A00090ED000A094884ED1C0A90ED000A84EDD7
:1012B0001D0A03F0E5FABDE8104002F06BBB000028
:1012C00028240020000100201C0100202001002013
:1012D000FFF7BCBF02F052BB70B590F83C20694CE0
:1012E000012A19D0012280F83C200A6807250368EA
:1012F000092A13D9DE680A3A02EB42029540AE434E
:10130000DE600A788B680A3A02EB42029340026878
:10131000D5682B43D36010E0022070BD1E6902EB3C
:1013200042029540AE431E610A788B6802EB42028E
:101330009340026815692B4313610268936B23F491
:10134000401393630268936B0D8A4F4E06EB05556D
:101350002B4393630A790B7CD21AD21C02EB8202D4
:101360001F2393400268956B9D4395630A790B7C1C
:10137000D21A0B88D21C02EB82029BB29340026805
:10138000956B2B4393638A69A2420268936823F4A6
:1013900070239360026893680CD08C692343936038
:1013A0000268936823F44013936002689368CC69E1
:1013B000234301E023F4401393604A7D002A02682E
:1013C000536802D043F4806301E023F480635360E8
:1013D0000A7D002A0268536802D043F4805301E07A
:1013E00023F4805353604A68012A16D0022A1FD082
:1013F000032A026827D0136A6FF30B031362026893
:10140000136ACC6823431362214B04681F4A9C4231
:1014100027D10C68122C20D023E0026853696FF3A7
:101420000B03536102685369CC6823435361EBE7B4
:10143000026893696FF30B03936102689369CC6848
:1014400023439361E0E7D3696FF30B03D361026831
:10145000D369CC682343D361D6E7546844F480044D
:10146000546004689C4208D10968102901D01129F0
:1014700003D1516841F400015160002180F83C1013
:10148000084670BD01000F000000F0FF002301407E
:1014900000200140704708B5002200920368521FE7
:1014A0001A60012911D002290CD0032906D0042981
:1014B00001D0009808BD0068806C01E00068406CB5
:1014C000009008BD0068006CFAE70068C06BF7E7A1
:1014D00018B50022009290F83C10012907D0012194
:1014E00080F83C1001688B68DB0702D011E0022015
:1014F00018BD8B6843F001038B602249224B0968B9
:10150000B1FBF3F101EB410100E0491E009100291C
:10151000FBD101688B68DB0726D0036C42F2010423
:10152000A34343F480530364036CDB0500D442649B
:1015300080F83C206FF004020A6014494968006892
:10154000C906816801F4401110D0C1B10021426880
:101550000F4B42F38022521C984205D121B11AB19F
:10156000816841F480018160002018BD29B100210B
:10157000426842F38022521CF0E70121F8E7012182
:10158000E5E700005C00002040420F00002301401E
:101590000020014018B50022009290F83C1001296B
:1015A00007D0012180F83C1001688B68DB0702D06E
:1015B00011E0022018BD8B6843F001038B602449C1
:1015C000244B0968B1FBF3F101EB410100E0491E36
:1015D00000910029FBD101688B68DB072BD0036CDD
:1015E00042F20104A34343F480530364036CDB051C
:1015F00000D4426480F83C206FF004020A60016865
:101600004A6842F080024A60134949680068C90686
:10161000816801F4401110D0C1B1002142680F4B24
:1016200042F38022521C984205D121B11AB181683F
:1016300041F480018160002018BD29B10021426879
:1016400042F38022521CF0E70121F8E70121E5E78F
:101650005C00002040420F000023014000200140B8
:1016600078B50024009490F83C20012A19D001227A
:1016700080F83C200A6807250368092A13D9DE6828
:101680000A3A02EB42029540AE43DE600A788B686C
:101690000A3A02EB420293400268D5682B43D360BA
:1016A00010E0022078BD1E6902EB42029540AE4375
:1016B0001E610A788B6802EB42029340026815694A
:1016C0002B4313614A681F25072A13D203685E6BF8
:1016D000521E02EB82029540AE435E630A8893B2CB
:1016E0000A79521E02EB820293400268556B2B432B
:1016F000536327E003680D2A12D21E6BD21F02EB40
:1017000082029540AE431E630A8893B20A79D21FC3
:1017100002EB820293400268156B2B43136311E0C6
:10172000DE6A0D3A02EB82029540AE43DE620A8821
:1017300093B20A790D3A02EB820293400268D56AAD
:101740002B43D362164B0568144A9D4206D10D689F
:10175000122D03D1556845F48005556005689D42FA
:1017600018D10B68102B01D0112B13D1536843F4FF
:1017700000035360096810290CD10A490A4A096814
:10178000B1FBF2F101EB8101490000E0491E00913B
:101790000029FBD180F83C40002078BD00230140A7
:1017A000002001405C00002040420F00704770475D
:1017B000704770B5044600680168C1F34002416893
:1017C000C1F3401152B349B3216CC90603D4216C53
:1017D00041F400712164816811F0405F17D1217ECE
:1017E000A9B9C16A11F4700F02D0816849050ED4FD
:1017F000416821F020014160206C20F48070206459
:10180000206CC00403D4206C40F00100206420460A
:10181000FFF7CCFF21686FF01200086020680168B4
:101820004268C1F38001C2F3C01289B382B3216C54
:10183000C90603D4216C41F400512164816811F47C
:10184000401F1ED1816B11F4401F02D081684905F1
:1018500017D44168490514D4816811F0405F10D154
:10186000217E71B9416821F080014160206C20F433
:1018700080502064206CC00503D4206C40F001002F
:1018800020642046FFF706FE21686FF00C00086018
:10189000206801684268C1F30001C2F3801271B18F
:1018A0006AB10068C0070AD0206C40F48030206420
:1018B000204600F046F821686FF0010008602068BB
:1018C00001684268C1F34011C2F3806200290DD063
:1018D000002A0BD0616C41F0020161646FF02005B9
:1018E00005602046FFF764FF2068056070BD70B595
:1018F00004004FF0000603D0206C002510B107E073
:10190000012070BD204600F01DF8656484F83C504D
:10191000206CC00610D4206C20F4885040F00200E7
:1019200020642046FFF71EFA6564206C20F0020058
:1019300040F00100206400E0012684F83C5030466D
:1019400070BD704770B586B0064614216846FEF734
:1019500075FC2849306888424AD12748002501682B
:1019600041F4807101600068234900F480701439EB
:101970000590086840F004000860086800F0040062
:101980000590086840F0010008600868032400F032
:10199000010005903F208DE831006946174800F0AE
:1019A00083FA13208DE831006946154800F07CFA6F
:1019B000154C1448C4E900050015A560C4E903509E
:1019C000800060618000A0618011C4E907052046A5
:1019D000656200F0BBF908B1FFF736FCB463002282
:1019E00002211220A66300F0A5FB122000F094FB58
:1019F00006B070BD0020014044380240000802409B
:101A00000000024010640240A8030020F8B5002343
:101A10000446009390F83C00012807D0012084F888
:101A20003C0020688568ED0702D011E00220F8BD77
:101A3000856845F0010585602E482F4D0068B0FB94
:101A4000F5F000EB400000E0401E00900028FBD1C4
:101A500020688568ED074AD0256C40F20166B543E1
:101A600045F4807525644068400505D5206C20F458
:101A7000005040F480502064206CC00404D5606C99
:101A800020F00600606400E0636484F83C30A36BDF
:101A90001B481A4DD863A36B1A481864A36B1A48E5
:101AA000D86423686FF0220018602068436843F010
:101AB000806343602068836843F4807383601346C7
:101AC00020680A46A66B00F14C01304600F0A8F9E8
:101AD0006868C006206802D00C49884207D1816836
:101AE00011F0405F03D1816841F0804181600020A6
:101AF000F8BD00005C00002040420F0000230140C0
:101B0000250A0008A90A0008930A000800200140DD
:101B100030B50223437103689C6844F001049C6063
:101B2000002304E0056851F823402C605B1C9342BD
:101B3000F8D30168096801224271084630BD10B52A
:101B4000040002D0607910B106E0012010BD002031
:101B50002071204600F004F801206071002010BDC3
:101B600008B500680649884208D10648016841F472
:101B700080510160006800F48050009008BD0000B2
:101B8000003002403038024090F83510022903D06E
:101B90008021416501207047052180F835100068DB
:101BA000016821F001010160002070472DE9F84330
:101BB00004464FF00009CDF8009063484FF41651E9
:101BC000A56D0068B0FBF1F72E6894F85C20082141
:101BD00001FA02F030420FD02068026852070BD59C
:101BE000026822F00402026094F85C008140A9605F
:101BF000606D40F00100606594F85C104FF00108E2
:101C000008FA01F0304208D021684969090604D574
:101C1000A860606D40F00200606594F85C100420DC
:101C20008840304208D021680968890704D5A86037
:101C3000606D40F00400606594F85C1010208840EE
:101C4000304218D021680968090714D5A8602068B7
:101C50000168490304D50068000308D5A16C07E0BA
:101C60000168C90503D4016821F008010160216CF5
:101C700009B12046884794F85C1020208840304203
:101C800031D021680968C9062DD5A86094F83500BF
:101C900005282068016806D0490347D5006800037D
:101CA0001DD4616C1CE021F01601016020684169BF
:101CB00021F080014161206C08B9A06C20B120683E
:101CC000016821F00801016094F85C103F20884011
:101CD000A86084F8349084F83580216D1FE0E16BB2
:101CE00009B120468847606D00282BD0606DC00781
:101CF00014D0052084F835002068016821F0010126
:101D000001600098401C0090B84203D82068006829
:101D1000C007F6D184F8349084F83580E16C00294E
:101D200010D001B02046BDE8F04308470168C9055E
:101D3000D5D4016821F01001016084F8349084F852
:101D40003580CCE7BDE8F8835C0000202DE9F04148
:101D5000044600F07FF905465CB1002684F8346043
:101D6000022084F835002068016821F0010101603B
:101D70000DE00120BDE8F08100F06CF9401B052862
:101D800005D920206065032084F83500F2E720683B
:101D90000068C007F0D121680A6820480240D4E9F1
:101DA00001031843D4E903352B43184363691843EF
:101DB000A3691843E3691843236A18431043626A0E
:101DC000042A03D1D4E90B231A4310430860206886
:101DD0004069656A20F0070128460D430127042861
:101DE0000CD1A06A0543E06A40B12046FFF758F9DC
:101DF00020B14020606584F83570BAE720684561FD
:101E00002046FFF739F994F85C203F21914081602A
:101E1000666584F835700020ACE700003F8010F064
:101E20002DE9F0410446866D90F834000025012824
:101E30000DD0012084F8340094F835700020012F73
:101E400007D084F8340002252846BDE8F08102203E
:101E5000FBE7022784F8357060652046FFF74AF9F2
:101E600094F85C103F208840B0602068016841F021
:101E700016010160206C20B12068016841F0080162
:101E800001602068016841F001010160DCE77047F2
:101E9000044910B50A68024202D00860FFF7F7FF54
:101EA00010BD0000143C01402DE9F84FDFF860B18F
:101EB00000224FF003094FF00F0A0BF1040E012529
:101EC0000B6895402B40AB4272D14C68012C05D079
:101ED000022C03D0112C01D0122C10D18668540092
:101EE00009FA04F7BE43CF68A740374387604468C8
:101EF000AC430D79C5F30015954025434560C46892
:101F0000570009FA07F58E68AC43BE402643C66009
:101F10004C68022C01D0122C12D1D40800EB840C96
:101F2000DCF820605407E40E0AFA04F826EA0806F2
:101F3000D1F8108008FA04F848EA0608CCF82080A6
:101F40000468AC430D7905F00305BD4025430560E9
:101F50004C68E40056D52F4C256845F48045256033
:101F6000246822F0030504F4804400942A4C2E19BE
:101F7000D6F808789407250F0AFA05F4A743274CEA
:101F8000A04201D1002415E0254CA04201D101243A
:101F900010E0244CA04201D102240BE0224CA042CC
:101FA00001D1032406E0214CA04202D1042401E027
:101FB00028E00724AC403C43C6F80848DBF8004062
:101FC0005D464E689C43F60300D51C432C60DEF84A
:101FD000004075464E689C43B60300D51C432C60F8
:101FE0000B4D08352C684E689C43F60200D51C4307
:101FF0002C60074D0C352C684E689C43B60200D50A
:102000001C432C60521C102AFFF459AFBDE8F88F16
:10201000003C0140443802400030014000000240D2
:102020000004024000080240000C02400010024080
:102030000069084000D001207047426931EA02027D
:1020400000D10904816170470AB1816170470904B8
:10205000FBE7000001488068704700005000002046
:102060000248816802781144816070475000002066
:102070000B4810B5016841F400710160016841F43A
:1020800080610160016841F480710160032000F00B
:1020900071F8042000F006F800F024F8002010BDCC
:1020A000003C024070B50D4D04464FF47A7128781B
:1020B000B1FBF0F00A490968B1FBF0F000F0FAFA60
:1020C00048B9102C07D200222146501E00F032F8E9
:1020D00000206C6070BD012070BD00005000002029
:1020E0005C0000200B4882B0016841F4804101602F
:1020F000006800F4804000900648001F016841F02D
:1021000080510160006800F080500090042002B00F
:1021100000F030B844380240002809DB00F01F020C
:10212000012191404009800000F1E020C0F8001139
:1021300070470000F0B40E4B1B68C3F30223C3F1D9
:102140000704042C00D904241D1D072D01D20023EF
:1021500000E0DB1E012606FA04F56D1E0D409D40D1
:102160009E40761E164045EA0601F0BC03F0EABC2C
:102170000CED00E0064A00F0070110684FF6FF037F
:10218000184040EA012003490843106070470000EE
:102190000CED00E00000FA052DE9F0470D460400C3
:1021A00065D0DFF81491D9F80000EFB200F00F000D
:1021B000A84207D289F80070D9F8000000F00F009B
:1021C000A84254D120683D4E810712D5400703D55F
:1021D000306840F4E05030602078000703D5306864
:1021E00040F4604030603068A16820F0F00008439F
:1021F00030602078C0072DD0304960680839012848
:1022000012D0022813D0032811D0096889070029A9
:102210002DDA316821F0030101433160FFF71AFF25
:10222000804641F2883A0EE009688903EFE70968C1
:102230008901ECE7FFF70EFFA0EB0801514502D939
:102240000320BDE8F0873068616800F00C00B0EB57
:10225000810FEFD1D9F80010484601F00F01A942D3
:1022600007D90770006800F00F00A84201D00120D4
:10227000E7E72078400705D53068E16820F4E050B2
:10228000084330602078000706D53068216920F4C3
:10229000604040EAC100306000F038F83168084A18
:1022A000C1F30311515CC840064908600648006844
:1022B000FFF7F8FE0020C4E7003C02400838024067
:1022C000E86200085C000020540000200448054932
:1022D00000680968044AC1F38221515CC840704714
:1022E0005C00002008380240F862000804480549F4
:1022F00000680968044AC1F34231515CC840704724
:102300005C00002008380240F8620008154810B54B
:10231000006810F00C01144813D0431004290FD0AA
:1023200008290ED10F4C241F216801F03F022168BB
:10233000490207D52068C0F38810A0FB030106E01E
:10234000184610BD2168C1F38811A1FB00010023CC
:10235000FDF73CFF2168C1F30141491C4900B0FB76
:10236000F1F010BD083802400024F4002DE9F84FC8
:10237000040075D02078DFF828A3C007AAF104056F
:1023800048D00AF104000168C1F38101012908D095
:102390000068C0F3810002280AD1DAF80000400288
:1023A00006D52868800335D560680028E1D031E083
:1023B0006068B0F5803F10D0B0F5A02F286810D02D
:1023C00020F480302860286820F48020286060682D
:1023D000A0B1FFF73FFE06460CE0286840F48030CD
:1023E000F4E740F480202860F7E7FFF733FE801B16
:1023F000642871D828688003F7D50BE0FFF72AFE20
:10240000064604E0FFF726FE801B6428F1D8286802
:102410008003F7D42078DFF88C9280074FF0000B10
:102420003DD59F48001D016811F00C0F08D00068D1
:10243000C0F3810002280AD1DAF80000400206D475
:102440002868800715D5E068012809D111E0E06807
:10245000B8B10121C9F80010FFF7FCFD064605E000
:102460001AE1FFF7F7FD801B0228C2D82868800711
:10247000F7D52868216920F0F80040EAC1002860FB
:102480000DE0C9F800B0FFF7E5FD064604E0FFF7F0
:10249000E1FD801B02281FD828688007F7D4207828
:1024A000000722D57E4F80486169703771B10121E4
:1024B0000160FFF7CFFD064604E0FFF7CBFD801B70
:1024C000022809D838688007F7D50EE0C0F800B0B8
:1024D000FFF7C0FD064605E082E0FFF7BBFD801B6D
:1024E00002287DD838688007F7D42078400765D562
:1024F0006B484FF000083C300068C0000BD46848BF
:102500003C30016841F08051016000684FF00108E3
:1025100000F080500090654F3868C0050FD43868CF
:1025200040F480703860FFF795FD064604E0FFF741
:1025300091FD801B022853D83868C005F7D5584F45
:10254000A0686C3701280FD00528386810D020F01B
:1025500001003860386820F004003860A068B0B12D
:10256000FFF778FD06460EE0386840F00100F4E71A
:1025700040F004003860F7E7FFF76CFD811B41F283
:102580008830814263D838688007F5D50DE0FFF7C1
:1025900061FD064606E0FFF75DFD811B41F28830D4
:1025A000814254D838688007F5D4B8F1000F05D0BF
:1025B0003B483C30016821F080510160A069B8B30C
:1025C0003749091D0968C1F38101022946D0022853
:1025D000584606D0C9F86000FFF73CFD044639E0D4
:1025E00035E04F46C9F86000FFF734FD064604E0C9
:1025F000FFF730FD801B022829D828688001F7D416
:10260000D4E907010843A16A294A490802EB0141BC
:10261000626A41EA8211084394F82C1040EA016191
:10262000CAF8001001203866FFF714FD044605E0E3
:1026300034E0FFF70FFD001B022808D8286880014E
:10264000F7D52BE0FFF706FD001B022802D9032077
:10265000BDE8F88F28688001F4D41FE00128F7D086
:10266000DAF80000E26900F48001914214D1226A94
:1026700000F03F0191420FD147F6C071626A0140FC
:10268000914209D1A26A00F44031914204D1E16A39
:1026900000F07060884201D00120D9E70020D7E720
:1026A0000438024000004742800E4742007000405C
:1026B0000000FFFF10B5401EB0F1807F01D3012064
:1026C00010BD4FF0E02460610F21601703F03AFA6B
:1026D0000020A06107202061002010BD70477047D6
:1026E00010B590F83C20012A22D0012280F83C202D
:1026F000CA688C6822F4407222434C6822F48062DB
:1027000022430C6822F4006222430C6922F48052B6
:1027100022434C6922F400522243C969002322F467
:1027200080420A4301684A6480F83C30002010BDB2
:10273000022010BD70B588B00D46040004D094F896
:102740003D00002618B107E0012008B070BD84F8F4
:102750003C60204600F04CF8022084F83D00211D2A
:10276000206802F0CBFDAB6829680322206802F0E4
:1027700039FF2068816921F00C018161206881693D
:102780006A68114381612068416841F080014160BD
:102790002068816821F0700181602068816841F0C3
:1027A000400181602068816821F007018160206814
:1027B000816841F0040181607020059604960696B8
:1027C000039602960090E86801906946206802F03E
:1027D00039FE2068416821F070014160206841683D
:1027E00041F050014160012084F83D000020ACE739
:1027F000704710B5044600680122002102F0CAFDAE
:102800002068816801F00701062903D0016841F0C2
:1028100001010160002010BD10B504460068C168C8
:1028200041F00201C16001220021206802F0B2FDE6
:102830002068816801F00701062903D0016841F092
:1028400001010160002010BD70B590F83C20012A04
:102850002CD0012580F83C50022280F83D200268EF
:102860005368946823F070060B6833435360104B31
:1028700002689A420ED0B2F1804F0BD00D4B9A42B3
:1028800008D00D4B9A4205D00C4B9A4202D00C4B0B
:102890009A4204D1496824F080031943916080F87A
:1028A0003D50002180F83C10084670BD022070BDEC
:1028B000000001400004004000080040000C0040FF
:1028C0000040014010B504460068042202F06FFD8C
:1028D0002068416C41F4004141642068816801F046
:1028E0000701062903D0016841F0010101600020C1
:1028F00010BD10B5040003D094F83D0010B107E0FE
:10290000012010BD002084F83C00204600F00CF8A7
:10291000022084F83D00211D206802F0EFFC012018
:1029200084F83D00002010BDF0B587B004461421A6
:102930006846FDF783FC504A206800244F49022670
:1029400001254F4F90422AD14C481430026842F082
:1029500001020260006800F001000590086840F084
:10296000010008600868CDE9025400F001000590FC
:102970004020CDE90006694604953846FFF794FAF1
:10298000012200211820FFF7D5FB1820FFF7C4FB18
:10299000002211461920FFF7CDFB19204AE0374AE3
:1029A0001032B0F1804F11D03649884246D11068BC
:1029B00040F0020010601068002200F00200059054
:1029C00005211D20FFF7B6FB1D2033E0106840F005
:1029D00001001060106800F001000590086840F0E8
:1029E00002000860086800F002000590086840F0E6
:1029F000010008600868694600F0010005904FF486
:102A000081600090CDE901641F48CDE90345FFF7DF
:102A10004BFA4FF400400090CDE901646946384616
:102A2000CDE90345FFF740FA002203211C20FFF700
:102A300081FB1C20FFF770FB07B0F0BD13498842F3
:102A400008D1106840F004001060106800F0040025
:102A50000590F1E70E498842EED1106840F0080079
:102A600010601068002200F0080005900721322055
:102A7000FFF760FB3220DDE7000001403038024004
:102A80000000024000040040000402400008004032
:102A9000000C00400168CA6842F00102CA60006888
:102AA000816801F00701062903D0016841F00101A6
:102AB00001600020704770B5044690F83C00012882
:102AC00017D0012584F83C50022084F83D0020688E
:102AD000826822F0770222F47F42826008685028E0
:102AE00030D00DDC20284DD005DC98B310283BD128
:102AF00048E0022070BD302844D0402834D139E06D
:102B0000602828D0702806D0B0F5805F2CD0B0F5B2
:102B1000005F29D10AE0CB68D1E90121206802F0E9
:102B200053FC2068816841F0770109E0CB68D1E966
:102B30000121206802F048FC2068816841F480414E
:102B4000816011E0CA684968206802F03AFD5021AE
:102B5000206807E016E0CA684968206802F078FD3E
:102B60006021206802F03AFC84F83D50002084F88F
:102B70003C0070BDCA684968206802F022FD40210F
:102B80002068EFE7226801461046EBE7704770B512
:102B90000446006801694FF00005C943890715D450
:102BA000C168C943890711D4E91E0161012020775A
:102BB000206880698007204602D0FFF7E7FF04E025
:102BC00000F019F9204600F0B7F92577206801696F
:102BD000C943490717D4C168C943490713D46FF0E3
:102BE00004010161022020772068806910F4407F91
:102BF000204602D0FFF7CAFF04E000F0FCF82046B0
:102C000000F09AF9257720680169C943090716D4AD
:102C1000C168C943090712D46FF00801016104209B
:102C200020772068C0698007204602D0FFF7AEFFFA
:102C300004E000F0E0F8204600F07EF925772068F7
:102C40000169C943C90617D4C168C943C90613D469
:102C50006FF010010161082020772068C06910F42E
:102C6000407F204602D0FFF791FF04E000F0C3F858
:102C7000204600F061F9257720680169C943C9073A
:102C800008D1C168C943C90704D1891E0161204622
:102C900000F070F920680169C943090609D4C168C8
:102CA000C943090605D46FF0800101612046FFF792
:102CB00015FD20680169C943490609D4C168C943A3
:102CC000490605D46FF040010161204600F07CF90F
:102CD00020680169C94389060BD4C168C9438906C4
:102CE00007D46FF0200101612046BDE87040FFF776
:102CF000F6BC70BD70B586B0044614216846FDF779
:102D00009DFA224B2268002021490224214D9A423B
:102D100024D1086840F001000860086800F0010054
:102D20000590086840F0020008600868012600F07D
:102D3000020005904FF4F060CDE900040294CDE963
:102D4000034669461448FFF7AFF80320CDE90004B5
:102D50000294CDE903466946284612E00F4B9A4299
:102D600011D10A6842F002020A60096801F002010A
:102D7000059130210091CDE90140CDE90304694678
:102D80002846FFF791F806B070BD00000000014032
:102D900030380240000402400000024000040040BD
:102DA00070B5044690F83C0001280DD0012584F848
:102DB0003C50022084F83D0042B1042A0AD0082A7F
:102DC0000CD00C2A11D10DE0022070BD206802F059
:102DD0000DFB0AE0206802F035FB06E0206802F0F7
:102DE0005FFB02E0206802F087FB84F83D50002082
:102DF00084F83C0070BD704710B5040003D094F80F
:102E00003D0010B107E0012010BD002084F83C0017
:102E1000204600F00CF8022084F83D00211D2068B7
:102E200002F06CFA012084F83D00002010BD7047CC
:102E300070B5044690F83C000D4601280DD00126DF
:102E400084F83C60022084F83D0042B1042A18D086
:102E5000082A2AD00C2A4DD139E0022070BD206802
:102E600002F0C4FA2068816941F00801816120689C
:102E7000816921F004018161206881692A69114317
:102E800011E0206802F0DEFA2068816941F40061F7
:102E900081612068816921F4806181612068816994
:102EA0002A6941EA0221816124E0206802F0F8FAEF
:102EB0002068C16941F00801C1612068C16921F041
:102EC0000401C1612068C1692A69114311E02068C9
:102ED00002F012FB2068C16941F40061C161206801
:102EE000C16921F48061C1612068C1692A6941EA30
:102EF0000221C16184F83D60002084F83C0070BD6F
:102F000010B5040003D094F83D0010B107E0012093
:102F100010BD002084F83C00204600F00CF8022090
:102F200084F83D00211D206802F0E8F9012084F8B2
:102F30003D00002010BD70477047000010B50446EA
:102F40000068012202F026FA09492068884203D16C
:102F5000416C41F4004141642068816801F007013F
:102F6000062903D0016841F001010160002010BD75
:102F700000000140704770B5044690F83C000128FD
:102F800010D0012584F83C50022084F83D002046F2
:102F900002F0D4FA002138B184F83D5084F83C1096
:102FA000012070BD022070BD2068C26822F040027E
:102FB000C2602068C26822F48042C26084F83D503A
:102FC00084F83C10002070BD7047704770B50268EF
:102FD00004461068D168536910F00F0F52D003F007
:102FE000010501F490762E435FD0C20705D0CA05D3
:102FF00003D5E26B42F00102E263420705D5DA072E
:1030000003D0E26B42F00202E263820705D5DA07E1
:1030100003D0E26B42F00402E263020707D501F03D
:1030200020022A4303D0E26B42F00802E263E26B23
:10303000002A33D0800604D5880602D5204602F047
:103040009CFB20684069E16BC0F38010090700D445
:1030500028B3204602F07AFB2068416949061AD558
:10306000416921F040014161606BA0B11B490165DC
:10307000606BFEF789FD002810D0606B016DBDE824
:1030800070400847830610D58B060ED52046BDE854
:10309000704002F072BB2046FFF797FF70BD2046DC
:1030A000FFF793FF0020E06370BD030606D50B0613
:1030B00004D52046BDE8704002F03EBC4006F3D582
:1030C0004806F1D5D168204621F04001D160202189
:1030D00084F8391000F036F970BD0000755600080C
:1030E00070B5040004D094F83900002510B106E052
:1030F000012070BD84F83850204600F023F82420C9
:1031000084F839002068C16821F40051C16020466C
:1031100002F07EFB2068016921F490410161206882
:10312000416921F02A0141612068C16841F40051E0
:10313000C160E563202084F8390084F83A0000205B
:1031400070BD00002DE9F04186B0044614216846A8
:10315000FDF774F82E492068884256D12D48002585
:10316000016841F400310160006800F4003005900E
:1031700028481038016841F0010101600068694683
:1031800000F0010005900C2000900220CDE901051F
:1031900003200390072004901F48FEF785FE204E71
:1031A0001E484FF00067E6E8020740204FF48068B1
:1031B000A6E821011A4846F81459B561F56135624F
:1031C0007562FEF7C3FD08B1FEF73EF82663B463EF
:1031D0001248144E18383060C6E90175C6E9035824
:1031E0007561B561F561356230467562FEF7AEFD19
:1031F00008B1FEF729F86663012206212620B46390
:10320000FEF798FF2620FEF787FF06B0BDE8F081A5
:10321000004400404038024000000240A0600240EC
:10322000080400206804002037B5044690F83A00EE
:1032300082B0134620283AD1039AAAB3A3B394F8D4
:103240003800012833D0012084F83800A262A38519
:103250000025E563222084F83A00616B1548C863B5
:10326000616B15480864616B1448C864606B056540
:103270002168606B091DFEF7D3FD20680168416875
:10328000009184F83850C16841F48071C1602068B1
:10329000416941F0010141612068416941F040010B
:1032A0004161002005B030BDFFE70120FAE70220B0
:1032B000F8E70000CF5600080B57000885560008B5
:1032C00070477047F7B5044690F83900202831D18F
:1032D000019969B362B394F8380001282AD001201B
:1032E00084F838002162A284E2840025E56321206D
:1032F00084F83900236B1048D863236B0F48186497
:10330000236B0F48D864206B134605652668206B35
:10331000321DFEF785FD21686FF04000086084F8DB
:1033200038502068416941F0800141610020FEBDB4
:103330000120FEBD0220FEBD1557000843570008BE
:1033400085560008704770472DE9F0412DED0E8B32
:1033500000F06AFAF84C94ED4A0A84ED240A94EDE0
:103360004B0A84ED250A94F8B301012812D00228F3
:1033700012D0032812D0032090B1012816D00228C1
:103380007ED194ED3D0AED4910EE100A884213DA21
:10339000012012E00020EFE70120EDE70220EBE73B
:1033A000BDEC0E8BBDE8F04100F0FEBABDEC0E8B1B
:1033B000BDE8F04101F00CB8002000EE900A40F6A4
:1033C000FF763046F8EE600A20EE80BA9FEDDC9A78
:1033D000B0EE491ADFEDDB9AB0EE4B0AF0EE690A67
:1033E00002F04EFED84DD94F05EB800090ED000A5B
:1033F000D7ED040A20EE200A84ED290AD4ED4DAA67
:103400009FEDD3AA94F8A80140EE0AAA08B1C4ED32
:103410004E9A97ED030AD7ED0D0AB6EE002AB0EEEC
:10342000401A00EE820A4FF0165110EE100ADFED3E
:10343000C92A884201DCB0EE620A9FEDC7DA94ED3A
:103440004E3A94F8A90120EE0D0A60EE001A21EE22
:10345000838A08B1C4ED4F9ADFEDC01A94ED4F3A5C
:1034600094F8AA0120EE210A60EE038A08B1C4EDA7
:10347000509AB0EE410A00EEC20A10EE100A00E0C7
:10348000BAE1884201DCB0EE620A94ED501A20EEF7
:103490000D0A94F8AB0160EE000A20EE81CA08B173
:1034A000C4ED519A20EE210AD4ED510AAC4960EEE8
:1034B00020BA94ED520A10EE100A84ED3D0A8842BB
:1034C00002DD9FEDA80A06E010EE100AA649884228
:1034D00001DA9FEDA60A3046B0EE491AF0EE690A0D
:1034E00002F0CEFD05EB800000F5804191ED000A71
:1034F0009F49D1ED000A20EE200AD0ED000A9D4838
:1035000090ED001A94F8AC0101EE600A30EE4C0A1E
:1035100070EE6BBA3BEEC80A70EE68CA08B1C4ED33
:10352000539A94ED530ADFED940A94F8AD0120EE1E
:10353000209A08B1C4ED549A97ED030AB0EE49CA37
:1035400020EE0D0A20EE2A0A10EE08CA94ED540A65
:10355000DFED8A0A97ED0A1A894900EE60CAD7EDB5
:10356000090AB0EE000A20EE800A20EE011A94ED5E
:10357000550A01EE090A10EE100ADFED821A824A9E
:103580009FED822A884202DD30EE618A08E010EE6B
:10359000100A904202D8B0EE698A01E030EE428A09
:1035A000B5EEC08AF1EE10FA01D0012500E0002549
:1035B000B5EEC08AFFEE00DAB7EE00EAF1EE10FADF
:1035C000DFF8CC8102D2B0EE6D1A11E0B5EEC08A00
:1035D000F1EE10FA02DDB0EE4E1A09E0B5EEC08A47
:1035E000F1EE10FA02D1B0EE691A01E098ED001A7E
:1035F00060EEA00ABDEEC11A60EE898A11EE100AD3
:1036000046B210EE100A884202DDB0EE610A05E013
:1036100010EE100A904201D9B0EE420A94ED568A9B
:103620005C4870EE480A90ED001A00EE818ADFEDEA
:103630005A0A68EE200AC4ED2A0A94ED579A00EE61
:103640000A9A01F089FC94ED4C0A84ED2B0A94F857
:10365000B101032805D2D4ED3D0A30EEC00A84ED55
:103660002D0A4E49D4F8B40042184D498A4202D27C
:10367000FDF714FC0AE04B4A1044884202D2FDF7E1
:103680002DFC03E094ED3D0A84ED2C0A97ED030A2E
:10369000F0EE4D0A20EE201ADFED431A002781EEEE
:1036A000210A30EE0B0A84ED3D0A94ED2C0A84EDDC
:1036B000280AC4ED4DAA94ED4E1A94ED4F0A00EE7F
:1036C0000A1A0CEE8A0A84ED4E1A84F8A87184ED69
:1036D0004F0A84F8A97194ED501A94ED510A00EE46
:1036E0000A1A0BEE8A0A84ED501A84F8AA7184ED46
:1036F000510A84F8AB71B0EE490A04F5C87402F0BF
:103700004DFD04ED120A54ED110A14ED100AF5EE08
:10371000C08A40EE0A0A0CEE0A0A44ED110A277725
:1037200004ED100AF1EE10FA6777A4F5C8743DD2E3
:10373000B0EE6D1A4CE0000028240020DB0FC940D9
:103740006C1CC93A000000000463000868000020F7
:1037500017B7D13800008025DB0FC940F4FDB43F16
:10376000A907C940A907C9406F12833A6F12833A6B
:10377000280100202401002006C4C048511C5E44DA
:10378000E8659948E8659948E86599C8E86599C881
:103790004001002060000020EBC99840CCCC4CC018
:1037A000CCCCCC00CCCC4C4000401C46F5EEC08AC2
:1037B000F1EE10FA02DDB0EE4E1A09E0F5EEC08A25
:1037C000F1EE10FA02D1B0EE691A01E098ED001A9C
:1037D00045B1BDEEC10A10EE100A40B2864201D1D9
:1037E000F0EE698A94ED550A08EE8A0A84ED550ACE
:1037F00084ED568A84ED579ABDEC0E8BBDE8F081BE
:10380000074890ED000A074880ED4A0A90ED400A0B
:1038100080ED4B0A90ED2E0A80ED4C0A70470000B7
:10382000F8000020282400202DE9F041414C2DED26
:10383000068BD4F8A001411C02D0401CC4F8A001A2
:1038400094F8B90100269FED3C8B012168B194F8F2
:10385000BA0102259FED3AAB9FED3B9B3C4F0128FF
:1038600011D00326022861D13CE084F8B91184F814
:10387000BA11C4F8A06184F8B31184ED0C8BBDECCF
:10388000068BBDE8F08184F8B3117868FCF78FFEF1
:1038900053EC1A2BFCF7F6FD53EC192BFCF77AFDD1
:1038A00041EC100B02F060F951EC100BFCF766FED6
:1038B000D4F8A0118842E2D897F838000128DED168
:1038C00094ED0C0B53EC182B51EC100BFCF782FE13
:1038D000D5D184F8BA51C4F8A06184F8B35184ED0D
:1038E0000E8BCCE784F8B351F869FCF760FE53EC1B
:1038F0001A2BFCF7C7FD53EC192BFCF74BFD41ECE1
:10390000100B02F031F951EC100BFCF737FED4F834
:10391000A0118842B3D894ED0E0B53EC182B51EC48
:10392000100BFCF757FEAAD184F8BA6184F8B36192
:10393000A5E7000028240020000000000000F03F60
:103940002D431CEBE2361A3F11EA2D819997713D08
:103950006800002007494FF0FF3091F83810012926
:1039600000D100200449002881F8A70101D1FFF708
:10397000EBBC704768000020282400200448FF2189
:10398000B7EE000A80F8A71180ED550A70470000D5
:1039900028240020034890F8A701002801D1FFF750
:1039A0002FBF70472824002070B5974C97492DED04
:1039B000048BD4F86801884201DA012000E000207D
:1039C00000EE100AD4ED5F0AB8EE400A20EE200A9D
:1039D00084ED390A01F01CF98D48D4ED400A90EDD0
:1039E000020A60EE200AC4ED260AD4ED3B0A20EE5E
:1039F000200A84ED270A90ED000ADFED860A60EECA
:103A0000200A9FED851AD4F89401012680EE810AE0
:103A1000D4ED390A401C814DC4F89401012830EEE0
:103A2000209A12D9D4ED600A95ED020A40EE000A00
:103A300000EE100AB8EE401AC4ED600A80EE810A6A
:103A400002F0AEF9F0EE408A0AE008B9C4F89461D9
:103A500095ED020A60EE000AF0EEC08AC4ED600A3D
:103A6000D4F89801401CC4F89801012814D994EDA9
:103A7000610AD5ED030A00EEA00A00EE900AB8EE46
:103A8000601A84ED610AC0EE010AB0EE600A02F02D
:103A900087F9B0EE408A0AE008B9C4F8986195ED5C
:103AA000030A60EE000AB0EEC08AC4ED610AD4F8E1
:103AB0009C01401CC4F89C01012812D994ED620AB3
:103AC000D5ED040A00EEA00A00EE900AB8EE601AE6
:103AD00084ED620AC0EE010AB0EE600A02F060F9FD
:103AE0000AE008B9C4F89C6195ED040A60EE000A8A
:103AF000B0EEC00AC4ED620AF4EEC08AF3EE0E0A1C
:103B0000F1EE10FA0DDDB4EEC80AF1EE10FA08DDA0
:103B100030EE480A78EEC81A80EE211A21EE200A0B
:103B20003BE0B4EEE80AF1EE10FA0DDDF4EEC88ADF
:103B3000F1EE10FA08DD30EE681A30EE480AC1EEF8
:103B4000001AB0EE600A11E0B4EEC80AF1EE10FA05
:103B50000FDDB4EEE88AF1EE10FA0ADD38EE681AED
:103B600030EE680AC1EE001A9FED2D0A01EEA00AA0
:103B700013E0B4EEC08AF1EE10FA1FDDB4EEE80AED
:103B8000F1EE10FA1ADD38EE400A78EE681A80EE8F
:103B9000211A9FED240A01EE200A84ED3A0A94EDE1
:103BA0003A0ADFED210A20EE200A84ED400A84ED76
:103BB0005A9A84ED5F9ABDEC048B70BDB4EEE88A2E
:103BC000F1EE10FA0DDDF4EEC08AF1EE10FA08DD28
:103BD00038EEC01A38EE400AC1EE001A9FED130A03
:103BE000C4E7F4EEC88AF1EE10FAD8DDB4EEC08A6C
:103BF000F1EE10FAD3DD38EEC81A38EEC00AC1EE85
:103C0000001A9FED0B0AB1E728240020DB0FC94002
:103C100068000020DB0FC94000401C46F42500204E
:103C2000000070420000B44235FA8E3C0000F042C1
:103C300000001643DFED030A30EE600A80ED000A53
:103C400070470000DB0FC940DFED030A30EE600A69
:103C500080ED000A70470000DB0FC940DFED030A6A
:103C600030EE200A80ED000A70470000DB0FC940EB
:103C70000C4890ED3C0AD0ED1E0A90ED1F1A0A4840
:103C800020EE202A20EE010AD0ED001A074801EEAE
:103C9000C12A01EEA00A80ED002A054880ED000A45
:103CA0007047000028240020F40000201C010020A0
:103CB000200100202DE9F0438DB0002400940194F0
:103CC0000294202104A80394FCF7B8FA454844491B
:103CD000012501604FF480310561C0E901140476CB
:103CE00080F820400903C1624FF00609C0F81C901B
:103CF0004FF01061C460816280F830504461FDF77C
:103D0000F6FD08B172B6FEE70095CDE901546946AB
:103D10003448FDF7A5FC08B172B6FEE704274FF062
:103D20000208CDE9007869462E48FDF799FC08B1F4
:103D300072B6FEE70C200326CDE900066946294845
:103D4000FDF78EFC08B172B6FEE70D20CDE9000745
:103D500069462448FDF784FC08B172B6FEE70E20E0
:103D600000900520019069461E48FDF779FC08B1D6
:103D700072B6FEE70F20CDE9000969461948FDF744
:103D80006FFC08B172B6FEE7CDE90445164806940B
:103D9000CDE90A048DF8255008968DF8244004A931
:103DA00010480794FDF798FA08B172B6FEE70B20A9
:103DB000CDE9040804A90B48FDF78EFA08B172B6E4
:103DC000FEE70A20CDE9040604A90648FDF784FAB7
:103DD000002801D072B6FEE70DB0BDE8F083000008
:103DE000002001406401002001000F00154808B5C3
:103DF000016841F480010160016801F480010091D3
:103E0000016841F4001101600068002200F4001014
:103E1000009011461020FEF78DF91020FEF77CF976
:103E2000002205211120FEF785F91120FEF774F913
:103E3000002211463820FEF77DF9BDE80840382001
:103E4000FEF76AB93038024030B587B014216846B1
:103E5000FCF7F4F922480024016841F004010160F4
:103E6000016801F004010591016841F080010160E1
:103E7000016801F080010591016841F001010160D4
:103E8000016801F001010591016841F00201016042
:103E90000068144D00F0020005900122C021284660
:103EA000FEF7D2F84FF4005000900F48CDE901041E
:103EB00069460E48FDF7F8FFC02000900120CDE9CB
:103EC0000104694628460394FDF7EEFF0022032112
:103ED0002820FEF72FF92820FEF71EF907B030BD85
:103EE0003038024000040240000021100008024067
:103EF00070B59AB0002414941594169414210FA848
:103F00001794FCF79BF918941C2168461994FCF748
:103F100095F9202107A8FCF791F93E483C49C0E9F2
:103F200000142021816041F26801C0E903140121DD
:103F3000C0E90514FEF7DDFC08B172B6FEE74FF4E8
:103F4000805514A933481495FEF7B5FD08B172B633
:103F5000FEE73048FEF7D4FF08B172B6FEE7062050
:103F6000CDE90F040FA92B48FFF705F808B172B689
:103F7000FEE770268020CDE9186018A92548FEF7D5
:103F800063FC08B172B6FEE76020CDE9000402943C
:103F9000039404940594002269461E480694FEF793
:103FA00047FF08B172B6FEE7042269461948FEF7DA
:103FB0003FFF08B172B6FEE7082269461548FEF7D2
:103FC00037FF08B172B6FEE741F26700CDE9006045
:103FD0000C2269460F48FEF72BFF08B172B6FEE7C8
:103FE0004FF4006007904010089080100990662000
:103FF0000A90CDE90B5407A906480E94FEF770FB12
:1040000008B172B6FEE70348FEF774FE1AB070BD41
:1040100000000140AC01002010B58AB000241F4808
:1040200000940194029403940494059406940794D4
:1040300008944FF0804109940160D121C0E9011436
:10404000611EC1604FF4007184610161FEF751FC93
:1040500008B172B6FEE74FF48050009069460F48F1
:10406000FEF729FD08B172B6FEE7049405940694A4
:1040700004A90A480794FEF75DFB08B172B6FEE793
:104080005020CDE9080408A90448FEF7DDFB00280C
:1040900001D072B6FEE70AB010BD0000EC010020AE
:1040A00010B58EB000240794089409940A940B94D8
:1040B0001C2168460C94FCF7C1F823482149C0E94B
:1040C00000142021816040F63401C0E903148461AA
:1040D000FEF70FFC08B172B6FEE74FF48050079070
:1040E00007A91948FEF7E7FC08B172B6FEE71648C3
:1040F000FEF706FF08B172B6FEE70B940BA9124853
:104100000C94FEF7A1FB08B172B6FEE760200090A8
:104110004FF40070CDE90104002269460A48049476
:10412000FEF786FE08B172B6FEE70422694606482D
:10413000FEF77EFE08B172B6FEE70348FEF7DAFD31
:104140000EB010BD000400402C02002030B593B02A
:1041500000240C940D940E94142107A80F94FCF7DE
:104160006DF810941C2168461194FCF767F82348F9
:104170002149C0E900142021816041F26801C0E9B1
:1041800003148461FEF7B5FB08B172B6FEE74FF485
:1041900080500C900CA91948FEF78DFC08B172B63E
:1041A000FEE71648FEF7ACFE08B172B6FEE7042043
:1041B000CDE9070407A91148FEF7DDFE08B172B684
:1041C000FEE770258020CDE9105010A90B48FEF7BE
:1041D0003BFB08B172B6FEE701200095CDE9010472
:1041E0000C22694605480494FEF722FE002801D0FF
:1041F00072B6FEE713B030BD000800406C0200202C
:1042000030B58DB000240794089409940A940B9457
:104210001C2168460C94FCF711F8204D1E482860BC
:10422000D120C5E90104601EE8604FF40070AC6164
:1042300028612846FEF75DFB08B172B6FEE74FF431
:104240008050079007A91548FEF735FC08B172B6F3
:10425000FEE71248FEF7D0FD08B172B6FEE70B94F8
:104260000BA90E480C94FEF7EFFA08B172B6FEE700
:104270000094019402940022694608480494FEF7D1
:104280008FFD08B172B6FEE72868816941F0080128
:1042900081610DB030BD0000000C0040AC02002078
:1042A00010B5082001F05CFF0C490320087048702D
:1042B0008870FCF7CDFEFDF70DF8094800F5E071B8
:1042C00090ED210A81ED000A90ED220A81ED010AAC
:1042D00090ED230A81ED020A10BD0000E8000020E5
:1042E0002824002070B5FCF7D1FD354C354D364EF5
:1042F00094ED410A84ED100A94ED420A84ED110A0E
:1043000094ED430A84ED120A94ED440A85ED010A06
:1043100094F8B40184F8AF013068407908B9FCF72B
:1043200075FE94ED450A84ED130A3068807908B96A
:1043300000F0FAFBFCF7CCFF94ED460A85ED020A8B
:1043400095ED060A84ED410A95ED030A84ED420AD3
:1043500095ED050A84ED430A94ED2A0A84ED440A9A
:1043600094F8B10184F8B40195ED040A174884ED7E
:10437000450A94ED280A84ED460A94ED210A80ED61
:10438000000A94ED220A80ED010A94ED230A80EDE3
:10439000020A306831684079401CC0B2487100217F
:1043A000132801D930684171306832688079401C27
:1043B000C0B29071632801D93068817170BD00006E
:1043C00028240020E800002000630008E8250020E1
:1043D00070B5514C2DED048B94ED580AF0EEC08A67
:1043E00094ED590AB0EEC08A00F0A2F894F8B20138
:1043F0009FED4A9A4A4E4B4DDFED4B9A062871D2FB
:10440000DFE800F07003061B224600F023FC16E0F4
:1044100000F086FC96ED080AD4ED3F0A60EE200A13
:10442000C4ED2F0AD4ED360A20EE200A84ED300ABE
:1044300094ED240A84ED3F0A54E000F02DFC84ED55
:104440002F9A84ED309A4DE094ED250A30EE290A3A
:1044500010EE100AA84204DD2F48C830FFF7EAFB2F
:1044600001E084ED320A00F039FC96ED080AD4ED43
:104470003E0A60EE200AC4ED2F0AD4ED330A20EE86
:10448000200A84ED300A94ED240A84ED3E0A29E0E6
:1044900094ED250A40F6FF709FED241AF0EE490ACC
:1044A00001F0EEFDF4EEC88A84ED2F9AF1EE10FAD9
:1044B00084ED309A02DB94ED250A11E0F4EEC88A0F
:1044C000F1EE10FA0ED294ED250A30EE290A10EE24
:1044D000100AA84204DD1048C430FFF7ABFB01E02E
:1044E00084ED310A94ED310A84ED2E0AD4ED2F0AC1
:1044F000C4ED260AD4ED300AC4ED270A84ED280A5B
:1045000094ED3F0A84ED580A94ED3E0A84ED590A71
:10451000BDEC048B70BD00002824002000000000CA
:1045200068000020DB0FC940DB0F49406C1CC93A12
:104530002DE9F0416E4C2DED068BD4F89001411C15
:1045400002D0401CC4F8900194F8B7110025012056
:104550009FED688BB1B1694A94F8B81102269FEDBE
:10456000689B9FED69AB9269012919D063480327C5
:104570000229C06A3FD00426032966D005250429F4
:104580007DD18FE084F8B70184F8B801C4F8905168
:1045900084F8B20184ED048BBDEC068BBDE8F0819C
:1045A00084F8B2011046FCF702F853EC192BFBF724
:1045B00069FF53EC1A2BFBF7EDFE41EC100B01F0F9
:1045C000D3FA51EC100BFBF7D9FFD4F890118842C5
:1045D000E2D894ED040B53EC182B51EC100BFBF7C5
:1045E000F9FFD9D184F8B861C4F8905184F8B26168
:1045F00084ED068BD0E784F8B261FBF7D8FF53EC6B
:10460000192BFBF73FFF53EC1A2BFBF7C3FE41ECD2
:10461000100B01F0A9FA51EC100BFBF7AFFFD4F827
:1046200090118842B8D894ED060B53EC182B51EC3E
:10463000100BFBF7CFFFAFD184F8B871C4F89051DD
:1046400084F8B27184ED088BA6E784F8B271104645
:10465000FBF7ADFF53EC192BFBF714FF53EC1A2BB0
:10466000FBF798FE41EC100B01F07EFA51EC100BB9
:10467000FBF784FFD4F8901188428DD800E034E035
:1046800094ED080B53EC182B51EC100BFBF7A2FF29
:1046900082D184F8B861C4F8905184F8B26184ED95
:1046A0000A8B79E784F8B261FBF781FF53EC192B91
:1046B000FBF7E8FE53EC1A2BFBF76CFE41EC100BFA
:1046C00001F052FA51EC100BFBF758FFD4F890119F
:1046D00088428FD894ED0A0B53EC182B51EC100B39
:1046E000FBF778FF86D184F8B85184F8B25153E7CC
:1046F00028240020000000000000F03F6800002097
:104700002D431CEBE2361A3F11EA2D819997713D3A
:10471000DFED060A60EE200AC0ED000ADFED040AB4
:1047200020EE200A81ED000A704700003ACD133FC9
:104730003ACD13BFDFED060A60EE200AC0ED000A95
:10474000DFED040A20EE200A81ED000A7047000028
:10475000ABAA2A3FABAA2ABF0D480C49D0ED001ADC
:10476000D1ED1E0A0B4891ED1F0A20EEA12A90ED13
:10477000001A094801EE002A60EE810A41EEC00AE3
:1047800080ED002A0548C0ED000A7047282400206B
:104790002401002028010020F8000020FC00002057
:1047A0000CB52F4A2F489FED302A92ED200AD0ED0C
:1047B000000A92F8B00170EE601A10B992F8A601E2
:1047C00008B182ED492A294B294892ED491A93ED07
:1047D000030A0178274800EE211A002990ED060A05
:1047E000694601A802D0FFF7A5FF01E0FFF790FF9F
:1047F0009DED010A2049B4EEC01AF1EE10FA06DC74
:104800009DED000AB4EEC01AF1EE10FA02D281ED6D
:10481000000A01E081ED001A92F8BD0108B9F0EE3E
:10482000421AD3ED020A92ED490A60EEA10ADFEDC9
:10483000131A00EEA10A82ED490A92F8B00100B104
:10484000012082F8A60191ED000AB4EE401AF1EEC3
:1048500010FA01D1012000E0002082F8BD010CBD5A
:1048600028240020FC00002000000000C4000020DC
:1048700064000020F4250020F400002017B7D13890
:104880009C4890ED1C0ADFED9C0A20EE200AD0ED3A
:104890001D0AF5EEC00AF1EE10FA01DB012100E07D
:1048A000002130EE601AB5EEC01AF1EE10FA01DB0D
:1048B000012200E00022B1EE601A01EB420231EE6B
:1048C000400AB5EEC00AF1EE10FA01DB012100E06A
:1048D000002102EB810100EE101A884B4FF07E524E
:1048E000F8EE402AF7EE003A12EE901A994202DDF5
:1048F000F1EE082A05E012EE901A914201DAF0EE8C
:10490000632A7F497F4B91ED061A11EE101A9FED35
:104910007E5A994202DD9FED7D1A06E011EE101AD3
:104920007B4B994201DAB0EE451ADFED7A1ABDEE03
:10493000E24A81EE810A14EE101A9FED6F1A6D4B58
:10494000FEEE004A0629D3ED1C1A61EE811A93EDA2
:104950001D1A31EEC12A22EE243AB1EE412A32EE7E
:10496000612A62EE242A31EE612A31EE211A22EE0A
:10497000242A21EE241A1DD2DFE801F01C03080DC1
:10498000121763EE001A22EE800A17E062EE801A18
:1049900020EEC00A12E062EE001A20EE800A0DE05E
:1049A00060EEC01A23EE000A08E060EE801A21EEE5
:1049B000000A03E061EE001A22EE000A71EE800A9E
:1049C00035EE601AB5EEC01AF1EE10FA09D821EEF4
:1049D000851AC1EE201A83EEA01A61EE050A20EEB8
:1049E000800A75EE610AB5EE001AB6EE003A14EED2
:1049F000101A70EEC00A062920EE811AF0EE410A64
:104A000041EE830A32D2DFE801F031030811182A9F
:104A1000F0EE601AB0EE412A0CE0B0EE602AF0EE43
:104A2000411A00EE032AB0EE601A0CE0F0EE411AD3
:104A3000B0EE602A40EE030AF5E7F0EE601A40EEB1
:104A4000031AB0EE602A90F8B011A1B1012945D146
:104A50009FED310A80ED210A80ED220A46E0F0EE5A
:104A6000601AB0EE412A40EE031ADCE7F0EE601A5D
:104A700040EE030AE5E7B0EE610ADFED281A2849A7
:104A8000DFED280A20EE210A10EE103A8B4202DDFB
:104A9000C0ED210A08E010EE103A934202DAC0EDB0
:104AA000213A01E080ED210A22EE210A10EE103AAF
:104AB0008B4202DDC0ED220A08E010EE103A93426C
:104AC00002DAC0ED223A01E080ED220A21EE210A4D
:104AD00010EE103A8B4202DDC0ED230A704710EE53
:104AE000101A914202DAC0ED233A704780ED230A92
:104AF0007047000028240020D7B3DD3F0000C040ED
:104B0000F42500200000964417B7D13800009644E1
:104B100017B7D138629E353900000000BE32A04C74
:104B200000388345003883451C491D4891ED131A10
:104B300091ED100AD1ED110A61EE001A91ED120A01
:104B400040EE201AD0ED000A31EEE02ADFED151A12
:104B500042EE210AB0EE082AC0ED000ADFED120A8B
:104B6000134861EE200A20EE801ADFED100A00EEF5
:104B7000201A90ED000AF0EE400A51EE020A00EE13
:104B8000A10A80ED000A0B48007F012801D0012016
:104B900000E0002081F8B0017047000028240020C8
:104BA000040100200AD7A33B18B751B8E46EAD3B0F
:104BB00008010020F425002004489FED030A80ED41
:104BC0003C0A80ED200A70470000000028240020E5
:104BD0000548074990ED000A044880ED3C0A91ED34
:104BE000000A80ED200A70471401002028240020CC
:104BF00018010020054890F8B101022803D00128CF
:104C000001D0FFF7E5BFFFF7D7BF00002824002041
:104C100010B50C4C40F6FF709FED0B1A94ED390A5D
:104C2000DFED0A0A01F02CFA094901EB800000F5DA
:104C3000804191ED000A84ED400A90ED000A84ED78
:104C40003B0A10BD282400206C1CC93A000000005B
:104C50000463000810B50C4C40F6FF709FED0B1A72
:104C600094ED250ADFED0A0A01F00AFA094901EB81
:104C7000800000F5804191ED000A84ED370A90ED47
:104C8000000A84ED380A10BD282400206C1CC93AA3
:104C9000000000000463000810B50C4C40F6FF70E3
:104CA0009FED0B1A94ED250ADFED0A0A01F0E8F9F1
:104CB000094901EB800000F5804191ED000A84ED87
:104CC000340A90ED000A84ED350A10BD2824002036
:104CD0006C1CC93A000000000463000810B50C4CBD
:104CE00040F6FF709FED0B1A94ED320ADFED0A0AD1
:104CF00001F0C6F9094901EB800000F5804191ED12
:104D0000000A84ED3E0A90ED000A84ED330A10BDDE
:104D1000282400206C1CC93A00000000046300082D
:104D200010B50C4C40F6FF709FED0B1A94ED250A60
:104D3000DFED0A0A01F0A4F9094901EB800000F552
:104D4000804191ED000A84ED3F0A90ED000A84ED68
:104D5000360A10BD282400206C1CC93A000000004F
:104D60000463000810B5144C144994ED1B0A10EEAE
:104D7000100A884202DD9FED120A06E010EE100ACA
:104D80001049884201DA9FED100A40F6FF709FED4E
:104D90000F1ADFED0F0A01F073F90E4901EB8000E5
:104DA00000F5804191ED000A84ED1E0A90ED000AA5
:104DB00084ED1F0A10BD000028240020090FC940FF
:104DC000090FC94017B7D13817B7D1386C1CC93A89
:104DD00000000000046300084D484E4990ED000AB1
:104DE000D1ED180A4C4891F8AF3170EE600A91F994
:104DF000A52190F83800032B01D1012809D050B12A
:104E0000022081F8A501824210D032B1012A0DD1D1
:104E100008E00020F5E70120F3E791ED1A0A81EDA3
:104E2000480A03E091ED190A81ED470A3D4A9FEDDA
:104E30003B2A9FED3B4A92ED053AD2ED042A3A4BCC
:104E4000D2ED061A92ED070A20B1012831D083ED88
:104E5000002A704791F8BC0108B1B0EE602A91EDCC
:104E6000481A81ED1A1AF0EE413A03EE201AF4EED8
:104E7000C11AF1EE10FA02D2B0EE610A06E0B4EE09
:104E8000C10AF1EE10FA01DCB0EE410A83ED000A2E
:104E9000B4EE401AF1EE10FA01D1012000E000203A
:104EA00022EE820A81F8BC0140EE043AC1ED483A94
:104EB000704791F8BB0108B1B0EE602A91ED471A36
:104EC00081ED191AF0EE413A03EE201AF4EEC11A00
:104ED000F1EE10FA02D2B0EE610A06E0B4EEC10AB9
:104EE000F1EE10FA01DCB0EE410A83ED000AB4EEF7
:104EF000401AF1EE10FA01D1012000E0002022EE6C
:104F0000820A81F8BB0140EE043AC1ED473A70478E
:104F1000F425002028240020680000200000000064
:104F20006F12033BC400002018010020094991F9C9
:104F3000A50110B1012809D104E091ED1A0A81ED13
:104F4000480A03E091ED190A81ED470AFF2081F834
:104F5000A5017047282400202DE9F0413F4C2DED9C
:104F6000068BD4F88C01411C02D0401CC4F88C0183
:104F700094F8B50100269FED3A8B0121B0B394F867
:104F8000B601394A9FED39AB9FED3A9B03250227C5
:104F9000012837D0022823D084F8B171106BFBF7B9
:104FA00006FB53EC1A2BFBF76DFA53EC192BFBF7AE
:104FB000F1F941EC100B00F0D7FD51EC100BFBF7B1
:104FC000DDFAD4F88C1188420CD894ED020B53EC26
:104FD000182B51EC100BFBF7FDFA03D184F8B671D6
:104FE00084F8B151BDEC068BBDE8F081FFE784F891
:104FF000B51184F8B611C4F88C6184F8B11184ED50
:10500000008BEFE784F8B1115069FBF7D0FA53EC4D
:105010001A2BFBF737FA53EC192BFBF7BBF941ECD2
:10502000100B00F0A1FD51EC100BFBF7A7FAD4F820
:105030008C118842D6D894ED000B53EC182B51EC10
:10504000100BFBF7C7FACDD184F8B651C4F88C61C8
:1050500084F8B17184ED028BC4E70000282400209D
:10506000000000000000F03F680000202D431CEB12
:10507000E2361A3F11EA2D819997713D034890ED70
:10508000010A034880ED000A70470000F425002063
:1050900018010020401EB0F1807F01D3012070472D
:1050A0004FF0E0214861054AF02082F8140D0020FD
:1050B0008861072008610020704700000FE000E0D1
:1050C0000348016811B10168491E0160FCF7C8BFBF
:1050D0000400002030B593B030216846FBF7AEF8ED
:1050E00014210CA8FBF7AAF81D480025016841F01F
:1050F00080510160006800F08050119019480168EB
:1051000021F4404141F4004101600068022400F4B0
:1051100040401190012003901020049000940694C8
:105120000820CDE907505420CDE9090404200B9054
:105130006846FDF71BF908B172B6FEE70CA90F200F
:1051400081E831004FF48050CDE90F0502210CA811
:10515000FDF722F8002801D072B6FEE713B030BD8B
:1051600040380240007000400548016841F4700179
:10517000016003494FF0006080390860704700000B
:1051800088ED00E00148FDF702BD0000AC01002001
:105190000148FDF7FCBC0000AC01002070B51B48C5
:1051A000FDF7F5FC4FF400411948FCF741FF194C9D
:1051B000194D0821A0702846FCF73AFFE070291528
:1051C0002846FCF735FF2071A378E57804F10C063A
:1051D00043EA450141EA800121706278B154521CD2
:1051E000D1B20E4A617002F8243F557090700C489D
:1051F0000068406A062900EE100AB8EE400A02ED87
:10520000010A01D30020607070BD0000EC01002095
:10521000000002403E00002000040240F42500206F
:10522000AC02002010B5224C2068FBF79AF99FEDE4
:10523000211B53EC112BFBF7B3F8FBF7E3F91F49E4
:10524000DFED200ADFED1E1A086094ED010A1E4909
:105250001E4AB8EE401AB0EE600A01EE210A10EEC6
:10526000100A81ED000A904201DAC1ED000A184AE5
:1052700000211088401C00B21080B0F5FA5F00DDFC
:105280001180144A1088401C00B21080B0F5487F8D
:1052900000DD1180104A1088401C00B21080A02848
:1052A00000DD1180BDE810400C48FDF770BC000027
:1052B0009003002093C83EC8B260923F18000020BF
:1052C000083DEB3E00004844340000200000484404
:1052D0001200002010000020140000202C020020EA
:1052E00010B580210348FCF7A8FEBDE81040024835
:1052F000FDF74DBC00040240AC020020F0B502688E
:105300001D4C1E4D1E4E1F4F4FF0804CA04207D02B
:10531000604505D0A84203D0B04201D0B84203D1C5
:1053200022F070034A681A43A04210D060450ED0A4
:10533000A8420CD0B0420AD0B84208D0124B9842D2
:1053400005D0124B984202D0114B984203D122F45F
:105350004073CA681A434B6922F080021A43026004
:105360008A68C2620A688262A04201D10969016347
:1053700001214161F0BD0000000001400004004037
:1053800000080040000C0040004001400044014083
:105390000048014010B501F01F010123046A8B4051
:1053A0009C430462036A8A401343036210BD10B534
:1053B00001F01F010423046A8B409C430462036ACA
:1053C0008A401343036210BD10B5846842EA032289
:1053D00024F47F440A432243826010BD826822F095
:1053E00070020A4342F007018160704730B5026ADB
:1053F00022F001020262036A4268846924F07305A4
:105400000C682C4323F002058B682B430C4DA842FB
:1054100006D123F00805CB6843EA050323F0040313
:1054200007D14D6922F4407245EA02058A6942EAD1
:1054300005024260846149684163036230BD000037
:105440000000014030B5026A22F010020262026AD6
:10545000436884690D6824F4E64444EA05248D68B1
:1054600022F0200242EA05120C4DA84206D1CD6876
:1054700022F0800242EA051222F0400207D14D6973
:1054800023F4406343EA85038D6943EA850343605F
:10549000846149688163026230BD00000000014000
:1054A00030B5026A22F480720262036A4268C469FB
:1054B00023F4007324F073050C682C438D6843EAD1
:1054C00005230C4DA84206D1CD6823F4006343EABE
:1054D000052323F4806307D14D6922F4405242EA48
:1054E00005128D6942EA05124260C4614968C163D0
:1054F000036230BD0000014030B5026A22F48052E0
:105500000262036A4268C4690D6824F4E64444EA0E
:1055100005248D6823F4005343EA0533064DA84261
:1055200004D14D6922F4804242EA85124260C4618E
:1055300049680164036230BD0000014010B5026893
:10554000936823F070044B68234323F007040B682F
:10555000234393604A6812F00F0F30D11211082ACA
:105560002DD2DFE802F02C2C2C2C0B2127040B6908
:10557000D1E902210068FFF727FF20E00A68052A29
:1055800010D00268146A136A23F0010313620268E0
:105590009369096923F0F00343EA011191610068FE
:1055A00004620CE0012010BD0A698968006800F0FF
:1055B00008F804E00A698968006800F049F80020EA
:1055C00010BD10B5046A036A23F001030362836906
:1055D00023F0F00343EA021324F00A020A43836132
:1055E000026210BD70B5046A24F00104046284698B
:1055F000056A124EB0420ED0B0F1804F0BD0104E63
:10560000B04208D00F4EB04205D00F4EB04202D08B
:105610000E4EB04203D124F00304144301E044F0E1
:1056200001041A0724F0F00444EA126225F00A0388
:1056300001F00A0119438261016270BD000001405E
:105640000004004000080040000C00400040014001
:1056500010B5036A23F0100303628469036A24F41B
:10566000704444EA023223F0A00343EA011182614C
:10567000016210BD10B5806B0021C185C184FDF7AA
:10568000A4FC10BD70B5846B2068406994F8391093
:10569000C0F3C0100025212904D118B1E5842046AB
:1056A00000F062F82068406994F83A10C0F3801066
:1056B000222904D118B1E585204600F047F8E06BB7
:1056C00040F01000E0632046FDF77FFC70BD10B590
:1056D0000146806B09680968C90513D40021C1859A
:1056E0000168CA6822F48072CA6001684A6922F0BF
:1056F00001024A6101684A6922F040024A612021A0
:1057000080F83A10FDF7DCFD10BD10B5806BFDF799
:10571000D8FD10BD10B50146806B09680968C90540
:105720000CD40021C18401684A6922F080024A61D8
:105730000068C16841F04001C16010BDFDF702FE84
:1057400010BD10B5806BFDF7FEFD10BD0168CA6885
:1057500022F49072CA6001684A6922F001024A612B
:10576000202180F83A1070470168CA6822F0C00210
:10577000CA60202180F83910704710B590F83A10AF
:10578000222901D0022010BD8168B1F5805F11D0BF
:105790000169002901681FD0496801F07F03816A0F
:1057A0004A1C82620B70C18D491E0904090CC18517
:1057B00018D02BE00269816A002A0268526805D07D
:1057C000D2B20A80816A491C8162ECE7C2F3080206
:1057D0000A80816A891CF7E74A68816A4B1C8362E8
:1057E0000A70E0E70168CA6822F02002CA60016816
:1057F000CA6822F48072CA6001684A6922F0010214
:105800004A61202180F83A10FDF75AFD002010BDB2
:105810002DE9F041044600680169E26821F4405135
:1058200011430161A1682069E26901436069104385
:1058300001432068C26849F20C639A430A43C2607C
:1058400020684169A26921F4407111434161E06916
:10585000192764253226B0F5004F354A35492068AE
:105860004FF0000806D0884201D0904236D1FCF7B4
:105870003DFD35E0884201D0904202D1FCF736FD73
:1058800001E0FCF723FD61684A18A0FB070148EB23
:105890000803FAF79BFC0146B0FBF5F00201B1FBEF
:1058A000F5F06FF01803584301EB800006EBC000E1
:1058B000B0FBF5F000F0F80002EB4002B1FBF5F0B0
:1058C000584301EB800006EBC000B0FBF5F000F0A0
:1058D0000700216810448860BDE8F081FCF7F6FC01
:1058E00001466068830F8200A1FB0701FAF76EFC96
:1058F0000146B0FBF5F06FF01802504301EB800059
:1059000006EB0010B0FBF5F000F0F002B1FBF5F093
:1059100002EB0012B1FBF5F06FF01803584301EBF6
:10592000800006EB0010B0FBF5F000F00F00D0E7B0
:10593000001401400010014090F83910212901D0D5
:10594000022070478168B1F5805F016A0BD04A1C64
:105950000262026809785160C18C491E0904090C71
:10596000C1840ED017E009880268C1F308015160B4
:1059700001690029016A02D0491C0162ECE7891C17
:10598000FBE70168CA6822F08002CA600068C1684B
:1059900041F04001C16000207047000010B50C4884
:1059A000FDF714FB0A4C20680068C043C0060DD404
:1059B0000C2208490848FCF7ABF80E22054920469E
:1059C000FDF732FC21686FF01000086010BD000088
:1059D000EC0200202C030020080000202DE9F047F5
:1059E0004C4C00254C4BE1884C48DFF834C1DFF8C3
:1059F00034810126F2EE040ADFED4B2ADFF82C9108
:105A0000DFF82CA19FED4B3A90ED000A4A4A20277F
:105A100020EE200A106BBDEEC02A9CED000A20EE9D
:105A2000200AFDEEC01A98ED000A20EE220ABDEE13
:105A3000C01A99ED000A20EE220AFDEEC00A9AED86
:105A4000000A20EE030ABDEEC00AE9B3A1F5407CCE
:105A5000BCF1E70C1ED0491CE18012EE101A19802F
:105A600011EE901A598011EE101A998010EE901ACA
:105A7000D98010EE101A198180F8345082F83970EC
:105A8000106B80F835600A22BDE8F04722492A48A9
:105A9000FDF718BC12EE101A198011EE901A5980F9
:105AA00011EE101A998010EE901AD98010EE101A8B
:105AB000198122A10988598180F8345082F83970FF
:105AC000106B80F8356000E007E00C2212491A489C
:105AD000FDF7F8FBE580BDE8F08719A1E6800988AD
