:020000040800F2
:1000000010290020A9010008B1010008B30100086F
:10001000B5010008B7010008B901000800000000A0
:10002000000000000000000000000000BB0100080C
:10003000BD01000800000000BF01000805450008E0
:10004000C3010008C3010008C3010008C301000880
:10005000C3010008C3010008C3010008C301000870
:10006000C3010008C3010008C3010008C301000860
:10007000C3010008C3010008C3010008C301000850
:10008000450F0008510F0008F50A000800000000A5
:10009000000000000000000000000000C301000894
:1000A000C9450008D5450008C3010008C301000880
:1000B000E145000869460008C3010008C3010008C3
:1000C000C3010008C3010008C3010008C301000800
:1000D000C3010008C3010008E14D00080000000052
:1000E000F5100008C3010008C3010008000000006B
:1000F000000000000000000000000000C301000834
:1001000000000000C301000825470008C3010008E3
:1001100000000000000000000000000000000000DF
:100120005D0F0008C3010008C3010008C3010008F7
:10013000C3010008000000000000000000000000F3
:10014000000000000000000000000000C3010008E3
:10015000C3010008C3010008C3010008C30100086F
:10016000C3010008C30100080000000000000000F7
:10017000000000000000000000000000000000007F
:1001800000000000C30100080000000000000000A3
:10019000C3010008DFF80CD000F03EFB0048004728
:1001A0001D520008102900200648804706480047D5
:1001B000FEE7FEE7FEE7FEE7FEE7FEE7FEE7FEE717
:1001C000FEE7FEE7AD450008950100082DE9F05F68
:1001D0000546002092469B468846064681464024B6
:1001E0001BE0284641464746224600F01EFA534689
:1001F0005A46C01A914110D311461846224600F0C3
:1002000005FA2D1A67EB01084F462246012000210E
:1002100000F0FCF917EB00094E41201EA4F1010487
:10022000DFDC484631462A464346BDE8F09FD2B25D
:1002300001E000F8012B491EFBD270470022F6E7CF
:1002400010B513460A4604461946FFF7F0FF20464C
:1002500010BD2DE9FE4F804681EA0300C00F0C4619
:10026000009021F0004123F00045B8EB0200A941C5
:1002700005D24046214690461C460B46024623F0D6
:100280000040104347D0270DC7F30A00C3F30A51BB
:100290000290401A019040286BDAC3F3130040F437
:1002A000801B0098924620B10023D2EB030A63EB37
:1002B0000B0B01985946C0F14002504600F0A6F9D8
:1002C00006460D4650465946019A00F0BEF910EB1D
:1002D00008006141002487EA115284EAE7731A4357
:1002E00040D0009A62B3019A012A4FEA075215DC06
:1002F000001B61EB02014FF0004202EA0752CDE918
:100300000042001C41F5801132462B4600F01EFAD7
:1003100003B0BDE8F08F40462146F9E7001B61EBD2
:100320000201001C41F5801300185B412018A2F562
:10033000001747EB030140EAD570B6196D4111E093
:100340006D084FEA360645EAC0754FEA0752001BB2
:1003500061EB0201001C41F5801149084FEA3000B1
:100360000019514132462B4603B0BDE8F04F00F072
:10037000DEB90098012240000023D0EB020263EBBB
:10038000E073009821464FEAE074B8EB000061EB9F
:100390000401E9E783F000435BE781F0004158E79F
:1003A0002DE9FE4F81EA030404F0004421F00041EE
:1003B00000944FF0000B23F0004350EA01045ED09C
:1003C00052EA03045BD0C3F30A54C1F30A552C4428
:1003D000A4F2F3340194A0FB0254C1F3130141F4DD
:1003E0008011C3F3130343F4801301FB024400FBA9
:1003F000034E840A970A44EA815447EA8357A4FBD0
:10040000076802958D0A05FB07854FEA932C04FBCC
:100410000C542705029D4FEA065847EA1637B5EBFC
:1004200008056EEB070C870E920E47EA811742EA29
:100430008312A7FB0201B6EB0B0164EB00042B0D4A
:1004400043EA0C335E1844EB1C50DA465146E7FB96
:100450000201C5F313044FEA0B3343EA14534FEA86
:100460000432019C43EA0603A4F10C040294009CAC
:10047000CDE900B400F06AF903B0BDE8F08F0020C8
:100480000146F9E72DE9F04D81EA030404F0004B41
:1004900021F0004514464FF0000A23F0004150EAD5
:1004A000050220D054EA01021DD0C5F30A570246C6
:1004B000C5F31303C1F31300C1F30A5640F48015CA
:1004C00043F48013A7EB0608101BD64608F2FD384C
:1004D00073EB050002D308F1010801E092185B41BB
:1004E000B8F1000F03DA00200146BDE8F08D0020CE
:1004F0004FF48011064684460EE0171B73EB050788
:1005000005D3121B63EB050306434CEA010C4908B3
:100510004FEA300092185B4150EA0107EDD152EAF0
:10052000030012D082EA040083EA0501084305D0E3
:10053000101BAB4106D20122002306E000224FF03F
:10054000004302E06FF0010253101AEB06004CEB7F
:10055000085110EB0A0041EB0B01BDE8F04D00F033
:10056000E6B80EB540F2334102910021CDE9001109
:100570000A460B4600F0EAF803B000BDC1F30A5288
:1005800010B5C1F3130140F2FF3341F480119A42D8
:1005900001DA002010BD40F233439A42A2F2334206
:1005A00003DC524200F041F810BD904010BD00F055
:1005B000004230F000400AD0C10D01F56071C0F377
:1005C000160042EA0151C20840071143704700205B
:1005D0000146704701F0004330B421F0004150EA79
:1005E000010206D00A0DA2F56072C1F31301002AC0
:1005F00002DC30BC00207047440F44EAC104C10053
:10060000E01830BC00EBC25000F031B8202A04DB07
:10061000203A00FA02F1002070479140C2F1200315
:1006200020FA03F3194390407047202A04DB203A54
:1006300021FA02F00021704721FA02F3D040C2F102
:1006400020029140084319467047202A06DBCB1749
:10065000203A41FA02F043EAE07306E041FA02F37D
:10066000D040C2F12002914008431946704700294A
:10067000A8BF7047401C490008BF20F00100704728
:1006800010B4B0FA80FC00FA0CF050EA010404BF88
:1006900010BC704749B1CCF1200421FA04F411FADE
:1006A0000CF118BF012121430843A3EB0C01CB1D22
:1006B0004FEA00614FEA102042BF002010BC704793
:1006C00000EBC35010440029A4BF10BC7047401C6D
:1006D000490008BF20F0010010BC7047F0B400F0E2
:1006E000004221F0004120F00040CE0DC30DC1F3C7
:1006F000160141F40001C0F316004C42154640F4C7
:100700000000761E09E010EB440002D582F00042A2
:1007100040428842F7D840005B1EB342F9DA18B174
:10072000F0BC0021FFF7ACBF2846F0BC704710B505
:10073000141E73F1000408DA401C41F10001921804
:100740005B411A4301D120F0010010BD2DE9F04DAD
:1007500092469B4611B1B1FA81F202E0B0FA80F202
:1007600020329046FFF752FF04460F4640EA0A0047
:1007700041EA0B0153465A46084313D0114653EA47
:10078000010019D0C8F140025046FFF74EFF054660
:100790000E46504659464246FFF738FF084305D0FB
:1007A000012004E020463946BDE8F08D00200543D5
:1007B00046EAE0762C4337430A986305E40AA0EB47
:1007C00008000022FD0A44EA47540A3002D50020FE
:1007D0000146E9E7010510196941DDE908450019FD
:1007E0006941BDE8F04DA2E730B5041E71F1000487
:1007F00004DB4FF00044404264EB0101141E73F12E
:10080000000405DB1C464FF00043524263EB040337
:10081000994208BF904230BD064C074D06E0E068A3
:1008200040F0010394E8070098471034AC42F6D337
:10083000FFF7B4FC08D7000828D7000830B58C189B
:1008400010F8012B12F00F0301D110F8013B12092F
:1008500006D110F8012B03E010F8015B01F8015BF1
:100860005B1EF9D101E001F8013B521EFBD1A14210
:10087000E6D3002030BD0000F0B54F4E96F824407E
:100880000CB1012100E000214C4D2878012809D04D
:100890000027494AB94212F8253F527804D003286C
:1008A0001DD101E00127F4E70BB1012100E0002197
:1008B0006878012805D00027B94204D003280ED15A
:1008C00001E00127F8E70AB1012100E00021A87842
:1008D000012844D00027B94252D0032850D03848CC
:1008E00096ED080A374980ED040A384ED1ED070A23
:1008F000384F60EE801A90ED2E0A71EEC00A9FED1F
:10090000320A80EE201A80ED051A90ED2F0A90ED44
:10091000302A31EE400A32EE202AC0EE022AC0ED23
:10092000062A96ED000ADFED2A2AB0EE402A11EEE3
:10093000222AD7ED002A0F4602EE220A86ED000A8F
:100940005E0006EB82062644F6B297ED000A072EFB
:1009500010D2DFE806F00F0609181B1E2100012740
:10096000B9E791ED012A01E091ED022A32EE000A89
:1009700080ED070AC0ED2E1A80ED2F1AC0ED300A67
:100980006CB101200CE091ED032AEFE791ED042A10
:10099000ECE791ED052AE9E791ED062AE6E700206C
:1009A00028700BB1012000E0002068700AB101201E
:1009B00000E00020A870F0BDE4240020C400002066
:1009C0000024002068000020920A863FEC000020EE
:1009D00066FCBE426000002010B50146806B026CD0
:1009E00012F0500F05D0026CD20626D500F002FF9F
:1009F00010BD016C41F40071016401688A6812F055
:100A0000405F17D1027EAAB9CA6A12F4700F02D0F1
:100A10008A6852050ED44A6822F020024A60016CAE
:100A200021F480710164016CC90403D4016C41F0AC
:100A30000101016400F0DCFE10BD806BC26CBDE8FA
:100A400010400846104710B5806B40210164416C8E
:100A500041F00401416400F0CDFE10BD10B5806B83
:100A600000F0C7FE10BD00001C481E491E4A90ED54
:100A7000080A1B48D0ED040AD0ED061A30EE600AD1
:100A8000D1ED070A20EE801A21EE011A21EE211A7B
:100A9000F6EE001A21EE211AD0ED051A21EE800A99
:100AA00000EE201A90ED070AD1ED000A104831EE51
:100AB000000A30EE200ADFED0D0A10EE101A914206
:100AC00002DD30EE600A06E0B5EEC00AF1EE10FA83
:100AD00001D230EE200A80ED000A7047E4240020A5
:100AE0000024002068000020DB0FC940DB0FC94054
:100AF000E80000202DE9F0416F4F01222DED028B1F
:100B00004021384601F0C2FA6C480068406A6C4CDB
:100B100000EE100A01216B48B8EE400A84ED080A85
:100B200000F0DBFC00EE100AB8EE400A9FED668A8A
:100B300030EE480ADFED658A654D022120EE280A75
:100B4000604885ED000A00F0C8FC00EE100A614E16
:100B50000321B8EE400A5B4830EE480A20EE280A2E
:100B600086ED000A00F0B9FC00EE100A5A48B8EE13
:100B7000400A30EE480A20EE280A80ED000A574865
:100B8000D0ED030AB8EE601ADFED550A554921EEA3
:100B9000201A81ED001A90ED041A5349B8EE411A5B
:100BA00021EE201A81ED001A90ED051A4F485149A7
:100BB000B8EE411A61EE200AC0ED000A4C48006808
:100BC000884205DA4C48D0ED000AC4ED000A02E084
:100BD000884200DD2060D5ED000A4848C4ED020AD5
:100BE000D6ED000AC4ED030A84ED040A90ED000A74
:100BF000434884ED060A0078012802D1207703F0EB
:100C0000C1F8404C6089401C80B26081052814D92D
:100C100004F006F93C480021618190ED000A3B4A4E
:100C2000208902EB8002401C82ED000A80B240F273
:100C3000CF722081904200D32181354890ED000A87
:100C4000FCEEC00A10EE901A8AB232490B685A6361
:100C5000D0ED010A0B68BCEEE01A11EE102A92B238
:100C60009A6390ED021A0968BCEEC11A11EE100ADF
:100C700080B2C8639FED281A20EE010ABCEEC00ABC
:100C800010EE100A81B225480268516320EE810AF5
:100C90000068BCEEC00A10EE101A89B281630948E0
:100CA00000F0A9FDBDEC028B3846BDE8F041002202
:100CB000402101F0EBB90000000402408402002052
:100CC000E42400203C0100200060FF440000843C3C
:100CD0001C000020200000202400002068030020C9
:100CE0009605933C280000202C00002030000020B6
:100CF000380000200000C842340000201800002006
:100D00003C0000203E000020E8000020C00400203D
:100D1000D8240020840100200000A7430402002002
:100D2000464910B54A6822F440324A604A6843682E
:100D30001A434A6001684A6822F480724A60016876
:100D40004A68036942EA03224A6001684A6822F05D
:100D500040724A6001684A6883681A434A600168C1
:100D60008A6822F400628A6001688A68C3681A434C
:100D70008A60816A6FF07062D14201688A6822F0ED
:100D800070628A6001688A680CD0836A1A438A603C
:100D900001688A6822F040528A6001688A68C36AE2
:100DA0001A4301E022F040528A6001688A6822F00A
:100DB00002028A6001688A68037E42EA43028A600E
:100DC00090F82010002901684A680FD042F40062B0
:100DD0004A6001684A6822F460424A6001684A68D1
:100DE000174C436A04EB43331A4301E022F40062D8
:100DF0004A600168CA6A22F47002CA620168CA6A5B
:100E0000838B104C04EB03531A43CA6201688A684F
:100E100022F400728A6001688A6890F8303042EAF1
:100E200043228A6001688A6822F480628A600168CD
:100E30008A68406942EA8020886010BD0023014032
:100E400000E0FFFF0000F0FF00B5FFF715FD5DF8C3
:100E500004EBFFF709BE00000F48F6EE001A90ED14
:100E6000021A90ED030AD0ED040A0D4800EE611A53
:100E700000EEE11ADFED091A21EE211A80ED001AC9
:100E80009FED081A084820EE010A00EEC10A20EE84
:100E9000210A80ED000A7047E4240020EC05513F50
:100EA00000010020D7B35D3F0401002000B50E4AC9
:100EB0000E4992F9C800897811B1012900D00221A8
:100EC00082F8C810884202D008B903F0F1FA29B1BB
:100ED000012907D15DF804EB03F0F2BA5DF804EBE9
:100EE00003F088BA00BD0000002400206400002048
:100EF0000B489FED0A0A0C4980ED000A0948007B67
:100F0000012801D010B106E0084800E0084890ED43
:100F1000000A81ED080AFFF7C9BF000000000000C9
:100F2000F0000020B400002000240020C8000020B1
:100F3000EC0000200249FF2081F8C8007047000043
:100F400000240020014800F053BE000040040020AF
:100F5000014800F04DBE0000E0030020014800F011
:100F600047BE00008003002001681823CAB2103A6F
:100F7000B2FBF3F2054B6FF30901032A9B5CC365D7
:100F800000D9091D8165084670470000E456000835
:100F900010B5014600208B698A6A4FF0C07453B1C6
:100FA000B3F5005F15D072B1012A0CD0022A0AD025
:100FB000032A09D104E01AB1012A06D0022A03D17A
:100FC000C96AC90100D5012010BDC96AA142FAD081
:100FD00010BD002AF7D0012AF2D0022AF3D0032A4A
:100FE000F3D010BD30B50468256825F48025256050
:100FF000046863608368402B036803D099600068CD
:10100000C26030BD9A600068C16030BD0CB5304828
:10101000314A9FED322A90ED000A2E48D0ED000AA9
:1010200092F8CC0070EE601A10B992F8CB0008B1BB
:1010300082ED2D2A2A4B2B4892ED2D1A93ED010AB1
:101040000178294800EE211A002990ED060A694628
:1010500001A802D002F014FF01E002F0FFFE9DEDB6
:10106000010A2249B4EEC01AF1EE10FA06DC9DED39
:10107000000AB4EEC01AF1EE10FA02D281ED000AB5
:1010800001E081ED001A92F8D50008B9F0EE421A9D
:10109000D3ED000A92ED2D0A60EEA10ADFED141ADD
:1010A00000EEA10A82ED2D0A92F8CC0000B10120D9
:1010B00082F8CB0091ED000AB4EE401AF1EE10FA7E
:1010C00001D1012000E0002082F8D5000CBD000015
:1010D000F0000020D40000200024002000000000C8
:1010E0009400002064000020E4240020DC000020A4
:1010F00017B7D138104910B50120087000210F48EA
:1011000001F03EFF00210D4801F0FEFB04210B48D9
:1011100001F036FF0421094801F0F6FB08210748D9
:1011200001F02EFF0821054801F0EEFBBDE810405C
:101130004FF4005000F0CEBE3C000020840100209F
:1011400072B6FEE770B5614C2DED028B94ED1C8AF2
:1011500084ED0A8AD4F8C400411C02D0401CC4F8B3
:10116000C40094F8D1005A4D012650B194F8D21021
:10117000012911D05548022990F8CC000ED088B32F
:1011800004E084F8D160032084F8D2000020012814
:1011900032D0022862D158E00220F8E718BB686814
:1011A000FFF705FA9FED4B1B53EC112BFFF76AF984
:1011B0009FED4A1B53EC112BFFF7ECF841EC100BA1
:1011C00003F0F2FE51EC100BFFF7D8F9D4F8C4107D
:1011D000884208D8B5EEC08AF1EE10FA03DD84F833
:1011E000D260D9E701E00120D1E7022084F8D200E3
:1011F0000020C4F8C400F6E794ED1F0ADFED390AB9
:1012000004F0CEF984ED0B0A95ED020ADFED360A03
:1012100084ED0D0A94ED200A94ED1F1AB7EE002A12
:1012200060EE201ADFED310A01EEA01A84ED1F1ADC
:10123000D5ED011A82EE211AD5ED001A21EE211A00
:1012400001EE200A84ED200A08E0294890ED000A0A
:1012500084ED0D0A94ED1D0A84ED0B0AFFF7FCFDE9
:101260002448007B012801D018B107E094ED0B0A57
:1012700002E0214890ED000A84ED0C0A03F080F8AA
:1012800002F010FEFFF7C2FE02F030FE02F03CFA60
:1012900002F07CF8D4ED1E5AD4ED140A9FED171A13
:1012A000B0EE650A164810EE810AD0ED000A40EE55
:1012B000205A02F08BFEC4ED1C5A94ED110A84ED05
:1012C0001D0AC4ED1E5ABDEC028B70BD0024002027
:1012D000880000202D431CEBE2361A3F11EA2D81D5
:1012E0009997713DDB0FC9405077563E17B7D138FB
:1012F000F4000020B4000020E8000020EBC9984072
:1013000060000020FFF71EBF02F0F4B90248B7EEFC
:10131000000A80ED2C0A70470024002070B590F878
:101320003C20694C012A19D0012280F83C200A682F
:1013300007250368092A13D9DE680A3A02EB42023C
:101340009540AE43DE600A788B680A3A02EB4202AF
:1013500093400268D5682B43D36010E0022070BD33
:101360001E6902EB42029540AE431E610A788B680B
:1013700002EB42029340026815692B431361026835
:10138000936B23F4401393630268936B0D8A4F4E63
:1013900006EB05552B4393630A790B7CD21AD21CBA
:1013A00002EB82021F2393400268956B9D43956375
:1013B0000A790B7CD21A0B88D21C02EB82029BB2F8
:1013C00093400268956B2B4393638A69A24202683B
:1013D000936823F470239360026893680CD08C693F
:1013E000234393600268936823F440139360026878
:1013F0009368CC69234301E023F4401393604A7D52
:10140000002A0268536802D043F4806301E023F4A9
:10141000806353600A7D002A0268536802D043F457
:10142000805301E023F4805353604A68012A16D0A8
:10143000022A1FD0032A026827D0136A6FF30B0316
:1014400013620268136ACC6823431362214B046859
:101450001F4A9C4227D10C68122C20D023E002683E
:1014600053696FF30B03536102685369CC682343DC
:101470005361EBE7026893696FF30B0393610268B2
:101480009369CC6823439361E0E7D3696FF30B035F
:10149000D3610268D369CC682343D361D6E754682B
:1014A00044F48004546004689C4208D109681029FF
:1014B00001D0112903D1516841F40001516000218C
:1014C00080F83C10084670BD01000F000000F0FFDE
:1014D0000023014000200140704708B5002200921F
:1014E0000368521F1A60012911D002290CD0032968
:1014F00006D0042901D0009808BD0068806C01E086
:101500000068406C009008BD0068006CFAE7006855
:10151000C06BF7E718B50022009290F83C10012943
:1015200007D0012180F83C1001688B68DB0702D0EE
:1015300011E0022018BD8B6843F001038B60224943
:10154000224B0968B1FBF3F101EB410100E0491EB8
:1015500000910029FBD101688B68DB0726D0036C62
:1015600042F20104A34343F480530364036CDB059C
:1015700000D4426480F83C206FF004020A601449F1
:1015800049680068C906816801F4401110D0C1B1F2
:10159000002142680F4B42F38022521C984205D131
:1015A00021B11AB1816841F480018160002018BD29
:1015B00029B10021426842F38022521CF0E7012148
:1015C000F8E70121E5E700005C00002040420F0041
:1015D000002301400020014018B50022009290F83D
:1015E0003C10012907D0012180F83C1001688B686C
:1015F000DB0702D011E0022018BD8B6843F0010325
:101600008B602449244B0968B1FBF3F101EB4101E4
:1016100000E0491E00910029FBD101688B68DB07BF
:101620002BD0036C42F20104A34343F480530364C0
:10163000036CDB0500D4426480F83C206FF00402A8
:101640000A6001684A6842F080024A6013494968AA
:101650000068C906816801F4401110D0C1B10021B1
:1016600042680F4B42F38022521C984205D121B1AF
:101670001AB1816841F480018160002018BD29B150
:101680000021426842F38022521CF0E70121F8E772
:101690000121E5E75C00002040420F0000230140EB
:1016A0000020014078B50024009490F83C20012AE5
:1016B00019D0012280F83C200A6807250368092A0E
:1016C00013D9DE680A3A02EB42029540AE43DE606F
:1016D0000A788B680A3A02EB420293400268D568A6
:1016E0002B43D36010E0022078BD1E6902EB42025A
:1016F0009540AE431E610A788B6802EB420293402C
:10170000026815692B4313614A681F25072A13D203
:1017100003685E6B521E02EB82029540AE435E632D
:101720000A8893B20A79521E02EB82029340026841
:10173000556B2B43536327E003680D2A12D21E6BAF
:10174000D21F02EB82029540AE431E630A8893B219
:101750000A79D21F02EB820293400268156B2B4379
:10176000136311E0DE6A0D3A02EB82029540AE434C
:10177000DE620A8893B20A790D3A02EB8202934044
:101780000268D56A2B43D362164B0568144A9D4202
:1017900006D10D68122D03D1556845F480055560BA
:1017A00005689D4218D10B68102B01D0112B13D165
:1017B000536843F400035360096810290CD10A49A7
:1017C0000A4A0968B1FBF2F101EB8101490000E02E
:1017D000491E00910029FBD180F83C40002078BDD3
:1017E00000230140002001405C00002040420F0027
:1017F00070477047704770B5044600680168C1F3D0
:1018000040024168C1F3401152B349B3216CC9068B
:1018100003D4216C41F400712164816811F0405FB0
:1018200017D1217EA9B9C16A11F4700F02D0816865
:1018300049050ED4416821F020014160206C20F45C
:1018400080702064206CC00403D4206C40F0010040
:1018500020642046FFF7CCFF21686FF0120008607B
:10186000206801684268C1F38001C2F3C01289B3E5
:1018700082B3216CC90603D4216C41F40051216468
:10188000816811F4401F1ED1816B11F4401F02D0FA
:101890008168490517D44168490514D4816811F05D
:1018A000405F10D1217E71B9416821F08001416013
:1018B000206C20F480502064206CC00503D4206C80
:1018C00040F0010020642046FFF706FE21686FF01B
:1018D0000C000860206801684268C1F30001C2F38F
:1018E000801271B16AB10068C0070AD0206C40F460
:1018F00080302064204600F046F821686FF0010037
:101900000860206801684268C1F34011C2F3806238
:1019100000290DD0002A0BD0616C41F002016164F6
:101920006FF0200505602046FFF764FF2068056022
:1019300070BD70B504004FF0000603D0206C002588
:1019400010B107E0012070BD204600F01DF865646D
:1019500084F83C50206CC00610D4206C20F48850D1
:1019600040F0020020642046FFF7DAF96564206C3D
:1019700020F0020040F00100206400E0012684F81D
:101980003C50304670BD704770B586B00646142195
:101990006846FEF753FC2849306888424AD12748F8
:1019A0000025016841F4807101600068234900F45A
:1019B000807014390590086840F0040008600868D9
:1019C00000F004000590086840F001000860086815
:1019D000032400F0010005903F208DE831006946A6
:1019E000174800F083FA13208DE831006946154846
:1019F00000F07CFA154C1448C4E900050015A560F8
:101A0000C4E90350800060618000A0618011C4E9D6
:101A100007052046656200F0BBF908B1FFF790FBAF
:101A2000B463002202211220A66300F0A5FB12205D
:101A300000F094FB06B070BD002001404438024025
:101A400000080240000002401064024080030020B1
:101A5000F8B500230446009390F83C00012807D015
:101A6000012084F83C0020688568ED0702D011E071
:101A70000220F8BD856845F0010585602E482F4D90
:101A80000068B0FBF5F000EB400000E0401E009065
:101A90000028FBD120688568ED074AD0256C40F20C
:101AA0000166B54345F4807525644068400505D559
:101AB000206C20F4005040F480502064206CC0045E
:101AC00004D5606C20F00600606400E0636484F874
:101AD0003C30A36B1B481A4DD863A36B1A4818649B
:101AE000A36B1A48D86423686FF02200186020683E
:101AF000436843F0806343602068836843F48073E5
:101B00008360134620680A46A66B00F14C013046FC
:101B100000F0A8F96868C006206802D00C49884225
:101B200007D1816811F0405F03D1816841F08041A5
:101B300081600020F8BD00005C00002040420F00E2
:101B400000230140D90900085D0A0008470A00087F
:101B50000020014030B50223437103689C6844F0C3
:101B600001049C60002304E0056851F823402C60C8
:101B70005B1C9342F8D30168096801224271084650
:101B800030BD10B5040002D0607910B106E001202C
:101B900010BD00202071204600F004F80120607183
:101BA000002010BD08B500680649884208D10648E3
:101BB000016841F480510160006800F48050009099
:101BC00008BD0000003002403038024090F8351067
:101BD000022903D08021416501207047052180F84A
:101BE00035100068016821F0010101600020704794
:101BF0002DE9F84304464FF00009CDF80090634802
:101C00004FF41651A56D0068B0FBF1F72E6894F8FB
:101C10005C20082101FA02F030420FD020680268EF
:101C200052070BD5026822F00402026094F85C00AF
:101C30008140A960606D40F00100606594F85C101F
:101C40004FF0010808FA01F0304208D021684969D4
:101C5000090604D5A860606D40F00200606594F844
:101C60005C1004208840304208D021680968890748
:101C700004D5A860606D40F00400606594F85C10C5
:101C800010208840304218D021680968090714D50F
:101C9000A86020680168490304D50068000308D5DE
:101CA000A16C07E00168C90503D4016821F00801AF
:101CB0000160216C09B12046884794F85C1020200F
:101CC0008840304231D021680968C9062DD5A86006
:101CD00094F8350005282068016806D0490347D5E7
:101CE000006800031DD4616C1CE021F01601016046
:101CF0002068416921F080014161206C08B9A06C25
:101D000020B12068016821F00801016094F85C109E
:101D10003F208840A86084F8349084F83580216D95
:101D20001FE0E16B09B120468847606D00282BD089
:101D3000606DC00714D0052084F835002068016864
:101D400021F0010101600098401C0090B84203D8C6
:101D500020680068C007F6D184F8349084F8358094
:101D6000E16C002910D001B02046BDE8F0430847DF
:101D70000168C905D5D4016821F01001016084F81B
:101D8000349084F83580CCE7BDE8F8835C0000200F
:101D90002DE9F041044600F07FF905465CB10026CC
:101DA00084F83460022084F835002068016821F04E
:101DB000010101600DE00120BDE8F08100F06CF947
:101DC000401B052805D920206065032084F83500D4
:101DD000F2E720680068C007F0D121680A6820484F
:101DE0000240D4E901031843D4E903352B431843D7
:101DF00063691843A3691843E3691843236A1843C6
:101E00001043626A042A03D1D4E90B231A43104316
:101E1000086020684069656A20F0070128460D4384
:101E2000012704280CD1A06A0543E06A40B120468E
:101E3000FFF7AEF820B14020606584F83570BAE74E
:101E4000206845612046FFF78FF894F85C203F2119
:101E500091408160666584F835700020ACE7000031
:101E60003F8010F02DE9F0410446866D90F8340073
:101E7000002501280DD0012084F8340094F8357035
:101E80000020012F07D084F8340002252846BDE841
:101E9000F0810220FBE7022784F835706065204658
:101EA000FFF7A0F894F85C103F208840B0602068ED
:101EB000016841F016010160206C20B120680168C2
:101EC00041F0080101602068016841F001010160F2
:101ED000DCE77047044910B50A68024202D0086086
:101EE000FFF7F7FF10BD0000143C01402DE9F84F4B
:101EF000DFF860B100224FF003094FF00F0A0BF139
:101F0000040E01250B6895402B40AB4272D14C6802
:101F1000012C05D0022C03D0112C01D0122C10D191
:101F20008668540009FA04F7BE43CF68A7403743D8
:101F300087604468AC430D79C5F30015954025438F
:101F40004560C468570009FA07F58E68AC43BE4087
:101F50002643C6604C68022C01D0122C12D1D40842
:101F600000EB840CDCF820605407E40E0AFA04F855
:101F700026EA0806D1F8108008FA04F848EA0608AC
:101F8000CCF820800468AC430D7905F00305BD4012
:101F9000254305604C68E40056D52F4C256845F470
:101FA00080452560246822F0030504F480440094F1
:101FB0002A4C2E19D6F808789407250F0AFA05F44A
:101FC000A743274CA04201D1002415E0254CA04294
:101FD00001D1012410E0244CA04201D102240BE0E5
:101FE000224CA04201D1032406E0214CA04202D1A0
:101FF000042401E028E00724AC403C43C6F808482C
:10200000DBF800405D464E689C43F60300D51C4358
:102010002C60DEF8004075464E689C43B60300D540
:102020001C432C600B4D08352C684E689C43F6020F
:1020300000D51C432C60074D0C352C684E689C4322
:10204000B60200D51C432C60521C102AFFF459AF75
:10205000BDE8F88F003C01404438024000300140A8
:10206000000002400004024000080240000C024050
:10207000001002400069084000D00120704742690A
:1020800031EA020200D10904816170470AB181611D
:1020900070470904FBE700000148806870470000B2
:1020A0005000002002488168027811448160704726
:1020B000500000200B4810B5016841F40071016028
:1020C000016841F480610160016841F48071016040
:1020D000032000F071F8042000F006F800F024F866
:1020E000002010BD003C024070B50D4D04464FF479
:1020F0007A712878B1FBF0F00A490968B1FBF0F079
:1021000000F0FAFA48B9102C07D200222146501EDE
:1021100000F032F800206C6070BD012070BD00003E
:10212000500000205C0000200B4882B0016841F4A0
:1021300080410160006800F4804000900648001F64
:10214000016841F080510160006800F0805000900B
:10215000042002B000F030B844380240002809DB07
:1021600000F01F02012191404009800000F1E020B1
:10217000C0F8001170470000F0B40E4B1B68C3F3A9
:102180000223C3F10704042C00D904241D1D072DCC
:1021900001D2002300E0DB1E012606FA04F56D1EC5
:1021A0000D409D409E40761E164045EA0601F0BC5B
:1021B00002F0EABE0CED00E0064A00F007011068EC
:1021C0004FF6FF03184040EA01200349084310601E
:1021D000704700000CED00E00000FA052DE9F04723
:1021E0000D46040065D0DFF81491D9F80000EFB275
:1021F00000F00F00A84207D289F80070D9F800005B
:1022000000F00F00A84254D120683D4E810712D53E
:10221000400703D5306840F4E05030602078000774
:1022200003D5306840F4604030603068A16820F029
:10223000F000084330602078C0072DD03049606836
:102240000839012812D0022813D0032811D00968B8
:10225000890700292DDA316821F00301014331603B
:10226000FFF71AFF804641F2883A0EE009688903B9
:10227000EFE709688901ECE7FFF70EFFA0EB080123
:10228000514502D90320BDE8F0873068616800F04D
:102290000C00B0EB810FEFD1D9F80010484601F0E7
:1022A0000F01A94207D90770006800F00F00A8428B
:1022B00001D00120E7E72078400705D53068E168C4
:1022C00020F4E050084330602078000706D53068DD
:1022D000216920F4604040EAC100306000F038F825
:1022E0003168084AC1F30311515CC84006490860CF
:1022F00006480068FFF7F8FE0020C4E7003C0240F3
:1023000008380240EC5600085C0000205400002011
:102310000448054900680968044AC1F38221515CF8
:10232000C84070475C00002008380240FC56000896
:102330000448054900680968044AC1F34231515C08
:10234000C84070475C00002008380240FC56000876
:10235000154810B5006810F00C01144813D0431054
:1023600004290FD008290ED10F4C241F216801F039
:102370003F022168490207D52068C0F38810A0FBFE
:10238000030106E0184610BD2168C1F38811A1FBC6
:1023900000010023FDF71AFF2168C1F30141491C28
:1023A0004900B0FBF1F010BD083802400024F400F1
:1023B0002DE9F84F040075D02078DFF828A3C00776
:1023C000AAF1040548D00AF104000168C1F38101B3
:1023D000012908D00068C0F3810002280AD1DAF888
:1023E0000000400206D52868800335D560680028C3
:1023F000E1D031E06068B0F5803F10D0B0F5A02F9B
:10240000286810D020F480302860286820F48020CC
:1024100028606068A0B1FFF73FFE06460CE0286820
:1024200040F48030F4E740F480202860F7E7FFF7BD
:1024300033FE801B642871D828688003F7D50BE031
:10244000FFF72AFE064604E0FFF726FE801B6428FD
:10245000F1D828688003F7D42078DFF88C928007C1
:102460004FF0000B3DD59F48001D016811F00C0F87
:1024700008D00068C0F3810002280AD1DAF8000011
:10248000400206D42868800715D5E068012809D1E4
:1024900011E0E068B8B10121C9F80010FFF7FCFDB8
:1024A000064605E01AE1FFF7F7FD801B0228C2D8B7
:1024B00028688007F7D52868216920F0F80040EAED
:1024C000C10028600DE0C9F800B0FFF7E5FD064641
:1024D00004E0FFF7E1FD801B02281FD82868800771
:1024E000F7D42078000722D57E4F80486169703785
:1024F00071B101210160FFF7CFFD064604E0FFF74F
:10250000CBFD801B022809D838688007F7D50EE07C
:10251000C0F800B0FFF7C0FD064605E082E0FFF717
:10252000BBFD801B02287DD838688007F7D420784F
:10253000400765D56B484FF000083C300068C0008C
:102540000BD468483C30016841F08051016000685C
:102550004FF0010800F080500090654F3868C005CA
:102560000FD4386840F480703860FFF795FD064658
:1025700004E0FFF791FD801B022853D83868C0059E
:10258000F7D5584FA0686C3701280FD00528386858
:1025900010D020F001003860386820F00400386066
:1025A000A068B0B1FFF778FD06460EE0386840F04D
:1025B0000100F4E740F004003860F7E7FFF76CFD36
:1025C000811B41F28830814263D838688007F5D595
:1025D0000DE0FFF761FD064606E0FFF75DFD811B9C
:1025E00041F28830814254D838688007F5D4B8F178
:1025F000000F05D03B483C30016821F0805101605C
:10260000A069B8B33749091D0968C1F381010229DE
:1026100046D00228584606D0C9F86000FFF73CFDB6
:10262000044639E035E04F46C9F86000FFF734FD55
:10263000064604E0FFF730FD801B022829D82868F1
:102640008001F7D4D4E907010843A16A294A49085F
:1026500002EB0141626A41EA8211084394F82C10AE
:1026600040EA0161CAF8001001203866FFF714FD46
:10267000044605E034E0FFF70FFD001B022808D8F0
:1026800028688001F7D52BE0FFF706FD001B022824
:1026900002D90320BDE8F88F28688001F4D41FE038
:1026A0000128F7D0DAF80000E26900F480019142D5
:1026B00014D1226A00F03F0191420FD147F6C07158
:1026C000626A0140914209D1A26A00F4403191420C
:1026D00004D1E16A00F07060884201D00120D9E79E
:1026E0000020D7E70438024000004742800E4742EE
:1026F000007000400000FFFF10B5401EB0F1807F69
:1027000001D3012010BD4FF0E02460610F2160175C
:1027100002F03AFC0020A06107202061002010BDDB
:102720007047704710B590F83C20012A22D0012252
:1027300080F83C20CA688C6822F4407222434C68BE
:1027400022F4806222430C6822F4006222430C6966
:1027500022F4805222434C6922F400522243C96978
:10276000002322F480420A4301684A6480F83C3026
:10277000002010BD022010BD70B588B00D460400C9
:1027800004D094F83D00002618B107E0012008B0FD
:1027900070BD84F83C60204600F04CF8022084F8BC
:1027A0003D00211D206801F0CBFFAB6829680322A2
:1027B000206802F039F92068816921F00C018161FB
:1027C000206881696A68114381612068416841F02D
:1027D000800141602068816821F07001816020687B
:1027E000816841F0400181602068816821F0070123
:1027F00081602068816841F0040181607020059645
:1028000004960696039602960090E8680190694641
:10281000206802F039F82068416821F070014160B9
:102820002068416841F050014160012084F83D007A
:102830000020ACE7704710B5044600680122002173
:1028400001F0CAFF2068816801F00701062903D062
:10285000016841F001010160002010BD10B504467F
:102860000068C16841F00201C160012200212068B6
:1028700001F0B2FF2068816801F00701062903D04A
:10288000016841F001010160002010BD70B590F8B1
:102890003C20012A2CD0012580F83C50022280F8EF
:1028A0003D2002685368946823F070060B68334338
:1028B0005360104B02689A420ED0B2F1804F0BD099
:1028C0000D4B9A4208D00D4B9A4205D00C4B9A42C0
:1028D00002D00C4B9A4204D1496824F0800319437A
:1028E000916080F83D50002180F83C10084670BD92
:1028F000022070BD000001400004004000080040BC
:10290000000C00400040014010B50446006804225D
:1029100001F06FFF2068416C41F400414164206880
:10292000816801F00701062903D0016841F0010127
:102930000160002010BD10B5040003D094F83D00E4
:1029400010B107E0012010BD002084F83C002046B3
:1029500000F00CF8022084F83D00211D206801F0F1
:10296000EFFE012084F83D00002010BDF0B587B0D7
:10297000044614216846FDF761FC504A2068002493
:102980004F49022601254F4F90422AD14C4814301E
:10299000026842F001020260006800F00100059048
:1029A000086840F0010008600868CDE9025400F0B2
:1029B000010005904020CDE900066946049538469F
:1029C000FFF794FA012200211820FFF7D5FB182009
:1029D000FFF7C4FB002211461920FFF7CDFB192099
:1029E0004AE0374A1032B0F1804F11D03649884260
:1029F00046D1106840F0020010601068002200F01C
:102A00000200059005211D20FFF7B6FB1D2033E0D5
:102A1000106840F001001060106800F0010005909F
:102A2000086840F002000860086800F002000590A5
:102A3000086840F0010008600868694600F001007D
:102A400005904FF481600090CDE901641F48CDE905
:102A50000345FFF74BFA4FF400400090CDE90164C5
:102A600069463846CDE90345FFF740FA00220321C5
:102A70001C20FFF781FB1C20FFF770FB07B0F0BDA7
:102A80001349884208D1106840F0040010601068B3
:102A900000F004000590F1E70E498842EED110687D
:102AA00040F0080010601068002200F00800059057
:102AB00007213220FFF760FB3220DDE700000140F4
:102AC0003038024000000240000400400004024090
:102AD00000080040000C00400168CA6842F0010292
:102AE000CA600068816801F00701062903D0016807
:102AF00041F0010101600020704770B5044690F874
:102B00003C00012817D0012584F83C50022084F8AD
:102B10003D002068826822F0770222F47F428260C2
:102B20000868502830D00DDC20284DD005DC98B343
:102B300010283BD148E0022070BD302844D0402806
:102B400034D139E0602828D0702806D0B0F5805FF5
:102B50002CD0B0F5005F29D10AE0CB68D1E9012182
:102B6000206801F053FE2068816841F0770109E098
:102B7000CB68D1E90121206801F048FE2068816816
:102B800041F48041816011E0CA684968206801F021
:102B90003AFF5021206807E016E0CA6849682068BB
:102BA00001F078FF6021206801F03AFE84F83D5082
:102BB000002084F83C0070BDCA684968206801F0B4
:102BC00022FF40212068EFE7226801461046EBE72C
:102BD000704770B50446006801694FF00005C943AD
:102BE000890715D4C168C943890711D4E91E016159
:102BF00001202077206880698007204602D0FFF7F7
:102C0000E7FF04E000F019F9204600F0B7F9257756
:102C100020680169C943490717D4C168C9434907F6
:102C200013D46FF0040101610220207720688069CD
:102C300010F4407F204602D0FFF7CAFF04E000F006
:102C4000FCF8204600F09AF9257720680169C9430D
:102C5000090716D4C168C943090712D46FF00801E7
:102C60000161042020772068C0698007204602D0D7
:102C7000FFF7AEFF04E000F0E0F8204600F07EF938
:102C8000257720680169C943C90617D4C168C943BB
:102C9000C90613D46FF01001016108202077206865
:102CA000C06910F4407F204602D0FFF791FF04E096
:102CB00000F0C3F8204600F061F92577206801692B
:102CC000C943C90708D1C168C943C90704D1891ECE
:102CD0000161204600F070F920680169C9430906C6
:102CE00009D4C168C943090605D46FF080010161A8
:102CF0002046FFF715FD20680169C943490609D43C
:102D0000C168C943490605D46FF0400101612046FE
:102D100000F07CF920680169C94389060BD4C168B9
:102D2000C943890607D46FF0200101612046BDE840
:102D30007040FFF7F6BC70BD70B586B00446142134
:102D40006846FDF77BFA224B2268002021490224C5
:102D5000214D9A4224D1086840F0010008600868BB
:102D600000F001000590086840F002000860086863
:102D7000012600F0020005904FF4F060CDE9000458
:102D80000294CDE9034669461448FFF7AFF80320E3
:102D9000CDE900040294CDE903466946284612E0D5
:102DA0000F4B9A4211D10A6842F002020A60096888
:102DB00001F00201059130210091CDE90140CDE9FA
:102DC000030469462846FFF791F806B070BD00007D
:102DD0000000014030380240000402400000024080
:102DE0000004004070B5044690F83C0001280DD066
:102DF000012584F83C50022084F83D0042B1042AA9
:102E00000AD0082A0CD00C2A11D10DE0022070BD86
:102E1000206801F00DFD0AE0206801F035FD06E0B4
:102E2000206801F05FFD02E0206801F087FD84F872
:102E30003D50002084F83C0070BD704710B5040080
:102E400003D094F83D0010B107E0012010BD002030
:102E500084F83C00204600F00CF8022084F83D0085
:102E6000211D206801F06CFC012084F83D00002049
:102E700010BD704770B5044690F83C000D4601281F
:102E80000DD0012684F83C60022084F83D0042B158
:102E9000042A18D0082A2AD00C2A4DD139E0022061
:102EA00070BD206801F0C4FC2068816941F0080110
:102EB00081612068816921F0040181612068816954
:102EC0002A69114311E0206801F0DEFC2068816965
:102ED00041F4006181612068816921F48061816130
:102EE000206881692A6941EA0221816124E0206821
:102EF00001F0F8FC2068C16941F00801C161206857
:102F0000C16921F00401C1612068C1692A691143C6
:102F100011E0206801F012FD2068C16941F40061F0
:102F2000C1612068C16921F48061C1612068C16903
:102F30002A6941EA0221C16184F83D60002084F8D9
:102F40003C0070BD10B5040003D094F83D0010B1F2
:102F500007E0012010BD002084F83C00204600F06E
:102F60000CF8022084F83D00211D206801F0E8FBE8
:102F7000012084F83D00002010BD7047704700001C
:102F800010B504460068012201F026FC09492068BA
:102F9000884203D1416C41F400414164206881685A
:102FA00001F00701062903D0016841F00101016029
:102FB000002010BD00000140704770B5044690F835
:102FC0003C00012810D0012584F83C50022084F8F0
:102FD0003D00204601F0D4FC002138B184F83D507A
:102FE00084F83C10012070BD022070BD2068C268CA
:102FF00022F04002C2602068C26822F48042C260AF
:1030000084F83D5084F83C10002070BD7047704734
:1030100070B5026804461068D168536910F00F0F4C
:1030200052D003F0010501F490762E435FD0C20721
:1030300005D0CA0503D5E26B42F00102E263420704
:1030400005D5DA0703D0E26B42F00202E2638207A1
:1030500005D5DA0703D0E26B42F00402E26302070F
:1030600007D501F020022A4303D0E26B42F00802A8
:10307000E263E26B002A33D0800604D5880602D5CD
:10308000204601F09CFD20684069E16BC0F3801090
:10309000090700D428B3204601F07AFD2068416971
:1030A00049061AD5416921F040014161606BA0B128
:1030B0001B490165606BFEF789FD002810D0606B2D
:1030C000016DBDE870400847830610D58B060ED50C
:1030D0002046BDE8704001F072BD2046FFF797FF23
:1030E00070BD2046FFF793FF0020E06370BD03062C
:1030F00006D50B0604D52046BDE8704001F03EBE63
:103100004006F3D54806F1D5D168204621F04001AC
:10311000D160202184F8391000F036F970BD00002C
:10312000B94A000870B5040004D094F839000025AD
:1031300010B106E0012070BD84F83850204600F040
:1031400023F8242084F839002068C16821F4005154
:10315000C160204601F07EFD2068016921F49041A4
:1031600001612068416921F02A0141612068C1683C
:1031700041F40051C160E563202084F8390084F8EF
:103180003A00002070BD00002DE9F04186B00446F1
:1031900014216846FDF752F82E492068884256D11E
:1031A0002D480025016841F400310160006800F4F9
:1031B0000030059028481038016841F00101016095
:1031C0000068694600F0010005900C200090022084
:1031D000CDE9010503200390072004901F48FEF766
:1031E00085FE204E1E484FF00067E6E802074020AB
:1031F0004FF48068A6E821011A4846F81459B561D1
:10320000F56135627562FEF7C3FD08B1FDF798FF01
:103210002663B4631248144E18383060C6E901754D
:10322000C6E903587561B561F5613562304675626E
:10323000FEF7AEFD08B1FDF783FF666301220621AC
:103240002620B463FEF798FF2620FEF787FF06B01E
:10325000BDE8F081004400404038024000000240D8
:10326000A0600240E00300204004002037B504467F
:1032700090F83A0082B0134620283AD1039AAAB3B4
:10328000A3B394F83800012833D0012084F8380023
:10329000A262A3850025E563222084F83A00616BD1
:1032A0001548C863616B15480864616B1448C864AD
:1032B000606B05652168606B091DFEF7D3FD206812
:1032C00001684168009184F83850C16841F4807108
:1032D000C1602068416941F0010141612068416994
:1032E00041F040014161002005B030BDFFE7012001
:1032F000FAE70220F8E70000134B00084F4B0008E4
:10330000C94A000870477047F7B5044690F839007D
:10331000202831D1019969B362B394F838000128AB
:103320002AD0012084F838002162A284E28400259A
:10333000E563212084F83900236B1048D863236BA0
:103340000F481864236B0F48D864206B134605653B
:103350002668206B321DFEF785FD21686FF0400066
:10336000086084F838502068416941F0800141616B
:103370000020FEBD0120FEBD0220FEBD594B00080D
:10338000874B0008C94A00087047704770B5C64CA3
:10339000C648C74D2DED0A8BFFEE00BAB7EE00CA46
:1033A000D4ED250AD4ED228A94ED238A94ED242AC3
:1033B000C4ED140AD4ED261A90ED000AD5ED002ACA
:1033C00031EEC00ADFEDBBAAB5EEC00AF1EE10FA8D
:1033D00002D2B0EE6B0A11E0B5EEC00AF1EE10FABF
:1033E00002DDB0EE4C0A09E0B5EEC00AF1EE10FACB
:1033F00002D1B0EE6A0A01E0B0EE620AAA4994F87E
:10340000CD00BCEE004A91ED279A9FEDAB5ADFED5F
:10341000AB4AAB4E96ED001A9FEDAA3A9FEDAABAC1
:1034200090B960EE823AC1EE035AA84863EE843A3E
:1034300090ED006A41EEC53A48EE643A46EE243A11
:1034400045EEC03A03EE8B9A974994F8CE00D1ED41
:10345000289A38B9C1EE033A23EE800A00EEA80A92
:1034600040EE0B9A9A4862EE053A90ED000A32EE71
:10347000400AB5EEC00AF1EE10FA02D2B0EE6B0AC5
:1034800011E0B5EEC00AF1EE10FA02DDB0EE4C0A22
:1034900009E0B5EEC00AF1EE10FA02D1B0EE6A0A08
:1034A00001E0B0EE620A804994F8CF0091ED29AABC
:1034B00080B9884881EE032A90ED001A51EE243A33
:1034C00020EEA11A41EE443A48EEE43A42EE403A88
:1034D00003EE8BAA744994F8D000D1ED2ACA48B9FA
:1034E00096ED011AC1EE031A21EE800A00EEC80A19
:1034F00040EE0BCA94ED2B0A84ED110A00F006FF92
:1035000094ED140AB5EEC00AF1EE10FA01DD0120C7
:1035100001E04FF0FF3094ED130AD6ED021A60EE91
:10352000680A94ED120A48EE400A00EE100AB8EE5E
:10353000C00A60EE800A94ED2C0AB0EE402A9FED9E
:10354000661A664921EE811A01EE200A10EE100A71
:103550009FED633A634BDFED642A884202DD30EE73
:10356000438A08E010EE100A984202D8B0EE6A8A48
:1035700001E030EE628AB5EEC08AF1EE10FA01D0B9
:10358000012000E00020B5EEC08AF1EE10FA02D270
:10359000B0EE6B1A11E0B5EEC08AF1EE10FA02DD62
:1035A000B0EE4C1A09E0B5EEC08AF1EE10FA02D185
:1035B000B0EE6A1A01E095ED001A61EEA11A10EE64
:1035C000102A61EEA08A8A4202DDB0EE430A05E0CD
:1035D00010EE101A994201D9B0EE620AD4ED110A28
:1035E000C4ED22CAC4ED239A84ED24AA84ED250AF1
:1035F00084ED269A002184F8CD1084ED279A40EEC0
:103600000B0A84F8CE10C4ED289A84F8CF1084ED0C
:1036100029AA84F8D01010EE901A344A9FED340A8B
:10362000C4ED2ACA914202DD30EEC00A06E0F5EE92
:10363000C00AF1EE10FA04D230EE800A84ED2B0AB3
:1036400001E0C4ED2B0AF5EEC08AF1EE10FA02D2C9
:10365000B0EE6B0A11E0F5EEC08AF1EE10FA02DD71
:10366000B0EE4C0A09E0F5EEC08AF1EE10FA02D194
:10367000B0EE6A0A01E095ED000A68B1FDEEC10AFC
:10368000BDEEC00A10EE900A41B210EE100A40B230
:10369000814201D1F0EE6A8A08EE8B2A84ED2C2A51
:1036A000BDEC0A8B70BD0000002400200401002046
:1036B000180100200000000000207D4400401C454F
:1036C000B400002017B7D13917B7D138FC0000205B
:1036D00000010020F8000020F4FDB43F7C5944456F
:1036E0007C5944457C5944C57C5944C5DB0FC940CD
:1036F000DB0FC9400348012100F8CD1F41708170E4
:10370000C1707047002400200C490D48D1ED130A08
:10371000D0ED001A0B4891ED140A20EEA12A90ED8D
:10372000001A094801EE402A20EE210A01EE200A83
:1037300080ED002A054880ED000A70470024002033
:10374000DC000020D0000020F8000020FC00002059
:103750002DE9F0438DB000240094019402942021BF
:1037600004A80394FCF76AFD45484449012501601B
:103770004FF480310561C0E90114047680F82040DF
:103780000903C1624FF00609C0F81C904FF01061A8
:10379000C460816280F830504461FEF7CAF808B115
:1037A00072B6FEE70095CDE9015469463448FDF74D
:1037B00079FF08B172B6FEE704274FF00208CDE9A1
:1037C000007869462E48FDF76DFF08B172B6FEE736
:1037D0000C200326CDE9000669462948FDF762FF63
:1037E00008B172B6FEE70D20CDE90007694624480E
:1037F000FDF758FF08B172B6FEE70E2000900520D5
:10380000019069461E48FDF74DFF08B172B6FEE70C
:103810000F20CDE9000969461948FDF743FF08B1BB
:1038200072B6FEE7CDE9044516480694CDE90A04D0
:103830008DF8255008968DF8244004A91048079467
:10384000FDF76CFD08B172B6FEE70B20CDE9040868
:1038500004A90B48FDF762FD08B172B6FEE70A2025
:10386000CDE9040604A90648FDF758FD002801D05B
:1038700072B6FEE70DB0BDE8F08300000020014005
:103880003C01002001000F00154808B5016841F413
:1038900080010160016801F480010091016841F438
:1038A000001101600068002200F400100090114631
:1038B0001020FEF761FC1020FEF750FC00220521CD
:1038C0001120FEF759FC1120FEF748FC002211469A
:1038D0003820FEF751FCBDE808403820FEF73EBC1A
:1038E0003038024030B587B014216846FCF7A6FC9A
:1038F00022480024016841F004010160016801F0E0
:1039000004010591016841F080010160016801F046
:1039100080010591016841F001010160016801F039
:1039200001010591016841F0020101600068144D38
:1039300000F0020005900122C0212846FEF7A6FBF8
:103940004FF4005000900F48CDE9010469460E483D
:10395000FEF7CCFAC02000900120CDE901046946B1
:1039600028460394FEF7C2FA002203212820FEF71E
:1039700003FC2820FEF7F2FB07B030BD30380240D0
:1039800000040240000021100008024070B59AB007
:10399000002414941594169414210FA81794FCF77E
:1039A0004DFC18941C2168461994FCF747FC202113
:1039B00007A8FCF743FC3E483C49C0E9001420211D
:1039C000816041F26801C0E903140121C0E90514D6
:1039D000FEF7B1FF08B172B6FEE74FF4805514A9A7
:1039E00033481495FFF789F808B172B6FEE73048FE
:1039F000FFF7A8FA08B172B6FEE70620CDE90F047A
:103A00000FA92B48FFF7D9FA08B172B6FEE7702666
:103A10008020CDE9186018A92548FEF737FF08B1C6
:103A200072B6FEE76020CDE900040294039404948A
:103A30000594002269461E480694FFF71BFA08B158
:103A400072B6FEE7042269461948FFF713FA08B177
:103A500072B6FEE7082269461548FFF70BFA08B16F
:103A600072B6FEE741F26700CDE900600C226946BC
:103A70000F48FFF7FFF908B172B6FEE74FF4006098
:103A80000790401008908010099066200A90CDE9B8
:103A90000B5407A906480E94FEF744FE08B172B60F
:103AA000FEE70348FFF748F91AB070BD0000014077
:103AB0008401002010B58AB000241F4800940194AE
:103AC00002940394049405940694079408944FF088
:103AD000804109940160D121C0E90114611EC160D7
:103AE0004FF4007184610161FEF725FF08B172B6E1
:103AF000FEE74FF48050009069460F48FEF7FDFF47
:103B000008B172B6FEE704940594069404A90A4825
:103B10000794FEF731FE08B172B6FEE75020CDE9FA
:103B2000080408A90448FEF7B1FE002801D072B6C7
:103B3000FEE70AB010BD0000C401002010B58EB031
:103B400000240794089409940A940B941C21684655
:103B50000C94FCF773FB23482149C0E90014202191
:103B6000816040F63401C0E903148461FEF7E3FE8E
:103B700008B172B6FEE74FF48050079007A91948C4
:103B8000FEF7BBFF08B172B6FEE71648FFF7DAF999
:103B900008B172B6FEE70B940BA912480C94FEF71D
:103BA00075FE08B172B6FEE7602000904FF4007019
:103BB000CDE90104002269460A480494FFF75AF946
:103BC00008B172B6FEE7042269460648FFF752F9CB
:103BD00008B172B6FEE70348FFF7AEF80EB010BDAD
:103BE000000400400402002030B593B000240C947F
:103BF0000D940E94142107A80F94FCF71FFB10944A
:103C00001C2168461194FCF719FB23482149C0E99F
:103C100000142021816041F26801C0E9031484612D
:103C2000FEF789FE08B172B6FEE74FF480500C90A3
:103C30000CA91948FEF761FF08B172B6FEE71648F5
:103C4000FFF780F908B172B6FEE70420CDE907045A
:103C500007A91148FFF7B1F908B172B6FEE7702560
:103C60008020CDE9105010A90B48FEF70FFE08B1D7
:103C700072B6FEE701200095CDE901040C226946E9
:103C800005480494FFF7F6F8002801D072B6FEE765
:103C900013B030BD000800404402002030B58DB0A4
:103CA00000240794089409940A940B941C216846F4
:103CB0000C94FCF7C3FA204D1E482860D120C5E9BA
:103CC0000104601EE8604FF40070AC612861284672
:103CD000FEF731FE08B172B6FEE74FF48050079050
:103CE00007A91548FEF709FF08B172B6FEE71248AA
:103CF000FFF7A4F808B172B6FEE70B940BA90E48C3
:103D00000C94FEF7C3FD08B172B6FEE7009401946F
:103D100002940022694608480494FFF763F808B14A
:103D200072B6FEE72868816941F0080181610DB033
:103D300030BD0000000C00408402002010B50820B7
:103D400001F010FC0D490320087048708870FDF7E1
:103D5000F1F8FDF7DBFA0A4800F1D80190ED0E0A00
:103D600081ED000A90ED0F0A81ED010A90ED100A35
:103D700081ED020ABDE81040FDF7C6BAC40000207C
:103D80000024002070B5FDF75FF8314C314E94ED02
:103D9000150A84ED000A94ED160A84ED010A94EDEB
:103DA000170A84ED020A94ED180A84ED030A3068BC
:103DB000807908B900F062FA274D94ED190A85ED73
:103DC000010A3068407908B9FDF792F8FDF79AFAD0
:103DD00094ED1A0A1E4885ED020A95ED040AD830C2
:103DE00084ED150A95ED060A84ED160A95ED050A8F
:103DF00084ED170A95ED030A84ED180A94ED0A0A7A
:103E000084ED190A94ED110A84ED1A0A94ED0E0A54
:103E100080ED000A94ED0F0A80ED010A94ED100A7E
:103E200080ED020A306831684079401CC0B24871A8
:103E30000021132801D930684171306832688079D7
:103E4000401CC0B29071632801D93068817170BD87
:103E50000024002004570008C4000020DFED060AFB
:103E600060EE200AC0ED000ADFED040A20EE200A11
:103E700081ED000A704700003ACD133F3ACD13BFE1
:103E8000DFED060A60EE200AC0ED000ADFED040A4D
:103E900020EE200A81ED000A70470000ABAA2A3FFD
:103EA000ABAA2ABF0D480C49D0ED001AD1ED130A78
:103EB0000B4891ED140A20EEA12A90ED001A094852
:103EC00001EE002A60EE810A41EEC00A80ED002A70
:103ED0000548C0ED000A70470024002000010020C2
:103EE00004010020D4000020D80000200CB52F4A87
:103EF0002F489FED302A92ED0D0AD0ED000A92F87E
:103F0000CC0070EE601A10B992F8CA0008B182EDC8
:103F1000212A294B294892ED211A93ED030A0178B1
:103F2000274800EE211A002990ED060A694601A8EB
:103F300002D0FFF7A5FF01E0FFF790FF9DED010A1A
:103F40002049B4EEC01AF1EE10FA06DC9DED000A2D
:103F5000B4EEC01AF1EE10FA02D281ED000A01E0CF
:103F600081ED001A92F8D40008B9F0EE421AD3EDB0
:103F7000020A92ED210A60EEA10ADFED131A00EEAB
:103F8000A10A82ED210A92F8CC0000B1012082F84A
:103F9000CA0091ED000AB4EE401AF1EE10FA01D118
:103FA000012000E0002082F8D4000CBD0024002095
:103FB000D8000020000000009400002064000020D1
:103FC000E4240020D000002017B7D1389C4890EDA1
:103FD000000ADFED9C0A9C4820EE200AD0ED000A82
:103FE000F5EEC00AF1EE10FA01DB012000E000203E
:103FF00030EE601AB5EEC01AF1EE10FA01DB0121C5
:1040000000E00021B1EE601A00EB410131EE400A00
:10401000B5EEC00AF1EE10FA01DB012000E000204D
:1040200001EB800000EE100A88494FF07E52F8EE56
:10403000402AF7EE003A12EE900A884202DDF1EED5
:10404000082A05E012EE900A904201DAF0EE632AA7
:104050007F48804990ED061A11EE100A9FED7E5AB6
:10406000884202DD9FED7D1A06E011EE100A7C49C0
:10407000884201DAB0EE451ADFED7A1ABDEEE24A67
:1040800081EE810A14EE100A9FED6E1A6C49FEEE65
:10409000004A0628D1ED001A6B4961EE811A91EDB4
:1040A000001A31EEC12A22EE243AB1EE412A32EE54
:1040B000612A62EE242A31EE612A31EE811A22EE63
:1040C000242A21EE241A1DD2DFE800F01C03080D7B
:1040D000121763EE001A22EE800A17E062EE801AD1
:1040E00020EEC00A12E062EE001A20EE800A0DE017
:1040F00060EEC01A23EE000A08E060EE801A21EE9E
:10410000000A03E061EE001A22EE000A71EE800A56
:1041100035EE601AB5EEC01AF1EE10FA09D821EEAC
:10412000851AC1EE201A83EEA01A61EE050A20EE70
:10413000800A75EE610AB5EE001AB6EE003A14EE8A
:10414000100A70EEC00A062820EE811AF0EE410A2D
:1041500041EE830A33D2DFE800F032030811182B56
:10416000F0EE601AB0EE412A0CE0B0EE602AF0EEFC
:10417000411A00EE032AB0EE601A0CE0F0EE411A8C
:10418000B0EE602A40EE030AF5E7F0EE601A40EE6A
:10419000031AB0EE602A344890F8CC10A1B101297E
:1041A00043D19FED320A80ED0E0A80ED0F0A44E004
:1041B000F0EE601AB0EE412A40EE031ADBE7F0EEB3
:1041C000601A40EE030AE4E7DFED292A2949DFED12
:1041D0002A0A21EEA20A10EE103A8B4202DDC0ED4F
:1041E0000E0A08E010EE103A934202DAC0ED0E3AE1
:1041F00001E080ED0E0A22EE220A10EE103A8B4208
:1042000002DDC0ED0F0A08E010EE103A934202DA28
:10421000C0ED0F3A01E080ED0F0A21EE220A10EE08
:10422000103A8B4202DDC0ED100A704710EE101AF2
:10423000914202DAC0ED103A704780ED100A7047E3
:10424000F8000020D7B3DD3FFC0000200000C04094
:10425000E42400200000964417B7D13800009644AB
:1042600017B7D138629E35390024002000000000C5
:10427000BE32A04C00388345003883451C491D4898
:1042800091ED001A91ED010AD1ED030A61EE001AD9
:1042900091ED020A40EE201AD0ED000A31EEE02A3C
:1042A000DFED151A42EE210AB0EE082AC0ED000A31
:1042B000DFED120A134861EE200A20EE801ADFEDCE
:1042C000100A00EE201A90ED000AF0EE400A51EEBE
:1042D000020A00EEA10A80ED000A0B48007F0128C7
:1042E00001D0012000E0002081F8CC0070470000E0
:1042F00000240020E00000200AD7A33B18B751B8E3
:10430000E46EAD3BE4000020E424002010B5144C22
:10431000144994ED110A10EE100A884202DD9FED57
:10432000120A06E010EE100A1049884201DA9FEDE9
:10433000100A40F6FF709FED0F1ADFED0F0A01F033
:10434000A1F80E4901EB800090ED000A00F58040D5
:1043500084ED130A90ED000A84ED120A10BD0000EE
:1043600000240020090FC940090FC94017B7D138F0
:1043700017B7D1386C1CC93A000000000857000874
:1043800010B5144C144994ED0C0A10EE100A884232
:1043900002DD9FED120A06E010EE100A1049884275
:1043A00001DA9FED100A40F6FF709FED0F1ADFED66
:1043B0000F0A01F067F80E4901EB800090ED000A4A
:1043C00000F5804084ED130A90ED000A84ED140A94
:1043D00010BD000000240020090FC940090FC9408A
:1043E00017B7D13817B7D1386C1CC93A0000000094
:1043F000085700082848294A90ED000AD2ED080A1B
:1044000092F8D30070EE600A9FED250A10B1B0EE6D
:10441000601A01E0B0EE401A92F8CC0010B992F8A0
:10442000C91021B382ED1B0A1E4B82ED090AF0EE82
:10443000401A93ED052A02EE200AD3ED060AF4EEA7
:10444000C00AF1EE10FA08D3D3ED070AF4EEC00A61
:10445000F1EE10FA01DCF0EE400A1349B4EE600A06
:10446000F1EE10FAC1ED000A04D1012103E092ED52
:104470001B0AD9E7002182F8D31093ED040ADFED7F
:104480000B0A20EE010A40EE201AC2ED1B1A00B101
:10449000012082F8C9007047E42400200024002095
:1044A0000000000094000020F40000206F12033B85
:1044B000024890ED090A80ED1B0A70470024002095
:1044C000034890ED010A034880ED000A70470000A0
:1044D000E4240020F4000020401EB0F1807F01D3CE
:1044E000012070474FF0E0214861054AF02082F832
:1044F000140D00208861072008610020704700002B
:104500000FE000E00348016811B10168491E016035
:10451000FDF7C8BD0400002030B593B030216846D7
:10452000FBF78CFE14210CA8FBF788FE1D48002524
:10453000016841F080510160006800F080501190E6
:104540001948016821F4404141F4004101600068CC
:10455000022400F4404011900120039010200490A8
:10456000009406940820CDE907505420CDE90904B1
:1045700004200B906846FDF71BFF08B172B6FEE7FA
:104580000CA90F2081E831004FF48050CDE90F05D0
:1045900002210CA8FDF722FE002801D072B6FEE72A
:1045A00013B030BD4038024000700040054801683B
:1045B00041F47001016003494FF0006080390860E8
:1045C0007047000088ED00E00148FEF702BB0000E4
:1045D000840100200148FEF7FCBA0000840100209D
:1045E00070B51B48FEF7F5FA4FF400411948FDF786
:1045F00041FD194C194D0821A0702846FDF73AFDE0
:10460000E07029152846FDF735FD2071A378E5787F
:1046100004F10C0643EA450141EA80012170627809
:10462000B154521CD1B20E4A617002F8243F557049
:1046300090700C480068406A062900EE100AB8EE37
:10464000400A02ED010A01D30020607070BD000035
:10465000C4010020000002403E000020000402408F
:10466000E42400208402002010B5224C2068FBF7CF
:1046700078FF9FED211B53EC112BFBF791FEFBF70D
:10468000A9FF1F49DFED200ADFED1E1A086094ED37
:10469000010A1E491E4AB8EE401AB0EE600A01EE49
:1046A000210A10EE100A81ED000A904201DAC1EDF4
:1046B000000A184A00211088401C00B21080B0F592
:1046C000FA5F00DD1180144A1088401C00B210808F
:1046D000B0F5487F00DD1180104A1088401C00B200
:1046E0001080A02800DD1180BDE810400C48FEF7C6
:1046F00070BA00006803002093C83EC8B260923FC1
:1047000018000020083DEB3E000048443400002023
:104710000000484412000020100000201400002077
:104720000402002010B580210348FDF7A8FCBDE875
:1047300010400248FEF74DBA0004024084020020F7
:10474000F0B502681D4C1E4D1E4E1F4F4FF0804CA1
:10475000A04207D0604505D0A84203D0B04201D0A6
:10476000B84203D122F070034A681A43A04210D025
:1047700060450ED0A8420CD0B0420AD0B84208D052
:10478000124B984205D0124B984202D0114B9842DE
:1047900003D122F44073CA681A434B6922F08002A5
:1047A0001A4302608A68C2620A688262A04201D12A
:1047B0000969016301214161F0BD00000000014071
:1047C0000004004000080040000C00400040014090
:1047D000004401400048014010B501F01F010123D1
:1047E000046A8B409C430462036A8A401343036259
:1047F00010BD10B501F01F010423046A8B409C43D7
:104800000462036A8A401343036210BD10B58468D2
:1048100042EA032224F47F440A432243826010BD0B
:10482000826822F070020A4342F0070181607047FB
:1048300030B5026A22F001020262036A42688469AA
:1048400024F073050C682C4323F002058B682B437E
:104850000C4DA84206D123F00805CB6843EA0503B6
:1048600023F0040307D14D6922F4407245EA0205A2
:104870008A6942EA050242608461496841630362D1
:1048800030BD00000000014030B5026A22F0100285
:104890000262026A436884690D6824F4E64444EACB
:1048A00005248D6822F0200242EA05120C4DA84230
:1048B00006D1CD6822F0800242EA051222F04002C1
:1048C00007D14D6923F4406343EA85038D6943EAC8
:1048D00085034360846149688163026230BD0000E2
:1048E0000000014030B5026A22F480720262036A5D
:1048F0004268C46923F4007324F073050C682C43E8
:104900008D6843EA05230C4DA84206D1CD6823F4F7
:10491000006343EA052323F4806307D14D6922F441
:10492000405242EA05128D6942EA05124260C461B2
:104930004968C163036230BD0000014030B5026ABE
:1049400022F480520262036A4268C4690D6824F44A
:10495000E64444EA05248D6823F4005343EA053312
:10496000064DA84204D14D6922F4804242EA8512E4
:104970004260C46149680164036230BD00000140C7
:1049800010B50268936823F070044B68234323F04A
:1049900007040B68234393604A6812F00F0F30D16D
:1049A0001211082A2DD2DFE802F02C2C2C2C0B211E
:1049B00027040B69D1E902210068FFF727FF20E0F7
:1049C0000A68052A10D00268146A136A23F00103EA
:1049D000136202689369096923F0F00343EA011145
:1049E0009161006804620CE0012010BD0A698968C9
:1049F000006800F008F804E00A698968006800F0BF
:104A000049F8002010BD10B5046A036A23F00103C1
:104A10000362836923F0F00343EA021324F00A02DD
:104A20000A438361026210BD70B5046A24F0010478
:104A300004628469056A124EB0420ED0B0F1804F14
:104A40000BD0104EB04208D00F4EB04205D00F4EE2
:104A5000B04202D00E4EB04203D124F003041443FE
:104A600001E044F001041A0724F0F00444EA126261
:104A700025F00A0301F00A0119438261016270BD49
:104A8000000001400004004000080040000C00400D
:104A90000040014010B5036A23F0100303628469EB
:104AA000036A24F4704444EA023223F0A00343EA88
:104AB00001118261016210BD10B5806B0021C185BA
:104AC000C184FEF7A4FA10BD70B5846B20684069FC
:104AD00094F83910C0F3C0100025212904D118B171
:104AE000E584204600F062F82068406994F83A10A6
:104AF000C0F38010222904D118B1E585204600F0CA
:104B000047F8E06B40F01000E0632046FEF77FFAC4
:104B100070BD10B50146806B09680968C90513D4DA
:104B20000021C1850168CA6822F48072CA600168E8
:104B30004A6922F001024A6101684A6922F0400292
:104B40004A61202180F83A10FEF7DCFB10BD10B559
:104B5000806BFEF7D8FB10BD10B50146806B09686D
:104B60000968C9050CD40021C18401684A6922F092
:104B700080024A610068C16841F04001C16010BD17
:104B8000FEF702FC10BD10B5806BFEF7FEFB10BDFA
:104B90000168CA6822F49072CA6001684A6922F00A
:104BA00001024A61202180F83A1070470168CA6802
:104BB00022F0C002CA60202180F83910704710B579
:104BC00090F83A10222901D0022010BD8168B1F579
:104BD000805F11D00169002901681FD0496801F088
:104BE0007F03816A4A1C82620B70C18D491E0904D1
:104BF000090CC18518D02BE00269816A002A02687D
:104C0000526805D0D2B20A80816A491C8162ECE701
:104C1000C2F308020A80816A891CF7E74A68816A40
:104C20004B1C83620A70E0E70168CA6822F0200228
:104C3000CA600168CA6822F48072CA6001684A6961
:104C400022F001024A61202180F83A10FEF75AFB57
:104C5000002010BD2DE9F041044600680169E268BA
:104C600021F4405111430161A1682069E2690143C7
:104C70006069104301432068C26849F20C639A439B
:104C80000A43C26020684169A26921F4407111435E
:104C90004161E069192764253226B0F5004F354A95
:104CA000354920684FF0000806D0884201D0904274
:104CB00036D1FDF73DFB35E0884201D0904202D16C
:104CC000FDF736FB01E0FDF723FB61684A18A0FB06
:104CD000070148EB0803FBF779FA0146B0FBF5F052
:104CE0000201B1FBF5F06FF01803584301EB8000AF
:104CF00006EBC000B0FBF5F000F0F80002EB40025C
:104D0000B1FBF5F0584301EB800006EBC000B0FBAF
:104D1000F5F000F00700216810448860BDE8F081DC
:104D2000FDF7F6FA01466068830F8200A1FB0701D8
:104D3000FBF74CFA0146B0FBF5F06FF01802504358
:104D400001EB800006EB0010B0FBF5F000F0F00284
:104D5000B1FBF5F002EB0012B1FBF5F06FF01803B8
:104D6000584301EB800006EB0010B0FBF5F000F0BB
:104D70000F00D0E7001401400010014090F83910F6
:104D8000212901D0022070478168B1F5805F016A56
:104D90000BD04A1C0262026809785160C18C491E1E
:104DA0000904090CC1840ED017E009880268C1F318
:104DB0000801516001690029016A02D0491C0162A1
:104DC000ECE7891CFBE70168CA6822F08002CA6030
:104DD0000068C16841F04001C160002070470000D8
:104DE00010B50C48FEF714F90A4C20680068C0435F
:104DF000C0060DD40C2208490848FCF7ABFE0E2271
:104E000005492046FEF732FA21686FF0100008606D
:104E100010BD0000C4020020040300200800002090
:104E20002DE9F0474C4C00254C4BE1884C48DFF80D
:104E300034C1DFF834810126F2EE040ADFED4B2A9B
:104E4000DFF82C91DFF82CA19FED4B3A90ED000A92
:104E50004A4A202720EE200A106BBDEEC02A9CEDA6
:104E6000000A20EE200AFDEEC01A98ED000A20EE9E
:104E7000220ABDEEC01A99ED000A20EE220AFDEECC
:104E8000C00A9AED000A20EE030ABDEEC00AE9B39B
:104E9000A1F5407CBCF1E70C1ED0491CE18012EE6C
:104EA000101A198011EE901A598011EE101A99807B
:104EB00010EE901AD98010EE101A198180F8345033
:104EC00082F83970106B80F835600A22BDE8F0472F
:104ED00022492A48FEF718BA12EE101A198011EE6C
:104EE000901A598011EE101A998010EE901AD980FC
:104EF00010EE101A198122A10988598180F83450C6
:104F000082F83970106B80F8356000E007E00C2201
:104F100012491A48FEF7F8F9E580BDE8F08719A1B3
:104F2000E6800988198012EE101A598011EE901A45
:104F3000998011EE101AD98010EE901A198110EE96
:104F4000101A598180F8345082F83970106B80F84B
:104F500035600C22BAE700003E000020A0040020CB
:104F6000EC000020C8000020E800002000007A4487
:104F7000CC0000201C0000200000C842C402002019
:104F800042420000414100000907090E002804DBED
:104F900000F1E02080F80014704700F00F0000F1ED
:104FA000E02080F8141D70472DE9F0412DED020B33
:104FB0009FED3D0B2DED028B9FED3D8BDDE9025406
:104FC000C4F30A50A0F2FF36142E37DA002E18DA96
:104FD00053EC102B9DED020B51EC100BFBF739F944
:104FE00053EC182BFBF700FC57D2002CBCBF4FF042
:104FF0000044002551DB54EA050018BF2E4C1BD19C
:105000004BE02E4820FA06F704EA070028431FD099
:1050100053EC102B9DED020B51EC100BFBF719F923
:1050200053EC182BFBF7E0FB37D2002C03DD4FF4D9
:105030008010F0400444BC4300252EE0332E07DCF2
:10504000A6F114004FF0FF3121FA00F73D4206D1DE
:105050009DED020BBDEC028B02B0BDE8F08153EC7C
:10506000102B9DED020B51EC100BFBF796F953EC56
:10507000182BFBF7B9FB10D2002C0DDD142E08BF46
:10508000641C09D0C6F13400012101FA00F0284463
:10509000A84238BF641C0546BD43CDE902549DEDCE
:1050A000020BD7E7000000009C7500883CE4377EC7
:1050B00000000000000000000000F03FFFFF0F00B4
:1050C00010EE100AC0F3C7517F391729A8BF7047E7
:1050D000DFED140A002970EE200A0DDAF5EEC00AA1
:1050E000F1EE10FA1ADD0028A8BF002016DAB0F1A0
:1050F000004F18BF0C4811E00C4ACA40104208BFCC
:105100007047F5EEC00AF1EE10FA07DD002804DA68
:105110004FF4000323FA01F10844904300EE100A13
:1051200070470000CAF24971000080BFFFFF7F0096
:1051300010B52DED028BF0EE408A18EE900AB0EE1D
:10514000608A20F00040C0F1FF40C00F07D118EE88
:10515000100A20F00040C0F1FF40C00F2BD018EE25
:10516000101A18EE900AFBF7B9FA00EE100A10EECA
:10517000100A6FEAD05010F0FF0F04BFBDEC028B95
:1051800010BD18EE900A00F0004110EE100A00F079
:105190000040814204BFBDEC028B10BD18EE101A16
:1051A00010EE100ABDEC028B61F31E0000EE900AB7
:1051B00030EE600A10BD18EE900A4FF07F41B1EB5F
:1051C000400F1CBF18EE100A5FEA4000C7D1012053
:1051D00000F01EF8BDEC028BBDE81040AFF300807C
:1051E000DFED020A80EEA00A704700000000000018
:1051F00002E008C8121F08C1002AFAD170477047A0
:10520000002001E001C1121F002AFBD170470000FD
:105210000149086070470000380100202DED028B25
:10522000FCF748FFFFF778F9FEF75CFBFEF72CFB75
:10523000FEF78EFA8B4C8A480C2120608A48606009
:105240000020A060E060C4E90401A061E0612046A4
:10525000FDF768FF08B172B6FEE7FEF797FBFEF7B1
:105260006DFCFEF727FCFEF7BFFCFEF717FD80483C
:105270007E490160FCF785FC08B172B6FEE779490A
:105280000622A431A1F50B70FCF7E2FB7948FCF78C
:1052900041F97848FCF7A0F9764D483595F83D007E
:1052A0000228FBD0734800214830FDF769FE7148A1
:1052B00000214830FDF728FB95F83D000228FBD07F
:1052C0006C4804214830FDF75BFE6A4804214830F1
:1052D000FDF71AFB95F83D000228FBD06548082130
:1052E0004830FDF74DFE634808214830FDF70CFBC0
:1052F00060484830FDF7F0FB2868016841F0010183
:1053000001605C4800218830FDF7FEFA594888307A
:105310000068016841F00101016056488830FDF7DE
:105320009DFA54488830FDF786FA4E480C218038A3
:10533000FDF7EAFA4B480C218038FDF721FE494879
:1053400080380068016841F0010101604548002192
:105350004038FDF7D9FA434800214038FDF710FEE8
:10536000404840380068016841F0010101603D4853
:105370004038FDF7B1FB3B48C03890F83D1002299A
:10538000FBD038480021C038FDF7FAFD3548002130
:10539000C038FDF7B9FA95F83D000228FBD0314836
:1053A0000421C038FDF7ECFD2E480421C038FDF77C
:1053B000ABFA2C48C038FDF78FFB2A490E2240314A
:1053C0002848FDF753FF2068C16841F01001C16013
:1053D0002068C16821F04001C160274E3068FBF7AA
:1053E000C0F89FED268B53EC182BFBF74BF8FBF71F
:1053F000C5F8FFF771F81E4C083C40B3012020604F
:1054000005063068FBF7ADF80F4606462068401CDD
:10541000206047EC106B53EC182B51EC100BFBF792
:1054200031F8FBF7ABF82168B0FBF1F0A842EDD200
:1054300047EC106B53EC182B51EC100BFBF722F8D8
:10544000FBF79CF82168B0FBF1F0FFF745F8FEF799
:1054500075FC60680028FCD120686060F9E70000F6
:1054600000440040C4020020B0710B000030024034
:10547000080000203C0100205C000020000000002B
:1054800000408F40B4EEE00AF1EE10FA01D800209F
:105490007047B7EE002A30EE600AC2EE011A00EE45
:1054A000900AF8EE600A21EE800AB4EEE00AF1EE0E
:1054B00010FAEDD2BCEEC00A10EE100A70470000E0
:1054C0001CB503480190002000909DED000B1CBD11
:1054D0000000F07F4FF0FF4000EE100A7047000020
:1054E0001CB503480190002000909DED000B1CBDF1
:1054F0000000F0FF014800EE100A7047000080FF36
:105500001CB503480190002000909DED000B1CBDD0
:105510000000F8FF014800EE100A70470000C0FFCD
:105520000948D0ED000AB4EE600AF1EE10FA06D098
:10553000D0ED010AB4EE600AF1EE10FA01D10120BB
:1055400070470020704700001001002010EE100A84
:10555000C0F3C751FF2903D1400201D00120704799
:105560000020704710B5FFF7CBFF0C4C84ED080B03
:10557000FFF7D0FF84ED020AFFF7A2FF84ED040BD2
:10558000FFF7A8FF84ED000AFFF7AAFF84ED060BE2
:10559000FFF7B0FF84ED010A10BD000010010020EC
:1055A00010B52DED068BF0EE608AB0EE409AF5EE68
:1055B000C08AB0EE498AF1EE10FA05D1B5EEC09A74
:1055C000F1EE10FA34D082E0B0EE490AFFF7BEFFE8
:1055D00048B9B0EE680AFFF7B9FF20B9B0EE490A42
:1055E000FFF79EFF18B13C4890ED008A6FE09FEDF9
:1055F0003BAAB5EEC09AF1EE10FA02D18AEE288AE3
:1056000065E0B0EE680AFFF78BFFA0B1F5EEC08A47
:10561000F1EE10FA01D2012000E00020B5EEC09AB0
:10562000F1EE10FA01D2012100E0002188424ED0B3
:10563000B0EE688A4BE0F0EE680AB0EE490AFFF778
:1056400077FDB0EE408AB5EEC08AF1EE10FA01D1D6
:10565000012000E0002018BBB0EE680AFFF730FD23
:10566000B4EEE80AF1EE10FA1DD289EE280AF0EE47
:10567000C09AB6EE000A39EE800AFFF721FDDFED91
:10568000180A39EEC00A69EEA00AB0EEC00AB4EEFC
:10569000E00AF1EE10FA01D8012000E0002010B17C
:1056A000B0EE4A8A13E0B5EEC09AF1EE10FA01D2DC
:1056B000012000E00020F5EEC08AF1EE10FA01D2E0
:1056C000012100E00021884201D038EE288AB0EEA6
:1056D000480ABDEC068B10BD180100200000000038
:1056E000000000340006101600061016000000002E
:1056F0000000000001020304060708090000000082
:1057000001020304080100200000803FB1FF7F3F39
:1057100062FF7F3F13FF7F3FC4FE7F3FD7FD7F3F88
:10572000EAFC7F3FFEFB7F3F11FB7F3F86F97F3F17
:10573000FBF77F3F70F67F3FE6F47F3FBDF27F3F90
:1057400094F07F3F6CEE7F3F43EC7F3F7CE97F3FEF
:10575000B6E67F3FEFE37F3F29E17F3FC4DD7F3F38
:1057600060DA7F3FFCD67F3F97D37F3F95CF7F3F67
:1057700093CB7F3F91C77F3F8EC37F3FEFBE7F3F7D
:105780004FBA7F3FAFB57F3F0FB17F3FD1AB7F3F78
:1057900093A67F3F56A17F3F189C7F3F3D967F3F5A
:1057A00061907F3F868A7F3FAA847F3F317E7F3F23
:1057B000B8777F3F40717F3FC66A7F3FB0637F3FCE
:1057C000995C7F3F83557F3F6C4E7F3FB8467F3F5C
:1057D000043F7F3F50377F3F9C2F7F3F4B277F3FCA
:1057E000F91E7F3FA8167F3F560E7F3F68057F3F1B
:1057F00079FC7E3F8AF37E3F9BEA7E3F0FE17E3F4E
:1058000083D77E3FF7CD7E3F6BC47E3F42BA7E3F5B
:1058100019B07E3FF0A57E3FC69B7E3F00917E3F44
:105820003A867E3F747B7E3FAD707E3F4A657E3F09
:10583000E7597E3F844E7E3F21437E3F21377E3FA6
:10584000212B7E3F211F7E3F21137E3F84067E3F1A
:10585000E7F97D3F4AED7D3FADE07D3F74D37D3F6D
:105860003BC67D3F01B97D3FC8AB7D3FF29D7D3F8B
:105870001C907D3F46827D3F70747D3FFE657D3F7D
:105880008C577D3F1A497D3FA83A7D3F992B7D3F3C
:105890008B1C7D3F7D0D7D3F6EFE7C3FC4EE7C3FCB
:1058A00019DF7C3F6FCF7C3FC4BF7C3F7EAF7C3F26
:1058B000379F7C3FF18E7C3FAB7E7C3FC86D7C3F49
:1058C000E65C7C3F044C7C3F223B7C3FA4297C3F30
:1058D00027187C3FA9067C3F2BF57B3F12E37B3FDB
:1058E000F9D07B3FE0BE7B3FC6AC7B3F129A7B3F4B
:1058F0005E877B3FA9747B3FF5617B3FA54E7B3F75
:10590000563B7B3F07287B3FB7147B3FCD007B3F57
:10591000E2EC7A3FF8D87A3F0DC57A3F88B07A3FFB
:10592000049C7A3F7F877A3FF9727A3FDA5D7A3F4B
:10593000BA487A3F9B337A3F7B1E7A3FC1087A3F51
:1059400008F3793F4EDD793F94C7793F40B1793F05
:10595000EC9A793F9884793F446E793F5657793F66
:105960006940793F7B29793F8D12793F06FB783F6B
:105970007EE3783FF7CB783F6FB4783F4F9C783F1A
:105980002E84783F0D6C783FEC53783F323B783F64
:105990007822783FBE09783F04F1773FB1D7773F4F
:1059A0005EBE773F0BA5773FB88B773FCD71773FD2
:1059B000E157773FF53D773F0924773F8509773FEA
:1059C00001EF763F7DD4763FF9B9763FDD9E763F95
:1059D000C183763FA468763F884D763FD431763FC9
:1059E0001F16763F6BFA753FB7DE753F6BC2753F8A
:1059F0001FA6753FD389753F876D753FA450753FCE
:105A0000C133753FDD16753FFAF9743F7FDC743F93
:105A100005BF743F8BA1743F1084743FFF65743FD2
:105A2000EE47743FDD29743FCB0B743F23ED733F8A
:105A30007CCE733FD4AF733F2C91733FEE71733FB5
:105A4000B052733F7233733F3414733F60F4723F4C
:105A50008CD4723FB8B4723FE494723F7A74723F50
:105A60001054723FA733723F3D13723F3EF2713FB5
:105A70003FD1713F40B0713F418F713FAD6D713F7C
:105A8000194C713F862A713FF108713FC9E6703F9A
:105A9000A0C4703F78A2703F4F80703F925D703F0E
:105AA000D53A703F1818703F5BF56F3F0AD26F3FD1
:105AB000B9AE6F3F688B6F3F16686F3F32446F3FE0
:105AC0004D206F3F69FC6E3F84D86E3F0CB46E3F33
:105AD000948F6E3F1C6B6E3FA3466E3F98216E3FC6
